:020000040800F2
:1000000068420120C3030008E9020008EB0200086F
:10001000ED020008EF020008F102000800000000F5
:10002000000000000000000000000000F3020008D3
:10003000F50200080000000011CB0008FFCA00080C
:10004000FB020008FD020008FF020008010300088F
:100050000303000805030008FD4C0008454D000897
:100060008D4D0008D54D00081D4E0008AD2C000830
:10007000812D0008592E0008312F00080930000892
:10008000DD300008B5310008490B000821030008E5
:10009000E10C00082503000827030008654E00084E
:1000A000CD880008198400089D8900089184000803
:1000B000DD84000865850008ED8500083903000827
:1000C0003B0300083D0300083F030008410300080C
:1000D00043030008D58E00082D8F0008858F000887
:1000E000C54F00084D0300084F030008258A00088B
:1000F0000D880008F58A0008570300088D320008B3
:100100005B0300085D0300087586000861030008B2
:10011000DD8F000865030008FD860008858700085C
:10012000653300083934000811350008E935000846
:10013000C13600087503000877030008790300083A
:10014000850D00087D0300087F030008F99300086F
:10015000953700086D380008453900088903000804
:100160008B0300088D0300088F030008910300082B
:10017000930300080994000897030008000000009A
:10018000990300089B0300089D0300089F030008D3
:10019000A1030008A3030008A5030008A7030008A3
:0C01A000A9030008AB030008B13B0008F5
:1001AC00304931480A1A02D0072291438D462F4913
:1001BC002F480A1A06D00722914381F3098802229C
:1001CC0082F314882B482C492C4A00F03AF82C481E
:1001DC002C492D4A00F035F82C482D492D4A00F0B9
:1001EC0030F82D482D492E4A00F02BF82D482E4979
:1001FC002E4A00F026F82E482E492F4A00F021F8FE
:10020C002E482F492F4A00F01CF82F482F49002266
:10021C0000F022F82E482F49002200F01DF81F484C
:10022C001F49884205D00268043003B4904703BCD0
:10023C00F7E700208646EC4600200021264A90472E
:10024C00FEE7884207D0521A05D0037801300B70B4
:10025C000131013AF9D17047884202D00270013065
:10026C00FAE7704768420120683A0120684A012089
:10027C006842012040F900080000002054130020BF
:10028C00D0030008D003000860E8000840F900081B
:10029C00000000200000002060E8000860E8000872
:1002AC00BCE8000860E8000860E8000860E80008A6
:1002BC00BCE80008BCE8000840F90008940C0108F0
:1002CC00583A0120583A012054130020583A012082
:1002DC00583A0120583A012081070008FEE7FEE752
:1002EC00FEE7FEE7FEE7FEE7FEE7FEE7FEE7FEE7DA
:1002FC00FEE7FEE7FEE7FEE7FEE7FEE7FEE7FEE7CA
:10030C00FEE7FEE7FEE7FEE7FEE7FEE7FEE7FEE7B9
:10031C00FEE7FEE7FEE7FEE7FEE7FEE7FEE7FEE7A9
:10032C00FEE7FEE7FEE7FEE7FEE7FEE7FEE7FEE799
:10033C00FEE7FEE7FEE7FEE7FEE7FEE7FEE7FEE789
:10034C00FEE7FEE7FEE7FEE7FEE7FEE7FEE7FEE779
:10035C00FEE7FEE7FEE7FEE7FEE7FEE7FEE7FEE769
:10036C00FEE7FEE7FEE7FEE7FEE7FEE7FEE7FEE759
:10037C00FEE7FEE7FEE7FEE7FEE7FEE7FEE7FEE749
:10038C00FEE7FEE7FEE7FEE7FEE7FEE7FEE7FEE739
:10039C00FEE7FEE7FEE7FEE7FEE7FEE7FEE7FEE729
:1003AC00FEE7054885460CF021FA04480449016033
:1003BC00FFF7F6BE7047FEE70000032008ED00E0F3
:0403CC000000000825
:1003D00000B5CFB002AB0E4A184611464FF49873E1
:1003E0001A460DF0CEF902A900230093022326221B
:1003F000084805F071F90121074801F091FD074A0D
:100400000121074807F0E2F900BF4FB05DF804FB97
:10041000BCE8000870190020E6150020F0F800087C
:10042000841B002000B589B0002301220D21AF48B4
:1004300005F0A7F9002301220E21AC4805F0A1F92F
:1004400000230093022305220721A94805F00EF995
:1004500000230093022305220921A54805F006F98F
:100460000121A44804F0E7FBA34807F0FEFD0121A9
:10047000A04804F0F4FB002300930223092200218A
:100480009E4805F0F3F80023009302230E220B216F
:100490009B4805F0EBF80023009302230E220C2169
:1004A000974805F0E3F80023009302230922012175
:1004B000924805F0DBF80023009302230E22062168
:1004C0008A4805F0D3F80023009302230E22062168
:1004D0008B4805F0CBF800230093022309220A2160
:1004E000824805F0C3F80023009302230E220A215C
:1004F000824805F0BBF80023009302230E220B2153
:100500007E4805F0B3F80023009302230E22072152
:100510007C4805F0ABF80023009302230E22032150
:10052000794805F0A3F80023009302230E220B2143
:100530006E4805F09BF800230093022309220C214A
:100540006A4805F093F80023009302230E2203214A
:100550006B4805F08BF80023009302230E2208213C
:10056000664805F083F80023009302230E22092138
:10057000624805F07BF80023009302230E22042139
:100580005F4805F073F80023009302230E22062132
:100590005C4805F06BF80023009302230E220A2129
:1005A000534805F063F80023009302230E2207212D
:1005B0004E4805F05BF8002302220221514805F065
:1005C000E0F8002302220D214F4805F0DAF84F4AE7
:1005D00006AB92E8030083E803004D4A04AB92E8BF
:1005E000030083E8030004AB06AA434949480BF023
:1005F0002FFF0121484804F01EFB46480CF0F4F898
:1006000003461946444805F057FE0121424804F0CC
:1006100026FB0121414804F00EFB404803F095FA07
:1006200001213E4804F01BFB012300930123042217
:100630000821334805F01AF801230093012304220E
:100640000921304805F012F80121354804F0F3FA89
:100650000021344805F004FA0121314804F0FFFA82
:10066000314A02AB92E8030083E8030002AB1A466A
:100670002C492E480BF0C2FD40F6426300934FF424
:10068000FA7340F2B2224FF4576128480CF074F923
:100690004FF4A072F02125480CF082F9002300935A
:1006A000002307220921164804F0E0FF00230093ED
:1006B000002307220A21124804F0D8FF01211C4818
:1006C00004F0B9FA01211A4804F0C9FA4FF4007293
:1006D0004FF41651174808F0C2FC0121144804F0E9
:1006E000BEFA00BF09B05DF804FB00BF181A002075
:1006F000FC190020A01C00208C1C00208C1900205C
:1007000070190020A8190020C4190020ECE9000885
:10071000F4E9000854130020401B0020DC180020DE
:10072000201B00200C1B0020FCE90008681300209F
:10073000DC220020C822002000B583B00190009187
:10074000019B012B0AD1009B4FF6FF72934205D10A
:1007500004480BF0CDFD04480BF0FFFB00BF03B0D5
:100760005DF804FB541300206813002008B54FF611
:10077000FF710120FFF7E0FF08BD00BF70470000D8
:1007800010B5CCB044AB18460DF082FD0DF074FAF4
:10079000FFF748FE5C200DF0FEF903461C4620469C
:1007A0000AF028FD3E4B1C603D4B1B6818463C4B35
:1007B0001B681B6820331C68002300220021A0470F
:1007C0002EAB18460BF0F0F82EAB642264211846CD
:1007D0000BF060F82EA80023FF2200210AF08EF80B
:1007E000304B1B6846932EAB469918460BF0EEF83B
:1007F00044AB18460DF05BFD17AB184609F046FCFC
:10080000294B1A6847AB114618460AF033FB17AC60
:100810006A464AAB93E8030082E8030047AB0ECB7D
:10082000204609F05AFA17AB2049184609F087FF0D
:1008300017AB1E22322118460BF02CF817AB1C49BF
:10084000184609F073FF03AB18460BF095FA03AB9B
:100850000022002118460BF0FFFA03ABC82200214A
:1008600018460AF099FF0E4B1B682EAA114618462F
:100870000AF0E6FD0A4B1B6817AA114618460AF053
:10088000DFFD074B1B6803AA114618460AF0D8FD86
:10089000034B1B6818460DF073F80CF05AF9FCE78F
:1008A000A81300200CEA00080413002004EA000842
:1008B0007B07000800B583B001900091019B012BDC
:1008C00007D1009B4FF6FF72934202D103480CF010
:1008D00055F900BF03B05DF804FB00BFAC13002066
:1008E00008B54FF6FF710120FFF7E4FF08BD0000D7
:1008F00082B003468DF807309DF80730002B06D0F4
:10090000074B5B6C064A43F48073536405E0044B69
:100910005B6C034A23F48073536400BF02B07047DA
:100920000038024000B583B003468DF807309DF8CB
:1009300007301946034806F043FA00BF03B05DF8DC
:1009400004FB00BF581B002082B003468DF807301F
:100950009DF80730002B06D0074B5B6C064A43F42A
:100960000073536405E0044B5B6C034A23F400738B
:10097000536400BF02B070470038024000B583B036
:1009800003468DF807309DF807301946034806F0F6
:1009900027FA00BF03B05DF804FB00BF581B00201E
:1009A00082B003468DF807309DF80730002B06D043
:1009B000074B5B6C064A43F48063536405E0044BC9
:1009C0005B6C034A23F48063536400BF02B070473A
:1009D0000038024000B583B003468DF807309DF81B
:1009E00007301946034806F00BFA00BF03B05DF864
:1009F00004FB00BF581B002000B587B00390029194
:100A00000192009303980023009A019904F0FAF8E8
:100A1000039B029A5A61039B002283F86020039B88
:100A2000002283F8972000230593059B112B1BDCE4
:100A3000039A059B1344733300221A70039B059A93
:100A40000632002143F82210039A059B13446133B8
:100A500009221A70039A059B134485330F221A70DA
:100A6000059B01330593E0E7039B184607B05DF84B
:100A700004FB86B00190019B5B69DB6CDB04059392
:100A8000019B93F860301A46019B134493F873302E
:100A90008DF813309DF81320019B063253F8223055
:100AA000059AD31A0393019B93F860301A46019B71
:100AB000134493F861301A46039B134103939DF846
:100AC0001320019B063253F822109DF81320039B3C
:100AD0001944019B063243F82210019B93F86030C1
:100AE0000133DAB2019B83F86020019B93F8602008
:100AF000019B93F897309A4203D3019B002283F81D
:100B00006020019B5B695A6B019B5B6922F01F02AD
:100B10005A63019B5B695A6B019B93F860301946DD
:100B2000019B0B4493F873301946019B5B690A43A0
:100B30005A63019B5B699A68019B5B6942F0804242
:100B40009A6000BF06B0704708B5234B5B6803F09E
:100B50002003002B07D0204B1B6803F00203002B5F
:100B600001D0012300E00023002B05D01A4B002206
:100B70001A601A48FFF77DFF194B5B6803F02003EA
:100B8000002B07D0164B1B6803F00203002B01D08B
:100B9000012300E00023002B05D0114B00221A6036
:100BA0001048FFF766FF104B5B6803F02003002B33
:100BB00007D00D4B1B6803F00203002B01D001236B
:100BC00000E00023002B05D0074B00221A600748E5
:100BD000FFF74FFF00BF08BD00200140B413002005
:100BE000002101404C14002000220140E4140020A8
:100BF00000B583B001900091019B012B16D1009BA1
:100C00004FF6FF72934211D10A4B0B4A0B490C4825
:100C1000FFF7F2FE0B4B0C4A0C490D48FFF7ECFEB8
:100C20000C4B0D4A0D490E48FFF7E6FE00BF03B01E
:100C30005DF804FB25090008F108000800200140C8
:100C4000B41300207D090008490900080021014073
:100C50004C140020D5090008A10900080022014019
:100C6000E414002008B54FF6FF710120FFF7C0FF24
:100C700008BD000008B5034800F0B6FD034618465D
:100C800008BD00BFE415002082B003468DF8073090
:100C90009DF80730002B06D0074B1B6C064A43F02B
:100CA0000073136405E0044B1B6C034A23F00073CC
:100CB000136400BF02B070470038024000B583B033
:100CC00003468DF807309DF807301946034806F0B3
:100CD000DBF800BF03B05DF804FB00BF581B002029
:100CE00000B583B0134B5B69124A23F002035361D2
:100CF000104BD3F8B0110F4BD3F8B4210D4BD3F8F0
:100D0000B8010C4BD3F8BC31009303460A4800F0FD
:100D100083F8084BDB68074A43F02003D360054B98
:100D20005B69044A43F00203536100BF03B05DF8FE
:100D300004FB00BF006400407C15002000B583B0B8
:100D400003468DF807309DF807301946034801F037
:100D5000DFFA00BF03B05DF804FB00BFE61500201A
:100D600000B583B003468DF807309DF8073019466B
:100D7000034806F09FF800BF03B05DF804FB00BF16
:100D8000581B002000B583B00D4BD3F8B0110C4BAD
:100D9000D3F8B4210A4BD3F8B801094BD3F8BC31CE
:100DA00000930346074800F037F8054BDB68044A18
:100DB00043F02003D36000BF03B05DF804FB00BF25
:100DC00000680040B015002000B585B00390029186
:100DD0000192009303980023009A019903F012FFF7
:100DE000039B2C3318460BF0C9FE039B029A9A62B0
:100DF000039B069A5A62039B00229A61039B00227E
:100E0000DA61039B00225A61039B00221A62039B52
:100E1000184605B05DF804FB86B00390029101927C
:100E20000093039B9B69591C039A91619B00059356
:100E3000039B5A69059B591C05919B001344029A18
:100E40001A60039B5A69059B591C05919B0013442A
:100E5000019A1A60039B5A69059B591C05919B00D6
:100E60001344009A1A60039B5A69059B591C05910B
:100E70009B001344069A1A60039B9A69039B1B6AA2
:100E80009A4202D3039B00229A6100BF06B07047CA
:100E900000B585B003900291039B012B14D1029BF6
:100EA0004FF6FF7293420FD1094B0093094B0A4A48
:100EB0000A490B48FFF788FF054B0093094B0A4A84
:100EC0000A490B48FFF780FF00BF05B05DF804FB3F
:100ED000750C0008BD0C0008890C00080064004077
:100EE0007C150020610D00083D0D000800680040E1
:100EF000B015002008B54FF6FF710120FFF7C8FFBD
:100F000008BD000000B585B001900B468DF8033098
:100F10009DF803302A4A02FB03F30293294A9DF805
:100F20000330137028480DF076FC9DF80330194605
:100F300026480DF070FC029B254A934203D9029B80
:100F4000244A934210D924480DF065FC029B234AA1
:100F5000A2FB03239A094CF250334FF47A712048D4
:100F60000DF059FC002326E01E4B1B681D4A43F47C
:100F70008033136000230393039B1B4A934213D8CF
:100F8000184B1B6803F40033002B14BF012300230C
:100F9000DBB2002B04D015480DF03DFC01230AE024
:100FA000039B01330393E7E70B480DF034FC104833
:100FB0000DF031FC0023184605B05DF804FB00BFBE
:100FC00040420F00583A012070EA00089CEA0008ED
:100FD0003F420F0080F0FA02C4EA0008D34D6210CD
:100FE000DCEA0008003802409F86010044EB00085C
:100FF0005CEB000800B599B0039001921A460B46CD
:101000008DF80B3013468DF80A307F480DF003FC45
:101010009DF80B30002B02D0012B06D022E07B483C
:101020000DF0F9FB7A4B179323E07A480DF0F3FBB0
:10103000794B1B6803F40033002B0CBF0123002302
:10104000DBB2002B06D075480DF0E5FB74480DF0BF
:10105000E2FBC6E1734B1B781A46734B03FB02F3AA
:10106000179306E06D480DF0D6FB70480DF0D3FBEA
:10107000B7E1019B6C4A02FB03F31493149B6C4A87
:10108000934203D9149B6B4A93420DD963480DF0E8
:10109000C2FB149B684AA2FB03239A09674B684969
:1010A00068480DF0B8FB9CE15B4B1B685B0E03F0DE
:1010B0000103012B08D1584B9B689B0803F00303E5
:1010C000022B01D1012300E00023002B06D053485E
:1010D0000DF0A1FB5C480DF09EFB82E1179B5B4A83
:1010E000A2FB03239B0C1693169B012B05D8179B81
:1010F0005B0817930223169301E04B4B1793149A46
:10110000179BB2FBF3F31393169B012B02D9169B8B
:101110003F2B09D941480DF07EFB3F23169A02214F
:101120004B480DF078FB5CE1139B012B03D9139B1B
:10113000B3F5D87F0AD939480DF06DFB4FF4D87359
:10114000139A022143480DF066FB4AE19DF80A30EC
:10115000032B0AD931480DF05EFB9DF80A300322BB
:1011600019463D480DF057FB3BE19DF86830012BD7
:1011700003D99DF868300F2B0AD928480DF04BFB96
:101180009DF868200F23022134480DF044FB28E12C
:101190009DF80A300133149A22FA03F31293129B3A
:1011A0002F4A93420DD91D480DF035FB129B224A60
:1011B000A2FB03239B092B4A19462B480DF02BFB5E
:1011C0000FE19DF86830149AB2FBF3F31193119B71
:1011D000264A93420DD911480DF01DFB119B164A6A
:1011E000A2FB03239B09224A194622480DF013FB58
:1011F000F7E09DF80B30002B3ED0074B5B68064AAA
:1012000043F4800353603DE08CEB0008BCEB000826
:101210000024F400E4EB000800380240C4EA0008AF
:1012200010EC0008583A012040420F0040EC000842
:10123000FFE0F50500CCBF19D34D62108097060082
:10124000A086010078EC0008D8EC000883DE1B4380
:101250002CED0008BCED00083CEE000890EE000804
:101260000095BA0A20BF0200F0EE0008C0687804BA
:10127000F824010054EF00085E4B5B685D4A23F4DC
:10128000800353603F230793169B069300238DF83A
:101290001730594B1A689DF81730079901FA03F374
:1012A000DB431A400799069B19409DF8173001FA55
:1012B00003F31343504A136000BF40F2FF130A9335
:1012C000139B099306238DF823304B4B1A689DF826
:1012D00023300A9901FA03F3DB431A400A99099B68
:1012E00019409DF8233001FA03F31343424A136077
:1012F00000BF9DF80A3003220D920C9310238DF845
:101300002F303D4B1A689DF82F300D9901FA03F3E9
:10131000DB431A400D990C9B19409DF82F3001FAC0
:1013200003F31343344A136000BF9DF868300F2263
:1013300010920F9318238DF83B302F4B1A689DF8AD
:101340003B30109901FA03F3DB431A4010990F9BCD
:1013500019409DF83B3001FA03F31343264A13600A
:1013600000BF244B1B68234A43F0807313600023A3
:10137000ADF85630BDF8563042F20F7293422AD87B
:101380001C4B1B6803F00073002B14BF01230023C8
:10139000DBB2002B19D0129B184AA2FB03239B0936
:1013A000194617480DF037FA119B144AA2FB032384
:1013B0009B09194613480DF02EFA13480DF02BFA2D
:1013C000124A129B136001230FE0BDF8563001331F
:1013D000ADF85630CEE70E480DF01DFA0D480DF071
:1013E0001AFA0A4B00221A600023184619B05DF859
:1013F00004FB00BF0038024004380240D34D6210A5
:10140000C4EF0008DCEF000844EB00085C3A012060
:10141000C4EA00085CEB000800B593B001900846F0
:1014200011461A4603468DF803300B468DF80230FC
:1014300013468DF8013063480DF0EDF99DF8033047
:10144000022B2AD0022B42DC002B02D0012B06D02B
:101450003DE05D480DF0DFF95C4B11933FE05C48E7
:101460000DF0D9F95B4B1B6803F40033002B0CBF64
:1014700001230023DBB2002B07D057480DF0CBF936
:1014800056480DF0C8F9002363E1554B1B781A4606
:10149000544B03FB02F3119321E053480DF0BBF9C9
:1014A0004C4B1B6803F00073002B0CBF012300237F
:1014B000DBB2002B07D048480DF0ADF94B480DF0DA
:1014C000AAF9002345E14A4B1B68119307E0424803
:1014D0000DF0A1F947480DF09EF9002339E19DF880
:1014E0000230454A52F82330119AB2FBF3F31093BD
:1014F000109B424A934209D937480DF08CF93F4A74
:1015000010993F480DF087F9002322E19DF8013042
:101510003C4A52F82330109AB2FBF3F30F930F9B1F
:10152000394A934209D92C480DF075F9364A0F997A
:1015300036480DF070F900230BE19DF85030314A28
:1015400052F82330109AB2FBF3F30E930E9B304AFD
:10155000934209D920480DF05EF92D4A0E992D4885
:101560000DF059F90023F4E0109B2B4A93425AD90D
:10157000184B1B6C174A43F080531364274B1B68AE
:10158000264A43F480331360244B5B6803F48033B2
:10159000002B0CBF01230023DBB2002B00D0F3E7AC
:1015A0001E4B1B681D4A43F4003313601B4B5B68E2
:1015B00003F40033002B0CBF01230023DBB2002B0C
:1015C0002ED0F3E7F8EF0008BCEB00080024F4008D
:1015D000E4EB000800380240C4EA00082CF00008E0
:1015E000583A012040420F009CF00008B4F0000877
:1015F0005C3A012004F1000830EA00080095BA0ABC
:101600003CF1000810EA000840A5AE028CF1000889
:10161000804A5D05D8F10008007A030A0070004096
:101620004E480DF0F8F89DF802300F220492039313
:1016300004238DF80B304A4B1A689DF80B3004993F
:1016400001FA03F3DB431A400499039B19409DF808
:101650000B3001FA03F31343414A136000BF9DF8B6
:1016600001300722079206930A238DF817303C4B6E
:101670001A689DF81730079901FA03F3DB431A4003
:101680000799069B19409DF8173001FA03F313439D
:10169000334A136000BF9DF8503007220A92099325
:1016A0000D238DF823302E4B1A689DF823300A99AC
:1016B00001FA03F3DB431A400A99099B19409DF88C
:1016C000233001FA03F31343254A136000BF9DF84A
:1016D00054301A461099234803F064FD9DF80330F6
:1016E00003220D920C9300238DF82F301C4B1A68A7
:1016F0009DF82F300D9901FA03F3DB431A400D9941
:101700000C9B19409DF82F3001FA03F31343144A40
:10171000136000BF109B144AA2FB03239B091946C8
:1017200012480DF078F80F9B0F4AA2FB03239B0988
:1017300019460F480DF06FF80E9B0B4AA2FB0323CE
:101740009B0919460B480DF066F80B480DF063F83D
:101750000123184613B05DF804FB00BF24F2000813
:10176000083802406C190020D34D62105CF200086A
:1017700070F2000880F2000844EB000884B0019089
:10178000144B9B689B0803F00303022B0DD0022B24
:101790000FD8002B02D0012B03D00AE00E4B03938D
:1017A00007E00E4B1B78039303E00D4B1B6803937C
:1017B00000BF084B9B681B0903F00F03094A52F84E
:1017C0002330039AB2FBF3F30393039B184604B050
:1017D000704700BF003802400024F400583A01204E
:1017E0005C3A012030EA000800B583B0019001980E
:1017F000FFF7C4FF0246074B9B689B0A03F00703F1
:10180000054951F82330B2FBF3F3184603B05DF8F5
:1018100004FB00BF0038024010EA000800B583B0A6
:1018200001900198FFF7AAFF0246074B9B685B0BEC
:1018300003F00703054951F82330B2FBF3F31846D0
:1018400003B05DF804FB00BF0038024010EA000856
:1018500000B585B00190114B9B689B0ADBB203F089
:1018600007038DF80B300198FFF788FF02469DF8BB
:101870000B300B4951F82330B2FBF3F303939DF87F
:101880000B30074A52F82330012B02D9039B5B002F
:101890000393039B184605B05DF804FB0038024033
:1018A00010EA000800B585B00190114B9B685B0BF6
:1018B000DBB203F007038DF80B300198FFF75EFFF2
:1018C00002469DF80B300B4951F82330B2FBF3F37D
:1018D00003939DF80B30074A52F82330012B02D9AD
:1018E000039B5B000393039B184605B05DF804FB64
:1018F0000038024010EA000800B595B0039002914C
:1019000011461A460B468DF8073013468DF80630FF
:10191000AB480CF080FFAB4B1B6803F00073002B4F
:1019200014BF012300238DF84D309DF84D3083F016
:101930000103DBB2002B06D0A3480CF06CFFA348D8
:101940000CF069FF30E1029BA14A02FB03F3129302
:10195000129BA04A934211D8129B9F4A93420DD9E1
:1019600099480CF058FF129B9C4AA2FB03239A094A
:101970009B4B9C499C480CF04EFF15E1914B5B68DA
:1019800003F03F031193994B1B781093109B904ADF
:1019900002FB03F31093109A119BB2FBF3F3109325
:1019A000129A109BB2FBF3F30F930F9B012B03D9F9
:1019B0000F9BB3F5D87F0AD983480CF02CFF4FF466
:1019C000D8730F9A02218A480CF025FFECE09DF8AD
:1019D0000630012B03D99DF806300F2B0AD97A481F
:1019E0000CF019FF9DF806200F23022181480CF00E
:1019F00012FFD9E09DF85830012B03D99DF85830DB
:101A0000072B0AD970480CF006FF9DF858200723D1
:101A1000022179480CF0FFFEC6E09DF80630129ACC
:101A2000B2FBF3F30E930E9B744A93420DD96648B2
:101A30000CF0F1FE0E9B694AA2FB03239B09704A3E
:101A4000194670480CF0E7FEAEE09DF85830129A47
:101A5000B2FBF3F30D930D9B684A93420DD95A489C
:101A60000CF0D9FE0D9B5D4AA2FB03239B09644A3F
:101A7000194665480CF0CFFE96E040F2FF1306933E
:101A80000F9B059306238DF81330604B1A689DF861
:101A90001330069901FA03F3DB431A400699059BBC
:101AA00019409DF8133001FA03F31343574A1360AA
:101AB00000BF9DF806300F220992089318238DF875
:101AC0001F30524B1A689DF81F30099901FA03F331
:101AD000DB431A400999089B19409DF81F3001FA11
:101AE00003F31343494A136000BF9DF8583007229F
:101AF0000C920B931C238DF82B30444B1A689DF8E5
:101B00002B300C9901FA03F3DB431A400C990B9B21
:101B100019409DF82B3001FA03F313433B4A13603D
:101B200000BF284B1B68274A43F0805313600023F3
:101B3000ADF84E30BDF84E3042F20F7293422DD8C0
:101B4000204B1B6803F00053002B14BF012300231C
:101B5000DBB2002B1CD00E9B204AA2FB03239B0967
:101B600019462B480CF057FE0D9B1C4AA2FB032381
:101B70009B09194627480CF04EFE27480CF04BFEF7
:101B8000264A0D9B1360264A0E9B1360012312E028
:101B9000BDF84E300133ADF84E30CBE70A480CF0BB
:101BA0003AFE20480CF037FE1C4B00221A601C4BFA
:101BB00000221A600023184615B05DF804FB00BF30
:101BC00090F2000800380240C4EA0008C0F20008A1
:101BD00040420F00FFE0F50500CCBF19D34D621065
:101BE00080970600A0860100ECF20008583A012018
:101BF000BCED00084CF30008ACF3000800E6DF0C75
:101C0000C04B03000CF400087CF400088838024044
:101C1000F0F4000808F5000844EB0008643A0120DD
:101C2000603A01205CEB000882B001900B468DF811
:101C300003309DF80330002B06D0084B1B6B074A7E
:101C400043F00103136305E0044B1B6B034A23F0CD
:101C50000103136300BF02B0704700BF00380240A9
:101C600082B001900B468DF803309DF80330002BB5
:101C700006D0084B1B6B074A43F00203136305E0D1
:101C8000044B1B6B034A23F00203136300BF02B033
:101C9000704700BF0038024082B001900B468DF8BB
:101CA00003309DF80330002B06D0084B1B6B074A0E
:101CB00043F00403136305E0044B1B6B034A23F05A
:101CC0000403136300BF02B0704700BF0038024036
:101CD00082B001900B468DF803309DF80330002B45
:101CE00006D0084B1B6B074A43F00803136305E05B
:101CF000044B1B6B034A23F00803136300BF02B0BD
:101D0000704700BF0038024082B001900B468DF84A
:101D100003309DF80330002B06D0084B1B6B074A9D
:101D200043F01003136305E0044B1B6B034A23F0DD
:101D30001003136300BF02B0704700BF00380240B9
:101D400082B001900B468DF803309DF80330002BD4
:101D500006D0084B1B6B074A43F02003136305E0D2
:101D6000044B1B6B034A23F02003136300BF02B034
:101D7000704700BF0038024082B001900B468DF8DA
:101D800003309DF80330002B06D0084B1B6B074A2D
:101D900043F04003136305E0044B1B6B034A23F03D
:101DA0004003136300BF02B0704700BF0038024019
:101DB00082B001900B468DF803309DF80330002B64
:101DC00006D0084B1B6B074A43F08003136305E002
:101DD000044B1B6B034A23F08003136300BF02B064
:101DE000704700BF0038024082B001900B468DF86A
:101DF00003309DF80330002B06D0084B1B6B074ABD
:101E000043F48073136305E0044B1B6B034A23F414
:101E10008073136300BF02B0704700BF00380240F8
:101E200082B001900B468DF803309DF80330002BF3
:101E300006D0084B1B6B074A43F40073136305E09D
:101E4000044B1B6B034A23F40073136300BF02B0FF
:101E5000704700BF0038024082B001900B468DF8F9
:101E600003309DF80330002B06D0084B1B6B074A4C
:101E700043F48063136305E0044B1B6B034A23F4B4
:101E80008063136300BF02B0704700BF0038024098
:101E900082B001900B468DF803309DF80330002B83
:101EA00006D0104B1B6B0F4A43F40013136305E07D
:101EB0000C4B1B6B0B4A23F4001313639DF8033088
:101EC000002B06D0074B1B6B064A43F480031363B9
:101ED00005E0044B1B6B034A23F48003136300BF2C
:101EE00002B070470038024082B001900B468DF876
:101EF00003309DF80330002B06D0084B1B6B074ABC
:101F000043F40003136305E0044B1B6B034A23F403
:101F10000003136300BF02B0704700BF00380240E7
:101F200082B001900B468DF803309DF80330002BF2
:101F300006D0084B9B6B074A43F00103936305E00F
:101F4000044B9B6B034A23F00103936300BF02B071
:101F5000704700BF0038024082B001900B468DF8F8
:101F600003309DF80330002B06D0084B1B6C074A4A
:101F700043F00103136405E0044B1B6C034A23F098
:101F80000103136400BF02B0704700BF0038024075
:101F900082B001900B468DF803309DF80330002B82
:101FA00006D0084B1B6C074A43F00203136405E09C
:101FB000044B1B6C034A23F00203136400BF02B0FE
:101FC000704700BF0038024082B001900B468DF888
:101FD00003309DF80330002B06D0084B1B6C074ADA
:101FE00043F00403136405E0044B1B6C034A23F025
:101FF0000403136400BF02B0704700BF0038024002
:1020000082B001900B468DF803309DF80330002B11
:1020100006D0084B1B6C074A43F00803136405E025
:10202000044B1B6C034A23F00803136400BF02B087
:10203000704700BF0038024082B001900B468DF817
:1020400003309DF80330002B06D0084B1B6C074A69
:1020500043F01003136405E0044B1B6C034A23F0A8
:102060001003136400BF02B0704700BF0038024085
:1020700082B001900B468DF803309DF80330002BA1
:1020800006D0084B1B6C074A43F02003136405E09D
:10209000044B1B6C034A23F02003136400BF02B0FF
:1020A000704700BF0038024082B001900B468DF8A7
:1020B00003309DF80330002B06D0084B1B6C074AF9
:1020C00043F04003136405E0044B1B6C034A23F008
:1020D0004003136400BF02B0704700BF00380240E5
:1020E00082B001900B468DF803309DF80330002B31
:1020F00006D0084B1B6C074A43F08003136405E0CD
:10210000044B1B6C034A23F08003136400BF02B02E
:10211000704700BF0038024082B001900B468DF836
:1021200003309DF80330002B06D0084B1B6C074A88
:1021300043F48073136405E0044B1B6C034A23F4DF
:102140008073136400BF02B0704700BF00380240C4
:1021500082B001900B468DF803309DF80330002BC0
:1021600006D0084B1B6C074A43F48043136405E018
:10217000044B1B6C034A23F48043136400BF02B07A
:10218000704700BF0038024082B001900B468DF8C6
:1021900003309DF80330002B06D0084B1B6C074A18
:1021A00043F40043136405E0044B1B6C034A23F41F
:1021B0000043136400BF02B0704700BF0038024004
:1021C00082B001900B468DF803309DF80330002B50
:1021D00006D0084B1B6C074A43F40033136405E038
:1021E000044B1B6C034A23F40033136400BF02B09A
:1021F000704700BF0038024082B001900B468DF856
:1022000003309DF80330002B06D0084B1B6C074AA7
:1022100043F48023136405E0044B1B6C034A23F44E
:102220008023136400BF02B0704700BF0038024033
:1022300082B001900B468DF803309DF80330002BDF
:1022400006D0084B1B6C074A43F40023136405E0D7
:10225000044B1B6C034A23F40023136400BF02B039
:10226000704700BF0038024082B001900B468DF8E5
:1022700003309DF80330002B06D0084B1B6C074A37
:1022800043F40013136405E0044B1B6C034A23F46E
:102290000013136400BF02B0704700BF0038024053
:1022A00082B001900B468DF803309DF80330002B6F
:1022B00006D0084B1B6C074A43F48003136405E007
:1022C000044B1B6C034A23F48003136400BF02B069
:1022D000704700BF0038024082B001900B468DF875
:1022E00003309DF80330002B06D0084B1B6C074AC7
:1022F00043F40003136405E0044B1B6C034A23F40E
:102300000003136400BF02B0704700BF00380240F2
:1023100082B001900B468DF803309DF80330002BFE
:1023200006D0084B1B6C074A43F08063136405E03A
:10233000044B1B6C034A23F08063136400BF02B09C
:10234000704700BF0038024082B001900B468DF804
:1023500003309DF80330002B06D0084B1B6C074A56
:1023600043F08053136405E0044B1B6C034A23F0D5
:102370008053136400BF02B0704700BF00380240B2
:1023800082B001900B468DF803309DF80330002B8E
:1023900006D0084B1B6C074A43F00053136405E05A
:1023A000044B1B6C034A23F00053136400BF02B0BC
:1023B000704700BF0038024082B001900B468DF894
:1023C00003309DF80330002B06D0084B5B6C074AA6
:1023D00043F00103536405E0044B5B6C034A23F0B4
:1023E0000103536400BF02B0704700BF00380240D1
:1023F00082B001900B468DF803309DF80330002B1E
:1024000006D0084B5B6C074A43F00203536405E0B7
:10241000044B5B6C034A23F00203536400BF02B019
:10242000704700BF0038024082B001900B468DF823
:1024300003309DF80330002B06D0084B5B6C074A35
:1024400043F01003536405E0044B5B6C034A23F034
:102450001003536400BF02B0704700BF0038024051
:1024600082B001900B468DF803309DF80330002BAD
:1024700006D0084B5B6C074A43F48053536405E075
:10248000044B5B6C034A23F48053536400BF02B0D7
:10249000704700BF0038024082B001900B468DF8B3
:1024A00003309DF80330002B06D0084B5B6C074AC5
:1024B00043F40053536405E0044B5B6C034A23F47C
:1024C0000053536400BF02B0704700BF00380240A1
:1024D00082B001900B468DF803309DF80330002B3D
:1024E00006D0084B5B6C074A43F48043536405E015
:1024F000044B5B6C034A23F48043536400BF02B077
:10250000704700BF0038024082B001900B468DF842
:1025100003309DF80330002B06D0084B5B6C074A54
:1025200043F48033536405E0044B5B6C034A23F4AB
:102530008033536400BF02B0704700BF00380240D0
:1025400082B001900B468DF803309DF80330002BCC
:1025500006D0084B5B6C074A43F48023536405E0C4
:10256000044B5B6C034A23F48023536400BF02B026
:10257000704700BF0038024082B001900B468DF8D2
:1025800003309DF80330002B06D0084B5B6C074AE4
:1025900043F48013536405E0044B5B6C034A23F45B
:1025A0008013536400BF02B0704700BF0038024080
:1025B00082B001900B468DF803309DF80330002B5C
:1025C00006D0084B5B6C074A43F40013536405E0E4
:1025D000044B5B6C034A23F40013536400BF02B046
:1025E000704700BF0038024082B001900B468DF862
:1025F00003309DF80330002B06D0084B5B6C074A74
:1026000043F08063536405E0044B5B6C034A23F0A2
:102610008063536400BF02B0704700BF00380240BF
:1026200000B583B003468DF8073001210348FFF75A
:10263000A7FE00BF03B05DF804FB00BFE615002055
:1026400008B50348FFF7D0F80346184608BD00BF99
:10265000E415002000B585B003900291019200932B
:1026600003980023009A019902F0CCFA039B1833D7
:1026700018460AF083FA039B029A5A61039B184694
:1026800005B05DF804FB000000B585B00390029131
:10269000039B012B0CD1029B4FF6FF72934207D193
:1026A000054B00930023054A05490648FFF7D2FF72
:1026B00000BF05B05DF804FB412600082126000894
:1026C00000740040E815002008B54FF6FF710120A6
:1026D000FFF7DAFF08BD000000B583B003468DF8B0
:1026E00007309DF8073019460348FFF7D1FB00BFBC
:1026F00003B05DF804FB00BFE615002000B583B011
:1027000003468DF807309DF807301946304804F02D
:1027100037F99DF8073019462D4804F041F99DF826
:10272000073019462A4804F04BF99DF8073019463E
:10273000274804F055F99DF807301946244804F05D
:102740005FF99DF807301946214804F069F99DF8B2
:10275000073019461E4804F073F99DF807301946F2
:102760001B4804F07DF99DF807301946184804F01D
:1027700087F99DF807301946154804F091F99DF83E
:1027800007301946124804F09BF99DF807301946A6
:102790000F4804F0A5F99DF8073019460C4804F0DD
:1027A000AFF99DF807301946094804F0B9F99DF8CA
:1027B00007301946064804F0C3F99DF8073019465A
:1027C000034804F0CDF900BF03B05DF804FB00BF7F
:1027D000581B002000B583B003468DF807309DF8E4
:1027E00007301946034804F0CBF800BF03B05DF88A
:1027F00004FB00BF581B002000B583B003468DF8D2
:1028000007309DF807301946034804F0C9F800BFA7
:1028100003B05DF804FB00BF581B002000B583B077
:1028200003468DF807309DF807301946034804F039
:10283000C7F800BF03B05DF804FB00BF581B0020C1
:1028400000B583B003468DF807309DF80730194670
:10285000034804F0C5F800BF03B05DF804FB00BFF7
:10286000581B002000B583B003468DF807309DF853
:1028700007301946034804F0C3F800BF03B05DF801
:1028800004FB00BF581B002000B583B003468DF841
:1028900007309DF807301946034804F0C1F800BF1F
:1028A00003B05DF804FB00BF581B002000B583B0E7
:1028B00003468DF807309DF807301946034804F0A9
:1028C000BFF800BF03B05DF804FB00BF581B002039
:1028D00000B583B003468DF807309DF807301946E0
:1028E000034804F0BDF800BF03B05DF804FB00BF6F
:1028F000581B002000B583B003468DF807309DF8C3
:1029000007301946034804F0BBF800BF03B05DF878
:1029100004FB00BF581B002000B583B003468DF8B0
:1029200007309DF807301946034804F0B9F800BF96
:1029300003B05DF804FB00BF581B002000B583B056
:1029400003468DF807309DF807301946034804F018
:10295000B7F800BF03B05DF804FB00BF581B0020B0
:1029600000B583B003468DF807309DF8073019464F
:10297000034804F0B5F800BF03B05DF804FB00BFE6
:10298000581B002000B583B003468DF807309DF832
:1029900007301946034804F0B3F800BF03B05DF8F0
:1029A00004FB00BF581B002000B583B003468DF820
:1029B00007309DF807301946034804F0B1F800BF0E
:1029C00003B05DF804FB00BF581B002000B583B0C6
:1029D00003468DF807309DF807301946034804F088
:1029E000AFF800BF03B05DF804FB00BF581B002028
:1029F00000B583B003468DF807309DF807301946BF
:102A0000034804F0ADF800BF03B05DF804FB00BF5D
:102A1000581B002000B585B00390029101920398E5
:102A20000023019A029902F0EDF8039B184605B0C5
:102A30005DF804FB00B583B001901A4801F00DF871
:102A4000194801F00AF8194801F007F8184801F090
:102A500004F8184801F001F8174800F0FEFF174885
:102A600000F0FBFF164800F0F8FF164800F0F5FFF5
:102A7000154800F0F2FF154800F0EFFF144800F091
:102A8000ECFF144800F0E9FF134800F0E6FF13489C
:102A900000F0E3FF124800F0E0FF00BF03B05DF874
:102AA00004FB00BF1C1600204816002074160020EE
:102AB000A0160020CC160020F816002024170020B5
:102AC000501700207C170020A8170020D4170020E2
:102AD000001800202C18002058180020841800200E
:102AE000B018002000B583B001900091019B012B2C
:102AF00069D1009B4FF6FF72934264D1344A354945
:102B00003548FFF787FF354B00223549354800F03F
:102B100085FF354B00223549354800F07FFF354BA6
:102B200000223549354800F079FF354B0022354900
:102B3000354800F073FF354B00223549354800F029
:102B40006DFF354B00223549354800F067FF354BA6
:102B500000223549354800F061FF354B00223549E8
:102B6000354800F05BFF354B00223549354800F011
:102B700055FF354B00223549354800F04FFF354BA6
:102B800000223549354800F049FF354B00223549D0
:102B9000354800F043FF354B00223549354800F0F9
:102BA0003DFF354B00223549354800F037FF354BA6
:102BB00000223549354800F031FF354B00223549B8
:102BC000354800F02BFF00BF03B05DF804FB00BFE9
:102BD000FD260008D926000808160020D527000881
:102BE000106002401C160020F927000828600240EF
:102BF000481600201D28000840600240741600207E
:102C00004128000858600240A016002065280008EE
:102C100070600240CC1600208928000888600240BD
:102C2000F8160020AD280008A060024024170020FC
:102C3000D1280008B860024050170020F52800088D
:102C4000106402407C170020192900082864024003
:102C5000A81700203D29000840640240D417002036
:102C600061290008586402400018002085290008E6
:102C7000706402402C180020A929000888640240D2
:102C800058180020CD290008A064024084180020B4
:102C9000F1290008B8640240B018002008B54FF6CA
:102CA000FF710120FFF71EFF08BD000000B585B0D1
:102CB0002F4B1B6803F03F0303933F230293039BB7
:102CC000019300238DF803302A4B1A689DF80330D6
:102CD000029901FA03F3DB431A400299019B194060
:102CE0009DF8033001FA03F31343224A136000BF37
:102CF000039B03F00C03002B02D01F4800F0E1FE01
:102D00001D4B5B6A002B27D01B4B9B6A03F570435E
:102D1000194A9362184B5B6AB3F5704F0AD9174B87
:102D20004FF470425A60144B5B6AA3F57043124A29
:102D3000536206E0114A104B5B6A53600E4B00224F
:102D40005A620E4A0C4B9B6AD3600C4B1B680B4AB1
:102D500043F00103136007E0039B03F02003002B03
:102D600002D0054800F0A5FE00BF05B05DF804FBE9
:102D700000600240086002401C1600201060024003
:102D800000B585B0304B1B689B0903F03F030393EC
:102D90003F230293039B019306238DF803302B4BB3
:102DA0001A689DF80330029901FA03F3DB431A40D5
:102DB0000299019B19409DF8033001FA03F3134374
:102DC000224A136000BF039B03F00C03002B02D0C8
:102DD0001F4800F076FE1E4B5B6A002B27D01C4B71
:102DE0009B6A03F570431A4A9362194B5B6AB3F509
:102DF000704F0AD9174B4FF470425A60144B5B6AFC
:102E0000A3F57043124A536206E0124A104B5B6A04
:102E100053600F4B00225A620E4A0D4B9B6AD360DF
:102E20000C4B1B680B4A43F00103136007E0039B44
:102E300003F02003002B02D0054800F03AFE00BF4B
:102E400005B05DF804FB00BF00600240086002406E
:102E5000481600202860024000B585B0304B1B6842
:102E60001B0C03F03F0303933F230293039B019347
:102E700010238DF803302B4B1A689DF8033002990C
:102E800001FA03F3DB431A400299019B19409DF8B4
:102E9000033001FA03F31343224A136000BF039B7C
:102EA00003F00C03002B02D01F4800F00AFE1E4B5B
:102EB0005B6A002B27D01C4B9B6A03F570431A4AB0
:102EC0009362194B5B6AB3F5704F0AD9174B4FF4F5
:102ED00070425A60144B5B6AA3F57043124A536206
:102EE00006E0124A104B5B6A53600F4B00225A6295
:102EF0000E4A0D4B9B6AD3600C4B1B680B4A43F088
:102F00000103136007E0039B03F02003002B02D0B2
:102F1000054800F0CEFD00BF05B05DF804FB00BF22
:102F200000600240086002407416002040600240C9
:102F300000B585B0304B1B689B0D03F03F03039336
:102F40003F230293039B019316238DF803302B4BF1
:102F50001A689DF80330029901FA03F3DB431A4023
:102F60000299019B19409DF8033001FA03F31343C2
:102F7000224A136000BF039B03F00C03002B02D016
:102F80001F4800F09EFD1E4B5B6A002B27D01C4B98
:102F90009B6A03F570431A4A9362194B5B6AB3F557
:102FA000704F0AD9174B4FF470425A60144B5B6A4A
:102FB000A3F57043124A536206E0124A104B5B6A53
:102FC00053600F4B00225A620E4A0D4B9B6AD3602E
:102FD0000C4B1B680B4A43F00103136007E0039B93
:102FE00003F02003002B02D0054800F062FD00BF73
:102FF00005B05DF804FB00BF0060024008600240BD
:10300000A01600205860024000B585B02F4B5B68C9
:1030100003F03F0303933F230293039B0193002399
:103020008DF803302A4B1A689DF80330029901FA93
:1030300003F3DB431A400299019B19409DF80330CA
:1030400001FA03F31343224A136000BF039B03F00A
:103050000C03002B02D01F4800F033FD1D4B5B6AB0
:10306000002B27D01B4B9B6A03F57043194A9362D0
:10307000184B5B6AB3F5704F0AD9174B4FF4704287
:103080005A60144B5B6AA3F57043124A536206E020
:10309000114A104B5B6A53600E4B00225A620E4A73
:1030A0000C4B9B6AD3600C4B1B680B4A43F001032B
:1030B000136007E0039B03F02003002B02D00548B8
:1030C00000F0F7FC00BF05B05DF804FB00600240B3
:1030D0000C600240CC1600207060024000B585B044
:1030E000304B5B689B0903F03F0303933F2302933C
:1030F000039B019306238DF803302B4B1A689DF830
:103100000330029901FA03F3DB431A400299019B51
:1031100019409DF8033001FA03F31343224A136068
:1031200000BF039B03F00C03002B02D01F4800F0EC
:10313000C8FC1E4B5B6A002B27D01C4B9B6A03F517
:1031400070431A4A9362194B5B6AB3F5704F0AD900
:10315000174B4FF470425A60144B5B6AA3F57043EF
:10316000124A536206E0124A104B5B6A53600F4BDF
:1031700000225A620E4A0D4B9B6AD3600C4B1B68AF
:103180000B4A43F00103136007E0039B03F02003A5
:10319000002B02D0054800F08CFC00BF05B05DF8A4
:1031A00004FB00BF006002400C600240F8160020E3
:1031B0008860024000B585B0304B5B681B0C03F0A3
:1031C0003F0303933F230293039B019310238DF846
:1031D00003302B4B1A689DF80330029901FA03F370
:1031E000DB431A400299019B19409DF8033001FA14
:1031F00003F31343224A136000BF039B03F00C0345
:10320000002B02D01F4800F05CFC1E4B5B6A002BB9
:1032100027D01C4B9B6A03F570431A4A9362194BE3
:103220005B6AB3F5704F0AD9174B4FF470425A607E
:10323000144B5B6AA3F57043124A536206E0124ACC
:10324000104B5B6A53600F4B00225A620E4A0D4BC3
:103250009B6AD3600C4B1B680B4A43F0010313605D
:1032600007E0039B03F02003002B02D0054800F089
:1032700020FC00BF05B05DF804FB00BF0060024009
:103280000C60024024170020A060024000B585B009
:10329000304B5B689B0D03F03F0303933F23029386
:1032A000039B019316238DF803302B4B1A689DF86E
:1032B0000330029901FA03F3DB431A400299019BA0
:1032C00019409DF8033001FA03F31343224A1360B7
:1032D00000BF039B03F00C03002B02D01F4800F03B
:1032E000F0FB1E4B5B6A002B27D01C4B9B6A03F53F
:1032F00070431A4A9362194B5B6AB3F5704F0AD94F
:10330000174B4FF470425A60144B5B6AA3F570433D
:10331000124A536206E0124A104B5B6A53600F4B2D
:1033200000225A620E4A0D4B9B6AD3600C4B1B68FD
:103330000B4A43F00103136007E0039B03F02003F3
:10334000002B02D0054800F0B4FB00BF05B05DF8CB
:1033500004FB00BF006002400C60024050170020D8
:10336000B860024000B585B02F4B1B6803F03F03E7
:1033700003933F230293039B019300238DF80330B3
:103380002A4B1A689DF80330029901FA03F3DB43D4
:103390001A400299019B19409DF8033001FA03F38A
:1033A0001343224A136000BF039B03F00C03002B5E
:1033B00002D01F4800F085FB1D4B5B6A002B27D015
:1033C0001B4B9B6A03F57043194A9362184B5B6A67
:1033D000B3F5704F0AD9174B4FF470425A60144B33
:1033E0005B6AA3F57043124A536206E0114A104B20
:1033F0005B6A53600E4B00225A620E4A0C4B9B6A6A
:10340000D3600C4B1B680B4A43F00103136007E0C9
:10341000039B03F02003002B02D0054800F049FB7A
:1034200000BF05B05DF804FB006402400864024080
:103430007C1700201064024000B585B0304B1B683B
:103440009B0903F03F0303933F230293039B0193E4
:1034500006238DF803302B4B1A689DF80330029930
:1034600001FA03F3DB431A400299019B19409DF8CE
:10347000033001FA03F31343224A136000BF039B96
:1034800003F00C03002B02D01F4800F01AFB1E4B68
:103490005B6A002B27D01C4B9B6A03F570431A4ACA
:1034A0009362194B5B6AB3F5704F0AD9174B4FF40F
:1034B00070425A60144B5B6AA3F57043124A536220
:1034C00006E0124A104B5B6A53600F4B00225A62AF
:1034D0000E4A0D4B9B6AD3600C4B1B680B4A43F0A2
:1034E0000103136007E0039B03F02003002B02D0CD
:1034F000054800F0DEFA00BF05B05DF804FB00BF30
:103500000064024008640240A817002028640240BA
:1035100000B585B0304B1B681B0C03F03F030393D1
:103520003F230293039B019310238DF803302B4B11
:103530001A689DF80330029901FA03F3DB431A403D
:103540000299019B19409DF8033001FA03F31343DC
:10355000224A136000BF039B03F00C03002B02D030
:103560001F4800F0AEFA1E4B5B6A002B27D01C4BA5
:103570009B6A03F570431A4A9362194B5B6AB3F571
:10358000704F0AD9174B4FF470425A60144B5B6A64
:10359000A3F57043124A536206E0124A104B5B6A6D
:1035A00053600F4B00225A620E4A0D4B9B6AD36048
:1035B0000C4B1B680B4A43F00103136007E0039BAD
:1035C00003F02003002B02D0054800F072FA00BF80
:1035D00005B05DF804FB00BF0064024008640240CF
:1035E000D41700204064024000B585B0304B1B6802
:1035F0009B0D03F03F0303933F230293039B01932F
:1036000016238DF803302B4B1A689DF8033002996E
:1036100001FA03F3DB431A400299019B19409DF81C
:10362000033001FA03F31343224A136000BF039BE4
:1036300003F00C03002B02D01F4800F042FA1E4B8F
:103640005B6A002B27D01C4B9B6A03F570431A4A18
:103650009362194B5B6AB3F5704F0AD9174B4FF45D
:1036600070425A60144B5B6AA3F57043124A53626E
:1036700006E0124A104B5B6A53600F4B00225A62FD
:103680000E4A0D4B9B6AD3600C4B1B680B4A43F0F0
:103690000103136007E0039B03F02003002B02D01B
:1036A000054800F006FA00BF05B05DF804FB00BF56
:1036B0000064024008640240001800205864024080
:1036C00000B585B02F4B5B6803F03F0303933F23A6
:1036D0000293039B019300238DF803302A4B1A6851
:1036E0009DF80330029901FA03F3DB431A40029973
:1036F000019B19409DF8033001FA03F31343224A5A
:10370000136000BF039B03F00C03002B02D01F4883
:1037100000F0D7F91D4B5B6A002B27D01B4B9B6A2F
:1037200003F57043194A9362184B5B6AB3F5704F07
:103730000AD9174B4FF470425A60144B5B6AA3F5D9
:103740007043124A536206E0114A104B5B6A5360A1
:103750000E4B00225A620E4A0C4B9B6AD3600C4BF4
:103760001B680B4A43F00103136007E0039B03F05F
:103770002003002B02D0054800F09BF900BF05B0E4
:103780005DF804FB006402400C6402402C18002029
:103790007064024000B585B0304B5B689B0903F054
:1037A0003F0303933F230293039B019306238DF86A
:1037B00003302B4B1A689DF80330029901FA03F38A
:1037C000DB431A400299019B19409DF8033001FA2E
:1037D00003F31343224A136000BF039B03F00C035F
:1037E000002B02D01F4800F06CF91E4B5B6A002BC7
:1037F00027D01C4B9B6A03F570431A4A9362194BFE
:103800005B6AB3F5704F0AD9174B4FF470425A6098
:10381000144B5B6AA3F57043124A536206E0124AE6
:10382000104B5B6A53600F4B00225A620E4A0D4BDD
:103830009B6AD3600C4B1B680B4A43F00103136077
:1038400007E0039B03F02003002B02D0054800F0A3
:1038500030F900BF05B05DF804FB00BF0064024012
:103860000C640240581800208864024000B585B0FE
:10387000304B5B681B0C03F03F0303933F23029321
:10388000039B019310238DF803302B4B1A689DF88E
:103890000330029901FA03F3DB431A400299019BBA
:1038A00019409DF8033001FA03F31343224A1360D1
:1038B00000BF039B03F00C03002B02D01F4800F055
:1038C00000F91E4B5B6A002B27D01C4B9B6A03F54B
:1038D00070431A4A9362194B5B6AB3F5704F0AD969
:1038E000174B4FF470425A60144B5B6AA3F5704358
:1038F000124A536206E0124A104B5B6A53600F4B48
:1039000000225A620E4A0D4B9B6AD3600C4B1B6817
:103910000B4A43F00103136007E0039B03F020030D
:10392000002B02D0054800F0C4F800BF05B05DF8D8
:1039300004FB00BF006402400C64024084180020B5
:10394000A064024000B585B0304B5B689B0D03F06E
:103950003F0303933F230293039B019316238DF8A8
:1039600003302B4B1A689DF80330029901FA03F3D8
:10397000DB431A400299019B19409DF8033001FA7C
:1039800003F31343224A136000BF039B03F00C03AD
:10399000002B02D01F4800F094F81E4B5B6A002BEE
:1039A00027D01C4B9B6A03F570431A4A9362194B4C
:1039B0005B6AB3F5704F0AD9174B4FF470425A60E7
:1039C000144B5B6AA3F57043124A536206E0124A35
:1039D000104B5B6A53600F4B00225A620E4A0D4B2C
:1039E0009B6AD3600C4B1B680B4A43F001031360C6
:1039F00007E0039B03F02003002B02D0054800F0F2
:103A000058F800BF05B05DF804FB00BF0064024039
:103A10000C640240B0180020B864024000B585B0C4
:103A2000039002910192009303980023009A019958
:103A300001F0E8F8039B1433184609F09FF8039B44
:103A4000029A1A62039B00221A77039B00225A777C
:103A5000039B184605B05DF804FB86B00190019BFE
:103A60001B6A5A69019B1B6A22F004025A61019B7E
:103A70001B6A143305930323049300230393002349
:103A80008DF80B30059B1A689DF80B30049901FAEC
:103A900003F3DB431A400499039B19409DF80B3054
:103AA00001FA03F31A43059B1A6000BF00BF06B07A
:103AB000704782B00190019B01221A7700BF02B0CB
:103AC000704782B00190019B01225A7700BF02B07B
:103AD0007047000000B583B003468DF807309DF8AD
:103AE000073019460348FEF7FFF900BF03B05DF841
:103AF00004FB00BFE615002082B003468DF80730B6
:103B000000BF02B0704700B585B0039002910192EA
:103B1000009303980023009A019901F073F8039B26
:103B20002433184609F02AF8039B00225A61039BAC
:103B300000229A61039B0022DA61039B00221A6231
:103B4000039B184605B05DF804FB82B0019000BFEE
:103B500002B0704730B587B0039002910192029C89
:103B6000019D019807F04CFE03460593059B2A46EC
:103B70002146039800F062FB00BF07B030BD30B5AE
:103B800089B00590049103920293049D0C9C0C98BB
:103B900007F036FE03460793079B01930094029BB0
:103BA000039A2946059800F075FD00BF09B030BDA5
:103BB000034B5B6803F00203002B00BF704700BF9C
:103BC00000B0024000B583B001900091019B012B31
:103BD0000AD1009B4FF6FF72934205D1044B054A70
:103BE00005490648FFF78FFF00BF03B05DF804FBEF
:103BF000F93A0008D53A000800B00240DC1800206D
:103C000008B54FF6FF710120FFF7DCFF08BD00008B
:103C100000B597B0039002910192029B184607F0FD
:103C2000F8FC03461593159B002B00F0CC80029BFB
:103C3000184607F0F5FC03460493BDF81230002B3C
:103C400000F0C380BDF81030002B00F0BE80039B55
:103C50002433184608F09EFF5E4B08930323079316
:103C60000323069310238DF81730089B1A689DF8DC
:103C70001730079901FA03F3DB431A400799069BB3
:103C800019409DF8173001FA03F31A43089B1A6094
:103C900000BF07230B9302230A9300238DF82730DC
:103CA0004D4B1A689DF827300B9901FA03F3DB435B
:103CB0001A400B990A9B19409DF8273001FA03F32B
:103CC0001343454A136000BFBDF80420414B9A637B
:103CD000404A159BD363BDF812301A464FF6FF7366
:103CE0000E930D9200238DF833303C4B1A689DF8EB
:103CF00033300E9901FA03F3DB431A400E990D9B02
:103D000019409DF8333001FA03F31343334A13602B
:103D100000BFBDF810301A4643F6FF73119310929E
:103D200010238DF83F302D4B1A689DF83F301199C4
:103D300001FA03F3DB431A401199109B19409DF8D7
:103D40003F3001FA03F31343244A136000BF43F6E4
:103D5000FF7314930023139300238DF84B30204BF3
:103D60001A689DF84B30149901FA03F3DB431A40AB
:103D70001499139B19409DF84B3001FA03F3134338
:103D8000174A136000BF134B1B68124A43F001032C
:103D90001360104B5B6803F00203002B0CBF012380
:103DA0000023DBB2002B02D008F0D3FEF1E7094B71
:103DB0009B68084A43F002039360039B2433184630
:103DC00008F00CFF02E000BF00E000BF17B05DF894
:103DD00004FB00BF00B0024034B0024044B00240D7
:103DE00040B0024000B597B0039002910192009359
:103DF000BDF80030002B00F01A81BDF80230002B16
:103E000000F01581029B184607F00AFC0346049354
:103E1000BDF904301A46BDF810309A4280F209818B
:103E2000BDF906301A46BDF812309A4280F201817F
:103E3000BDF904301A46BDF800301344BDF8102017
:103E4000934208DBBDF81020BDF904309BB2D31AB1
:103E50009BB2ADF80030BDF906301A46BDF802300D
:103E60001344BDF81220934208DBBDF81220BDF9BF
:103E700006309BB2D31A9BB2ADF80230029B1846B3
:103E800007F0C7FB1590159B002B00F0D480BDF800
:103E90001030BDF9062002FB03F3BDF904201344E2
:103EA0005B001A46159B13441593039B2433184655
:103EB00008F070FE624B08930323079303230693D5
:103EC00010238DF81730089B1A689DF81730079952
:103ED00001FA03F3DB431A400799069B19409DF84A
:103EE000173001FA03F31A43089B1A6000BF072337
:103EF0000B9302230A9300238DF82730514B1A6845
:103F00009DF827300B9901FA03F3DB431A400B9914
:103F10000A9B19409DF8273001FA03F31343494ADD
:103F2000136000BFBDF86020454B9A63444A159B5F
:103F3000D363BDF802301A464FF6FF730E930D920D
:103F400000238DF83330404B1A689DF833300E99BA
:103F500001FA03F3DB431A400E990D9B19409DF8BB
:103F6000333001FA03F31343374A136000BFBDF83F
:103F700000301A4643F6FF731193109210238DF808
:103F80003F30314B1A689DF83F30119901FA03F325
:103F9000DB431A401199109B19409DF83F3001FAFC
:103FA00003F31343284A136000BFBDF810301A46CC
:103FB000BDF80030D31A1A4643F6FF7314931392D8
:103FC00000238DF84B30214B1A689DF84B30149923
:103FD00001FA03F3DB431A401499139B19409DF82F
:103FE0004B3001FA03F31343184A136000BF144B1C
:103FF0001B68134A43F001031360114B5B6803F025
:104000000203002B0CBF01230023DBB2002B02D0E4
:1040100008F09FFDF1E70A4B9B68094A43F0020351
:104020009360039B2433184608F0D8FD04E000BFDA
:1040300002E000BF00E000BF17B05DF804FB00BF66
:1040400000B0024034B0024044B0024040B00240F0
:1040500000B58DB0039002910192009300990198F0
:1040600006F030FF0346002B01D00023DDE001986D
:1040700006F0C0FF0A90029B184607F0D1FA0346EB
:1040800006930A9B1B799AB20A9B5B799BB2ADF8A7
:104090001420ADF81630BDF938301A46BDF8183086
:1040A0009A4206DABDF93A301A46BDF81A309A42F9
:1040B00001DB0023B9E0BDF938301A46BDF81430F1
:1040C0001344BDF81820934214DDBDF81430ADF848
:1040D0002630BDF81820BDF938309BB2D31A9BB2F8
:1040E000ADF81430BDF81430BDF82620D31AADF861
:1040F0002E3002E00023ADF82E30BDF93A301A46DA
:10410000BDF816301344BDF81A20934208DDBDF8FF
:104110001A20BDF93A309BB2D31A9BB2ADF81630D3
:10412000BDF81820BDF81430D31AADF82430029B26
:10413000184607F06EFA0890089B002B01D1002367
:1041400073E0BDF818301A46BDF93A3019460A9B9B
:104150009B790B4403FB02F3BDF9382013445B0049
:10416000089A13440893019806F069FF0790079B8B
:10417000002B01D1002358E0039B2433184608F09C
:1041800009FD2C4A079BD3602A4A089B5361294AA0
:10419000089BD363274A0F9B13629DF840301B0690
:1041A00043F00A02234BDA61029B184607F049FAF2
:1041B00003461B0643F002021E4B5A621D4B0222AD
:1041C0005A63BDF816301A46BDF814301B041A4362
:1041D000184B5A64174ABDF82E301361154ABDF8C2
:1041E00024309361134ABDF824301364114B124AF2
:1041F0001A60104B5B6803F00203002B0CBF012315
:104200000023DBB2002B02D008F0A3FCF1E7094B3E
:104210009B68084A43F002039360039B24331846CB
:1042200008F0DCFCBDF81430DBB218460DB05DF8C8
:1042300004FB00BF00B002400100020000B5B1B0B5
:104240000390029101920093029B184607F0E8F94F
:1042500003460593019B184607F0E2F903460493D1
:10426000BDF900301A46BDF814309A4280F200823F
:10427000BDF902301A46BDF816309A4280F2F88134
:10428000BDF900301A46BDF810301344BDF81420B3
:10429000934214DDBDF81030ADF8BC30BDF81420E9
:1042A000BDF900309BB2D31A9BB2ADF81030BDF807
:1042B0001030BDF8BC20D31AADF8BE3002E00023A8
:1042C000ADF8BE30BDF902301A46BDF812301344C5
:1042D000BDF81620934208DDBDF81620BDF9023066
:1042E0009BB2D31A9BB2ADF81230BDF81420BDF8C2
:1042F0001030D31AADF8BA30029B184607F089F98E
:104300002D902D9B002B00F0B581BDF90230BDF83A
:10431000142002FB03F3BDF9002013445B002D9A27
:1043200013442D93019B184607F073F92C902C9B96
:10433000002B00F0A181039B2433184608F02AFCCF
:104340005C4A2C9BD3600F231F9302231E930023F0
:104350008DF87730584B1A689DF877301F9901FA1D
:1043600003F3DB431A401F991E9B19409DF87730D9
:1043700001FA03F31343504A136000BFBDF8BE3087
:1043800043F6FF722292219300238DF883304B4B2A
:104390001A689DF88330229901FA03F3DB431A402F
:1043A0002299219B19409DF8833001FA03F31343AE
:1043B000424A136000BF0323259301232493102353
:1043C0008DF88F303C4B1A689DF88F30259901FA93
:1043D00003F3DB431A402599249B19409DF88F3045
:1043E00001FA03F31343344A136000BF314A2D9B93
:1043F00053610F2328930223279300238DF89B30CA
:104400002F4B1A689DF89B30289901FA03F3DB4380
:104410001A402899279B19409DF89B3001FA03F315
:104420001343274A136000BFBDF8BA3043F6FF724A
:104430002B922A9300238DF8A730224B1A689DF8FF
:10444000A7302B9901FA03F3DB431A402B992A9BDF
:1044500019409DF8A73001FA03F31343194A13607A
:1044600000BF019B184607F0ECF80346FF2B0CBF7A
:1044700001230023DBB2002B26D00E4B1C93032319
:104480001B9300231A9310238DF867301C9B1A6826
:104490009DF867301B9901FA03F3DB431A401B991F
:1044A0001A9B19409DF8673001FA03F31A431C9BCD
:1044B0001A6046E000B002401CB0024010B002405A
:1044C00024B0024018B002406D4B1593032314939F
:1044D0000223139310238DF84B30159B1A689DF817
:1044E0004B30149901FA03F3DB431A401499139BE0
:1044F00019409DF84B3001FA03F31A43159B1A60DB
:1045000000BF019B184607F09CF803461A46FF239C
:104510001893179218238DF85B305A4B1A689DF840
:104520005B30189901FA03F3DB431A401899179B83
:1045300019409DF85B3001FA03F31343514A1360AD
:1045400000BF4F4A2D9BD363072308930223079391
:1045500000238DF81B304C4B1A689DF81B300899CE
:1045600001FA03F3DB431A400899079B19409DF8B1
:104570001B3001FA03F31343434A136000BFBDF835
:1045800012301A464FF6FF730B930A9200238DF8F0
:1045900027303E4B1A689DF827300B9901FA03F338
:1045A000DB431A400B990A9B19409DF8273001FA0A
:1045B00003F31343354A136000BFBDF810301A46A9
:1045C00043F6FF730E930D9210238DF833302F4B6B
:1045D0001A689DF833300E9901FA03F3DB431A4051
:1045E0000E990D9B19409DF8333001FA03F31343E4
:1045F000264A136000BFBDF8BA3043F6FF7211922D
:10460000109300238DF83F30214B1A689DF83F30FE
:10461000119901FA03F3DB431A401199109B1940D9
:104620009DF83F3001FA03F31343194A136000BFAA
:10463000134B1B68124A43F001031360104B5B6875
:1046400003F00203002B0CBF01230023DBB2002B7D
:1046500002D008F07EFAF1E7094B9B68084A43F064
:1046600002039360039B2433184608F0B7FA04E072
:1046700000BF02E000BF00E000BF31B05DF804FB06
:1046800000B002401CB0024034B0024044B00240CE
:1046900040B0024000B5B3B0039002910192009384
:1046A000029B184606F0BCFF03460693349B18464F
:1046B00006F0B6FF03460593BDF81630ADF8BE30E0
:1046C0000023ADF8BC300023ADF8BA30029B184689
:1046D00006F09FFF3190319B002B00F07B82349BD2
:1046E000184606F096FF3090309B002B00F0748245
:1046F000BDF9D4301A46BDF904301946BDF8003072
:104700000B449A4200F36A82BDF9D6301A46BDF9CD
:1047100006301946BDF802300B449A4200F35E821F
:10472000BDF9D4301A46BDF814301344BDF9042045
:104730009342C0F25382BDF9D6301A46BDF8163006
:104740001344BDF906209342C0F24882BDF90630F9
:104750009AB2BDF9D6309BB2D31A9BB2ADF8B8303D
:10476000BDF9B830002B12DDBDF814301A46BDF982
:10477000B83003FB02F35B00309A13443093BDF86A
:10478000B830BDF8BE20D31AADF8BE300BE0BDF88E
:1047900018301A46BDF9B83003FB02F35B005B42E8
:1047A000319A13443193BDF9D6309AB2BDF8163020
:1047B00013449AB2BDF9063099B2BDF802300B44E9
:1047C0009BB2D31A9BB2ADF8B830BDF9B830002B0C
:1047D00006DDBDF8B830BDF8BE20D31AADF8BE3046
:1047E000BDF904309AB2BDF9D4309BB2D31A9BB252
:1047F000ADF8B830BDF9D420BDF904309A420DDAD5
:10480000BDF9B8305B00309A13443093BDF8B8203E
:10481000BDF8BC301344ADF8BC3006E0BDF9B8308B
:104820005B005B42319A13443193BDF9D4309AB2A4
:10483000BDF8143013449AB2BDF9043099B2BDF8F2
:1048400000300B449BB2D31A9BB2ADF8B830BDF91F
:10485000B830002B06DDBDF8B820BDF8BC301344DD
:10486000ADF8BC30BDF81420BDF8BC30D31AADF89B
:10487000B630BDF81820BDF8B630D31AADF8BA304E
:10488000BDF90630BDF8182002FB03F3BDF9042082
:1048900013445B00319A13443193BDF8B630002BBA
:1048A00000F09E81BDF8BE30002B00F09981039B83
:1048B0002433184608F06EF93F4A309BD3600F232B
:1048C00026930223259300238DF893303B4B1A68DF
:1048D0009DF89330269901FA03F3DB431A40269999
:1048E000259B19409DF8933001FA03F31343334A93
:1048F000136000BFBDF8BC3043F6FF7229922893C5
:1049000000238DF89F302E4B1A689DF89F3029990F
:1049100001FA03F3DB431A402999289B19409DF8BB
:104920009F3001FA03F31343254A136000BF0323AA
:104930002C9301232B9310238DF8AB301F4B1A6857
:104940009DF8AB302C9901FA03F3DB431A402C9904
:104950002B9B19409DF8AB3001FA03F31343174A20
:10496000136000BF349B184606F06BFE0346FF2B16
:104970000CBF01230023DBB2002B23D00E4B23936B
:10498000032322930023219310238DF88330239B4C
:104990001A689DF88330229901FA03F3DB431A4029
:1049A0002299219B19409DF8833001FA03F31A43A1
:1049B000239B1A6079E000BF00B002401CB00240A7
:1049C00010B00240884A319B53610F231593022394
:1049D000149300238DF84F30844B1A689DF84F30A4
:1049E000159901FA03F3DB431A401599149B1940FA
:1049F0009DF84F3001FA03F313437C4A136000BF64
:104A0000BDF8BA3043F6FF721892179300238DF861
:104A10005B30774B1A689DF85B30189901FA03F305
:104A2000DB431A401899179B19409DF85B3001FA37
:104A300003F313436E4A136000BF6B4B1C930323B5
:104A40001B9302231A9310238DF867301C9B1A685E
:104A50009DF867301B9901FA03F3DB431A401B9959
:104A60001A9B19409DF8673001FA03F31A431C9B07
:104A70001A6000BFFF231F93FF231E9318238DF896
:104A800077305C4B1A689DF877301F9901FA03F371
:104A9000DB431A401F991E9B19409DF8773001FA9D
:104AA00003F31343534A136000BF4F4A319BD36350
:104AB000072309930223089300238DF81F304E4BE0
:104AC0001A689DF81F30099901FA03F3DB431A4075
:104AD0000999089B19409DF81F3001FA03F313430D
:104AE000454A136000BFBDF8BE304FF6FF720C920E
:104AF0000B9300238DF82B30404B1A689DF82B3018
:104B00000C9901FA03F3DB431A400C990B9B1940F3
:104B10009DF82B3001FA03F31343384A136000BFAA
:104B2000BDF8B63043F6FF720F920E9310238DF846
:104B30003730324B1A689DF837300F9901FA03F37A
:104B4000DB431A400F990E9B19409DF8373001FA4C
:104B500003F31343294A136000BFBDF8BA3043F68C
:104B6000FF721292119300238DF84330244B1A6880
:104B70009DF84330129901FA03F3DB431A4012996E
:104B8000119B19409DF8433001FA03F313431C4A6B
:104B9000136000BF144B1B68134A43F001031360FA
:104BA000114B5B6803F00203002B0CBF01230023B1
:104BB000DBB2002B02D007F0CCFFF1E70A4B9B6879
:104BC000094A43F002039360039B2433184608F01C
:104BD00005F806E000BF04E000BF02E000BF00E00F
:104BE00000BF33B05DF804FB00B0024024B00240C7
:104BF00018B002401CB0024034B0024044B0024041
:104C000040B0024000B585B003900291019200933C
:104C1000039B0C33184607F0B1FF039B029A1A60FE
:104C2000039B019A5A60039B009A9A60039B184663
:104C300005B05DF804FB00B583B001900B468DF81C
:104C40000330019B1B68002B05D0019B1B689DF85E
:104C500003201046984700BF03B05DF804FB00B581
:104C600083B001900B468DF80330019B5B68002BED
:104C700005D0019B5B689DF803201046984700BF54
:104C800003B05DF804FB00B583B00190019B0C33C9
:104C9000184607F07FFF00BF03B05DF804FB00B5C6
:104CA00083B00190019B0C33184607F097FF00BFBB
:104CB00003B05DF804FB000000B583B003468DF837
:104CC00007309DF807301946034802F0A9F800BFE5
:104CD00003B05DF804FB00BF581B002000B585B091
:104CE00003900291019203980023019A0299FFF721
:104CF00089FF039B184605B05DF804FB08B50E4B11
:104D00005B690D4A43F0010353610C4B1B68002B98
:104D10000FD00A4B1B689847094B1B78002B08D013
:104D2000054B1B68044A23F001031360044B002267
:104D30001A7000BF08BD00BF003C01401C190020D4
:104D40005C19002008B50E4B5B690D4A43F0020365
:104D500053610C4B5B68002B0FD00A4B5B68984784
:104D6000094B5B78002B08D0054B1B68044A23F0E5
:104D700002031360044B00225A7000BF08BD00BF3D
:104D8000003C01401C1900205C19002008B50E4BA6
:104D90005B690D4A43F0040353610C4B9B68002B85
:104DA0000FD00A4B9B689847094B9B78002B08D083
:104DB000054B1B68044A23F004031360044B0022D4
:104DC0009A7000BF08BD00BF003C01401C190020C4
:104DD0005C19002008B50E4B5B690D4A43F00803CF
:104DE00053610C4BDB68002B0FD00A4BDB689847F4
:104DF000094BDB78002B08D0054B1B68044A23F0D5
:104E000008031360044B0022DA7000BF08BD00BF26
:104E1000003C01401C1900205C19002008B50E4B15
:104E20005B690D4A43F0100353610C4B1B69002B67
:104E30000FD00A4B1B699847094B1B79002B08D0F0
:104E4000054B1B68044A23F010031360044B002237
:104E50001A7100BF08BD00BF003C01401C190020B2
:104E60005C19002000B583B0534B5B69ADF8063088
:104E7000BDF8063003F02003002B19D04E4B5B69C0
:104E80004D4A43F0200353614C4B5B69002B0FD01C
:104E90004A4B5B6998474A4B5B79002B08D0464BDD
:104EA0001B68454A23F020031360454B00225A71CA
:104EB000BDF8063003F04003002B19D03E4B5B6970
:104EC0003D4A43F0400353613C4B9B69002B0FD09C
:104ED0003A4B9B6998473A4B9B79002B08D0364B4D
:104EE0001B68354A23F040031360354B00229A714A
:104EF000BDF8063003F08003002B19D02E4B5B6900
:104F00002D4A43F0800353612C4BDB69002B0FD0FB
:104F10002A4BDB6998472A4BDB79002B08D0264BBC
:104F20001B68254A23F080031360254B0022DA71A9
:104F3000BDF8063003F48073002B19D01E4B5B695B
:104F40001D4A43F4807353611C4B1B6A002B0FD026
:104F50001A4B1B6A98471A4B1B7A002B08D0164B2A
:104F60001B68154A23F480731360154B00221A72D4
:104F7000BDF8063003F40073002B19D00E4B5B69AB
:104F80000D4A43F4007353610C4B5B6A002B0FD046
:104F90000A4B5B6A98470A4B5B7A002B08D0064B9A
:104FA0001B68054A23F400731360054B00225A72F4
:104FB00000BF03B05DF804FB003C01401C19002059
:104FC0005C19002000B583B0624B5B69ADF8063018
:104FD000BDF8063003F48063002B19D05D4B5B698C
:104FE0005C4A43F4806353615B4B9B6A002B0FD098
:104FF000594B9B6A9847594B9B7A002B08D0554BCD
:105000001B68544A23F480631360544B00229A7245
:10501000BDF8063003F40063002B19D04D4B5B69DB
:105020004C4A43F4006353614B4BDB6A002B0FD0B7
:10503000494BDB6A9847494BDB7A002B08D0454B3C
:105040001B68444A23F400631360444B0022DA7265
:10505000BDF8063003F48053002B19D03D4B5B693B
:105060003C4A43F4805353613B4B1B6B002B0FD0E6
:10507000394B1B6B9847394B1B7B002B08D0354BAA
:105080001B68344A23F480531360344B00221A7394
:10509000BDF8063003F40053002B19D02D4B5B698B
:1050A0002C4A43F4005353612B4B5B6B002B0FD006
:1050B000294B5B6B9847294B5B7B002B08D0254B1A
:1050C0001B68244A23F400531360244B00225A73B4
:1050D000BDF8063003F48043002B19D01D4B5B69EB
:1050E0001C4A43F4804353611B4B9B6B002B0FD036
:1050F000194B9B6B9847194B9B7B002B08D0154B8A
:105100001B68144A23F480431360144B00229A73E3
:10511000BDF90630002B19DA0E4B5B690D4A43F4DA
:10512000004353610C4BDB6B002B0FD00A4BDB6B46
:1051300098470A4BDB7B002B08D0064B1B68054ABF
:1051400023F400431360054B0022DA7300BF03B061
:105150005DF804FB003C01401C1900205C19002094
:1051600000B583B001900091019B012B09D1009BF8
:105170004FF6FF72934204D1044A00210448FFF71E
:10518000ADFD00BF03B05DF804FB00BFB94C0008E3
:105190000819002008B54FF6FF710120FFF7E0FF66
:1051A00008BD00008AB00390029113468DF80730C5
:1051B0009DF807301B2B02D91E2309930FE09DF8A1
:1051C0000730182B02D91823099308E09DF80730FF
:1051D000152B02D91623099301E014230993029B8E
:1051E0001B4AA2FB03239B0C0293029A099BB2FB6E
:1051F000F3F30893029B099AB3FBF2F2099901FBBE
:1052000002F29B1A002B02D1089B013B0893114B21
:1052100007930F230693089B059300238DF8133003
:10522000079B1A689DF81330069901FA03F3DB43D4
:105230001A400699059B19409DF8133001FA03F3B3
:105240001A43079B1A6000BF00BF0AB0704700BF37
:1052500083DE1B43003C024082B001900B468DF878
:1052600003309DF80330002B06D0084B1B68074A1B
:1052700043F48073136005E0044B1B68034A23F476
:105280008073136000BF02B0704700BF003C024053
:1052900082B001900B468DF803309DF80330002B4F
:1052A00006D0084B1B68074A43F48063136005E08F
:1052B000044B1B68034A23F48063136000BF02B0F1
:1052C000704700BF003C024082B001900B468DF851
:1052D00003309DF80330002B06D0084B1B68074AAB
:1052E00043F40073136005E0044B1B68034A23F486
:1052F0000073136000BF02B0704700BF003C024063
:1053000086B001900B468DF8033013468DF80230BD
:105310009DF803305B008DF80330019A9DF8023050
:1053200005920322049203939DF803308DF80B300D
:10533000059B1A689DF80B30049901FA03F3DB43CF
:105340001A400499039B19409DF80B3001FA03F3AE
:105350001A43059B1A6000BF00BF06B070478AB0B1
:1053600001900B468DF8033013468DF802309DF8FE
:105370000330072B25D89DF803309B008DF80330B0
:10538000019B03F120029DF8023009920F2208923E
:1053900007939DF803308DF81B30099B1A689DF820
:1053A0001B30089901FA03F3DB431A400899079B65
:1053B00019409DF81B3001FA03F31A43099B1A6048
:1053C0002EE09DF803300F2B2AD89DF80330083BC0
:1053D0008DF803309DF803309B008DF80330019B5E
:1053E00003F124029DF8023005920F2204920393E8
:1053F0009DF803308DF80B30059B1A689DF80B3033
:10540000049901FA03F3DB431A400499039B194002
:105410009DF80B3001FA03F31A43059B1A6000BF95
:1054200000BF0AB0704786B001900B468DF803307C
:1054300013468DF802309DF803305B008DF8033081
:10544000019B03F108029DF80230059203220492A9
:1054500003939DF803308DF80B30059B1A689DF877
:105460000B30049901FA03F3DB431A400499039BC0
:1054700019409DF80B3001FA03F31A43059B1A609B
:1054800000BF00BF06B0704782B001900B468DF898
:10549000033013468DF802309DF80230002B0AD0FD
:1054A000019B5B689DF80320012101FA02F21A4377
:1054B000019B5A600AE0019B5B689DF80320012173
:1054C00001FA02F2D2431A40019B5A6000BF02B0B7
:1054D0007047000000B583B003468DF807309DF893
:1054E000073019460348FCF79FFB00BF03B05DF887
:1054F00004FB00BFE615002000B583B003468DF81D
:1055000007309DF8073019460348FCF7A9FB00BF98
:1055100003B05DF804FB00BFE615002000B583B0C2
:1055200003468DF807309DF8073019460348FCF70D
:10553000CFFB00BF03B05DF804FB00BFE615002001
:1055400000B583B003468DF807309DF80730194643
:105550000348FCF7D9FB00BF03B05DF804FB00BFB4
:10556000E615002000B583B003468DF807309DF89E
:10557000073019460348FCF7E3FB00BF03B05DF8B2
:1055800004FB00BFE615002000B583B003468DF88C
:1055900007309DF8073019460348FCF7EDFB00BFC4
:1055A00003B05DF804FB00BFE615002000B583B032
:1055B00003468DF807309DF8073019460348FCF77D
:1055C000F7FB00BF03B05DF804FB00BFE615002049
:1055D00000B583B003468DF807309DF807301946B3
:1055E0000348FCF701FC00BF03B05DF804FB00BFFB
:1055F000E615002000B583B003468DF807309DF80E
:10560000073019460348FCF70BFC00BF03B05DF8F8
:1056100004FB00BFE615002000B583B003468DF8FB
:1056200007309DF8073019460348FCF715FC00BF0A
:1056300003B05DF804FB00BFE615002000B585B09F
:10564000039002910192009303980023009A01991C
:10565000FFF7D8FA039B029A5A61039B9DF8182022
:105660001A76039B184605B05DF804FB00B583B0BD
:105670000190084611461A4603468DF803300B4642
:105680008DF8023013468DF80130019B5B699DF85F
:10569000031002221846FFF733FE019B5B699DF859
:1056A00002209DF803101846FFF759FE019B5B6925
:1056B0009DF801209DF803101846FFF7B4FE019BEA
:1056C0005B699DF810209DF803101846FFF7DCFE7B
:1056D00000BF03B05DF804FB00B589B003900291F0
:1056E00011461A460B468DF8073013468DF80630E2
:1056F00000238DF81F309DF81F209DF807309A4237
:105700003BD29DF81F30DB00029A13441B680693BE
:105710009DF81F30DB00029A13441B798DF8173077
:105720009DF81F30DB00029A13445B798DF8163028
:105730009DF81730022219460698FFF7E1FD9DF803
:1057400016209DF8173019460698FFF708FE9DF8B9
:1057500006209DF8173019460698FFF764FE9DF85D
:1057600028209DF8173019460698FFF78DFE9DF802
:105770001F3001338DF81F30BDE700BF09B05DF861
:1057800004FB00B583B00190084611461A46034653
:105790008DF803300B468DF8023013468DF801303A
:1057A000019B5B699DF8031001221846FFF7A8FDD5
:1057B000019B5B699DF802209DF803101846FFF7D6
:1057C00032FE019B5B699DF801209DF8031018468D
:1057D000FFF75AFE00BF03B05DF804FB82B00190F2
:1057E0000B468DF8033013468DF802309DF80230D9
:1057F000002B0DD0019B5B695A699DF80330012194
:1058000001FA03F31946019B5B690A435A610DE0F3
:10581000019B5B695A699DF80330012101FA03F38A
:10582000DB431946019B5B690A405A6100BF02B025
:105830007047000000B585B003900291039B012BD7
:105840005CD1029B4FF6FF72934257D10023009325
:1058500000232C4A2C492D48FFF7F0FE012300932A
:1058600000232B4A2B492C48FFF7E8FE0223009324
:105870000023274A29492A48FFF7E0FE0323009323
:105880000023284A28492948FFF7D8FE042300931B
:105890000023274A27492848FFF7D0FE0523009315
:1058A0000023264A26492748FFF7C8FE062300930F
:1058B0000023254A25492648FFF7C0FE0723009309
:1058C0000023244A24492548FFF7B8FE0823009303
:1058D0000023234A23492448FFF7B0FE09230093FD
:1058E0000023224A22492348FFF7A8FE0A230093F7
:1058F0000023214A21492248FFF7A0FE00BF05B03E
:105900005DF804FBD5540008000002407019002027
:10591000F9540008000402408C19002000080240DD
:10592000A81900201D550008000C0240C4190020D1
:105930004155000800100240E0190020655500089C
:1059400000140240FC19002089550008001802408C
:10595000181A0020AD550008001C0240341A00201F
:10596000D155000800200240501A0020F5550008CB
:10597000002402406C1A002019560008002802403A
:10598000881A002008B54FF6FF710120FFF752FF7B
:1059900008BD000000B583B003468DF807309DF8C0
:1059A000073019460348FCF75FFC00BF03B05DF801
:1059B00004FB00BFE615002000B583B003468DF858
:1059C00007309DF8073019460348FCF769FC00BF13
:1059D00003B05DF804FB00BFE615002000B583B0FE
:1059E00003468DF807309DF8073019460348FCF749
:1059F00073FC00BF03B05DF804FB00BFE615002098
:105A000000B587B00590049103920293059B184658
:105A100006F068FF059B03F114000023029A039926
:105A2000FFF7F0F80598049B03F11001049B103375
:105A3000BDF82820019200930B460022002106F0B9
:105A40005AFF059B089ADA62059B099A1A63059B1F
:105A5000049A9A62059B184607B05DF804FB0000A3
:105A600000B58DB001900B468DF803306048FBF710
:105A7000BBFE0A90019B9B6A1A68019B9B6A42F4D9
:105A800000421A60019B9B6A1A68019B9B6A22F480
:105A900000421A60019B9B6A1A1D0A9B5549A1FB93
:105AA00003139B0C09923F220892079300238DF861
:105AB0001B30099B1A689DF81B30089901FA03F303
:105AC000DB431A400899079B19409DF81B3001FAE7
