:020000040800F2
:10000000D8350020C70300081503000817030008AF
:10001000190300081B0300081D030008000000006E
:100020000000000000000000000000001F030008A6
:100030002103000800000000E7230008D523000882
:1000400027030008290300082B0300082D030008DC
:100050002F030008310300083303000835030008AC
:1000600037030008390300083B0300083D0300087C
:100070003F0300084103000843030008450300084C
:100080004703000800000000C50400084B030008F7
:100090004D0300082505000851030008530300081C
:1000A00055030008E91F000859030008292000082B
:1000B000752000085F03000861030008630300085F
:1000C0006503000867030008690300086B03000864
:1000D0006D0300086F030008710300087303000834
:1000E0007503000877030008790300087B03000804
:1000F0007D0300087F030008810300080000000062
:1001000000000000830300080000000085030008D1
:100110008703000800000000890300088B03000823
:100120008D0300088F030008910300089303000863
:10013000950300080000000000000000970300087D
:10014000990300089B030008000000000000000065
:10015000000000000000000000000000000000009F
:100160000000000000000000000000009D030008E7
:100170009F030008000000000000000000000000D5
:1001800000000000A10300080000000000000000C3
:10019000000000000000000000000000000000005F
:1001A0000000000000000000A3030008A5030008F1
:1001B000A7030008A9030008AB0300080000000023
:1001C00000000000AD030008000000000000000077
:0801D000AF030008B1030008B1
:1001D800304931480A1A02D0072291438D462F49E7
:1001E8002F480A1A06D00722914381F30988022270
:1001F80082F314882B482C492C4A00F03AF82C48F2
:100208002C492D4A00F035F82C482D492D4A00F08C
:1002180030F82D482D492E4A00F02BF82D482E494C
:100228002E4A00F026F82E482E492F4A00F021F8D1
:100238002E482F492F4A00F01CF82F482F4900223A
:1002480000F022F82E482F49002200F01DF81F4820
:100258001F49884205D00268043003B4904703BCA4
:10026800F7E700208646EC4600200021264A904702
:10027800FEE7884207D0521A05D0037801300B7088
:100288000131013AF9D17047884202D00270013039
:10029800FAE77047D8350020D82D0020D83D002037
:1002A800D835002024410008000000203C00002030
:1002B800D4030008D4030008AC3600082441000821
:1002C8000000002000000020AC360008AC36000812
:1002D800D0360008AC360008AC360008AC3600084A
:1002E800D0360008D03600082341000860410008D5
:1002F800C02D0020C02D00203C000020C02D002073
:10030800C02D0020C02D002039040008FEE7FEE7BC
:10031800FEE7FEE7FEE7FEE7FEE7FEE7FEE7FEE7AD
:10032800FEE7FEE7FEE7FEE7FEE7FEE7FEE7FEE79D
:10033800FEE7FEE7FEE7FEE7FEE7FEE7FEE7FEE78D
:10034800FEE7FEE7FEE7FEE7FEE7FEE7FEE7FEE77D
:10035800FEE7FEE7FEE7FEE7FEE7FEE7FEE7FEE76D
:10036800FEE7FEE7FEE7FEE7FEE7FEE7FEE7FEE75D
:10037800FEE7FEE7FEE7FEE7FEE7FEE7FEE7FEE74D
:10038800FEE7FEE7FEE7FEE7FEE7FEE7FEE7FEE73D
:10039800FEE7FEE7FEE7FEE7FEE7FEE7FEE7FEE72D
:1003A800FEE7FEE7FEE7FEE7FEE70548854601F0C3
:1003B80094FF044804490160FFF70ABF7047FEE74D
:0C03C8000040002008ED00E000000008EC
:1003D40008B5012205210B4801F065FC0022052126
:1003E400084801F060FC01220821064801F05BFC8A
:1003F400322002F03BFB00220821024801F053FCAA
:1004040000BF08BDE000002008B501220421074810
:1004140001F049FC00220421044801F044FC044B8F
:100424001B68184602F014FC00BF08BDE000002061
:100434003C00002000B583B00190009102F098FECA
:10044400002301220821194801F000FC00230122A5
:100454000421164801F0FAFB002301220521134868
:1004640001F0F4FB4FF48061114802F0E3FB034612
:10047400104A13600121104801F0A2F94FF4FA71F7
:100484000D4801F06BFE01210B4801F089FE0B4978
:10049400094801F0C9FE084801F09FFE0121064801
:1004A40001F0A2F901F0BEFFFCE700BFE00000206C
:1004B400D50300083C000020180200200D040008A9
:1004C40000BF704708B5034801F062F803461846B8
:1004D40008BD00BF9400002000B583B003468DF82A
:1004E40007309DF807301946034801F035F800BF7E
:1004F40003B05DF804FB00BF9400002000B583B096
:1005040003468DF807309DF807301946034801F07B
:10051400B7FC00BF03B05DF804FB00BF88010020F6
:1005240008B5184B5B6D03F00103002B07D0154B86
:100534001B6D03F00103002B01D0012300E0002315
:10054400002B1CD0104B1B781A46104B53F822304A
:1005540019460F4800F06FF80B4B1B785A1CD1B2A8
:10056400094A1170074AC2F89430074B1B78022BD2
:1005740002D9054B00221A70024B01221A6500BFF2
:1005840008BD00BF0064004090000020000000206F
:100594004000002000B587B00390029101920093BF
:1005A40003980023009A019901F0F1F8039B483362
:1005B400184601F04DFF029B0593039B029A5A646F
:1005C400039B089A5A62039B00229A61039B0022B0
:1005D400DA61039B00225A61039B00221A62039B87
:1005E400002283F84020059B03F580430593059A78
:1005F400039BDA63059B70331A46039B9A63059B3E
:10060400B0331A46039B5A63059B03F5C4731A4619
:10061400039B1A63059B03F518731A46039BDA625E
:10062400059B03F51E731A46039B9A62039B1846A7
:1006340007B05DF804FB84B001900091019B9B69B5
:10064400591C019A91619B000393009B1A1D00920F
:10065400019A5169039A501C039092000A441B6842
:100664001360009B1A1D0092019A5169039A501C51
:10067400039092000A441B681360009B1A1D0092A9
:10068400019A5169039A501C039092000A441B6812
:100694001360009B1A1D0092019A5169039A501C21
:1006A400039092000A441B681360019B9A69019BA2
:1006B4001B6A9A4202D3019B00229A6100BF04B0D4
:1006C4007047000000B585B003900291039B012B95
:1006D4000CD1029B4FF6FF72934207D1054B009356
:1006E400054B064A06490748FFF754FF00BF05B00B
:1006F4005DF804FBC904000801050008DD040008D6
:10070400006400404000002008B54FF6FF7101204E
:10071400FFF7D8FF08BD0000044B9B681B0ADBB23F
:1007240003F00703DBB21846704700BF0010024015
:10073400044B9B68DB0ADBB203F00703DBB2184609
:10074400704700BF00100240044B9B681B09DBB2DA
:1007540003F00F03DBB21846704700BF00100240DD
:10076400044B9B689B08DBB203F00303DBB218461F
:10077400704700BF0010024084B001900B468DF812
:100784000330274B1B680393264B9B6D254A43F08C
:10079400805393659DF80330022B2ED0022B38DC56
:1007A400002B02D0012B14D033E0039B23F480638D
:1007B4000393039B43F400730393194A039B13604D
:1007C400174BD3F88030164A43F48073C2F8803054
:1007D40021E0039B23F480630393039B43F400739E
:1007E40003930F4A039B13600D4BD3F880300C4ADC
:1007F40023F48073C2F880300DE0039B23F400736C
:100804000393039B43F480630393054A039B1360A0
:1008140001E0002300E00123184604B0704700BF44
:10082400007000400010024084B001900C4B1B6823
:1008340003F4C06303930A4BD3F8803003F480734A
:100844000293039BB3F5806F01D1022305E0029B61
:10085400002B01D0002300E00123184604B07047A8
:100864000070004000B585B001900B468DF8033050
:100874009DF803302A4A02FB03F30293294A9DF8A8
:1008840003301370284802F0EEFE9DF80330194639
:10089400264802F0E8FE029B254A934203D9029BB4
:1008A400244A934210D9244802F0DDFE029B234AD5
:1008B400A2FB03239A094CF250334FF47A71204877
:1008C40002F0D1FE002326E01E4B1B681D4A43F4B0
:1008D4008033136000230393039B1B4A934213D872
:1008E400184B1B6803F40033002B14BF01230023AF
:1008F400DBB2002B04D0154802F0B5FE01230AE058
:10090400039B01330393E7E70B4802F0ACFE104866
:1009140002F0A9FE0023184605B05DF804FB00BFF1
:1009240040420F00C02D0020303700085C3700081B
:100934003F420F0080F0FA0284370008D34D621062
:100944009C370008001002409F860100043800080C
:100954001C38000810B582B00190019800F05CF8D2
:100964000446FFF7D9FE03461A46044B53F82230D7
:10097400B4FBF3F3184602B010BD00BFD036000834
:1009840000B585B00190FFF7C7FE03468DF80B3024
:10099400019800F041F802469DF80B300A4951F8DD
:1009A4002330B2FBF3F303939DF80B30064A52F85D
:1009B4002330012B02D9039B5B000393039B18464E
:1009C40005B05DF804FB00BFD036000800B585B063
:1009D4000190FFF7ADFE03468DF80B30019800F04F
:1009E4001BF802469DF80B300A4951F82330B2FB3C
:1009F400F3F303939DF80B30064A52F82330012B8E
:100A040002D9039B5B000393039B184605B05DF872
:100A140004FB00BFD036000800B585B00190FFF795
:100A24009FFE0346032B0DD0032B0FDC012B02D0BA
:100A3400022B03D00AE00D4B039307E00C4B1B7809
:100A4400039303E00B4B1B68039300BFFFF77CFE8B
:100A540003461A46084B53F82230039AB2FBF3F3C9
:100A64000393039B184605B05DF804FB0024F400CF
:100A7400C02D0020CC2D0020F036000882B001905B
:100A84000B468DF803309DF80330002B06D0084B3D
:100A9400DB68074A43F48033D36005E0044BDB682A
:100AA400034A23F48033D36000BF02B0704700BF11
:100AB4000010024082B001900B468DF803309DF87F
:100AC4000330002B06D0084BDB68074A43F480133D
:100AD400D36005E0044BDB68034A23F48013D3603E
:100AE40000BF02B0704700BF0010024082B0019006
:100AF4000B468DF803309DF80330002B06D0084BCD
:100B0400DB68074A43F08073D36005E0044BDB687D
:100B1400034A23F08073D36000BF02B0704700BF64
:100B24000010024000B599B0039001921A460B469A
:100B34008DF80B3013468DF80A30A04802F093FD6F
:100B44009DF80B30022B02D0032B06D01EE09C48EC
:100B540002F089FD102317931FE09A4802F083FDE9
:100B6400994B1B6803F40033002B0CBF01230023B3
:100B7400DBB2002B06D0954802F075FD944802F0D4
:100B840072FD28E2934B1B78179306E08F4802F01E
:100B94006AFD914802F067FD1DE29048FFF744FEAC
:100BA4000346022B06D0022B37DC002B13D0012B7B
:100BB40022D032E08A4B14938A4B15938A4B1393B9
:100BC4008A4B12938A4B1193884B1093884B0F9343
:100BD400864B0E9321E0824B1493864B1593824BE4
:100BE4001393854B1293824B1193834B1093804B39
:100BF4000F93814B0E9310E0794B14937D4B159317
:100C0400794B13937D4B1293794B11937B4B109338
:100C1400774B0F93794B0E9300BF019B784A02FBED
:100C240003F30B930B9A149B9A4203D3159A0B9BD1
:100C34009A4215D2654802F016FD149B714AA2FB34
:100C4400032399090B9B6F4AA2FB03239A09159B63
:100C54006C48A0FB03039B096B4802F004FDBAE156
:100C6400594B9B689B08DBB203F003038DF82B30D0
:100C7400554B1B6803F000730993099B002B03D1A8
:100C84009DF82B30032B06D1504802F0ECFC5F4852
:100C940002F0E9FC9FE101230D930D9B179A9A4200
:100CA4001ED90D9A179BB3FBF2F102FB01F29B1ABA
:100CB400002B11D10D9B179AB2FBF3F30893019B00
:100CC400089AB3FBF2F2089901FB02F29B1A002B7B
:100CD40002D10D9B169309E00D9B01330D93DCE7C4
:100CE4003A4802F0C0FC4A4802F0BDFC179A169B31
:100CF400B2FBF3F30893089B022B08D8089B0F2B35
:100D040005D9324802F0AFFC424802F0ACFC169B15
:100D1400013B0F2B09D92D4802F0A5FC0F23169A8D
:100D240000213D4802F09FFC55E1179A169BB2FB47
:100D3400F3F3019AB2FBF3F30793079B072B02D952
:100D4400079B7F2B09D9214802F08DFC7F23079A4A
:100D54000821324802F087FC3DE19DF80A30012B5E
:100D640003D99DF80A301F2B0AD9184802F07BFCDE
:100D74009DF80A201F230221294802F074FC2AE16D
:100D84009DF86830032B0AD9104802F06CFC9DF8DA
:100D9400683003221946234802F065FC1BE19DF8E4
:100DA4006C30032B42D9094802F05DFC9DF86C308D
:100DB400032219461C4802F056FC0CE14C3800088A
:100DC4007C380008A438000800100240843700086A
:100DD400D0380008C02D00200039000894000020FD
:100DE40000D8B8050020A10774801F0080BA8C01C8
:100DF40000127A000006811480D1F00880FE210AD6
:100E040040420F00D34D6210383900089839000869
:100E1400EC390008703A0008F03A0008803B0008FA
:100E2400003C0008603C0008B43C00089DF80A300F
:100E34000B9AB2FBF3F30993139A099B9A4203D8D2
:100E4400099A129B9A4215D96A4802F00CFC139B2A
:100E5400694AA2FB03239909099B674AA2FB03235E
:100E64009A09129B6448A0FB03039B09634802F0A0
:100E7400FAFBB0E09DF8683001335B001A460B9B27
:100E8400B3FBF2F30693119A069B9A4203D8069A8F
:100E9400109B9A4215D9574802F0E5FB119B564A1C
:100EA400A2FB03239909069B534AA2FB03239A0935
:100EB400109B5148A0FB03039B09514802F0D3FB4C
:100EC40089E09DF86C3001335B001A460B9BB3FB41
:100ED400F2F305930F9A059B9A4203D8059A0E9B49
:100EE4009A4215D9434802F0BEFB0F9B424AA2FB2B
:100EF40003239909059B404AA2FB03239A090E9BED
:100F04003D48A0FB03039B093E4802F0ACFB62E0B2
:100F14009DF80A30DA069DF86C305B061A439DF89A
:100F240068305B0513431A46079B1B021A43169B42
:100F3400013B1B011A439DF80B3033491343CB602B
:100F4400314B1B68304A43F08073136000230C93C9
:100F54000C9B42F20F72934237D82B4B1B6803F061
:100F64000073002B14BF01230023DBB2002B28D015
:100F7400099B214AA2FB03239B091946234802F03B
:100F840072FB069B1C4AA2FB03239B0919462048BB
:100F940002F069FB059B184AA2FB03239B0919462F
:100FA4001C4802F060FB1C4802F05DFB1B4A099BD5
:100FB40013601B4A069B13601A4A059B13600123A6
:100FC40013E00C9B01330C93C2E70A4802F04BFB7D
:100FD400154802F048FB114B00221A60104B002206
:100FE4001A60104B00221A600023184619B05DF8ED
:100FF40004FB00BF84370008D34D6210083D00088D
:101004007C3D0008F03D000800100240643E0008EA
:101014007C3E0008AC3E000804380008C42D0020C3
:10102400C82D0020CC2D00201C38000800B58BB042
:101034000190084611461A4603468DF803300B46C4
:101044008DF8023013468DF80130824802F00BFB14
:101054009DF80330032B2AD0032B42DC012B02D052
:10106400022B06D03DE07C4802F0FDFA7B4B09934D
:101074003FE07B4802F0F7FA7A4B1B6803F4003335
:10108400002B0CBF01230023DBB2002B07D07648D2
:1010940002F0E9FA754802F0E6FA0023D5E0744B51
:1010A4001B781A46734B03FB02F3099321E0724841
:1010B40002F0D9FA6B4B1B6803F00073002B0CBFD2
:1010C40001230023DBB2002B07D0674802F0CBFAE0
:1010D4006A4802F0C8FA0023B7E0694B1B68099319
:1010E40007E0614802F0BFFA664802F0BCFA002348
:1010F400ABE00198FFF798FB0346022B14D0022BB8
:1011040019DC002B02D0012B07D014E05E4B0893AE
:101114005D4B07935C4B06930FE05C4B08935B4B72
:1011240007935A4B069308E0594B0893584B07937F
:10113400574B069301E0002387E09DF80230554A9F
:1011440052F82330099AB2FBF3F30593059A089BEE
:101154009A4209D9444802F086FA089A05994E48F9
:1011640002F081FA002370E09DF801304B4A52F8F6
:101174002330059AB2FBF3F30493049A079B9A4233
:1011840009D9394802F06FFA079A0499444802F0E1
:101194006AFA002359E09DF83030404A52F823306F
:1011A400059AB2FBF3F30393039A069B9A4208D978
:1011B4002D4802F058FA06993A4802F054FA0023EE
:1011C40043E09DF834301A460599374800F050FB47
:1011D400244B9B680293029B23F47F5323F0330335
:1011E40002939DF801301A029DF83030DB021A4355
:1011F4009DF802301B011A439DF8033013431A462D
:10120400029B13430293174A029B9360059B274A50
:10121400A2FB03239B091946254802F024FA049BE8
:10122400224AA2FB03239B091946224802F01BFA17
:10123400039B1E4AA2FB03239B0919461E4802F086
:1012440012FA1E4802F00FFA012318460BB05DF89B
:1012540004FB00BFC43E00087C3800080024F400EE
:10126400A43800080010024084370008F83E000843
:10127400C02D002040420F00683F0008803F000856
:10128400CC2D0020D03F000880D1F00880FE210A38
:1012940080BA8C01F036000808400008D0360008F7
:1012A40058400008A4400008C0000020D34D62103C
:1012B400F040000804410008144100080438000804
:1012C40084B001900B468DF803309DF80330022B57
:1012D40011D80A4BD3F8883023F0405303939DF878
:1012E40003301B071A46039B13430393034A039BD0
:1012F400C2F8883000BF00BF04B07047001002403D
:1013040082B001900B468DF803309DF80330002B1A
:1013140006D0084BDB6C074A43F00103D36405E0B5
:10132400044BDB6C034A23F00103D36400BF02B017
:10133400704700BF0010024082B001900B468DF848
:1013440003309DF80330002B06D0084BDB6C074AB2
:1013540043F00203D36405E0044BDB6C034A23F03F
:101364000203D36400BF02B0704700BF0010024004
:1013740082B001900B468DF803309DF80330002BAA
:1013840006D0084BDB6C074A43F00403D36405E042
:10139400044BDB6C034A23F00403D36400BF02B0A4
:1013A400704700BF0010024082B001900B468DF8D8
:1013B40003309DF80330002B06D0084BDB6C074A42
:1013C40043F00803D36405E0044BDB6C034A23F0C9
:1013D4000803D36400BF02B0704700BF001002408E
:1013E40082B001900B468DF803309DF80330002B3A
:1013F40006D0084BDB6C074A43F01003D36405E0C6
:10140400044BDB6C034A23F01003D36400BF02B027
:10141400704700BF0010024082B001900B468DF867
:1014240003309DF80330002B06D0084BDB6C074AD1
:1014340043F02003D36405E0044BDB6C034A23F040
:101444002003D36400BF02B0704700BF0010024005
:1014540082B001900B468DF803309DF80330002BC9
:1014640006D0084BDB6C074A43F04003D36405E025
:10147400044BDB6C034A23F04003D36400BF02B087
:10148400704700BF0010024082B001900B468DF8F7
:1014940003309DF80330002B06D0084B9B6D074AA0
:1014A40043F00103936505E0044B9B6D034A23F06D
:1014B4000103936500BF02B0704700BF00100240F3
:1014C40082B001900B468DF803309DF80330022B57
:1014D40016D80D4BD3F888300B4A23F44053C2F886
:1014E400883000238DF803309DF80320064BD3F891
:1014F40088301146044A0B43C2F88830012300E0C7
:101504000023184602B070470010024082B00190D8
:101514000B468DF803309DF80330022B16D80D4B83
:10152400D3F888300B4A23F44043C2F888300023B0
:101534008DF803309DF80320064BD3F8883011460C
:10154400044A0B43C2F88830012300E00023184604
:1015540002B070470010024082B001900B468DF833
:1015640003309DF80330002B06D0084B9B6D074ACF
:1015740043F00073936505E0044B9B6D034A23F02D
:101584000073936500BF02B0704700BF00100240B3
:1015940000B585B00190144BD3F888301B0E03F0CE
:1015A40003030393039B022B13D0039B022B15D835
:1015B400039B002B03D0039B012B07D00EE00B4BA6
:1015C4001B781A460A4B03FB02F308E0094B1B681D
:1015D40005E00948FFF7BEF9034600E0002318467A
:1015E40005B05DF804FB00BF00100240C02D0020D0
:1015F40040420F00C82D00209400002084B00190C8
:101604000B468DF803309DF80330022B01D90023DB
:1016140013E00B4BD3F888300393039B23F0407300
:1016240003939DF803301B061A46039B134303934D
:10163400034A039BC2F888300123184604B070475C
:101644000010024082B001900B468DF803309DF8E3
:101654000330022B16D80D4BD3F888300B4A23F4F1
:101664004033C2F8883000238DF803309DF80320FE
:10167400064BD3F888301146044A0B43C2F888302D
:10168400012300E00023184602B070470010024016
:1016940082B001900B468DF803309DF80330002B87
:1016A40006D0084B1B6E074A43F00103136605E09E
:1016B400044B1B6E034A23F00103136600BF02B000
:1016C400704700BF0010024082B001900B468DF8B5
:1016D40003309DF80330002B06D0084B1B6E074ADD
:1016E40043F40063136605E0044B1B6E034A23F4C2
:1016F4000063136600BF02B0704700BF00100240D1
:1017040082B003468DF8073000BF02B0704782B044
:1017140003468DF8073000BF02B0704700B585B0AE
:1017240003900291019203980023019A029900F018
:101734002EF8039B184605B05DF804FB82B00190B7
:1017440000BF02B07047000000B583B00190009163
:10175400019B012B09D1009B4FF6FF72934204D1E8
:10176400044A05490548FFF7D9FF00BF03B05DF8F7
:1017740004FB00BF13170008051700089800002099
:1017840008B54FF6FF710120FFF7DEFF08BD00B575
:1017940085B00390029101920093039B0C33184689
:1017A40000F056FE039B029A1A60039B019A5A604A
:1017B400039B009A9A60039B184605B05DF804FBEE
:1017C40000B583B001900B468DF80330019B1B6874
:1017D400002B05D0019B1B689DF8032010469847F9
:1017E40000BF03B05DF804FB00B583B001900B4665
:1017F4008DF80330019B5B68002B05D0019B5B686F
:101804009DF803201046984700BF03B05DF804FB21
:1018140000B585B003900291019203980023019AC8
:101824000299FFF7B4FF039B184605B05DF804FB6B
:1018340000B583B001900091019B012B09D1009B5D
:101844004FF6FF72934204D1002200210348FFF7B0
:10185400DFFF00BF03B05DF804FB00BFAC00002055
:1018640008B54FF6FF710120FFF7E2FF08BD000045
:1018740000B58DB00390029113468DF807303448BB
:10188400FEF7D2FF0346022B06D0022B25DC002BE9
:101894000DD0012B16D020E02E4B0A932E4B09932A
:1018A4002E4B08932E4B07932D4B069315E02D4B8F
:1018B4000A932D4B09932D4B08932D4B07932D4BD6
:1018C40006930AE02C4B0A932C4B09932C4B089358
:1018D4002C4B07932C4B069300BF029A0A9B9A4207
:1018E40003D800238DF82F301EE0029A099B9A42F8
:1018F40003D801238DF82F3016E0029A089B9A42F0
:1019040003D802238DF82F300EE0029A079B9A42E7
:1019140003D803238DF82F3006E0029A069B9A42DF
:1019240002D804238DF82F30184B1B680593059BB0
:1019340023F00F0305939DF82F30059A1343059365
:10194400124A059B136000BF0DB05DF804FB00BF95
:1019540094000020001BB70000366E0180BA8C0191
:10196400C0878B3B80C3C90100879303804A5D0510
:10197400000E270780D1F00880CC060200990D04E0
:101984008065140600321B0880FE210A00200240F4
:1019940082B001900B468DF803309DF80330002B84
:1019A40006D0084B1B68074A43F48073136005E0B4
:1019B400044B1B68034A23F48073136000BF02B016
:1019C400704700BF0020024082B001900B468DF8A2
:1019D40003309DF80330002B06D0084B1B68074AE0
:1019E40043F48063136005E0044B1B68034A23F44B
:1019F4008063136000BF02B0704700BF0020024044
:101A040082B001900B468DF803309DF80330002B13
:101A140006D0084B1B68074A43F40073136005E0C3
:101A2400044B1B68034A23F40073136000BF02B025
:101A3400704700BF0020024086B001900B468DF82D
:101A4400033013468DF802309DF803305B008DF8A7
:101A54000330019A9DF80230059203220492039305
:101A64009DF803308DF80B30059B1A689DF80B30F8
:101A7400049901FA03F3DB431A400499039B1940C8
:101A84009DF80B3001FA03F31A43059B1A6000BF5B
:101A940000BF06B0704786B001900B468DF8033046
:101AA40013468DF802309DF803305B008DF8033047
:101AB400019B03F108029DF802300592032204926F
:101AC40003939DF803308DF80B30059B1A689DF83D
:101AD4000B30049901FA03F3DB431A400499039B86
:101AE40019409DF80B3001FA03F31A43059B1A6061
:101AF40000BF00BF06B0704782B001900B468DF85E
:101B0400033013468DF802309DF80230002B0AD0C2
:101B1400019B5B689DF80320012101FA02F21A433C
:101B2400019B5A600AE0019B5B689DF80320012138
:101B340001FA02F2D2431A40019B5A6000BF02B07C
:101B44007047000000B583B003468DF807309DF858
:101B5400073019460348FFF7D3FB00BF03B05DF815
:101B640004FB00BF9400002000B583B003468DF849
:101B740007309DF8073019460348FFF7DDFB00BF27
:101B840003B05DF804FB00BF9400002000B583B0EF
:101B940003468DF807309DF8073019460348FFF7D0
:101BA40003FC00BF03B05DF804FB00BF94000020F9
:101BB40000B583B003468DF807309DF80730194609
:101BC4000348FFF70DFC00BF03B05DF804FB00BF42
:101BD4009400002000B583B003468DF807309DF8CB
:101BE400073019460348FFF717FC00BF03B05DF840
:101BF40004FB00BF9400002000B583B003468DF8B9
:101C040007309DF8073019460348FFF721FC00BF51
:101C140003B05DF804FB00BF9400002000B585B05C
:101C2400039002910192009303980023009A019972
:101C3400FFF7ADFD039B029A5A61039B9DF81820A0
:101C44001A76039B184605B05DF804FB00B583B013
:101C54000190084611461A4603468DF803300B4698
:101C64008DF8023013468DF80130019B5B699DF8B5
:101C7400031001221846FFF7DFFE019B5B699DF804
:101C840002209DF803101846FFF705FF019B5B69CE
:101C94009DF801209DF803101846FFF72DFF00BFA3
:101CA40003B05DF804FB82B001900B468DF803305D
:101CB40013468DF802309DF80230002B0DD0019BA5
:101CC4005B695A699DF80330012101FA03F319464F
:101CD400019B5B690A435A610DE0019B5B695A6988
:101CE4009DF80330012101FA03F3DB431946019BFC
:101CF4005B690A405A6100BF02B0704700B585B005
:101D040003900291039B012B3DD1029B4FF6FF727E
:101D1400934238D10023009300231D4A4FF0904191
:101D24001C48FFF77BFF0123009300231A4A1B4939
:101D34001B48FFF773FF022300930023164A194937
:101D44001948FFF76BFF032300930023174A184930
:101D54001848FFF763FF042300930023164A17492A
:101D64001748FFF75BFF052300930023154A164924
:101D74001648FFF753FF062300930023144A15491E
:101D84001548FFF74BFF00BF05B05DF804FB00BF2B
:101D9400491B0008C40000206D1B00080004004813
:101DA400E000002000080048FC000020911B00080F
:101DB400000C004818010020B51B00080010004862
:101DC40034010020D91B00080014004850010020F1
:101DD400FD1B0008001800486C01002008B54FF6F0
:101DE400FF710120FFF78AFF08BD000082B003469F
:101DF4000A468DF8073013468DF806309DF80730F3
:101E040003F01F03012202FA03F1044A9DF807308C
:101E14005B1142F8231000BF02B0704700E100E0FC
:101E240000B585B003900291019203980023019AB2
:101E34000299FFF7ACFC039B184605B05DF804FB60
:101E440000B583B001900B468DF803309DF8033044
:101E540019461920FFF7CAFF00BF03B05DF804FB61
:101E640000B583B001900B468DF803309DF8033024
:101E740019461C20FFF7BAFF00BF03B05DF804FB4E
:101E840000B583B001900B468DF803309DF8033004
:101E940019461520FFF7AAFF9DF8033019461620AE
:101EA400FFF7A4FF00BF03B05DF804FB00B583B0E7
:101EB40001900091019B012B09D1009B4FF6FF7209
:101EC400934204D1002200210348FFF7A9FF00BF79
:101ED40003B05DF804FB00BF8801002008B54FF68D
:101EE400FF710120FFF7E2FF08BD000000B583B0D9
:101EF40003468DF807309DF8073019460348FFF76D
:101F0400C7FB00BF03B05DF804FB00BF94000020D2
:101F140000B585B003900291019203980023019AC1
:101F24000299FFF734FC039B184605B05DF804FBE7
:101F340000B583B001900091019B012B09D1009B56
:101F44004FF6FF72934204D1002204490448FFF77C
:101F5400DFFF00BF03B05DF804FB00BFF11E000803
:101F64009C01002008B54FF6FF710120FFF7E0FF48
:101F740008BD000008B50348FEF728FD03461846CF
:101F840008BD00BF9400002008B50348FEF7F8FC24
:101F94000346184608BD00BF9400002000B583B076
:101FA40003468DF807309DF8073019460348FFF7BC
:101FB4008BFB00BF03B05DF804FB00BF940000205E
:101FC40000B583B003468DF807309DF807301946F5
:101FD4000348FFF735FF00BF03B05DF804FB00BF03
:101FE4008801002008B50D4BDB6803F00103002BCA
:101FF40007D00A4B1B6903F00103002B01D0012316
:1020040000E00023002B06D0044B6FF001021A619C
:10201400034800F012F900BF08BD00BF002C0140C6
:10202400B001002000BF704700B583B003468DF8AF
:1020340007309DF8073019460348FFF725FA00BF1B
:1020440003B05DF804FB00BF9400002000B583B02A
:1020540003468DF807309DF8073019460348FFF70B
:10206400FFFE00BF03B05DF804FB00BF8801002041
:1020740008B54FF08043DB6803F00103002B08D060
:102084004FF080431B6903F00103002B01D00123AF
:1020940000E00023002B07D04FF080436FF00102D3
:1020A4001A61024800F0C9F800BF08BD18020020F8
:1020B40000B585B003900291019200930398002328
:1020C400009A0199FFF763FB039B029A5A61039BF1
:1020D400069A1A65039B00225A6503994FF0000281
:1020E4004FF00003C1E90623039B00229A65039B7A
:1020F4000022DA65039B00221A66039B00225A66BB
:10210400039B184605B05DF804FB000000B583B0DE
:102114000190019800F07DF803460F4AA2FB0323C7
:102124009B0C9BB25A1E019B5B699A62019B5B6983
:102134004EF66022DA62019B5B694EF660225A62B7
:10214400019B5B69DA68019B5B6942F00102DA601A
:1021540000BF03B05DF804FB83DE1B4300B587B00A
:1021640001900091019800F054F80590059A009BA5
:10217400B2FBF3F30493049B1B0C0393039B013303
:10218400049AB2FBF3F30493019B5B69039A9A628A
:10219400019B5B69049ADA6200BF07B05DF804FB37
:1021A40082B001900B468DF803309DF80330002B6C
:1021B40008D0019B5B69DA68019B5B6942F001020C
:1021C400DA6007E0019B5B69DA68019B5B6922F0D6
:1021D4000102DA6000BF02B0704782B00190019B37
:1021E4005B691A68019B5B6942F001021A6000BFD7
:1021F40002B0704782B00190019B5B695B6A18462C
:1022040002B0704782B001904EF66023184602B0C7
:10221400704700B583B00190019B1B6D984703463E
:10222400184603B05DF804FB82B001900091019B55
:10223400009A5A6500BF02B0704730B583B0019070
:10224400019B5B6D002B02D0019B5B6D9847019B4A
:10225400D3E90623541C43F10005019BC3E9064559
:1022640000BF03B030BD000000B585B003900291FB
:10227400039B012B15D1029B4FF6FF72934210D1A1
:102284000A4B00930A4B0B4A0B490C48FFF710FF0B
:102294000B4B00930B4B0C4A4FF080410B48FFF75C
:1022A40007FF00BF05B05DF804FB00BF791F0008FD
:1022B400C51F0008A11F0008002C0140B001002028
:1022C4008D1F0008512000082D200008180200204E
:1022D40008B54FF6FF710120FFF7C6FF08BD08B52A
:1022E40000F004F800F042FF00BF08BD00B583B061
:1022F40000213448FEF740FA18213248FEF7B2FABA
:1023040000230193032300931F234FF490720321AE
:102314002D48FEF707FC01212B48FEF7AFFB0121F6
:102324002948FEF7C7FB01212748FEF7DFFB0121FF
:102334002448FEF7C5FF02212248FFF75FF9022176
:102344002048FFF7BDF802211E48FFF7DFF80221FD
:102354001C48FFF777F921230193042300930523F5
:10236400002203211748FEF761FE01211748FFF7F9
:102374000FFB01211548FFF727FB01211348FFF745
:102384003FFB01210F48FEF7BBFF01210D48FEF77B
:10239400D3FF01210B48FEF7EBFF01210948FFF7AA
:1023A40003F801210748FFF71BF801210548FFF74F
:1023B40033F801210348FFF74BF800BF03B05DF881
:1023C40004FB00BF9400002095000020C000002002
:1023D4004EF60450CEF20000016851F080510160C5
:1023E4007047EFF309804EF21003CEF200034FF072
:1023F40000011960734620E9F80F00F049FDB0E8C8
:10240400F80F80F309884EF2100CCEF2000C4FF056
:102414000701CCF800104FF00001CCF8081008B404
:1024240000BD00BF03B44EF60450CEF200000168B4
:1024340051F08051016003BC7047000082B00190EC
:10244400024B01221A7000BF02B0704780020020C4
:1024540082B00190019B00221A60019B00225A6005
:10246400019B184602B0704700B585B0019000F09A
:102474009FFA72B600BF019B1B680393019B1B6804
:102484005A1C019B1A6062B600BF019B5B68039AE9
:102494009A4214BF01230023DBB2002B02D0FFF7C2
:1024A400C1FFF2E7039B184605B05DF804FB00008A
:1024B40000B583B0019072B600BF019B5B685A1CE3
:1024C400019B5A6062B600BF00F096FA0A4B1B7873
:1024D400002B07D0019B1A68019B5B689A4201D0CC
:1024E400012300E00023002B01D0FFF79BFF00BF76
:1024F40003B05DF804FB00BF8002002008B5084B60
:1025040001221A73064B01225A734FF400710548D5
:1025140000F0C6F9044B01221A7000BF08BD00BFC9
:1025240084020020312500088003002000B583B018
:102534004C48FFF799FF00230193019B072B00F3FD
:1025440088804949019A1346DB009B1A9B000B447F
:102554000C331B7883F00103DBB2002B33D04249E8
:10256400019A1346DB009B1A9B000B440E331B7825
:1025740083F00103DBB2002B25D03B49019A1346BB
:10258400DB009B1A9B000B440D331B78002B1AD0E5
:102594003549019A1346DB009B1A9B000B441B68C8
:1025A400184600F069FD3049019A1346DB009B1A76
:1025B4009B000B440D3300221A702C4B1B88013BEB
:1025C4009AB22A4B1A802849019A1346DB009B1AB7
:1025D4009B000B440E331B78002B36D02249019A02
:1025E4001346DB009B1A9B000B440C331B7883F0CF
:1025F4000103DBB2002B28D01B49019A1346DB00F0
:102604009B1A9B000B4410331B7883F00103DBB24D
:10261400002B1AD0019800F07BFB1349019A134652
:10262400DB009B1A9B000B440F331B78002B0CD050
:102634000D49019A1346DB009B1A9B000B440F3390
:1026440000221A70019800F003FB019B01330193EF
:1026540073E70448FFF72CFFFFF7E4FE00F0B0FF38
:1026640066E700BF78030020840200200C000020ED
:1026740010B586B00390029101928548FFF7F4FEED
:10268400844B1B88072B05D98148FFF711FF4FF0B6
:10269400FF33FAE001230593059B072BD4BF0123E5
:1026A4000023DBB2002B1CD0059A7B491346DB00C8
:1026B4009B1A9B000B440D331B7883F00103DBB2A0
:1026C400002B0AD0059A74491346DB009B1A9B0021
:1026D4000B440D3301221A7003E0059B013305936B
:1026E400DAE7019B059C184600F092FC02466A4911
:1026F4002346DB001B1B9B000B441A60059A6649AA
:102704001346DB009B1A9B000B441B68002B0CBF79
:1027140001230023DBB2002B0FD0059A5E49134638
:10272400DB009B1A9B000B440D3300221A7058489F
:10273400FFF7BEFE4FF0FF33A7E0059A5649134654
:10274400DB009B1A9B000B440833019A1A60019B1F
:102754009B100193059A50491346DB009B1A9B007A
:102764000B441A68019B03F18043013B9B00134413
:102774004FF0C2421A60059A47491346DB009B1A80
:102784009B000B441A68019B03F18043023B9B00AE
:102794001344039A1A60059A3F491346DB009B1AB7
:1027A4009B000B441A68019B03F18043033B9B008D
:1027B40013443A4A1A60059A37491346DB009B1AB8
:1027C4009B000B441A68019B03F18043083B9B0068
:1027D4001344029A1A60059A2F491346DB009B1A88
:1027E4009B000B441A68019B03F18043113B9B003F
:1027F40013446FF002021A60059A27491346DB005E
:102804009B1A9B000B441968019B03F18043113B05
:102814009B00059A194420481346DB009B1A9B0031
:10282400034404331960059A1B491346DB009B1AC1
:102834009B000B44123300221A80059A1649134652
:10284400DB009B1A9B000B440E3300221A70059A7E
:1028540011491346DB009B1A9B000B441433039A63
:102864001A60059A0C491346DB009B1A9B000B4423
:102874000C3301221A70074B1B8801339AB2054BA3
:102884001A800348FFF714FE059B184606B010BDD6
:10289400780300200C00002084020020452A000850
:1028A40000B583B001900091009A00210198FFF7D0
:1028B400DFFE0346184603B05DF804FB00B583B0A1
:1028C40001903749019A1346DB009B1A9B000B4485
:1028D4001233B3F90030002B02DDFFF7A3FDF0E75C
:1028E4003048FFF7C1FD304B1B881A46019B9342C9
:1028F4004FD0019B002B4CDD2949019A1346DB0084
:102904009B1A9B000B440D331B78012B41D12449A6
:10291400019A1346DB009B1A9B000B440C330022E4
:102924001A701F49019A1346DB009B1A9B000B4443
:102934000D3300221A701A49019A1346DB009B1AC0
:102944009B000B441B68184600F096FB1449019A3F
:102954001346DB009B1A9B000B4400221A601049AB
:10296400019A1346DB009B1A9B000B44043300229C
:102974001A600B49019A1346DB009B1A9B000B4417
:10298400083300221A60094B1B88013B9AB2074B9B
:102994001A800448FFF78CFD00BF03B05DF804FB08
:1029A4008402002078030020740300200C0000201F
:1029B40072B600BF0E4B1B881A460E491346DB0045
:1029C4009B1A9B000B441233B3F900309BB20133C2
:1029D4009BB218B207491346DB009B1A9B000B44B9
:1029E400123302461A8062B600BF00BF704700BFB0
:1029F400740300208402002072B600BF0E4B1B88B3
:102A04001A460E491346DB009B1A9B000B441233F3
:102A1400B3F900309BB2013B9BB218B2074913468D
:102A2400DB009B1A9B000B44123302461A8062B6E9
:102A340000BF00BF704700BF740300208402002061
:102A440008B5084B1B881946074A0B46DB005B1A7E
:102A54009B0013440C3300221A70FFF7E3FC00BF01
:102A640008BD00BF740300208402002030B585B087
:102A7400019000F0A5FD019B1A464FF00003841855
:102A840041EB0305CDE9024500F09AFDDDE902239F
:102A9400994208BF90422CBF01230023DBB2002BD4
:102AA40002D1FFF7BFFCEFE700BF05B030BD000067
:102AB40000B587B00390029101925B48FFF7D4FC04
:102AC4005A4B1B88072B05D95748FFF7F1FC4FF0E9
:102AD400FF33A5E001230593059B072B1CDC544918
:102AE400059A1346DB009B1A9B000B440D331B789D
:102AF40083F00103DBB2002B0AD04D49059A13463B
:102B0400DB009B1A9B000B440D3301221A7003E077
:102B1400059B01330593DFE7019B184600F078FA23
:102B240001464348059A1346DB009B1A9B00034465
:102B340019603F49059A1346DB009B1A9B000B441E
:102B44001B68002B0FD13A49059A1346DB009B1AE8
:102B54009B000B440D3300221A703348FFF7A8FC86
:102B64004FF0FF335CE03249059A1346DB009B1AB1
:102B74009B000B440833019A1A602D49059A1346A9
:102B8400DB009B1A9B000B441833029A1A602849F5
:102B9400059A1346DB009B1A9B000B441233002258
:102BA4001A802349059A1346DB009B1A9B000B44A9
:102BB4000E3301221A701E49059A1346DB009B1A34
:102BC4009B000B441433039A1A601949059A13465F
:102BD400DB009B1A9B000B440C3300221A7014492F
:102BE400059A1346DB009B1A9B000B44103300220A
:102BF4001A700F49059A1346DB009B1A9B000B447D
:102C04000F3300221A70094B1B8801339AB2074B09
:102C14001A80059800F07CF80348FFF749FC059BEF
:102C2400184607B05DF804FB780300200C00002070
:102C34008402002000B583B001900091009A002125
:102C44000198FFF735FF0346184603B05DF804FB0F
:102C540084B0019072B600BF2A49019A1346DB0082
:102C64009B1A9B000B440C331B7883F00103DBB2EB
:102C7400002B37D02349019A1346DB009B1A9B0093
:102C84000B4410331B78002B2CD01E49019A134699
:102C9400DB009B1A9B000B440C3301221A700023A7
:102CA400ADF80E30BDF80E30072B14D8BDF80E3039
:102CB400154A32F81330002B07D1BDF80E30019AB3
:102CC40091B2114A22F8131005E0BDF80E30013319
:102CD400ADF80E30E6E70D4B1B680C4A43F0805309
:102CE400136009E00749019A1346DB009B1A9B0015
:102CF4000B440F3301221A7062B600BF00BF04B048
:102D0400704700BF840200206403002004ED00E04B
:102D140084B001904949019A1346DB009B1A9B0039
:102D24000B4408331B689B1003934449019A1346D0
:102D3400DB009B1A9B000B441A68039B03F180433E
:102D4400013B9B0013444FF0C2421A603B49019A75
:102D54001346DB009B1A9B000B4414331868374955
:102D6400019A1346DB009B1A9B000B441A68039BD1
:102D740003F18043023B9B00134402461A602F492F
:102D8400019A1346DB009B1A9B000B441A68039BB1
:102D940003F18043033B9B001344294A1A602749EB
:102DA400019A1346DB009B1A9B000B4418331868E6
:102DB4002249019A1346DB009B1A9B000B441A68B4
:102DC400039B03F18043083B9B00134402461A60B3
:102DD4001A49019A1346DB009B1A9B000B441A689C
:102DE400039B03F18043113B9B0013446FF00202E9
:102DF4001A601249019A1346DB009B1A9B000B448C
:102E04001A68039B03F18043113B9B00D1180B48C4
:102E1400019A1346DB009B1A9B0003440433196098
:102E24000649019A1346DB009B1A9B000B4410339E
:102E340001221A7000BF04B0704700BF8402002052
:102E4400492E000808B572B600BF0F4B1B881946FF
:102E54000E4A0B46DB005B1A9B001344103300221E
:102E64001A70094B1B881946084A0B46DB005B1A8B
:102E74009B0013440C3300221A7062B600BFFFF7A4
:102E8400D1FA00BF08BD00BF7403002084020020F3
:102E940084B0019000230393494B1B881946494A87
:102EA4000B46DB005B1A9B0013440433019A1A603F
:102EB40072B600BF444B1B88002B41D0424B1A888A
:102EC4003F4B1A80414B1B78002B04D13C4B1B8891
:102ED4001A463F4B1A603D4B01221A70002303939C
:102EE400039B062B14DC039B0133374A32F813305F
:102EF400002B0CD0039B0133334A32F81310324AAF
:102F0400039B22F81310039B01330393E8E700BFEC
:102F14002D4A039B002122F8131062B600BF284BF0
:102F24001B881946274A0B46DB005B1A9B00134497
:102F34000C331B7883F00103DBB2002B30D000E0AC
:102F440000BF62B600BF214B1B78002B07D0204B7B
:102F54001B689AB21A4B1A801C4B00221A70184B29
:102F64001B8801339AB2164B1A80154B1B881946DD
:102F7400144A0B46DB005B1A9B0013440C331B788A
:102F8400002B0DD10E4B1B8801339AB20C4B1A80C7
:102F94000B4B1B88072BE8D9094B00221A80E4E766
:102FA400074B1B881946074A0B46DB005B1A9B003C
:102FB400134404331B680193019B184604B0704703
:102FC4007403002084020020640300208103002095
:102FD4008403002000B583B001900091019B012B74
:102FE40007D1009B4FF6FF72934202D10348FFF7CB
:102FF4002FFA00BF03B05DF804FB00BF7803002084
:1030040008B54FF6FF710120FFF7E4FF08BD00008B
:1030140000B585B00190FFF7CBFC72B600BF134B2F
:103024001B680393114B1B680133104A136062B68B
:1030340000BF0F4B1B68039A9A4202D0FFF7F2F9C4
:10304400F7E701990B4800F0D1F8029072B600BF7F
:10305400074B1B680133064A136062B600BFFFF7D3
:10306400CBFC029B184605B05DF804FB1C2D002028
:10307400202D00201000002000B585B00190FFF73E
:1030840097FC72B600BF124B1B680393104B1B686E
:1030940001330F4A136062B600BF0E4B1B68039ADC
:1030A4009A4202D0FFF7BEF9F7E701990A4800F007
:1030B40096F972B600BF074B1B680133054A1360CB
:1030C40062B600BFFFF798FC00BF05B05DF804FBD3
:1030D4001C2D0020202D00201000002082B003466B
:1030E40000918DF807309DF90730002B0ADB009B17
:1030F400DAB20C499DF907301201D2B20B4483F8BD
:1031040000230BE0009BDAB207499DF8073003F077
:103114000F03043B1201D2B20B441A7600BF02B073
:10312400704700BF00E100E000ED00E000B583B0AF
:103134000190019B013BB3F1807F01D301230FE098
:10314400094A019B013B53600F214FF0FF30FFF709
:10315400C5FF054B00229A60034B07221A60002327
:10316400184603B05DF804FB10E000E000BF7047B0
:1031740000B583B06B461846FFF76AF96B461846EC
:10318400FFF75CF9154B00225A600F216FF0010024
:10319400FFF7A4FF00F0F2F9FFF7B0F944F620605E
:1031A400FFF7C4FF01210E48FEF70AFB0C48FEF7A7
:1031B400C5FA01210A48FEF717FB01210948FEF769
:1031C400FFFA01210848FEF7FBFA01210648FEF741
:1031D4000BFB00BF03B05DF804FB00BF30EF00E061
:1031E400980000209C010020AC00002090B00190C9
:1031F400009100230E93019B9B680593019B1B691F
:10320400009AB2FBF3F30A9300238DF827300023CE
:103214008DF82630019B1A69009BB3FBF2F102FB87
:1032240001F29B1A002B02D00A9B01330A9300235C
:103234000893019B5A69089B9A421ED9019B5968BD
:10324400089A13465B0013449B000B441B68002B35
:103254000FD1019B5968089A13465B0013449B00E5
:103264000B44049300BF002307934FF0FF330693EE
:1032740005E0089B01330893DBE70023ACE0019BE6
:10328400DB685B01079A9A4247D2079B03F01F034E
:10329400002B12D1069B01330693069B9B00059AD3
:1032A40013441B68DB430F930F9B002B03D1079B35
:1032B4001F3307932AE001230C939DF82730002B3A
:1032C4000ED00F9A0C9B1340002B03D00E9B01339E
:1032D4000E9312E000238DF8273000230E930CE0A8
:1032E4000F9A0C9B1340002B07D001238DF8273035
:1032F400079B0D930E9B01330E930A9A0E9B9A42E1
:1033040003D101238DF8263007E000BF0C9B5B003E
:103314000C93079B01330793B1E79DF82630002BEC
:1033240001D1002358E0019B1B680393019B1B6997
:103334000D9A02FB03F3039A13440393039A009B2D
:103344001A44019B9B699A4201D9002344E00D9BD6
:1033540003F01F03012202FA03F30C930D9B5B0994
:103364000B930E9B002B2DD00C9B002B04D101231F
:103374000C930B9B01330B930C9B012B0FD10E9BD6
:10338400202B0CD90B9B9B00059A13444FF0FF3262
:103394001A6000230C930E9B203B0E9311E00B9BB1
:1033A4009B00059A134419680B9B9B00059A1344D0
:1033B4000C9A0A431A600C9B5B000C930E9B013B16
:1033C4000E93CEE7039A049B1A60049B0D9A5A60ED
:1033D400049B0A9A9A60039B184610B0704788B001
:1033E4000190009100230493019B5B69049A9A4223
:1033F40067D2019B5968049A13465B0013449B00EF
:103404000B441B68009A9A4219D1019B5968049A8B
:1034140013465B0013449B000B44039300BF039BC0
:103424009B680593039B5B6803F01F03012202FA68
:1034340003F30793039B5B685B09069303E0049B18
:1034440001330493D0E7059B002B30D0079B002B5E
:1034540004D101230793069B01330693079B012B99
:103464000FD1059B202B0CD9019B9A68069B9B00CE
:10347400134400221A6000230793059B203B059305
:1034840014E0019B9A68069B9B0013441968079BF0
:10349400DA43019B9868069B9B0003440A401A6028
:1034A400079B5B000793059B013B0593CBE7039BBD
:1034B40000221A60039B00225A60039B00229A6038
:1034C40000E000BF08B0704700B583B00190019BD5
:1034D4005B69002B04D0019B5B691846FFF7EEF98A
:1034E400019B184603B05DF804FB000010B582B0E0
:1034F4000190054C044B9C4204D0303C2046FFF71D
:10350400E3FFF7E702B010BD242D002000B583B01F
:1035140001900091019B012B09D1009B4FF6FF7292
:10352400934204D1044A0549002000F095F800BFF5
:1035340003B05DF804FB00BFB02D0020F134000897
:1035440008B54FF6FF710120FFF7E0FF08BD00004A
:1035540030B4084B1B6818464FF00001064BD3E902
:103564000023841841EB0305034BC3E9004500BF66
:1035740030BC7047380000203000002008B501211D
:103584000C48FEF71DF90B48FEF7C0FD0948FEF78D
:1035940039FE0346084A136008490648FEF744FE0C
:1035A40001210448FEF720F90248FEF716FE00BF89
:1035B40008BD00BFB00100203800002055350008C8
:1035C400F0B583B01748FEF715FE034618464FF0D2
:1035D4000001154BD3E90023861841EB0307CDE91D
:1035E4000067124BD3E90023DDE90001994208BFCB
:1035F40090420BD20E4B1B681A464FF00003DDE9D4
:103604000001841841EB0305CDE900450749DDE9D4
:103614000023C1E90023DDE900231046194603B065
:10362400F0BD00BFB001002030000020282D002094
:1036340038000020064B1B681F2B01D9012070475E
:10364400044A42F823000133014A13600020704702
:10365400B42D0020302D002008B50846FFF7EAFFFE
:1036640008BD704770470FB400B50A2001A900F0E7
:1036740003F802BC04B0084738B504460D46FFF70A
:10368400F0FF074B1D6044F08004064B1C601A4693
:103694001368002BFCD1FFF7E5FF014B186838BD18
:0836A400BC2D0020B82D002010
:1036AC000D0700088517000865180008E11D0008C3
:1036BC00E11E0008691F0008D5220008053000082B
:0436CC004535000878
:1036D00001000000010000000100000001000000E6
:1036E00002000000040000000800000010000000BC
:1036F00001000000010000000100000001000000C6
:1037000001000000010000000100000001000000B5
:10371000020000000400000008000000100000008B
:1037200040000000800000000001000000020000D6
:103730000A23232323232323232323204853452001
:10374000EC9EA5ECB99820EC84A4ECA09520232352
:1037500023232323232323230A0A0000EC99B8EB15
:10376000B68020ED81ACEBA6ACEC8AA4ED8388207A
:10377000ED81B4EB9FAD203D202564204D487A0AB1
:1037800000000000EC9EA5ECB99820EC84A4ECA00D
:103790009520EC8BA4ED8CA82E0A00004853452000
:1037A000ED81B4EB9FADEC9DB420EC9E85EBA0A524
:1037B00020ED9788EC9AA920EBB294EC9C84EBA5C1
:1037C000BC20ECB488EAB3BCED9688EC8AB5EB8BF0
:1037D00088EB8BA42E202564206B487A286D696EB7
:1037E00029203C202564206B487A2875736572294E
:1037F000203C202564206B487A286D6178292E0AA8
:1038000000000000EC9EA5ECB99820EC84A4ECA08C
:103810009520EC9984EBA38C2E0A0000ED999CEC8A
:1038200084B1ED999420EB8C80EAB8B020EC8B9CAD
:10383000EAB084EC9D8420ECB488EAB3BCED9688B1
:10384000EC8AB5EB8B88EB8BA42E0A000A2323238A
:1038500023232323232323204D61696E20504C4CC6
:1038600020EC9EA5ECB99820EC84A4ECA095202334
:103870002323232323232323230A0A00ED81B4EBEC
:103880009FAD20EC868CEC8AA4203D204853492033
:10389000EB82B4EBB6802052432031364D487A0A91
:1038A00000000000ED81B4EB9FAD20EC868CEC8A2B
:1038B000A4203D2048534520EC99B8EBB68020ED7C
:1038C00081ACEBA6ACEC8AA4ED83880A0000000072
:1038D00048534520ED81B4EB9FADEC9DB420ED99AC
:1038E0009CEC84B1ED9994EB9098ECA78020EC953A
:1038F0008AEC9598EC8AB5EB8B88EB8BA42E0A00AA
:10390000ED81B4EB9FAD20EC868CEC8AA4EC9D9805
:1039100020EC84A0ED839D20EBB294EC9C84EBA57D
:10392000BC20ECB488EAB3BCED9688EC8AB5EB8B8E
:1039300088EB8BA42E0A000056434F20ED81B4EB98
:103940009FADEC9DB420ED9788EC9AA920EBB29442
:10395000EC9C84EBA5BC20EBB297EC96B4EB82AC6C
:10396000EC8AB5EB8B88EB8BA42E202564206B486A
:103970007A286D696E29203C202564206B487A28BE
:103980007573657229203C202564206B487A286D68
:103990006178292E0A000000EC9EA5ECB998EAB0E7
:1039A0008020EC9DB4EBAFB820ED999CEC84B1ED98
:1039B0009994EB9098EC96B420EC8B9CEC8AA4ED57
:1039C000859C20ED81B4EB9FADEC9CBCEBA19C20D1
:1039D000EC84A4ECA095EB9098EC96B420EC9E8837
:1039E000EC8AB5EB8B88EB8BA42E0A004DEC9D98EE
:1039F00020EAB384EC82B020EAB092EC9D8420EC03
:103A0000B0BEEC9D8420EC889820EC9786EC8AB5BB
:103A1000EB8B88EB8BA42E20EC9E85EBA0A520ECF5
:103A2000868CEC8AA4EC9D9820ED81B4EB9FADEAE6
:103A3000B3BC20EC84A4ECA095ED959C2056434F9C
:103A400020ED81B4EB9FADEC9DB420ECA095ED99F9
:103A500095ED959CECA78020ED9995EC9DB8ED95A2
:103A6000B4ECA3BCEC84B8EC9A942E0A00000000DD
:103A700056434F20EC9E85EBA0A520ED81B4EB9F33
:103A8000ADEC9DB420EB8488EBACB420EB82AEECC3
:103A90008AB5EB8B88EB8BA42E20EC9E85EBA0A542
:103AA00020EC868CEC8AA4EC9D9820ED81B4EB9FF1
:103AB000ADEAB3BC20EC84A4ECA095ED959C205617
:103AC000434F20ED81B4EB9FADEC9DB420ECA0956D
:103AD000ED9995ED959CECA78020ED9995EC9DB81E
:103AE000ED95B4ECA3BCEC84B8EC9A942E0A0000DB
:103AF000EAB384EC82B020EAB092204DEC9DB42071
:103B0000ED9788EC9AA920EBB294EC9C84EBA5BCD1
:103B100020ECB488EAB3BCED9688EC8AB5EB8B88D0
:103B2000EB8BA42E20EC9E85EBA0A520EC868CECE4
:103B30008AA4EC9D9820ED81B4EB9FADEC9DB42060
:103B4000ECA095ED9995ED959CECA78020ED9995CD
:103B5000EC9DB8ED95B4ECA3BCEC84B8EC9A942E33
:103B6000202564286D696E29203C20256428757302
:103B7000657229203C202564286D6178292E0A0071
:103B8000EAB384EC82B020EAB092204EEC9DB420DF
:103B9000ED9788EC9AA920EBB294EC9C84EBA5BC41
:103BA00020ECB488EAB3BCED9688EC8AB5EB8B8840
:103BB000EB8BA42E20EC9DB8EC9E902076636F4D8D
:103BC000687AEC9D9820EAB092EC9D8420ED99955E
:103BD000EC9DB8ED95B4ECA3BCEC84B8EC9A942EB3
:103BE000202564286D696E29203C20256428757382
:103BF000657229203C202564286D6178292E0A00F1
:103C0000EC9DB8EC9E902070446976EC9D9820EC79
:103C100084A4ECA095EC9DB420ED9788EC9AA920A3
:103C2000EBB294EC9C84EBA5BC20EBB297EC96B481
:103C3000EB82ACEC8AB5EB8B88EB8BA42E20256451
:103C4000286D696E29203C202564287573657229CA
:103C5000203C202564286D6178292E0A0000000090
:103C6000EC9DB8EC9E902071446976EC9D9820EC18
:103C700084A4ECA095EC9DB420ED9788EC9AA92043
:103C8000EBB294EC9C84EBA5BC20EBB297EC96B421
:103C9000EB82ACEC8AB5EB8B88EB8BA42E202564F1
:103CA000287573657229203C202564286D61782968
:103CB0002E0A0000EC9DB8EC9E902072446976ECD0
:103CC0009D9820EC84A4ECA095EC9DB420ED978801
:103CD000EC9AA920EBB294EC9C84EBA5BC20EBB24F
:103CE00097EC96B4EB82ACEC8AB5EB8B88EB8BA4AB
:103CF0002E202564287573657229203C20256428B0
:103D00006D6178292E0A00004D61696E20504C4C7F
:103D1000EC9D98205020ECB69CEBA0A520ECA3BC19
:103D2000ED8C8CEC8898EAB08020ED9788EC9AA90D
:103D300020EBB294EC9C84EBA5BC20EBB297EC9604
:103D4000B4EB82ACEC8AB5EB8B88EB8BA42E2025F0
:103D500064206B487A286D696E29203C20256420F8
:103D60006B487A287573657229203C202564206B86
:103D7000487A286D6178292E0A0000004D61696E2D
:103D800020504C4CEC9D98205120ECB69CEBA0A50B
:103D900020ECA3BCED8C8CEC8898EAB08020ED97E9
:103DA00088EC9AA920EBB294EC9C84EBA5BC20EBA8
:103DB000B297EC96B4EB82ACEC8AB5EB8B88EB8BCC
:103DC000A42E202564206B487A286D696E29203C3A
:103DD000202564206B487A287573657229203C2061
:103DE0002564206B487A286D6178292E0A0000002E
:103DF0004D61696E20504C4CEC9D98205220ECB6E1
:103E00009CEBA0A520ECA3BCED8C8CEC8898EAB0D0
:103E10008020ED9788EC9AA920EBB294EC9C84EB7F
:103E2000A5BC20EBB297EC96B4EB82ACEC8AB5EB78
:103E30008B88EB8BA42E202564206B487A286D6933
:103E40006E29203C202564206B487A2875736572A2
:103E500029203C202564206B487A286D6178292E22
:103E60000A000000504C4C20502841444329203D7A
:103E7000202564206B487A0A00000000504C4C203A
:103E800051285553422C205341492C204932532C60
:103E90002043414E2C20524E472C2051535049294B
:103EA000203D202564206B487A0A0000504C4C20AD
:103EB0005228535953434C4B29203D202564206BF5
:103EC000487A0A000A23232323232323232323209E
:103ED00020EC8B9CEC8AA4ED859C20ED81B4EB9FBB
:103EE000AD20EC84A4ECA0952023232323232323BB
:103EF0002323230A0A000000EC99B8EBB68020EDDA
:103F000081ACEBA6ACEC8AA4ED8388EC9DB420EDEB
:103F10009884EC9EAC20EB8F99EC9E91ECA491ECF4
:103F20009DB420EC9584EB8B99EB8B88EB8BA42EC6
:103F300020EBA8BCECA08020EC99B8EBB68020ED7B
:103F400081ACEBA6ACEC8AA4ED8388EC9D8420EDDB
:103F5000999CEC84B1ED999420ED95B4ECA3BCEC64
:103F600084B8EC9A942E0A00ED81B4EB9FAD20EC5E
:103F7000868CEC8AA4203D20504C4C0A00000000A6
:103F8000504C4CEC9DB420ED9884EC9EAC20EB8F13
:103F900099EC9E91ECA491EC9DB420EC9584EB8B74
:103FA00099EB8B88EB8BA42E20EBA8BCECA0802097
:103FB000504C4CEC9D8420ED999CEC84B1ED99948F
:103FC00020ED95B4ECA3BCEC84B8EC9A942E0A00D6
:103FD000ECA780ECA095EB909C20ED81B4EB9FAD1D
:103FE00020EC868CEC8AA4EAB08020EC9CA0ED9AB0
:103FF000A8ED9598ECA78020EC958AEC8AB5EB8B20
:1040000088EB8BA42E0A0000537973636C6B20EC51
:10401000A3BCED8C8CEC8898EAB08020ED9788ECFE
:104020009AA920EBB294EC9C84EBA5BC20ECB4885C
:10403000EAB3BCED9688EC8AB5EB8B88EB8BA42EAB
:10404000202564287573657229203C202564286D1D
:104050006178292E0A0000004150423120ECA3BCB7
:10406000ED8C8CEC8898EAB08020ED9788EC9AA9CA
:1040700020EBB294EC9C84EBA5BC20ECB488EAB3B2
:10408000BCED9688EC8AB5EB8B88EB8BA42E2025B3
:1040900064287573657229203C202564286D617839
:1040A000292E0A004150423220ECA3BCED8C8CEC4E
:1040B0008898EAB08020ED9788EC9AA920EBB2941A
:1040C000EC9C84EBA5BC20ECB488EAB3BCED9688EC
:1040D000EC8AB5EB8B88EB8BA42E202564287573B6
:1040E000657229203C202564286D6178292E0A00FC
:1040F000537973636C6B203D202564206B487A0AEA
:104100000000000041504231203D202564206B48D2
:104110007A0A000041504232203D202564206B483D
:034120007A0A0018
:10412400B0A40040F8A4004040A5004001000000F5
:104134009C0300209C2B0020880300200500000025
:1041440040000000200000009C2B00200000000024
:0C415400A015FFFFFFFFFFFF60EA000066
:04000005080003B339
:00000001FF
