:020000040800F2
:10000000F83E00208D030008C5020008C702000862
:10001000C9020008CB020008CD0200080000000061
:10002000000000000000000000000000CF020008F7
:10003000D1020008000000007709000869090008E3
:10004000D7020008D9020008DB020008DD02000820
:10005000DF020008E1020008E3020008E5020008F0
:10006000E7020008E9020008EB020008ED020008C0
:10007000EF020008F1020008F3020008F502000890
:10008000F7020008F9020008FB020008FD02000860
:10009000FF0200080103000803030008050300082D
:1000A00007030008090300080B0300080D030008FC
:1000B0000F030008110300081303000815030008CC
:1000C00017030008190300081B0300081D0300089C
:1000D0001F0300082103000823030008250300086C
:1000E00027030008290300082B0300082D0300083C
:1000F0002F0300083103000833030008350300080C
:1001000037030008390300083B0300083D030008DB
:100110003F030008410300084303000845030008AB
:1001200047030008490300084B0300084D0300087B
:100130004F0300085103000853030008550300084B
:1001400057030008590300085B0300085D0300081B
:100150005F030008610300086303000865030008EB
:1001600067030008690300086B0300086D030008BB
:100170006F0300087103000873030008000000000B
:08018000750300087703000875
:10018800304931480A1A02D0072291438D462F4937
:100198002F480A1A06D00722914381F309880222C0
:1001A80082F314882B482C492C4A00F03AF82C4842
:1001B8002C492D4A00F035F82C482D492D4A00F0DD
:1001C80030F82D482D492E4A00F02BF82D482E499D
:1001D8002E4A00F026F82E482E492F4A00F021F822
:1001E8002E482F492F4A00F01CF82F482F4900228B
:1001F80000F022F82E482F49002200F01DF81F4871
:100208001F49884205D00268043003B4904703BCF4
:10021800F7E700208646EC4600200021264A904752
:10022800FEE7884207D0521A05D0037801300B70D8
:100238000131013AF9D17047884202D00270013089
:10024800FAE77047F83E0020F8360020F84600200C
:10025800F83E00203C1B0008000000202000002081
:100268009C0300089C030008081A00083C1B0008AF
:100278000000002000000020081A0008081A0008E2
:100288002C1A0008081A0008081A0008081A00089A
:100298002C1A00082C1A00083C1B00085C1B0008DC
:1002A800E8360020E836002020000020E83600204C
:1002B800E8360020E83600209D030008FEE7FEE748
:1002C800FEE7FEE7FEE7FEE7FEE7FEE7FEE7FEE7FE
:1002D800FEE7FEE7FEE7FEE7FEE7FEE7FEE7FEE7EE
:1002E800FEE7FEE7FEE7FEE7FEE7FEE7FEE7FEE7DE
:1002F800FEE7FEE7FEE7FEE7FEE7FEE7FEE7FEE7CE
:10030800FEE7FEE7FEE7FEE7FEE7FEE7FEE7FEE7BD
:10031800FEE7FEE7FEE7FEE7FEE7FEE7FEE7FEE7AD
:10032800FEE7FEE7FEE7FEE7FEE7FEE7FEE7FEE79D
:10033800FEE7FEE7FEE7FEE7FEE7FEE7FEE7FEE78D
:10034800FEE7FEE7FEE7FEE7FEE7FEE7FEE7FEE77D
:10035800FEE7FEE7FEE7FEE7FEE7FEE7FEE7FEE76D
:10036800FEE7FEE7FEE7FEE7FEE7FEE7FEE7FEE75D
:100378000548854600F0D7FA044805490160FFF7AB
:10038800FFBE7047FEE700000080012008ED00E096
:040398000000000859
:10039C0008B501F0BFF8034B1B681946024801F081
:1003AC000CFBF8E7200000202C1A000884B0019008
:1003BC000B468DF803309DF80330002B03D09DF8CD
:1003CC000330022B01D9002347E0254B9B6D03F032
:1003DC008053002B0CBF01230023DBB2002B05D074
:1003EC001F4B9B6D1E4A43F08053936500BF00BFAB
:1003FC0000BF00BF00BF00BF00BF00BF194B5B694F
:10040C0003F48063002B14BF01230023DBB2002B09
:10041C0000D0F3E7134B1B680393039B23F4C063D7
:10042C009DF803205202134303930E4A039B13605F
:10043C0000BF00BF00BF00BF00BF00BF00BF00BFB8
:10044C00084B5B6903F48063002B14BF012300236A
:10045C00DBB2002B00D0F3E70123184604B0704741
:10046C00001002400070004082B00190044B1B68E9
:10047C005B0ADBB203F00303DBB2184602B0704731
:10048C000070004000B587B001900B468DF803302A
:10049C0013468DF802309DF80330394A02FB03F302
:1004AC000393384A9DF803301370374801F085FAEE
:1004BC009DF803301946354801F07FFA0198FFF793
:1004CC00D3FF0346012B02D0022B03D005E0304BA7
:1004DC00059304E02F4B059301E000234CE0059AB3
:1004EC00039B9A4212D22C4801F067FA039B2B4AC9
:1004FC00A2FB03239909059B284AA2FB03239B0912
:10050C001A46274801F059FA002335E09DF80230CD
:10051C00002B0AD0234B1B68224A43F4A023136000
:10052C00214801F04AFA012326E01E4B1B681D4AA4
:10053C0043F48033136000230493049B1B4A9342BF
:10054C0013D8184B1B6803F40033002B14BF012382
:10055C000023DBB2002B04D0134801F02EFA012348
:10056C000AE0049B01330493E7E70B4801F025FAFA
:10057C000F4801F022FA0023184607B05DF804FB7F
:10058C0040420F00E8360020301A00085C1A0008C0
:10059C00006CDC0280BA8C01841A0008D34D621006
:1005AC009C1A000800100240F41A00089F860100F3
:1005BC000C1B000800B583B00190019800230022A9
:1005CC00002100F028F8019B184603B05DF804FBED
:1005DC0082B0019000BF02B07047000000B583B03C
:1005EC0001900091019B012B07D1009B4FF6FF72EC
:1005FC00934202D10348FFF7DDFF00BF03B05DF863
:10060C0004FB00BF2800002008B54FF6FF71012045
:10061C00FFF7E4FF08BD00B585B00390029101928D
:10062C000093039B0C33184600F0D8F9039B029AF5
:10063C001A60039B019A5A60039B009A9A60039B71
:10064C00184605B05DF804FB00B583B001900B466D
:10065C008DF80330019B1B68002B05D0019B1B6898
:10066C009DF803201046984700BF03B05DF804FBCB
:10067C0000B583B001900B468DF80330019B5B688D
:10068C00002B05D0019B5B689DF803201046984712
:10069C0000BF03B05DF804FB00B585B00390029178
:1006AC00019203980023019A0299FFF7B4FF039B70
:1006BC00184605B05DF804FB00B583B001900091BD
:1006CC00019B012B09D1009B4FF6FF72934204D181
:1006DC00002200210348FFF7DFFF00BF03B05DF8E5
:1006EC0004FB00BF3C00002008B54FF6FF71012051
:1006FC00FFF7E2FF08BD00B585B0039002910192AF
:10070C0003980023019A0299FFF785FF039B184673
:10071C0005B05DF804FB000000B583B001900091BA
:10072C00019B012B09D1009B4FF6FF72934204D120
:10073C00002200210348FFF7DEFF00BF03B05DF885
:10074C0004FB00BF5000002008B54FF6FF710120DC
:10075C00FFF7E2FF08BD00B583B0019001980023BC
:10076C0000220021FFF757FF019B184603B05DF8EC
:10077C0004FB000000B583B001900091019B012B9C
:10078C001CD1009B4FF6FF72934217D10D48FFF717
:10079C00E2FF0D48FFF7DFFF0C48FFF7DCFF0C48CA
:1007AC00FFF7D9FF0B48FFF7D6FF0B48FFF7D3FF36
:1007BC000A48FFF7D0FF0A48FFF7CDFF00BF03B090
:1007CC005DF804FB64000020780000208C00002001
:1007DC00A0000020B4000020C8000020DC00002095
:1007EC00F000002008B54FF6FF710120FFF7C2FFA3
:1007FC0008BD00B583B00190019B184600F0A4F829
:10080C00019B03F11400002300220021FFF703FFDA
:10081C00019B184603B05DF804FB000000B583B0E3
:10082C0001900091019B012B0DD1009B4FF6FF72A3
:10083C00934208D10648FFF7DCFF0648FFF7D9FFC3
:10084C000548FFF7D6FF00BF03B05DF804FB00BFFF
:10085C00040100202C0100205401002008B54FF6A3
:10086C00FF710120FFF7DAFF08BD00B585B00390DA
:10087C000291019203980023019A0299FFF7CBFE93
:10088C00039B184605B05DF804FB000000B583B06F
:10089C0001900091019B012B09D1009B4FF6FF7237
:1008AC00934204D1002200210348FFF7DEFF00BF72
:1008BC0003B05DF804FB00BF7C01002008B54FF6C7
:1008CC00FF710120FFF7E2FF08BD00B583B0019076
:1008DC000198002300220021FFF79DFE019B184682
:1008EC0003B05DF804FB000000B583B001900091EB
:1008FC00019B012B07D1009B4FF6FF72934202D153
:10090C000348FFF7E2FF00BF03B05DF804FB00BF34
:10091C009001002008B54FF6FF710120FFF7E4FFAE
:10092C0008BD08B500F002F800BF08BD08B50121EC
:10093C000448FFF73BFD012208210248FFF7A2FD06
:10094C0000BF08BD2400002082B00190019B002252
:10095C001A74019B184602B07047000018480168D1
:10096C0001221207114301607047EFF30980154B08
:10097C000021196073462438F8C043464C4655464E
:10098C005E46243878C000F057FC143078C898467E
:10099C00A146AA46B3460B4B07211960002199606A
:1009AC002438F8C8103080F3098808B400BD00BFA3
:1009BC0003480168012212071143016070470000CF
:1009CC0004ED00E010E000E082B00190024B012247
:1009DC001A7000BF02B07047A401002082B00190D1
:1009EC00019B00221A60019B00225A60019B184651
:1009FC0002B0704700B585B0019000F09FFA72B656
:100A0C0000BF019B1B680393019B1B685A1C019B35
:100A1C001A6062B600BF019B5B68039A9A4214BFCE
:100A2C0001230023DBB2002B02D0FFF7C1FFF2E75A
:100A3C00039B184605B05DF804FB000000B583B0BD
:100A4C00019072B600BF019B5B685A1C019B5A60F7
:100A5C0062B600BF00F096FA0A4B1B78002B07D049
:100A6C00019B1A68019B5B689A4201D0012300E04C
:100A7C000023002B01D0FFF79BFF00BF03B05DF8F4
:100A8C0004FB00BFA401002008B5084B01221A7317
:100A9C00064B01225A734FF40071054800F0C6F959
:100AAC00044B01221A7000BF08BD00BFA801002032
:100ABC00C50A00083409002000B583B04C48FFF784
:100ACC0099FF00230193019B3F2B00F38880494938
:100ADC00019A1346DB009B1A9B000B440C331B78CA
:100AEC0083F00103DBB2002B33D04249019A134649
:100AFC00DB009B1A9B000B440E331B7883F0010325
:100B0C00DBB2002B25D03B49019A1346DB009B1A24
:100B1C009B000B440D331B78002B1AD03549019ADE
:100B2C001346DB009B1A9B000B441B68184600F015
:100B3C0077FC3049019A1346DB009B1A9B000B444F
:100B4C000D3300221A702C4B1B88013B9AB22A4B96
:100B5C001A802849019A1346DB009B1A9B000B4410
:100B6C000E331B78002B36D02249019A1346DB003A
:100B7C009B1A9B000B440C331B7883F00103DBB2F4
:100B8C00002B28D01B49019A1346DB009B1A9B00B3
:100B9C000B4410331B7883F00103DBB2002B1AD00B
:100BAC00019800F089FA1349019A1346DB009B1A4D
:100BBC009B000B440F331B78002B0CD00D49019A72
:100BCC001346DB009B1A9B000B440F3300221A7058
:100BDC00019800F011FA019B0133019373E704486B
:100BEC00FFF72CFFFFF7E4FE00F085FE66E700BF81
:100BFC002C090020A80100200000002010B586B0B0
:100C0C000390029101928548FFF7F4FE844B1B88F8
:100C1C003F2B05D98148FFF711FF4FF0FF33FAE066
:100C2C0001230593059B3F2BD4BF01230023DBB28B
:100C3C00002B1CD0059A7B491346DB009B1A9B00AA
:100C4C000B440D331B7883F00103DBB2002B0AD06D
:100C5C00059A74491346DB009B1A9B000B440D3319
:100C6C0001221A7003E0059B01330593DAE7019B1F
:100C7C00059C184600F0A0FB02466A492346DB009F
:100C8C001B1B9B000B441A60059A66491346DB003C
:100C9C009B1A9B000B441B68002B0CBF01230023E9
:100CAC00DBB2002B0FD0059A5E491346DB009B1A72
:100CBC009B000B440D3300221A705848FFF7BEFE00
:100CCC004FF0FF33A7E0059A56491346DB009B1AF9
:100CDC009B000B440833019A1A60019B9B100193F3
:100CEC00059A50491346DB009B1A9B000B441A686B
:100CFC00019B03F18043013B9B0013444FF0C24224
:100D0C001A60059A47491346DB009B1A9B000B445B
:100D1C001A68019B03F18043023B9B001344039A26
:100D2C001A60059A3F491346DB009B1A9B000B4443
:100D3C001A68019B03F18043033B9B0013443A4A1E
:100D4C001A60059A37491346DB009B1A9B000B442B
:100D5C001A68019B03F18043083B9B001344029AE1
:100D6C001A60059A2F491346DB009B1A9B000B4413
:100D7C001A68019B03F18043113B9B0013446FF0F5
:100D8C0002021A60059A27491346DB009B1A9B0046
:100D9C000B441968019B03F18043113B9B00059A9E
:100DAC00194420481346DB009B1A9B000344043370
:100DBC001960059A1B491346DB009B1A9B000B44D8
:100DCC00123300221A80059A16491346DB009B1A2F
:100DDC009B000B440E3300221A70059A11491346DE
:100DEC00DB009B1A9B000B441433039A1A60059A80
:100DFC000C491346DB009B1A9B000B440C3301225D
:100E0C001A70074B1B8801339AB2054B1A800348A2
:100E1C00FFF714FE059B184606B010BD2C090020E8
:100E2C0000000020A8010020D90F000800B583B0F5
:100E3C0001900091009A00210198FFF7DFFE034614
:100E4C00184603B05DF804FB00B583B00190374938
:100E5C00019A1346DB009B1A9B000B441233B3F927
:100E6C000030002B02DDFFF7A3FDF0E73048FFF761
:100E7C00C1FD304B1B881A46019B93424FD0019BFE
:100E8C00002B4CDD2949019A1346DB009B1A9B0071
:100E9C000B440D331B78012B41D12449019A134685
:100EAC00DB009B1A9B000B440C3300221A701F4969
:100EBC00019A1346DB009B1A9B000B440D33002256
:100ECC001A701A49019A1346DB009B1A9B000B44BB
:100EDC001B68184600F0A4FA1449019A1346DB006B
:100EEC009B1A9B000B4400221A601049019A13466E
:100EFC00DB009B1A9B000B44043300221A600B4945
:100F0C00019A1346DB009B1A9B000B44083300220A
:100F1C001A60094B1B88013B9AB2074B1A80044894
:100F2C00FFF78CFD00BF03B05DF804FBA8010020A7
:100F3C002C090020280900200000002072B600BFF8
:100F4C000E4B1B881A460E491346DB009B1A9B005E
:100F5C000B441233B3F900309BB201339BB218B27D
:100F6C0007491346DB009B1A9B000B4412330246C5
:100F7C001A8062B600BF00BF704700BF280900206E
:100F8C00A801002072B600BF0E4B1B881A460E49F2
:100F9C001346DB009B1A9B000B441233B3F9003051
:100FAC009BB2013B9BB218B207491346DB009B1A5C
:100FBC009B000B44123302461A8062B600BF00BF7E
:100FCC00704700BF28090020A801002008B5084B75
:100FDC001B881946074A0B46DB005B1A9B0013441F
:100FEC000C3300221A70FFF7E3FC00BF08BD00BFF2
:100FFC0028090020A801002084B0019072B600BF1F
:10100C002A49019A1346DB009B1A9B000B440C33B4
:10101C001B7883F00103DBB2002B37D02349019AF4
:10102C001346DB009B1A9B000B4410331B78002BE0
:10103C002CD01E49019A1346DB009B1A9B000B44D3
:10104C000C3301221A700023ADF80E30BDF80E30AF
:10105C003F2B14D8BDF80E30154A32F81330002B44
:10106C0007D1BDF80E30019A91B2114A22F8131033
:10107C0005E0BDF80E300133ADF80E30E6E70D4B50
:10108C001B680C4A43F08053136009E00749019A2E
:10109C001346DB009B1A9B000B440F3301221A7082
:1010AC0062B600BF00BF04B0704700BFA8010020AB
:1010BC00A808002004ED00E084B001904949019A91
:1010CC001346DB009B1A9B000B4408331B689B10D8
:1010DC0003934449019A1346DB009B1A9B000B4473
:1010EC001A68039B03F18043013B9B0013444FF0B0
:1010FC00C2421A603B49019A1346DB009B1A9B00C3
:10110C000B44143318683749019A1346DB009B1AB9
:10111C009B000B441A68039B03F18043023B9B002A
:10112C00134402461A602F49019A1346DB009B1A9E
:10113C009B000B441A68039B03F18043033B9B0009
:10114C001344294A1A602749019A1346DB009B1A5B
:10115C009B000B44183318682249019A1346DB0094
:10116C009B1A9B000B441A68039B03F18043083BBA
:10117C009B00134402461A601A49019A1346DB007D
:10118C009B1A9B000B441A68039B03F18043113B91
:10119C009B0013446FF002021A601249019A134625
:1011AC00DB009B1A9B000B441A68039B03F18043E2
:1011BC00113B9B00D1180B48019A1346DB009B1A7C
:1011CC009B000344043319600649019A1346DB0063
:1011DC009B1A9B000B44103301221A7000BF04B001
:1011EC00704700BFA8010020F911000808B572B6BD
:1011FC0000BF0F4B1B8819460E4A0B46DB005B1ACF
:10120C009B001344103300221A70094B1B8819469B
:10121C00084A0B46DB005B1A9B0013440C3300227C
:10122C001A7062B600BFFFF7C3FB00BF08BD00BF5A
:10123C0028090020A801002084B00190002303930A
:10124C00494B1B881946494A0B46DB005B1A9B002D
:10125C0013440433019A1A6072B600BF444B1B88C6
:10126C00002B41D0424B1A883F4B1A80414B1B78C4
:10127C00002B04D13C4B1B881A463F4B1A603D4B4C
:10128C0001221A7000230393039B3E2B14DC039B57
:10129C000133374A32F81330002B0CD0039B013347
:1012AC00334A32F81310324A039B22F81310039B73
:1012BC0001330393E8E700BF2D4A039B002122F87A
:1012CC00131062B600BF284B1B881946274A0B46E1
:1012DC00DB005B1A9B0013440C331B7883F0010377
:1012EC00DBB2002B30D000E000BF62B600BF214B58
:1012FC001B78002B07D0204B1B689AB21A4B1A8014
:10130C001C4B00221A70184B1B8801339AB2164BD7
:10131C001A80154B1B881946144A0B46DB005B1AC6
:10132C009B0013440C331B78002B0DD10E4B1B88E8
:10133C0001339AB20C4B1A800B4B1B883F2BE8D90C
:10134C00094B00221A80E4E7074B1B881946074A11
:10135C000B46DB005B1A9B00134404331B680193A0
:10136C00019B184604B0704728090020A8010020F2
:10137C00A8080020350900203809002000B583B0EA
:10138C0001900091019B012B07D1009B4FF6FF723E
:10139C00934202D10348FFF721FB00BF03B05DF875
:1013AC0004FB00BF2C09002008B54FF6FF7101208B
:1013BC00FFF7E4FF08BD000000B585B00190FFF712
:1013CC00BDFD72B600BF134B1B680393114B1B681A
:1013DC000133104A136062B600BF0F4B1B68039AAF
:1013EC009A4202D0FFF7E4FAF7E701990B4800F0B4
:1013FC00CFF8029072B600BF074B1B680133064A48
:10140C00136062B600BFFFF7BDFD029B184605B026
:10141C005DF804FB4C350020503500200400002002
:10142C0000B585B00190FFF789FD72B600BF124B75
:10143C001B680393104B1B6801330F4A136062B691
:10144C0000BF0E4B1B68039A9A4202D0FFF7B0FA0A
:10145C00F7E701990A4800F094F972B600BF074B00
:10146C001B680133054A136062B600BFFFF78AFDA3
:10147C0000BF05B05DF804FB4C3500205035002052
:10148C000400002082B0034600918DF807309DF9CE
:10149C000730002B0ADB009BDAB20C499DF90730B0
:1014AC001201D2B20B4483F800230BE0009BDAB29A
:1014BC0007499DF8073003F00F03043B1201D2B229
:1014CC000B441A7600BF02B0704700BF00E100E089
:1014DC0000ED00E000B583B00190019B013BB3F13E
:1014EC00807F01D301230FE0094A019B013B53602C
:1014FC000F214FF0FF30FFF7C5FF054B00229A601C
:10150C00034B07221A600023184603B05DF804FB56
:10151C0010E000E000B583B06B461846FFF75EFAAA
:10152C006B461846FFF750FA154B00225A600F21F4
:10153C006FF00100FFF7A6FF00F0DBF9FFF7A4FA4C
:10154C0044F62060FFF7C6FF01210E48FFF77CF838
:10155C000C48FFF73DF801210A48FFF789F80121F3
:10156C000948FFF771F801210848FFF76DF80121D0
:10157C000648FFF77DF800BF03B05DF804FB00BF21
:10158C0030EF00E028000020900100203C000020FB
:10159C0090B00190009100230E93019B9B680593E2
:1015AC00019B1B69009AB2FBF3F30A9300238DF89D
:1015BC00273000238DF82630019B1A69009BB3FB62
:1015CC00F2F102FB01F29B1A002B02D00A9B0133B1
:1015DC000A9300230893019B5A69089B9A421ED9CF
:1015EC00019B5968089A13465B0013449B000B44FB
:1015FC001B68002B0FD1019B5968089A13465B009E
:10160C0013449B000B44049300BF002307934FF03B
:10161C00FF33069305E0089B01330893DBE70023B7
:10162C00ACE0019BDB685B01079A9A4247D2079BAF
:10163C0003F01F03002B12D1069B01330693069B6C
:10164C009B00059A13441B68DB430F930F9B002BE5
:10165C0003D1079B1F3307932AE001230C939DF8BA
:10166C002730002B0ED00F9A0C9B1340002B03D06D
:10167C000E9B01330E9312E000238DF827300023CC
:10168C000E930CE00F9A0C9B1340002B07D00123F8
:10169C008DF82730079B0D930E9B01330E930A9AFE
:1016AC000E9B9A4203D101238DF8263007E000BF30
:1016BC000C9B5B000C93079B01330793B1E79DF8E0
:1016CC002630002B01D1002358E0019B1B680393AB
:1016DC00019B1B690D9A02FB03F3039A13440393BA
:1016EC00039A009B1A44019B9B699A4201D90023DF
:1016FC0044E00D9B03F01F03012202FA03F30C9349
:10170C000D9B5B090B930E9B002B2DD00C9B002B80
:10171C0004D101230C930B9B01330B930C9B012BDA
:10172C000FD10E9B202B0CD90B9B9B00059A1344BD
:10173C004FF0FF321A6000230C930E9B203B0E934C
:10174C0011E00B9B9B00059A134419680B9B9B00A3
:10175C00059A13440C9A0A431A600C9B5B000C9379
:10176C000E9B013B0E93CEE7039A049B1A60049BDD
:10177C000D9A5A60049B0A9A9A60039B184610B003
:10178C00704788B00190009100230493019B5B6922
:10179C00049A9A4267D2019B5968049A13465B00DB
:1017AC0013449B000B441B68009A9A4219D1019B6D
:1017BC005968049A13465B0013449B000B44039333
:1017CC0000BF039B9B680593039B5B6803F01F039F
:1017DC00012202FA03F30793039B5B685B090693F0
:1017EC0003E0049B01330493D0E7059B002B30D01E
:1017FC00079B002B04D101230793069B013306930F
:10180C00079B012B0FD1059B202B0CD9019B9A68B0
:10181C00069B9B00134400221A6000230793059B30
:10182C00203B059314E0019B9A68069B9B00134494
:10183C001968079BDA43019B9868069B9B0003443D
:10184C000A401A60079B5B000793059B013B0593BD
:10185C00CBE7039B00221A60039B00225A60039B78
:10186C0000229A6000E000BF08B0704700B583B05A
:10187C000190019B5B69002B04D0019B5B691846AE
:10188C00FFF7E2FA019B184603B05DF804FB000079
:10189C0010B582B00190054C044B9C4204D0303CF6
:1018AC002046FFF7E3FFF7E702B010BD54350020E8
:1018BC0000B583B001900091019B012B09D1009BD5
:1018CC004FF6FF72934204D1044A0549002000F000
:1018DC006BF800BF03B05DF804FB00BFD8360020E6
:1018EC009D18000808B54FF6FF710120FFF7E0FFC7
:1018FC0008BD00BF70474FF000024FF000031046C8
:10190C0019467047094B1B687BB170B5084E094DE1
:10191C00064C013B55F8232056F8230090472368CA
:10192C00013B2360002BF4D170BD7047D4350020EF
:10193C0058360020D8350020064B1B681F2B01D9C8
:10194C0001207047044A42F823000133014A136016
:10195C0000207047DC3600205435002038B5054691
:10196C000C460D4B1B682BB10B4B1B681F2B08D95E
:10197C00012038BD0948FFF7DFFF0028F4D0012013
:10198C00F7E7074A42F82350064A42F8234001334E
:10199C00014A13600020ECE7D4350020111900082F
:1019AC00D83500205836002008B50B46014618469D
:1019BC00FFF7D4FF08BD704770470FB400B50A207D
:1019CC0001A900F003F802BC04B0084738B504467E
:1019DC000D46FFF7F0FF074B1D6044F08004064BEB
:1019EC001C601A461368002BFCD1FFF7E5FF014B76
:0C19FC00186838BDE4360020E0360020FA
:101A080015060008F506000855070008F107000844
:101A180069080008C908000821090008B51300086A
:041A2800F1180008A9
:101A2C0025640D000A23232323232323232323208C
:101A3C0048534520EC9EA5ECB99820EC84A4ECA06E
:101A4C009520232323232323232323230A0A000063
:101A5C00EC99B8EBB68020ED81ACEBA6ACEC8AA48B
:101A6C00ED838820ED81B4EB9FAD203D20256420D3
:101A7C004D487A0A00000000EC9EA5ECB99820ECC9
:101A8C0084A4ECA09520EC8BA4ED8CA82E0A00006D
:101A9C0048534520ED81B4EB9FADEC9DB420EC9EFA
:101AAC0085EBA0A520ED9788EC9AA920EBB294ECDD
:101ABC009C84EBA5BC20ECB488EAB3BCED9688EC16
:101ACC008AB5EB8B88EB8BA42E202564206B487A8F
:101ADC00287573657229203C202564206B487A2870
:101AEC006D6178292E0A0000EC9EA5ECB99820ECCB
:101AFC0084A4ECA09520EC9984EBA38C2E0A000016
:101B0C00ED999CEC84B1ED999420EB8C80EAB8B003
:101B1C0020EC8B9CEAB084EC9D8420ECB488EAB376
:101B2C00BCED9688EC8AB5EB8B88EB8BA42E0A0067
:101B3C00010000004C0900204C2900203C09002029
:101B4C000400000040000000000100004C290020AF
:040000050800037973
:00000001FF
