:020000040800F2
:10000000A807002041020008F1010008F3010008E0
:10001000F5010008F7010008F901000800000000E0
:10002000000000000000000000000000FB010008CC
:10003000FD01000800000000652500086325000898
:100040000302000800000000050200080702000883
:10005000090200080B0200080D0200080F02000848
:1000600000000000DD1C0008411D0008B11D000853
:1000700017020008190200081B0200080000000017
:10008000692200081F020008000000002102000889
:1000900023020008250200082702000829020008A0
:1000A0002B0200082D0200082F0200083102000870
:0400B00081230008A0
:1000B400304931480A1A02D0072291438D462F490C
:1000C4002F480A1A06D00722914381F30988022295
:1000D40082F314882B482C492C4A00F03AF82C4817
:1000E4002C492D4A00F035F82C482D492D4A00F0B2
:1000F40030F82D482D492E4A00F02BF82D482E4972
:100104002E4A00F026F82E482E492F4A00F021F8F6
:100114002E482F492F4A00F01CF82F482F4900225F
:1001240000F022F82E482F49002200F01DF81F4845
:100134001F49884205D00268043003B4904703BCC9
:10014400F7E700208646EC4600200021264A904727
:10015400FEE7884207D0521A05D0037801300B70AD
:100164000131013AF9D17047884202D0027001305E
:10017400FAE77047A8070020A8030020A80700207A
:10018400A8070020FC2E0008000000200C0000201E
:100194004802000848020008DC270008FC2E00087A
:1001A4000000002000000020DC270008DC270008F5
:1001B40008280008DC270008DC270008DC270008E2
:1001C4000828000808280008FC2E0008082F00084A
:1001D400A0030020A00300200C000020A0030020A6
:1001E400A0030020A003002049020008FEE7FEE768
:1001F400FEE7FEE7FEE7FEE7FEE7FEE7FEE7FEE7D3
:10020400FEE7FEE7FEE7FEE7FEE7FEE7FEE7FEE7C2
:10021400FEE7FEE7FEE7FEE7FEE7FEE7FEE7FEE7B2
:10022400FEE7FEE7FEE7FEE7FEE7FEE7FEE7FEE7A2
:100234000348854602F0E6F83AE77047FEE7000017
:040244000020002076
:1002480010B584B002F0A4F92448002300930123D8
:100258000122022101F01BFA204800230093012308
:100268000122032101F013FA1D4B0121180001F0AE
:1002780077F880235B001B4A962189011A4801F010
:10028800CEFB174B0121180001F07FF8174B0393A1
:10029800039B180002F045FA0200FA239B00039919
:1002A800114801F004FC0A246C440F4B180001F0BB
:1002B80062FC030023800A236B4400229B5E002B10
:1002C800E6DB0A236B440021595E0A236B440022B3
:1002D8009A5E074B180002F02DFAD9E72402002095
:1002E800540300200C0000204003002008280008C8
:1002F8001828000882B001900A006B4603331A7070
:100308006B4603331B78002B07D0084B5A69074B01
:10031800802189020A435A6105E0044B5A69034B5C
:1003280003490A405A61C04602B0704700100240B3
:10033800FFFFFDFF82B00190074B9A6A064B8021B0
:1003480089020A439A62044B9A6A034B03490A409A
:100358009A62C04602B0704700100240FFFFFDFFDE
:1003680082B001900A006B4603331A706B46033360
:100378001B78002B07D0084B5A69074B8021C9020C
:100388000A435A6105E0044B5A69034B03490A4082
:100398005A61C04602B0704700100240FFFFFBFFE1
:1003A80082B00190074B9A6A064B8021C9020A4322
:1003B8009A62044B9A6A034B03490A409A62C04600
:1003C80002B0704700100240FFFFFBFF82B00190AF
:1003D8000A006B4603331A706B4603331B78002BF5
:1003E80007D0084B5A69074B802109030A435A6111
:1003F80005E0044B5A69034B03490A405A61C04659
:1004080002B0704700100240FFFFF7FF82B0019072
:10041800074B9A6A064B802109030A439A62044BE8
:100428009A6A034B03490A409A62C04602B0704771
:1004380000100240FFFFF7FF82B001900A006B46F0
:1004480003331A706B4603331B78002B07D0084B15
:100458005A69074B802149030A435A6105E0044B56
:100468005A69034B03490A405A61C04602B07047B3
:1004780000100240FFFFEFFF82B00190074B9A6A1D
:10048800064B802149030A439A62044B9A6A034B3C
:1004980003490A409A62C04602B070470010024001
:1004A800FFFFEFFF82B001900A006B4603331A701A
:1004B8006B4603331B78002B07D0084B5A69074B50
:1004C8008021C9030A435A6105E0044B5A69034B6A
:1004D80003490A405A61C04602B070470010024002
:1004E800FFFFBFFF82B00190074B9A6A064B80213D
:1004F800C9030A439A62044B9A6A034B03490A40A8
:100508009A62C04602B0704700100240FFFFBFFF6A
:1005180082B001900A006B4603331A706B460333AE
:100528001B78002B06D0084B5A69074B01210A4358
:100538005A6105E0044B5A69034B01218A435A6109
:10054800C04602B07047C0460010024082B0019019
:100558000A006B4603331A706B4603331B78002B73
:1005680006D0084BDA69074B02210A43DA6105E035
:10057800044BDA69034B02218A43DA61C04602B0B0
:100588007047C0460010024082B001900A006B46D6
:1005980003331A706B4603331B78002B07D0084BC4
:1005A800DA69074B802189020A43DA6105E0044BC6
:1005B800DA69034B03490A40DA61C04602B0704762
:1005C80000100240FFFFFDFF82B00190074B1A693F
:1005D800064B802189020A431A61044B1A69034BAE
:1005E80003490A401A61C04602B070470010024031
:1005F800FFFFFDFF82B001900A006B4603331A70BB
:100608006B4603331B78002B07D0084BDA69074B7E
:10061800802149050A43DA6105E0044BDA69034B96
:1006280003490A40DA61C04602B070470010024030
:10063800FFFFFFEF82B001900A006B4603331A7088
:10064800C04602B07047000010B584B001900A009F
:100658006B4603331A706B46033319780A0052014C
:10066800521A93019B1ADB005B189B0102932E4BD5
:100678006A46033212781A702C4B180002F05AF8A6
:100688006B4603331A782A4B1100180002F052F80F
:10069800029B284A934219D8029B274A934215D9AC
:1006A800264B180002F046F8029BFA229100180027
:1006B80002F023F803001C00214AFA23990021487C
:1006C8001300220002F036F8002329E01E4B1A68B6
:1006D8001D4BA021C9020A431A6000230393039B00
:1006E8001A4A934213D8184B1A6880239B02134066
:1006F8005A1E9341DBB2002B05D0154B180002F0AF
:1007080019F801230CE0039B01330393E7E70B4B34
:10071800180002F00FF80F4B180002F00BF8002336
:10072800180004B010BDC046A00300208C280008A3
:10073800B82800083F420F0040787D01E0280008F3
:10074800A8610000F8280008001002400F270000E8
:10075800602900087829000830B585B001900C00A0
:10076800100019006B460333221C1A706B460233C3
:10077800021C1A706B4601330A1C1A70884B180049
:1007880001F0D8FF874B5B689B0803221340023BAC
:100798005A425341DBB2002B08D0834B180001F0BA
:1007A800C9FF824B180001F0C5FFF2E06B46033326
:1007B8001B78012B08D97C4B180001F0BBFF7C4B40
:1007C800180001F0B7FFE4E06B4602331B780E2BEC
:1007D8000CD9754B180001F0ADFF6B460233197840
:1007E800744B0E22180001F0A5FFD2E06B460333CC
:1007F8001B78012B2DD1704B180001F09BFF694B22
:100808001A6880239B0213405A1E9341DBB2002BC7
:1008180016D06A4B1B7819000A005201521A93012C
:100828009B1ADB005B189B011C006B4601331B788D
:1008380001331900200001F060FF03001C000DE0E7
:10084800594B180001F076FF5D4B180001F072FF5C
:100858009FE05C4B180001F06DFF5B4C5B4B9C42CA
:1008680002D95B4B9C420AD94F4B180001F062FF3A
:10087800574B584958482A0001F05CFF89E06B46FD
:1008880002331B785C43554B9C420AD9464B1800EF
:1008980001F050FF514A524B2100180001F04AFF65
:1008A80077E06B4601331B7801331900200001F013
:1008B80024FF03001D004B4B9D4202D94A4B9D4229
:1008C8000AD9394B180001F035FF474B47494848CA
:1008D8002A0001F02FFF5CE0324B5C68454B234057
:1008E8006A460332127811046A4602321278023AD2
:1008F80092040A4313431C002A4B5C60294BDC6AB0
:100908000F2322009A436B4601331B781A431400C5
:10091800244BDC62234B1A68224B802149040A438A
:100928001A600E236B4400221A800E236B441B8826
:10093800314A934225D81B4B1A6880239B041340E5
:100948005A1E9341DBB2002B13D0FA2399002800DA
:1009580001F0D3FE03001A00284B1100180001F023
:10096800E9FE274B180001F0E5FE264B1D60012328
:1009780013E00E236B441A880E236B4401321A804D
:10098800D3E7094B180001F0D5FE1F4B180001F002
:10099800D1FE1C4B00221A600023180005B030BDA0
:1009A800A829000800100240E0280008D8290008FB
:1009B8002C2A0008642A0008B82A0008A00300208E
:1009C800E42A0008142B000800127A003F420F00A6
:1009D80000366E0140420F003C2B000800D8B805D5
:1009E800A02B0008FF23F400006CDC020024F400B4
:1009F800002C0008FFFFC2FF0F270000642C00082E
:100A080060290008A40300207829000882B001901A
:100A18000091009B094A934206D9094B1A68084B72
:100A280001210A431A6005E0054B1A68044B0121AD
:100A38008A431A60C04602B07047C04600366E014D
:100A48000020024010B588B001900C001000190079
:100A58006B460333221C1A706B460233021C1A7051
:100A68006B4601330A1C1A707B4B180001F062FEBA
:100A78006B4603331B78022B31D04CDC002B02D0A1
:100A8800012B07D047E0754B180001F053FE744B5B
:100A980007934AE0734B180001F04CFE724B1A683A
:100AA80080239B0213405A425341DBB2002B09D0EA
:100AB8006E4B180001F03EFE6D4B180001F03AFE37
:100AC8000023C6E06B4B1B7819000A005201521A2A
:100AD80093019B1ADB005B189B01079325E0664B8B
:100AE800180001F027FE604B1A6880239B0413400E
:100AF8005A425341DBB2002B09D05C4B180001F07D
:100B080019FE5E4B180001F015FE0023A1E05C4BB6
:100B18001B68079309E0554B180001F00BFE594B71
:100B2800180001F007FE002393E06B4602331A78A1
:100B3800554B9200D3581900079801F0DEFD0300C9
:100B48000693069B514A93420BD9484B180001F073
:100B5800F1FD4E4A06994E4B180001F0EBFD0023BB
:100B680077E06B4601331A784A4B9200D358190044
:100B7800069801F0C2FD03000593059B434A934282
:100B88000BD93A4B180001F0D5FD404A0599424B64
:100B9800180001F0CFFD00235BE00AAB1A783D4B4B
:100BA8009200D3581900069801F0A7FD030004939A
:100BB800049B364A93420BD92C4B180001F0BAFD1E
:100BC800324A0499354B180001F0B4FD002340E087
:100BD800069A019B11001800FFF718FF224B5B686B
:100BE8000393039B032293431A006B4603331B783A
:100BF800134303931C4B039A5A60069BFA229100F5
:100C0800180001F07AFD03001A00254B11001800A6
:100C180001F090FD059BFA229100180001F06DFD8E
:100C280003001A001F4B1100180001F083FD049BFC
:100C3800FA229100180001F060FD03001A001A4B17
:100C48001100180001F076FD184B180001F072FD34
:100C58000123180008B010BD742C0008142B0008DC
:100C68000024F400B82A000800100240E028000818
:100C7800A82C0008A0030020182D0008302D00081B
:100C8800A4030020802D00084C280008006CDC021A
:100C9800B82D00082C280008082E0008542E00083B
:100CA800A02E0008B42E0008C42E000860290008F1
:100CB80000B585B00190194B5B689B08032213406F
:100CC800022B15D018D8002B02D0012B03D013E02B
:100CD800134B039310E0134B1B7819000A005201C1
:100CE800521A93019B1ADB005B189B01039303E0E4
:100CF8000D4B1B680393C046084B5B681B090F220A
:100D08001A400A4B9200D3581900039801F0F5FCD9
:100D180003000393039B180005B000BD00100240B8
:100D28000024F400A0030020A40300204C2800089D
:100D380000B583B00190019B1800FFF7B9FF074B7E
:100D48005B681B0A07221A40054B9200D35819000A
:100D580001F0D3FC0300180003B000BD00100240EE
:100D68002C28000800B585B001900F4B5B681B0A62
:100D780007221A400D4B9200D3580293019B18008A
:100D8800FFF796FF03000299180001F0B6FC030074
:100D98000393029B012B02D9039B5B000393039BE4
:100DA800180005B000BDC046001002402C280008FD
:100DB80000B585B00390029101920398019A0299B7
:100DC800002300F0B5FA039B180005B000BD82B0FF
:100DD8000190C04602B0704700B585B003900291FB
:100DE800019200930398069A0099002300F0A0FA54
:100DF800039B1433180001F0B3FB039B029A5A6259
:100E0800039B019A1A6207AB1B78013BDAB2039B7A
:100E18009A77039B180005B000BD82B00190019B32
:100E28001B6A1A68019B1B6A02210A431A60019B0C
:100E38001B6A1A68019B1B6A08210A431A60C0468C
:100E480002B0704730B597B00390029101920093B9
:100E5800039B1433180001F08FFB039B00221A77C1
:100E6800039B00225A77029B180001F041FB030004
:100E78001393039B1B6A1900039B9B7F1A001300A3
:100E88009B009B189B00CB1AA0331293129B1B68E4
:100E98001593039B9B7F9B0014937E4B180001F0D6
:100EA8006BFB0F22149B9A401300DB431A00159B1F
:100EB8001340139A12781100149A91400A001343B0
:100EC8001593129B159A1A60724B180001F05AFB81
:100ED800139B5A68039B1B6A9A60039B1B6A1A68D8
:100EE800039B1B6A10210A431A60039B1B6A1A683A
:100EF800039B1B6A40218A431A60039B1B6A1A687A
:100F0800039B1B6A80210A431A60039B1B6A079391
:100F1800032306930023059313236B440A221A70B4
:100F2800079B1B6813226A441278069991400A00AD
:100F3800D2431A40069B0599194013236B441B782A
:100F480099400B001A43079B1A60C046039B1B6A13
:100F58000B9303230A930023099323236B4408224A
:100F68001A700B9B1B6823226A4412780A999140D5
:100F78000A00D2431A400A9B0999194023236B445B
:100F88001B7899400B001A430B9B1A60C046039BC1
:100F98001B6A1900139B9B891A000F9103230E9358
:100FA8000D9233236B440C221A700F9B1B6833225B
:100FB8006A4412780E9991400A00D2431A400E9B57
:100FC8000D99194033236B441B7899400B001A4341
:100FD8000F9B1A60C046039B1B6A019ADA60039B49
:100FE8001B6A009A5A60039B1B6A1A68039B1B6A58
:100FF80001210A431A6001F04DFB02001A9BD31825
:10100800109300231193039B1B7F002B2BD1039B71
:101018005B7F002B27D101F03DFB03001C00002360
:101028001D0001231A1C119BAB4205D8119BAB4232
:1010380004D1109BA34201D900231A1CD3B2002B60
:101048000ED0039B1B6A1A68039B1B6A01218A4303
:101058001A60039B1433180001F094FA002316E079
:1010680001F07DFACFE7039B1B6A1A68039B1B6A92
:1010780001218A431A60039B1433180001F082FA95
:10108800039B5B7F002B01D0002300E001231800A5
:1010980017B030BD0C01002088B00190019B5B6A3D
:1010A8001B680F2213400793019B5B6A0433069366
:1010B8000F230593079B04930F236B4400221A7098
:1010C800069B1B680F226A441278059991400A0012
:1010D800D2431A40059B049919400F236B441B788F
:1010E80099400B001A43069B1A60C046079B0822CA
:1010F800134002D0019B01225A77079B0322134019
:1011080002D0019B01221A77C04608B0704788B008
:101118000190019B5B6A1B681B090F221340079310
:10112800019B5B6A043306930F230593079B049383
:101138000F236B4404221A70069B1B680F226A4413
:101148001278059991400A00D2431A40059B0499E8
:1011580019400F236B441B7899400B001A43069BD8
:101168001A60C046079B0822134002D0019B012247
:101178005A77079B0322134002D0019B01221A775A
:10118800C04608B0704788B00190019B5B6A1B6835
:101198001B0A0F2213400793019B5B6A04330693D3
:1011A8000F230593079B04930F236B4408221A709F
:1011B800069B1B680F226A441278059991400A0021
:1011C800D2431A40059B049919400F236B441B789E
:1011D80099400B001A43069B1A60C046079B0822D9
:1011E800134002D0019B01225A77079B0322134028
:1011F80002D0019B01221A77C04608B0704788B018
:101208000190019B5B6A1B681B0B0F22134007931D
:10121800019B5B6A043306930F230593079B049392
:101228000F236B440C221A70069B1B680F226A441A
:101238001278059991400A00D2431A40059B0499F7
:1012480019400F236B441B7899400B001A43069BE7
:101258001A60C046079B0822134002D0019B012256
:101268005A77079B0322134002D0019B01221A7769
:10127800C04608B0704788B00190019B5B6A1B6844
:101288001B0C0F2213400793019B5B6A04330693E0
:101298000F230593079B04930F236B4410221A70A6
:1012A800069B1B680F226A441278059991400A0030
:1012B800D2431A40059B049919400F236B441B78AD
:1012C80099400B001A43069B1A60C046079B0822E8
:1012D800134002D0019B01225A77079B0322134037
:1012E80002D0019B01221A77C04608B0704700005F
:1012F80000B583B001900091019B012B07D1009BA1
:10130800044A934203D1044B180001F029F9C0465E
:1013180003B000BDFFFF00000C01002010B5034B17
:1013280019000120FFF7E4FF10BDC046FFFF0000D1
:1013380000B585B00390029101920093039B0C3392
:10134800180001F00DF9039B029A1A60039B019A99
:101358005A60039B009A9A60039B180005B000BD71
:1013680000B583B001900A006B4603331A70019BE5
:101378001B68002B06D0019B1B686A460332127853
:1013880010009847C04603B000BD00B583B0019077
:101398000A006B4603331A70019B5B68002B06D06A
:1013A800019B5B686A460332127810009847C04672
:1013B80003B000BD00B585B0039002910192039877
:1013C800019A02990023FFF7B3FF039B180005B0A9
:1013D80000BD00B583B001900198002300220021D0
:1013E800FFF7A6FF019B180003B000BD82B0019073
:1013F8000A006B4603331A706B4603331B78002BC5
:1014080006D0084B1A68074B10210A431A6005E0FA
:10141800044B1A68034B10218A431A60C04602B075
:101428007047C0460020024086B0019008001100B5
:101438006B460333021C1A706B4602330A1C1A707F
:101448006B46DA1C6B4603331B78DB181370019A62
:101458006B4602331B7805920322049203930B23F5
:101468006B446A46033212781A70059B1B680B227C
:101478006A441278049991400A00D2431A40049BA6
:10148800039919400B236B441B7899400B001A43AE
:10149800059B1A60C046C04606B070478AB00190E6
:1014A800080011006B460333021C1A706B460233A6
:1014B8000A1C1A706B4603331B78072B2CD86B4613
:1014C80003336A460332127892001A70019B203364
:1014D8001A006B4602331B7809920F220892079371
:1014E8001B236B446A46033212781A70099B1B68E7
:1014F8001B226A441278089991400A00D2431A4084
:10150800089B079919401B236B441B7899400B00D3
:101518001A43099B1A6038E06B4603331B780F2B7C
:1015280033D86B4603336A4603321278083A1A7086
:101538006B4603336A460332127892001A70019B95
:1015480024331A006B4602331B7805920F2204924B
:1015580003930B236B446A46033212781A70059B77
:101568001B680B226A441278049991400A00D243FE
:101578001A40049B039919400B236B441B7899402C
:101588000B001A43059B1A60C046C0460AB0704754
:1015980086B00190080011006B460333021C1A70D4
:1015A8006B4602330A1C1A706B46DA1C6B4603330F
:1015B8001B78DB181370019B08331A006B46023343
:1015C8001B7805920322049203930B236B446A460B
:1015D800033212781A70059B1B680B226A44127832
:1015E800049991400A00D2431A40049B0399194078
:1015F8000B236B441B7899400B001A43059B1A6018
:10160800C046C04606B0704782B00190080011007D
:101618006B460333021C1A706B4602330A1C1A709D
:101628006B4602331B78002B0BD0019B5B686A4624
:1016380003321278012191400A001A43019B5A6033
:101648000BE0019B5B686A460332127801219140E6
:101658000A00D2431A40019B5A60C04602B0704744
:1016680000B585B003900291019200930398009B06
:1016780001990022FFF75CFE039B029A5A61039AC4
:1016880006AB1B781376039B180005B000BD10B598
:1016980082B001900C00100019006B460333221C25
:1016A8001A706B460233021C1A706B4601330A1C0F
:1016B8001A70019B58696B4603331B780222190084
:1016C800FFF7B2FE019B58696B4602331A786B46E6
:1016D80003331B781900FFF7E1FE019B58696B463D
:1016E80001331A786B4603331B781900FFF750FF54
:1016F800019B586904AB1A786B4603331B781900B1
:10170800FFF782FFC04602B010BD000082B00200A1
:101718006B4607331A706B4606330A1C1A706B4601
:1017280007331B781F22134001229A401100054AF3
:101738006B4607331B785B09DBB29B009950C046A8
:1017480002B0704700E100E000B585B00390029157
:1017580001920398019A02990023FFF7E9FD039B80
:10176800180005B000BD00B583B001900A006B46B3
:1017780003331A706B4603331B7819000920FFF7EF
:10178800C5FFC04603B000BD00B583B001900A0094
:101798006B4603331A706B4603331B7819000A2013
:1017A800FFF7B4FFC04603B000BD00B583B0019099
:1017B8000A006B4603331A706B4603331B78190013
:1017C8000A20FFF7A3FFC04603B000BD00B583B0F1
:1017D80001900A006B4603331A706B4603331B787B
:1017E80019000B20FFF792FFC04603B000BD00B5FB
:1017F80083B001900A006B4603331A706B460333BB
:101808001B7819000B20FFF781FFC04603B000BD0D
:1018180000B583B001900A006B4603331A706B461B
:1018280003331B7819001020FFF770FFC04603B080
:1018380000BD00B583B001900A006B4603331A70EF
:101848006B4603331B7819001C20FFF75FFFC04667
:1018580003B000BD82B001900A006B4603331A70D2
:10186800C04602B0704700B585B00390029101925E
:101878000398019A02990023FFF75AFD039B180069
:1018880005B000BD00B585B00390029101920093A8
:101898000398069B009A0199FFF74AFD039B029A59
:1018A8005A61039B079A1A65039B00225A6503999C
:1018B800002200238A61CB61039B00229A65039B67
:1018C8000022DA65039B00221A66039B00225A66EF
:1018D800039B180005B000BD00B583B00190019BC3
:1018E800180000F03FF80200FA239900100000F0F9
:1018F80004FF03009BB25A1E019B5B699A62019B1D
:101908005B69084ADA62019B5B69064A5A62019B75
:101918005B69DA68019B5B6901210A43DA60C046AA
:1019280003B000BD60EA000082B00190019B5B69D2
:101938001A68019B5B6901210A431A60C04602B01C
:10194800704782B00190019B5B695B6A180002B026
:101958007047000082B00190014B180002B0704738
:1019680060EA000000B583B00190019B1B6D9847A9
:101978000300180003B000BD82B001900091019BE4
:10198800009A5A65C04602B0704700B583B001900E
:10199800019B5B6D002B02D0019B5B6D9847019BFF
:1019A8009A69DB690120002112184B4101998A616B
:1019B800CB61C04603B000BD10B584B0039002915E
:1019C80001920093039B180000F098FD039B1433C9
:1019D8001800069B009A0199FFF7AAFC0398029B3E
:1019E80028331A0009AB1C8808AB1978230000F0CB
:1019F8008EFD039B0A9ADA62039B079A1A64039B7B
:101A0800029A9A62039B00221A63039B00229A633C
:101A1800039B0022DA63039B180004B010BD00B5D5
:101A280087B00390029101920093039BDB6A984769
:101A380003000493039B019A1A63039B009A5A6359
:101A48000299049800F059FE03000593059B9AB289
:101A5800039B9B6ADA60039B9B6A1A68039B9B6AD9
:101A680008210A431A60039B9B6A1A68039B9B6AB6
:101A780004210A431A60039B9B6A9A68039B9B6A2A
:101A880080210A439A60039B9B6A1A68039B9B6A9E
:101A980020210A431A60039B9B6A1A68039B9B6A6E
:101AA80001210A431A600123180007B000BD10B5D0
:101AB80086B00590049103920293059B1B6C002B42
:101AC8000BD0059B186C0599039C049A029B009304
:101AD8002300FFF7B7F9030000E00023180006B061
:101AE80010BD82B001900A006B4603331A70019B47
:101AF8001B6B002B14D0019B196B019BDB6B581CD3
:101B0800019AD063CB186A46033212781A70019B87
:101B1800DA6B019B5B6B9A4202D3019B0022DA636A
:101B2800C04602B0704700B585B00190019B9B6A22
:101B3800DB690393019B9B6A9B8C9BB2DAB2019B86
:101B480011001800FFF7CDFF039B0822134003D0B4
:101B5800019B180000F003F8C04605B000BD82B034
:101B68000190019B00229A63019B9A6B019BDA63A7
:101B7800C04602B0704784B001900E236B44012226
:101B880052421A80019BDA6B019B9B6B9A4214D0DC
:101B9800019B196B019B9B6B581C019A9063CB1896
:101BA8001A780E236B441A80019B9A6B019B5B6B1E
:101BB8009A4202D3019B00229A630E236B440022AF
:101BC8009B5E180004B0704782B001900091019BA1
:101BD800180002B07047000000B583B00190009172
:101BE800019B012B08D1009B054A934204D1054B68
:101BF80000211800FFF7E8FFC04603B000BDC0464B
:101C0800FFFF00001401002010B5034B190001204C
:101C1800FFF7E2FF10BDC046FFFF000000B583B02C
:101C280002006B4607331A706B4607331A78044B69
:101C380011001800FEF76CFCC04603B000BDC0469A
:101C48001D01002000B583B002006B4607331A70EF
:101C58006B4607331A78144B11001800FFF783FD01
:101C68006B4607331A78104B11001800FFF78CFDEC
:101C78006B4607331A780C4B11001800FFF795FDD7
:101C88006B4607331A78084B11001800FFF79EFDC2
:101C98006B4607331A78044B11001800FFF7A7FDAD
:101CA800C04603B000BDC046B002002000B583B0F6
:101CB80002006B4607331A706B4607331A78044BD9
:101CC80011001800FFF74FFDC04603B000BDC04625
:101CD800B002002010B5034B1800FFF7DDF9C0462D
:101CE80010BDC0463401002000B583B002006B4629
:101CF80007331A706B4607331A78044B1100180023
:101D0800FFF742FDC04603B000BDC046B002002048
:101D180000B583B002006B4607331A706B46073371
:101D28001A78044B11001800FFF73FFDC04603B0B6
:101D380000BDC046B002002010B5054B1800FFF7E3
:101D4800E6F9044B1800FFF71EFAC04610BDC0465E
:101D58005C0100208401002000B583B002006B46BE
:101D680007331A706B4607331A78044B11001800B2
:101D7800FFF72CFDC04603B000BDC046B0020020EE
:101D880000B583B002006B4607331A706B46073301
:101D98001A78044B11001800FFF729FDC04603B05C
:101DA80000BDC046B002002010B5054B1800FFF773
:101DB80026FA044B1800FFF75EFAC04610BDC0466D
:101DC800AC010020D401002000B585B00390029139
:101DD800039B012B3BD1029B1E4A934237D11E4ADB
:101DE8001E491F4B1800FEF7E3FF1E4A1E491F48F5
:101DF800012301931E4B00930023FEF7EDFF1D4ABC
:101E080019491D48022301931C4B00930023FEF738
:101E1800E3FF1B4A14491B48032301931A4B009301
:101E28000023FEF7D9FF194A0F49194804230193E3
:101E3800184B00930023FEF7CFFF174A0A491748AB
:101E480005230193164B00930023FEF7C5FFC046F8
:101E580005B000BDFFFF00004D1C0008251C000850
:101E68002001002008000240000002403401002048
:101E7800B51C00081C0002405C010020F11C000891
:101E88003000024084010020191D0008440002406F
:101E9800AC010020611D000858000240D401002058
:101EA800891D000810B5034B19000120FFF78CFFAE
:101EB80010BDC046FFFF000000B583B002006B46AE
:101EC80007331A706B4607331A78044B1100180051
:101ED800FFF7C0FCC04603B000BDC046B0020020FA
:101EE80000B583B001900091019B012B09D1009BA3
:101EF800054A934205D1054A054B00211800FFF712
:101F080059FAC04603B000BDFFFF0000C11E00081B
:101F1800FC01002010B5034B19000120FFF7E0FF7A
:101F280010BDC046FFFF000000B583B001900091CE
:101F3800019B012B07D1009B044A934203D1044B18
:101F48001800FFF746FAC04603B000BDFFFF0000C7
:101F58001002002010B5034B19000120FFF7E4FF21
:101F680010BDC046FFFF000000B583B002006B46FD
:101F780007331A706B4607331A78044B11001800A0
:101F8800FEF7B8F9C04603B000BDC0461D010020E9
:101F980010B5034B1800FEF7CDF9C04610BDC0467A
:101FA8001D01002000B583B002006B4607331A708C
:101FB8006B4607331A78044B11001800FEF7D0F966
:101FC800C04603B000BDC0461D01002010B5034B3C
:101FD8001800FEF7E5F9C04610BDC0461D010020F7
:101FE80010B5034B1800FEF711FAC04610BDC046E5
:101FF8001D01002000B583B002006B4607331A703C
:102008006B4607331A78044B11001800FEF714FAD0
:10201800C04603B000BDC0461D01002010B5034BEB
:102028001800FEF729FAC04610BDC0461D01002061
:1020380000B583B002006B4607331A706B4607334E
:102048001A78044B11001800FEF72CFAC04603B0AA
:1020580000BDC0461D01002010B5034B1800FEF757
:1020680041FAC04610BDC0461D01002010B584B01D
:1020780003900291039B012B30D1029B194A934292
:102088002CD1194B194A9021C905194800240094EC
:10209800FFF7E6FA174B184A184C19480121009126
:1020A8002100FFF7DDFA174B134A174C1748022196
:1020B80000912100FFF7D4FA154B164A164C174821
:1020C800032100912100FFF7CBFA154B154A164C56
:1020D8001648052100912100FFF7C2FAC04604B056
:1020E80010BDC046FFFF0000991F0008711F0008BF
:1020F80024020020D51F0008AD1F00080004004876
:1021080040020020E91F0008000800485C02002087
:1021180025200008FD1F0008000C00487802002058
:1021280061200008392000080014004894020020AB
:1021380010B5034B19000120FFF798FF10BDC046EA
:10214800FFFF000000B583B001900091019B012BB7
:1021580009D1009B054A934205D1054B0022002175
:102168001800FFF7F1FAC04603B000BDFFFF0000FA
:10217800B002002010B5034B19000120FFF7E2FF61
:1021880010BDC046FFFF000000B583B002006B46DB
:1021980007331A706B4607331A78044B110018007E
:1021A800FEF748FAC04603B000BDC0461D01002036
:1021B80000B583B001900091019B012B09D1009BD0
:1021C800054A934205D10549054B00221800FFF73F
:1021D8004AFBC04603B000BDFFFF00009121000884
:1021E800C402002010B5034B19000120FFF7E0FFDF
:1021F80010BDC046FFFF000010B5034B1800FEF7E6
:10220800B1FD0300180010BD1C01002000B583B00B
:1022180002006B4607331A706B4607331A78044B73
:1022280011001800FEF792F9C04603B000BDC04681
:102238001D01002000B583B002006B4607331A70F9
:102248006B4607331A78044B11001800FFF7E0FAC1
:10225800C04603B000BDC046B0020020C04670476B
:1022680010B50C4BDB680122134006D0094B1B69E3
:102278000122134001D0012300E00023002B07D0E6
:10228800044B022252421A61034B1800FFF77DFBF0
:10229800C04610BD00040040D802002010B584B02C
:1022A80003900291039B012B0FD1029B084A934292
:1022B8000BD10849084A094C09480A4B01930A4BB3
:1022C80000930B002100FFF7DDFAC04604B010BDF3
:1022D800FFFF00003D22000815220008000400400E
:1022E800D8020020012200086522000810B5034B1F
:1022F80019000120FFF7D2FF10BDC046FFFF000004
:1023080010B5034B1800FEF713FD0300180010BDAD
:102318001C01002000B583B002006B4607331A7019
:102328006B4607331A78044B11001800FEF72CF996
:10233800C04603B000BDC0461D01002000B583B0F3
:1023480002006B4607331A706B4607331A78044B42
:1023580011001800FFF76DFAC04603B000BDC04673
:10236800B002002010B5034B1800FEF72DF9C04647
:1023780010BDC0461D01002010B5034B1800FFF723
:10238800D2FBC04610BDC0464003002010B588B03F
:1023980007900691079B012B15D1069B0B4A934288
:1023A80011D10B490B4A0C4C0C480D4B04930023DC
:1023B8000393092302930B4B01930B4B00930B00E0
:1023C8002100FFF7F9FAC04608B010BDFFFF000072
:1023D800452300081D230008004400404003002056
:1023E80009230008AC0100206D23000810B5034B39
:1023F80019000120FFF7CAFF10BDC046FFFF00000B
:1024080010B500F003F8C04610BD000000B589B053
:102418000823049301235B42079301235B4206933D
:1024280002230593059B102B1FDC049B059A53433D
:102438000393039B302B04D1059B0793002306933A
:1024480013E0039B602B04D1059B0793012306939C
:102458000BE0039B902B04D1059B07930223069363
:1024680003E0059B01330593DCE71E4B01211800AF
:10247800FEF7C0F81C4B08211800FEF7E5F8079B8B
:10248800012B12DD069B002B0FDB079BDAB2069BA4
:10249800DBB215480121FEF75FF9134800230093CA
:1024A800002300220221FEF7CDFA104B012118006B
:1024B800FEF79CFF0B4B01211800FDF71BFF094B92
:1024C80001211800FDF74CFF064B01211800FDF70C
:1024D8007DFF044B01211800FDF7AEFFC04609B08F
:1024E80000BDC0461D0100201C0100201002002074
:1024F80082B00190019B180002B0704782B0019031
:10250800019B00221A74019B180002B0704784B026
:1025180003900800019219000B236B44021C1A70E7
:1025280002AB0A1C1A80039B01221A74039B0B221C
:102538006A4412781A70039B0B226A4412785A7004
:10254800039B019A5A60039B019A9A60039B02AA13
:1025580012889A81C04604B0704770477047704728
:1025680082B00190019B00221A60019B00225A60F0
:10257800019B180002B0704782B001900023180038
:1025880002B0704782B00190C04602B070470000A8
:1025980010B500F057F8194B01211800FEF7E0FEBE
:1025A800164B1800FEF713FC144B01211800FEF718
:1025B800ECFE134B1800FEF730FC124B1800FEF728
:1025C8002CFC114B1800FEF728FC104B1800FEF7E6
:1025D80024FC0F4B1800FEF720FC0E4B01211800BD
:1025E800FEF7BEFE0C4B01211800FEF7B9FE0A4BA0
:1025F80001211800FEF7C9FEC04610BD20010020C9
:10260800340100205C01002084010020AC0100207E
:10261800D4010020C4020020FC010020074B1B68E5
:10262800180000231900064B1A685B6812184B4102
:1026380003490A604B60C0467047C0460800002046
:102648000000002010B5104B01211800FEF788FE8D
:102658000D4B1800FFF740F90B4B1800FFF77AF9FC
:1026680002000A4B1A600A4A074B11001800FFF7CC
:1026780083F9054B01211800FEF787FE024B18006D
:10268800FFF752F9C04610BDD8020020080000200C
:1026980025260008F0B583B0134B1800FFF751F951
:1026A8000100124B1A685B681300CB180193019B59
:1026B8001C0000231D000E4B1A685B68AB4202D851
:1026C80006D1A24204D90B4B1B68019AD318019377
:1026D800019B1E0000231F00054B1E605F60019BCD
:1026E800180003B0F0BDC046D8020020000000204A
:1026F8008803002008000020FEE70A000FD003002E
:10270800400800E052008242FCD9002000E0520854
:10271800934200D39B1A40418A42F8D17047002067
:102728007047411C02780130002AFBD1401A7047DB
:10273800704770470FB400B50A2001A900F004F8EB
:1027480002BC04B00847000070B504000D00FFF794
:10275800EFFF074B1D6080200443064B1C601A00E6
:102768001368002BFCD1FFF7E4FF014B186870BD1C
:1027780094030020900300200FB410B5FFF7BCFFAE
:1027880010BC08BC04B01847024B1868BFF35B8F35
:102798007047C0469803002010B580470148FFF7EE
:1027A800EBFF10BDD42E000810B5FFF7EDFFFFF7C3
:1027B800F3FF10BD034B044A1A60044B044A1A6025
:1027C8007047C04698030020012700089C0300209A
:0427D800B12700081D
:1027DC0025130008111C0008AD1E00081D1F000861
:1027EC005D1F0008392100087D210008ED2100083B
:0C27FC00F5220008F5230008BD270008A6
:1028080068656C6C6F20776F726C6421210A0D000B
:10281800696E707574203D203078253032785B25DC
:10282800635D0A00010000000100000001000000D3
:102838000100000002000000040000000800000081
:10284800100000000100000001000000010000006D
:10285800010000000100000001000000010000006C
:102868000100000002000000040000000800000051
:10287800100000004000000080000000000100007F
:10288800000200000A2323232323232323232320B6
:1028980048534520EC9EA5ECB99820EC84A4ECA004
:1028A8009520232323232323232323230A0A0000F9
:1028B800EC99B8EBB68020ED81ACEBA6ACEC8AA421
:1028C800ED838820ED81B4EB9FAD203D2025642069
:1028D8004D487A0A00000000EC9EA5ECB99820EC5F
:1028E80084A4ECA09520EC8BA4ED8CA82E0A000003
:1028F80048534520ED81B4EB9FADEC9DB420EC9E90
:1029080085EBA0A520ED9788EC9AA920EBB294EC72
:102918009C84EBA5BC20ECB488EAB3BCED9688ECAB
:102928008AB5EB8B88EB8BA42E202564206B487A24
:10293800286D696E29203C202564206B487A28750B
:1029480073657229203C202564206B487A286D61C4
:1029580078292E0A00000000EC9EA5ECB99820EC1E
:1029680084A4ECA09520EC9984EBA38C2E0A00009B
:10297800ED999CEC84B1ED999420EB8C80EAB8B089
:1029880020EC8B9CEAB084EC9D8420ECB488EAB3FC
:10299800BCED9688EC8AB5EB8B88EB8BA42E0A00ED
:1029A8000A23232323232323232323204D61696E12
:1029B80020504C4C20EC9EA5ECB99820EC84A4EC5B
:1029C800A09520232323232323232323230A0A0038
:1029D800EC9EA5ECB998EAB08020EC9DB4EBAFB8BA
:1029E80020ED999CEC84B1ED9994EB9098EC96B419
:1029F80020EC8B9CEC8AA4ED859C20ED81B4EB9FA8
:102A0800ADEC9CBCEBA19C20EC84A4ECA095EB90D5
:102A180098EC96B420EC9E88EC8AB5EB8B88EB8B0F
:102A2800A42E0A00ED81B4EB9FAD20EC868CEC8AD5
:102A3800A4EC9D9820EC84A0ED839D20EBB294EC4F
:102A48009C84EBA5BC20ECB488EAB3BCED9688EC7A
:102A58008AB5EB8B88EB8BA42E0A0000EC9DB8ECB2
:102A68009E90206D756CEC9D9820EC84A4ECA0954C
:102A7800EC9DB420ED9788EC9AA920EBB294EC9CDD
:102A880084EBA5BC20ECB488EAB3BCED9688EC8A4C
:102A9800B5EB8B88EB8BA42E2025642875736572A3
:102AA80029203C202564286D6178292E0A00000021
:102AB800ED81B4EB9FAD20EC868CEC8AA4203D2000
:102AC80048534520EC99B8EBB68020ED81ACEBA6D5
:102AD800ACEC8AA4ED83880A000000004853452026
:102AE800ED81B4EB9FADEC9DB420ED999CEC84B1E5
:102AF800ED9994EB9098ECA78020EC958AEC95984A
:102B0800EC8AB5EB8B88EB8BA42E0A00ED81B4EB35
:102B18009FAD20EC868CEC8AA4203D2048534920A8
:102B2800EB82B4EBB6802052432031364D487A0A06
:102B3800000000004D61696E20504C4CEC9D9820BF
:102B4800EC9E85EBA0A520ECA3BCED8C8CEC8898C2
:102B5800EAB08020ED9788EC9AA920EBB294EC9C1F
:102B680084EBA5BC20EBB297EC96B4EB82ACEC8A74
:102B7800B5EB8B88EB8BA42E202564286D696E2914
:102B8800203C202564287573657229203C20256423
:102B9800286D6178292E0A004D61696E20504C4CD1
:102BA800EC9D982076636F20EC84A4ECA09520EC33
:102BB800A3BCED8C8CEC8898EAB08020ED9788EC6B
:102BC8009AA920EBB294EC9C84EBA5BC20EBB297BD
:102BD800EC96B4EB82ACEC8AB5EB8B88EB8BA42E2D
:102BE800202564287573657229203C202564286D8A
:102BF8006178292E0A0000004D61696E20504C4C06
:102C0800EC9D9820EC84A4ECA09520ECA3BCED8C62
:102C18008CEC8898EAB08020ED9788EC9AA920EB94
:102C2800B294EC9C84EBA5BC20EBB297EC96B4EB89
:102C380082ACEC8AB5EB8B88EB8BA42E202564281C
:102C48006D696E29203C20256428757365722920DA
:102C58003C202564286D6178292E0A00504C4C20B0
:102C68003D202564206B487A0A0000000A232323AC
:102C7800232323232323232020EC8B9CEC8AA4EDFD
:102C8800859C20ED81B4EB9FAD20EC84A4ECA0954D
:102C980020232323232323232323230A0A0000009A
:102CA800EC99B8EBB68020ED81ACEBA6ACEC8AA42D
:102CB800ED8388EC9DB420ED9884EC9EAC20EB8FDE
:102CC80099EC9E91ECA491EC9DB420EC9584EB8B4F
:102CD80099EB8B88EB8BA42E20EBA8BCECA0802072
:102CE800EC99B8EBB68020ED81ACEBA6ACEC8AA4ED
:102CF800ED8388EC9D8420ED999CEC84B1ED99944A
:102D080020ED95B4ECA3BCEC84B8EC9A942E0A00A0
:102D1800ED81B4EB9FAD20EC868CEC8AA4203D209D
:102D2800504C4C0A00000000504C4CEC9DB420ED77
:102D38009884EC9EAC20EB8F99EC9E91ECA491ECDE
:102D48009DB420EC9584EB8B99EB8B88EB8BA42EB0
:102D580020EBA8BCECA08020504C4CEC9D8420EDCE
:102D6800999CEC84B1ED999420ED95B4ECA3BCEC5E
:102D780084B8EC9A942E0A00ECA780ECA095EB900E
:102D88009C20ED81B4EB9FAD20EC868CEC8AA4EA04
:102D9800B08020EC9CA0ED9AA8ED9598ECA7802037
:102DA800EC958AEC8AB5EB8B88EB8BA42E0A000095
:102DB800537973636C6B20ECA3BCED8C8CEC889816
:102DC800EAB08020ED9788EC9AA920EBB294EC9CAD
:102DD80084EBA5BC20ECB488EAB3BCED9688EC8AF9
:102DE800B5EB8B88EB8BA42E202564287573657250
:102DF80029203C202564286D6178292E0A000000CE
:102E08004150423120ECA3BCED8C8CEC8898EAB0A0
:102E18008020ED9788EC9AA920EBB294EC9C84EB87
:102E2800A5BC20ECB488EAB3BCED9688EC8AB5EB77
:102E38008B88EB8BA42E2025642875736572292056
:102E48003C202564286D6178292E0A0041504232C1
:102E580020ECA3BCED8C8CEC8898EAB08020ED9730
:102E680088EC9AA920EBB294EC9C84EBA5BC20ECEE
:102E7800B488EAB3BCED9688EC8AB5EB8B88EB8B0B
:102E8800A42E202564287573657229203C202564AA
:102E9800286D6178292E0A00537973636C6B203D85
:102EA800202564206B487A0A000000004150423116
:102EB800203D202564206B487A0A000041504232A8
:102EC800203D202564206B487A0A00007465726DE5
:102ED800696E6174655F68616E646C657220756E99
:102EE80065787065637465646C7920726574757251
:042EF8006E6564009F
:0C2EFC00A015FFFFFFFFFFFF60EA0000D1
:0400000508000235B8
:00000001FF
