:020000040800F2
:10000000C8350020B30300081503000817030008D3
:10001000190300081B0300081D030008000000006E
:100020000000000000000000000000001F030008A6
:1000300021030008000000003F1400082D140008F0
:1000400027030008290300082B0300082D030008DC
:100050002F030008310300083303000835030008AC
:1000600037030008390300083B0300083D0300087C
:100070003F0300084103000843030008450300084C
:100080004703000800000000F10400084B030008CB
:100090004D030008C1050008510300085303000880
:1000A000550300088D12000859030008AD1100081F
:1000B000BD1200085F030008610300086303000825
:1000C0006503000867030008690300086B03000864
:1000D0006D0300086F030008710300087303000834
:1000E0007503000877030008790300087B03000804
:1000F0007D0300087F030008810300080000000062
:1001000000000000830300080000000085030008D1
:100110008703000800000000890300088B03000823
:100120008D0300088F030008910300089303000863
:10013000950300080000000000000000970300087D
:10014000990300089B030008000000000000000065
:10015000000000000000000000000000000000009F
:100160000000000000000000000000009D030008E7
:100170009F030008000000000000000000000000D5
:1001800000000000A10300080000000000000000C3
:10019000000000000000000000000000000000005F
:1001A0000000000000000000A3030008A5030008F1
:1001B000A7030008A9030008AB0300080000000023
:1001C00000000000AD030008000000000000000077
:0801D000AF030008B1030008B1
:1001D800304931480A1A02D0072291438D462F49E7
:1001E8002F480A1A06D00722914381F30988022270
:1001F80082F314882B482C492C4A00F03AF82C48F2
:100208002C492D4A00F035F82C482D492D4A00F08C
:1002180030F82D482D492E4A00F02BF82D482E494C
:100228002E4A00F026F82E482E492F4A00F021F8D1
:100238002E482F492F4A00F01CF82F482F4900223A
:1002480000F022F82E482F49002200F01DF81F4820
:100258001F49884205D00268043003B4904703BCA4
:10026800F7E700208646EC4600200021264A904702
:10027800FEE7884207D0521A05D0037801300B7088
:100288000131013AF9D17047884202D00270013039
:10029800FAE77047C8350020C82D0020C83D002067
:1002A800C83500207C1E000800000020380000200F
:1002B800D4030008D4030008F61D00087C1E0008BB
:1002C8000000002000000020F81D0008F81D0008AC
:1002D8001C1E0008F81D0008F81D0008F81D00087D
:1002E8001C1E00081C1E00087C1E0008B41E000806
:1002F800B02D0020B02D002038000020B02D0020A7
:10030800B02D0020B02D00203D040008FEE7FEE7D8
:10031800FEE7FEE7FEE7FEE7FEE7FEE7FEE7FEE7AD
:10032800FEE7FEE7FEE7FEE7FEE7FEE7FEE7FEE79D
:10033800FEE7FEE7FEE7FEE7FEE7FEE7FEE7FEE78D
:10034800FEE7FEE7FEE7FEE7FEE7FEE7FEE7FEE77D
:10035800FEE7FEE7FEE7FEE7FEE7FEE7FEE7FEE76D
:10036800FEE7FEE7FEE7FEE7FEE7FEE7FEE7FEE75D
:10037800FEE7FEE7FEE7FEE7FEE7FEE7FEE7FEE74D
:10038800FEE7FEE7FEE7FEE7FEE7FEE7FEE7FEE73D
:10039800FEE7FEE7FEE7FEE7FEE7FEE7FEE7FEE72D
:1003A800FEE7FEE7FEE7FEE7FEE70548854600F0C4
:1003B800C3FF044804490160FFF70ABF7047000003
:0C03C8000040002008ED00E000000008EC
:1003D400FEE7000010B50C4C01220521204600F078
:1003E400E0FD00220521204600F0DBFD012208216A
:1003F400204600F0D6FD322001F09EF900220821AB
:10040400204600F0CEFD10BDDC00002010B5084CE5
:1004140001220421204600F0C4FD002204212046CC
:1004240000F0BFFD034B186801F098F910BD00BF40
:10043400DC0000203800002008B501F067FB254CE3
:10044400002301220821204600F080FD0023012220
:100454000421204600F07AFD0023012205212046D4
:1004640000F074FD4FF400711B4801F081FA1B4B3E
:1004740018601B4C4FF40071204601F023F94FF42F
:100484000071204601F01EF94FF40071204601F07E
:1004940019F94FF40071204601F014F9114C0121AF
:1004A400204600F074FC4FF4FA71204600F0CCFEB4
:1004B4000121204600F090FE0B49204600F0D4FEB6
:1004C400204600F096FE0121204600F066FC00F074
:1004D400D5FFFCE7DC000020D90300083800002029
:1004E400D50300081802002011040008704700001A
:1004F40008B5024800F0BCFB08BD00BF9000002016
:1005040008B50146014800F0EFFD08BD8401002054
:1005140008B50146014800F09BFB08BD900000208F
:1005240038B504460D4611461A46002300F022FC55
:1005340004F1480000F0B4FF6564049B6362002387
:10054400A361E3616361236284F8403005F580436D
:10055400E3637033A36305F581433033636305F5C7
:1005640083430833236305F584436033E36205F56D
:1005740084457835A562204638BD30B48269531C61
:10058400836193000D6844691201A55001334C68DE
:10059400426942F823408C68426902EB830254604A
:1005A400C968426902EB830399608269036A9A42CB
:1005B40024BF0023836130BC70470000114B5B6D86
:1005C40013F0010F04D00F4B1B6D13F0010F00D17A
:1005D400704710B50C4C22780C4B53F822100C4881
:1005E400FFF7CBFF2278531CDBB223700549C1F817
:1005F4009420022B01D900222270024B01221A6599
:1006040010BD00BF006400408C00002000000020EA
:100614003C00002000B583B0054B0093054B064A0F
:1006240006490748FFF77CFF03B05DF804FB00BFF1
:10063400F5040008050500081505000800640040DD
:100644003C000020184B1B681848826D42F0805211
:100654008265012912D002291ED009B100207047F9
:1006640023F4806343F400730F4A1360D2F880309C
:1006740043F48073C2F880300120704723F4806310
:1006840043F40073084A1360D2F8803023F4807373
:10069400C2F880300120704723F4007343F4806370
:1006A400014A1360012070470070004000100240AE
:1006B400074A1368D2F8800000F4807003F4C06322
:1006C400B3F5806F1ABFB0FA80F04009022070477A
:1006D400007000400F4B19700F4B03FB01F3A3F59F
:1006E4007423A3F510730D4A93420ED80C4A136871
:1006F40043F4803313600B4B11460A6812F4003F35
:1007040005D1013BF9D1002070470020704701203A
:10071400704700BFB02D002040420F0040AEEB02F6
:1007240000100240A08601000E4B9868C0F38100BF
:10073400022810D0032811D00B4B01280CBF1846F7
:100744000020084B9B68C3F30313084A52F8233074
:10075400B0FBF3F07047064B1878F2E7044B586887
:10076400EFE700BF001002400024F4001C1E000844
:10077400B02D002008B5FFF7D7FF054B9B68C3F3E6
:100784000223044A52F82330B0FBF3F008BD00BF43
:10079400001002405C1E000810B5074B9C68FFF770
:1007A400C3FFC4F30224054B53F82430B0FBF3F029
:1007B400012B88BF400010BD001002405C1E0008E1
:1007C40010B5074B9C68FFF7AFFFC4F3C224054B79
:1007D40053F82430B0FBF3F0012B88BF400010BD68
:1007E400001002405C1E000829B1064AD36843F495
:1007F4008033D3607047034AD36823F48033D360D3
:10080400704700BF0010024029B1064AD36843F480
:100814008013D3607047034AD36823F48013D360F2
:10082400704700BF0010024029B1064AD36843F064
:100834008073D3607047034AD36823F08073D36016
:10084400704700BF001002402DE9F04F85B00D46FF
:10085400144601939DF838909DF83CA002290BD0D2
:10086400032940F09D80554B1B6813F4003F00F0B2
:100874009780534B1E7800E010265248FFF718FF6C
:10088400012824D002282BD0C0B14F4901FB04F128
:100894004E4B9942C0F084808B45C0F08180474B19
:1008A4009A681B6813F0007F7AD1C2F38102032A8D
:1008B40076D0012E2FD9304601231DE0DFF81081B8
:1008C400CDF80C80CDF80880DFF808B1DDE7DFF85B
:1008D4000881CDF80C80CDF80880DFF8F8B0D4E7B3
:1008E400DFF8F880CDF80C80CDF80880DFF8F0B0A0
:1008F400CBE7013383420ED01F46B6FBF3F203FB72
:100904001262002AF5D1B6FBF3FCB4FBFCF20CFB3B
:100914001242002AEDD17A1E0F2A41D8B6FBF7F60F
:10092400B4FBF6F4A4F10803772B39D801980746F1
:10093400831EDBB21D2B33D8B9F1030F30D8BAF1C3
:10094400030F2DD8B1FBF0F0029B834228D309F1A9
:1009540001067600B1FBF6F6039BB34220D30AF1FD
:1009640001035B00B1FBF3F1884519D34FEA495306
:1009740043EA4A6343EAC7632B4343EA021343EA65
:1009840004240E4BDC601A6842F080721A6042F252
:1009940010730A4C226812F0007F09D1013BF9D18F
:1009A400074B00209860D860586005B0BDE8F08F10
:1009B400034B9860DE6059600120F6E700100240A6
:1009C400B02D00209000002040420F0000D8B80550
:1009D40080D1F0080006811480FE210A80BA8C01BF
:1009E4000020A1072DE9F0410C4616461D460229B8
:1009F40006D0032914D0012954D00020BDE8F08189
:100A04002E4B1B6813F4003F3DD02D4B19782D4F0E
:100A140007FB01F7FFF74CFE012848D12A4B08E0F9
:100A2400264B1B6813F0007F2FD0254B5F68F1E73E
:100A3400264BB046264A52F82610B7FBF1F18B42FA
:100A440025D3244A52F82520B1FBF2F29A4203D965
:100A54000020D3E7204BECE79DF81C201F4800F052
:100A6400B3F916498A6822F47F5222F033029DF8C2
:100A74001830DB0243EA052343EA08131C431443FA
:100A84008C600120BAE70020B8E70020B6E7002018
:100A9400B4E7B0460E4B53F826301149B1FBF3F1DD
:100AA400094BCEE7FFF704FE0128F2D00C4F0228D1
:100AB400D0D00028BCD00020A0E700BF0010024026
:100AC400B02D002040420F0080FE210A80D1F008A2
:100AD4001C1E00085C1E000880BA8C01BC000020AB
:100AE4000024F400022908D8044AD2F8883023F0FC
:100AF400405343EA0171C2F8881070470010024065
:100B040029B1064AD36C43F00103D3647047034A06
:100B1400D36C23F00103D364704700BF001002407C
:100B240029B1064AD36C43F00203D3647047034AE5
:100B3400D36C23F00203D364704700BF001002405B
:100B440029B1064AD36C43F00403D3647047034AC3
:100B5400D36C23F00403D364704700BF0010024039
:100B640029B1064AD36C43F00803D3647047034A9F
:100B7400D36C23F00803D364704700BF0010024015
:100B840029B1064AD36C43F01003D3647047034A77
:100B9400D36C23F01003D364704700BF00100240ED
:100BA40029B1064AD36C43F02003D3647047034A47
:100BB400D36C23F02003D364704700BF00100240BD
:100BC40029B1064AD36C43F04003D3647047034A07
:100BD400D36C23F04003D364704700BF001002407D
:100BE40029B1064A936D43F0010393657047034AA4
:100BF400936D23F001039365704700BF001002401A
:100C040002290CD8074BD3F8882022F44052C3F8A9
:100C14008820D3F88820C3F888200120704700205A
:100C2400704700BF0010024002290CD8074BD3F8CC
:100C3400882022F44042C3F88820D3F88820C3F8DF
:100C44008820012070470020704700BF0010024038
:100C540029B1064A936D43F0007393657047034AC4
:100C6400936D23F000739365704700BF001002403A
:100C740008B50C4BD3F88830C3F30163012B0AD0B9
:100C8400022B0BD00BB1002008BD074B1B78074883
:100C940000FB03F0F8E7064B1868F5E70548FFF793
:100CA40069FDF1E700100240B02D002040420F0022
:100CB400BC2D00209000002002290AD8064AD2F850
:100CC400883023F0407343EA0161C2F888100120A0
:100CD40070470020704700BF0010024002290CD862
:100CE400074BD3F8882022F44032C3F88820D3F885
:100CF4008820C3F88820012070470020704700BF77
:100D04000010024029B1064A136E43F00103136632
:100D14007047034A136E23F001031366704700BF44
:100D24000010024029B1064A136E43F400631366AF
:100D34007047034A136E23F400631366704700BFC1
:100D4400001002407047704710B50446002300F0BD
:100D540011F8204610BD704708B5034A03490448FA
:100D6400FFF7F2FF08BD00BF4B0D0008490D000856
:100D740094000020F8B504460F4616461D460C3074
:100D840000F08EFB27606660A5602046F8BD08B5BC
:100D940003680BB10846984708BD08B543680BB112
:100DA4000846984708BD10B504460023FFF7E2FF44
:100DB400204610BD08B5002211460248FFF7F3FF94
:100DC40008BD00BFA80000202DE9F0470D4600240F
:100DD4001E48FFF76DFC012817D002281ED058B119
:100DE400AE4223D2AF422AD2A9452AD2AA452AD258
:100DF400A84528BF04241AE0DFF87080DFF870A04B
:100E0400DFF87090124F134EEAE7DFF86C80DFF8DA
:100E14006CA0DFF86C90104F104EE1E7DFF86480AF
:100E2400C246DFF864900E4F0E4ED9E700240E4AF6
:100E3400136823F00F031C431460BDE8F0870124FA
:100E4400F5E70224F3E70324F1E700BF9000002054
:100E54000087930380C3C90100990D0480CC060266
:100E640000366E01001BB7000020024080D1F0085C
:100E7400000E2707804A5D0580FE210A00321B0808
:100E840080651406C0878B3B80BA8C0129B1064A61
:100E9400136843F4807313607047034A136823F4A0
:100EA40080731360704700BF0020024029B1064AD6
:100EB400136843F4806313607047034A136823F490
:100EC40080631360704700BF0020024029B1064AC6
:100ED400136843F4007313607047034A136823F4E0
:100EE40000731360704700BF0020024008B501463C
:100EF4000148FFF765FE08BD9000002008B50146D3
:100F04000148FFF74DFE08BD9000002008B50146DA
:100F14000148FFF735FE08BD9000002008B50146E2
:100F24000148FFF71DFE08BD9000002008B50146EA
:100F34000148FFF7F5FD08BD9000002008B5014603
:100F44000148FFF7DDFD08BD90000020F0B4D0F8A3
:100F540014C0DCF800504C00E4B20326A64025EA95
:100F640006050127A7403D43CCF800504769BD68FA
:100F740002F00302A24025EA06063243BA6042693F
:100F84003BB15068012303FA01F101435160F0BC05
:100F940070475368012000FA01F123EA010151600E
:100FA400F5E73AB142695069012303FA01F10143BB
:100FB4005161704740694369012202FA01F123EA51
:100FC400010141617047000070B5284D00231A46A5
:100FD40027492846FFF7CEFE4FF090436B6100246B
:100FE4002C76244E244D2346224631462846FFF7CC
:100FF400C1FE224B6B6101232B76214D23462246F1
:1010040031462846FFF7B6FE1E4B6B6102232B7652
:101014001D4D234622461D492846FFF7ABFE1C4BB7
:101024006B6103232B761B4D234622461A4928461F
:10103400FFF7A0FE194B6B6104232B76184D234652
:10104400224618492846FFF795FE174B6B61052386
:101054002B76164D2346224615492846FFF78AFE6D
:10106400144B6B6106232B7670BD00BFC0000020BB
:10107400410F0008310F0008DC0000200004004884
:10108400F80000200008004814010020210F000887
:10109400000C004830010020110F00080010004827
:1010A4004C010020010F00080014004868010020D2
:1010B400F10E00080018004810B504460023FFF79D
:1010C40059FE204610BD0000024B4FF000721A601A
:1010D400704700BF00E100E0024B4FF080521A60FD
:1010E400704700BF00E100E0034B4FF400121A60A8
:1010F4004FF480021A60704700E100E008B5002256
:1011040011460248FFF7D8FF08BD00BF8401002044
:1011140008B501460148FFF7F5FD08BD9000002021
:1011240010B504460023FFF725FE204610BD00003D
:1011340008B5002202490348FFF7F2FF08BD00BFCB
:10114400151100089801002008B50248FFF724FB98
:1011540008BD00BF9000002008B501460148FFF714
:10116400BBFF08BD8401002008B501460148FFF714
:1011740037FD08BD9000002008B50248FFF720FBAA
:1011840008BD00BF9000002008B501460148FFF7E4
:101194009BFF08BD8401002008B501460148FFF704
:1011A400C1FD08BD90000020704738B504460D46C7
:1011B40011461A460023FFF7DDFD6561049B236594
:1011C4000023636500200021C4E90601A365E365EB
:1011D40023666366204638BD29B14269D36843F06B
:1011E4000103D36070474269D36823F00103D360DD
:1011F40070474269136843F0010313607047436901
:10120400586A70474EF66020704708B5036D9847DA
:1012140008BD000010B50446FFF7F7FF6269094BEB
:10122400A3FB00139B0C013B936262694EF660239F
:10123400D362626953626269D36843F00103D36085
:1012440010BD00BF83DE1B4338B504460D46FFF7CF
:10125400DCFFB0FBF5F10B0C581CB1FBF0F162693B
:1012640093626369D96238BD4165704710B504461D
:10127400436D03B19847A369E269013342F1000267
:10128400A361E26110BD000008B5094BDB6813F0EF
:10129400010F04D0064B1B6913F0010F00D108BDE8
:1012A400034B6FF001021A610248FFF7DFFFF6E714
:1012B400002C0140B001002008B54FF08043DB68EA
:1012C40013F0010F05D04FF080431B6913F0010F99
:1012D40000D108BD4FF080436FF001021A6102484B
:1012E400FFF7C4FFF5E700BF1802002000B583B084
:1012F400094B0093094B0A4A0A490B48FFF755FF6B
:101304000A4B00930A4B0B4A4FF080410A48FFF7FF
:101314004CFF03B05DF804FB7D1100088D1100083B
:101324009D110008002C0140B00100204D1100085F
:101334005D1100086D1100081802002008B500F0C6
:1013440003F800F0E1FB08BDF0B583B0344C002194
:101354002046FFF777F918212046FFF7BBF9651CF3
:1013640000270197032600961F234FF490723146FD
:101374002846FFF769FA01212846FFF735FA0121CB
:101384002846FFF741FA01212846FFF74DFA0121CB
:101394002046FFF7A7FB02212046FFF78DFC022120
:1013A4002046FFF72DFC02212046FFF73DFC0221D9
:1013B4002046FFF793FC2123019304230093052384
:1013C4003A4631462046FFF70DFB164D01212846CB
:1013D400FFF75CFD01212846FFF768FD012128463F
:1013E400FFF774FD01212046FFF78AFB0121204607
:1013F400FFF796FB01212046FFF7A2FB01212046BF
:10140400FFF7AEFB01212046FFF7BAFB012120467E
:10141400FFF7C6FB01212046FFF7D2FB03B0F0BD66
:1014240090000020BC0000204EF60450CEF20000D4
:10143400016851F0805101607047EFF309804EF26A
:101444001003CEF200034FF000011960734620E947
:10145400F80F00F093FAB0E8F80F80F309884EF221
:10146400100CCEF2000C4FF00701CCF800104FF036
:101474000001CCF8081008B400BD00BF03B44EF658
:101484000450CEF20000016851F08051016003BCA9
:1014940070470000014B01221A707047800200203F
:1014A400002202604260704738B5044600F020F91B
:1014B40072B6256823680133236062B663689D426F
:1014C40004D0FFF7DBFF6368AB42FAD1284638BD8E
:1014D40010B5044672B643680133436062B600F047
:1014E40019F9054B1B781BB1226863689A4200D135
:1014F40010BDFFF7C3FFFBE78002002008B5064BD1
:101504001B88C3EBC303054A02EB830300221A734F
:10151400FFF7B4FF08BD00BF940200209C02002026
:1015240008B572B6064B1B88064AC3EBC30102EB2F
:10153400810100200874087362B6FFF79FFF08BD9D
:10154400940200209C020020F0B583B005460E46AC
:1015540014465848FFF7A8FF574B1B88072B13D88E
:1015640001230193019B072B1CDC544A019BC3EB11
:10157400C30302EB83035B7B63B1019B01330193E0
:10158400019B072BF2DD0DE04A48FFF7A1FF4FF066
:10159400FF307FE0019BC3EBC303484A02EB8303A4
:1015A40001225A73019F204600F05CFA434AC7EBBC
:1015B400C70742F82700019BC3EBC30352F823304B
:1015C400002B69D0019A3D4BC2EBC20203EB8202AD
:1015D400946001986FF0404202EBA404A100C0EBB8
:1015E400C00053F820204FF0C24042F82400019A72
:1015F400C2EBC20253F8222002EB840242F8045CDC
:10160400019AC2EBC20253F8222002EB84022C4856
:1016140042F8080C019AC2EBC20253F8222002EBF2
:10162400840444F81C6C019A4039C2EBC20253F89A
:1016340022206FF0020050500198019AC2EBC202BE
:1016440003EB8202C0EBC00053F820000144516058
:10165400019AC2EBC20203EB820200215182019A79
:10166400C2EBC20203EB82029173019AC2EBC20283
:1016740003EB82025561019AC2EBC20203EB8203BF
:1016840001221A730C4A1388013313800948FFF7A7
:101694001FFF019803B0F0BD019BC3EBC30302EB32
:1016A400830300225A730348FFF712FF4FF0FF3001
:1016B400F0E700BF7C0300200C0000209C02002007
:1016C4000115000808B50A460021FFF73DFF08BDD3
:1016D40008B5054B01221A735A734FF4007103487D
:1016E400FFF7F0FF08BD00BF9C020020311800087E
:1016F40072B6064B1B88064AC3EBC30102EB810199
:101704004B8A01334B8262B6704700BF94020020BB
:101714009C02002072B6064B1B88064AC3EBC30129
:1017240002EB81014B8A013B4B8262B6704700BFDA
:10173400940200209C02002070B5064600F01EFBB7
:10174400841941F1000500F019FBA94208BFA04229
:1017540002D2FFF793FEF6E770BD000072B6C0EB4D
:10176400C002184B03EB82031B7B0BBB1346154AC9
:1017740002EB83031B7CDBB110B4C0EBC00302EBB0
:10178400830301221A73104A00231C4632F8021FF5
:1017940051B10133082BF8D10C4A136843F080533C
:1017A400136062B610BC7047094B23F81400F3E7CA
:1017B400C0EBC000034B03EB80000123C37362B68C
:1017C400704700BF9C0200208202002004ED00E06C
:1017D4008402002070B4134AC0EBC00302EB8301FF
:1017E40052F823508C686FF0404303EBA4039C0031
:1017F4004FF0C24645F8236005EB83034E6943F876
:10180400046C094E43F8086C8E6943F81C6CA4F10F
:101814004003EC186FF00206EE504C6001230B7489
:1018240070BC70479C020020251500082DE9F84380
:101834001F4FDFF8849033E0337CF3B101351C345F
:10184400082D26D02646237B002BF7D1A37B002B23
:10185400F2D1637B002BF1D0206800F02DF984F8DD
:101864000D80B9F80030013BA9F80030A37B002BB0
:10187400E4D0237B002BE1D1DEE72846FFF7AAFF63
:10188400F37B002BDAD086F80F802846FFF766FF3B
:10189400D4E73846FFF71CFEFFF7F0FD00F06EFAC0
:1018A4003846FFF701FE034C0025A846CAE700BFEF
:1018B4007C0300209C0200200C0000202DE9F04154
:1018C4000746884616462748FFF7EEFD264B1B8839
:1018D400072B2ED8254B012493F829507DB30134CE
:1018E4001C33082CF8D1304600F0BCF8C4EBC40318
:1018F4001E4A42F8230050B3C4EBC4031B4D05EB4E
:1019040083039E60C3F8188000225A8201219973D0
:101914005F611A731A74DA73134A13880B441380C1
:101924002046FFF757FF0F48FFF7D2FD2046BDE8DA
:10193400F0810C48FFF7CCFD4FF0FF34F6E7C4EB21
:10194400C4030A4A02EB830301225A73CBE702EB76
:10195400830300225A730348FFF7BAFD4FF0FF34A4
:10196400E4E700BF7C0300200C0000209C02002060
:1019740008B50A460021FFF7A1FF08BD30B4304B7B
:101984001B88C3EBC3032F4A02EB8303586072B670
:101994002D4B1B8813B32A4A13802C4A12780AB998
:1019A4002B4A1360294B01221A70274A0023184638
:1019B40001335188002933D022F8021B072BF6D1BA
:1019C400214A002122F8131062B61D4B1B88C3EB79
:1019D400C3031C4A02EB83031B7B33BB62B61B4B62
:1019E4001B7833B11A4B1A68154B1A80174B002217
:1019F4001A70134A138801339BB2138000211148D3
:101A040001240D46C3EBC30200EB8202127B4AB9E8
:101A140001339BB22146072BF4D921462B46F1E72B
:101A24000346CDE709B1064A1380054B1B88C3EB77
:101A3400C303044A02EB8303586830BC704700BFF9
:101A4400940200209C0200208402002081020020D5
:101A54009802002008B50248FFF722FD08BD00BF28
:101A64007C03002070B50646FFF742FE72B60F4BAA
:101A74001C68621C1A6062B60D4B1B689C4205D040
:101A84000B4DFFF7FBFC2B68A342FAD13146094802
:101A940000F080F8044672B6054A136801331360F7
:101AA40062B6FFF737FE204670BD00BF1C2D002034
:101AB400840300201000002070B50646FFF718FECE
:101AC40072B60E4B1C68621C1A6062B60C4B1B6823
:101AD4009C4205D00A4DFFF7D1FC2B68A342FAD1F2
:101AE4003146084800F0D5F872B6054A1368013348
:101AF400136062B6FFF70EFE70BD00BF1C2D002000
:101B040084030020100000207047000070B582B0EC
:101B14006846FFF7C5FC6846FFF7BCFC0024174B7A
:101B24005C60174DF02685F8226000F007F9FFF796
:101B3400CFFD144B44F61F625A6085F823609C6005
:101B440007221A60104C01212046FFF720F9204695
:101B5400FFF701F901212046FFF71FF901210B4886
:101B6400FFF715F90A4C01212046FFF710F901216E
:101B74002046FFF712F902B070BD00BF30EF00E05D
:101B840000ED00E010E000E0940000209801002047
:101B9400A80000202DE9F04F83B007468946D0F80D
:101BA40010A0B1FBFAF60AFB161303B101367C69E7
:101BB400002C57D07B680021186838B101310C33F0
:101BC4008C42F9D1002003B0BDE8F08F0193FB688B
:101BD4005FEA431EF7D0B9684FF0FF3C00231C4670
:101BE4008B461946D8460CE01F3306E0154202D056
:101BF400013400930121B44236D0520001337345BD
:101C0400E1D213F01F0F06D10CF1010C58F82C503F
:101C1400ED43E9D001220029E8D015EA020B01D0F6
:101C24000134E8E75C460021E5E7012A01D10BE035
:101C3400012251F82450154341F824505200013830
:101C440009D0002AF1D101342028F1D941F82470B7
:101C540020380022F5E71846019A13600099516074
:101C64009660B0E70020AEE741463B68009A02FB6D
:101C74000A339944BA699145A5D8009C04F01F0021
:101C8400012282406409002EE5D030464FF0FF3730
:101C9400D7E7F0B446698EB3436800221D461C683A
:101CA4008C4204D001320C33B242F7D126E09A6858
:101CB400596801F01F040123A3404909D2B1002748
:101CC4000DE0012B01D10DE00123866856F8214077
:101CD40024EA030446F821405B00013A0AD0002BB1
:101CE400EFD10131202AEFD9836843F82170203ADB
:101CF4003B46F4E700232B606B60AB60F0BC70479D
:101D04007047000008B5034A0349002000F06CF84E
:101D140008BD00BFA82D0020051D00080549064B7D
:101D24001868D1E90023121843F10003C1E9002324
:101D3400704700BF300000202C00002010B50C4C70
:101D440001212046FFF723F82046FFF763FA2046D7
:101D5400FFF758FA074B186007492046FFF784FA43
:101D640001212046FFF719F82046FFF742FA10BD7B
:101D7400B00100202C000020211D000808B50D48EA
:101D8400FFF73DFA0C4BD3E90023121843F100038B
:101D94000A49D1E900018B4208BF824204D20849B2
:101DA4000968521843F100030449C1E900231046AD
:101DB400194608BDB001002030000020202D00206D
:101DC4002C000020064B1B681F2B01D901207047F3
:101DD400044A42F823000133014A1360002070478B
:101DE400AC2D0020282D002008B50846FFF7EAFF97
:021DF40008BD28
:101DF800190600085D0D0008B90D0008CD0F000890
:101E08000111000835110008F1120008591A0008DC
:041E1800091D000898
:101E1C0001000000010000000100000001000000B2
:101E2C0001000000010000000100000001000000A2
:101E3C000200000004000000080000001000000078
:101E4C0040000000800000000001000000020000C3
:101E5C000100000001000000010000000100000072
:101E6C000200000004000000080000001000000048
:101E7C00B0A40040F8A4004040A5004001000000C0
:101E8C000805002088030020082D00200500000014
:101E9C004000000020000000082D002060EA000037
:081EAC00A015FFFFFFFFFFFF7F
:04000005080003B339
:00000001FF
