:020000040800F2
:10000000B84A0220ED0300080503000807030008B2
:10001000090300080B0300080D030008000000009E
:100020000000000000000000000000000F030008B6
:100030001103000800000000CBBE0008B9BE000894
:1000400017030008190300081B0300081D0300081C
:100050001F030008210300080D4B0008554B000842
:100060009D4B0008E54B00082D4C0008352A000880
:10007000092B0008E12B0008B92C0008912D00087D
:10008000652E00083D2F0008AD0E00083D03000856
:100090003F0300084103000843030008754C0008B3
:1000A000617F0008AD7A000831800008257B0008D8
:1000B000717B0008F97B0008817C0008550300086B
:1000C00057030008590300085B0300085D0300089C
:1000D0005F03000869850008C185000819860008CB
:1000E000D54D0008690300086B030008B9800008BB
:1000F000A17E0008898100087303000815300008FC
:100100007703000879030008097D00087D030008D3
:1001100071860008C9860008917D0008197E0008D4
:10012000ED300008C1310008993200087133000831
:100130004934000891030008930300089503000860
:1001400097030008990300089B030008018C00082E
:100150001D350008F5350008CD3600082187000858
:10016000A7030008A9030008AB030008AD030008BB
:10017000AF030008118C0008B30300080000000062
:10018000B5030008B703000879870008D187000885
:10019000BD030008BF030008C1030008C303000833
:1001A000C5030008C7030008B13B0008CB030008E3
:1001B000CD030008CF030008D1030008D3030008D3
:0801C000D5030008D703000875
:1001C800304931480A1A02D0072291438D462F49F7
:1001D8002F480A1A06D00722914381F30988022280
:1001E80082F314882B482C492C4A00F03AF82C4802
:1001F8002C492D4A00F035F82C482D492D4A00F09D
:1002080030F82D482D492E4A00F02BF82D482E495C
:100218002E4A00F026F82E482E492F4A00F021F8E1
:100228002E482F492F4A00F01CF82F482F4900224A
:1002380000F022F82E482F49002200F01DF81F4830
:100248001F49884205D00268043003B4904703BCB4
:10025800F7E700208646EC4600200021264A904712
:10026800FEE7884207D0521A05D0037801300B7098
:100278000131013AF9D17047884202D00270013049
:10028800FAE77047B84A0220B83A0220B85A022062
:10029800B84A022044E2000800000020941300201D
:1002A800FC030008FC030008A6DB000844E2000881
:1002B8000000002000000020A8DB0008A8DB0008E0
:1002C800F8DB0008A8DB0008A8DB0008A8DB0008AA
:1002D800F8DB0008F8DB000844E20008D8F500085D
:1002E800A83A0220A83A022094130020A83A022033
:1002F800A83A0220A83A022045070008FEE7FEE7D0
:10030800FEE7FEE7FEE7FEE7FEE7FEE7FEE7FEE7BD
:10031800FEE7FEE7FEE7FEE7FEE7FEE7FEE7FEE7AD
:10032800FEE7FEE7FEE7FEE7FEE7FEE7FEE7FEE79D
:10033800FEE7FEE7FEE7FEE7FEE7FEE7FEE7FEE78D
:10034800FEE7FEE7FEE7FEE7FEE7FEE7FEE7FEE77D
:10035800FEE7FEE7FEE7FEE7FEE7FEE7FEE7FEE76D
:10036800FEE7FEE7FEE7FEE7FEE7FEE7FEE7FEE75D
:10037800FEE7FEE7FEE7FEE7FEE7FEE7FEE7FEE74D
:10038800FEE7FEE7FEE7FEE7FEE7FEE7FEE7FEE73D
:10039800FEE7FEE7FEE7FEE7FEE7FEE7FEE7FEE72D
:1003A800FEE7FEE7FEE7FEE7FEE7FEE7FEE7FEE71D
:1003B800FEE7FEE7FEE7FEE7FEE7FEE7FEE7FEE70D
:1003C800FEE7FEE7FEE7FEE7FEE7FEE7FEE7FEE7FD
:1003D800054885460BF06FFC044805490160FFF7A6
:1003E800EFBE7047FEE700000000052008ED00E0C2
:0403F80000000008F9
:1003FC0000B5CFB002AB0E4A184611464FF49873B5
:10040C001A460CF09CFB02A900230093022326221F
:10041C00084805F089F80121074801F05FFD074AFB
:10042C000021074806F098FD00BF4FB05DF804FBB3
:10043C00F8DB0008381900207E150020FCE10008CC
:10044C00B41B002000B5BDB0414A04AB1146E022FC
:10045C0018460CF074FB04A90023009302231C2201
:10046C003C4805F061F8002300220C213A4805F0C5
:10047C00B0F801220C21384805F0D8F837480BF0B9
:10048C0013FC0121364804F0B8F934480BF004FC95
:10049C0003461946324805F07FFE0121304804F02E
:1004AC00C0F901212F4804F0A8F92E4803F047FBAE
:1004BC0001212C4804F0B5F90123009300230422F8
:1004CC000721294804F0FAFF01230093002304229A
:1004DC000821254804F0F2FF0121244804F08DF98D
:1004EC000021234805F0F7F90121204804F099F97F
:1004FC00204A02AB92E8030083E8030002AB1A46E1
:10050C001B491D480BF086FA002300930123072298
:10051C000921104804F0D2FF002300930123072285
:10052C000721164804F0CAFF0121154804F065F9AB
:10053C004FF480624FF41651124808F07EF90121F5
:10054C000F4804F06EF900BF3DB05DF804FB00BF2E
:10055C0028DD000838190020181A002094130020F8
:10056C003C1B002054180020FC190020E81A002025
:10057C00D41A002008DE000898130020541900201B
:10058C00A42100209021002000B58BB00190019B8C
:10059C000993099B1B6818460AF006FE0346039351
:1005AC00BDF80C30013BADF82230099B5B68184656
:1005BC000AF0FAFD03460493BDF81030ADF8203074
:1005CC00099B1B6818460AF0EFFD03460593BDF81E
:1005DC001630013BADF81E30099B5B6818460AF0DB
:1005EC00E3FD03460693BDF81A30ADF81C30099BA9
:1005FC001B7B002B20D0099BB3F908309BB2033333
:10060C009BB21AB2099B1A81099BB3F9083019469F
:10061C00BDF82220BDF82030D31A994220DBBDF85A
:10062C002220BDF82030D31A9BB21AB2099B1A8132
:10063C00099B00221A7313E0099BB3F908309BB293
:10064C00033B9BB21AB2099B1A81099BB3F9083080
:10065C00002B05DC099B00221A81099B01221A73CD
:10066C00099B5B7B002B20D0099BB3F90A309BB212
:10067C0003339BB21AB2099B5A81099BB3F90A3016
:10068C001946BDF81E20BDF81C30D31A994220DB48
:10069C00BDF81E20BDF81C30D31A9BB21AB2099BB0
:1006AC005A81099B00225A7313E0099BB3F90A3053
:1006BC009BB2033B9BB21AB2099B5A81099BB3F9BB
:1006CC000A30002B05DC099B00225A81099B012270
:1006DC005A73099B5868099BB3F90810099BB3F925
:1006EC000A301A460AF03EFF14200BF031FF7EE769
:1006FC0010B5074B1B681846054B1B681B6820334D
:10070C001C6800230022FF21A04700BF10BD00BFC2
:10071C00A813002010B5074B1B681846054B1B6827
:10072C001B6820331C68FF2300220021A04700BF58
:10073C0010BD00BFA813002010B5ADF58A6D0CF0EC
:10074C0079FCFFF77FFE5C200CF003FC03461C4693
:10075C0020460AF013FBCB4B1C60CA4B1B68184697
:10076C00C84B1B681B6820331C6800230022FF2128
:10077C00A047DBAB18460AF0E3FEC5AB18460AF0FF
:10078C00DFFEAFAB18460AF0DBFEDBAB6422642164
:10079C0018460AF043FEDBA80023FF22FF2109F0D4
:1007AC0071FEC5AB1E221E2118460AF037FEC5A8E5
:1007BC000023FF22002109F065FEAFAB14221421A7
:1007CC0018460AF02BFEAFA800230022FF2109F0E7
:1007DC0059FE98AB184609F0C3F881AB184609F0DE
:1007EC00BFF86AAB184609F0BBF853AB184609F0D2
:1007FC00B7F83CAB184609F0B3F825AB184609F02E
:10080C00AFF8A14B1A68F1AB114618460AF0F6F88E
:10081C0098AC6A46F4AB93E8030082E80300F1ABB2
:10082C000ECB204608F071FE98AB9849184609F09B
:10083C00F0FB98A800230022FF210BF04DF898AB99
:10084C001922502118460AF0E9FD98AB0A220A2118
:10085C0018460AF065FD98AB8D49184609F0D0FB97
:10086C00894B1A68F6AB114618460AF0C7F881ACEA
:10087C006A46F9AB93E8030082E80300F6AB0ECBB3
:10088C00204608F042FE81AB8249184609F0C1FBB4
:10089C0081A80023FF2200210BF01EF881AB192246
:1008AC00502118460AF0BAFD81AB0A226421184681
:1008BC000AF036FD744B1A68FBAB114618460AF069
:1008CC009DF86AAC6A46FEAB93E8030082E803002D
:1008DC00FBAB0ECB204608F018FE6AAB6E491846EF
:1008EC0009F097FB6AA8FF23002200210AF0F4FF0D
:1008FC006AAB1922502118460AF090FD6AAB0A2205
:10090C00BE2118460AF00CFD6AAB6449184609F082
:10091C0077FB5D4B1A680DF58063114618460AF09B
:10092C006DF853AC6A460DF20C4393E8030082E871
:10093C0003000DF580630ECB204608F0E6FD53ABAB
:10094C005749184609F065FB53A80023FF22FF21E5
:10095C000AF0C2FF53AB1922502118460AF05EFD73
:10096C0053AB2D220A2118460AF0DAFC464B1A68C2
:10097C000DF21443114618460AF040F83CAC6A4696
:10098C000DF5846393E8030082E803000DF2144331
:10099C000ECB204608F0B9FD3CAB4249184609F095
:1009AC0038FB3CA8FF230022FF210AF095FF3CAB4B
:1009BC001922502118460AF031FD3CAB2D2264213E
:1009CC0018460AF0ADFC304B1A680DF585631146DC
:1009DC0018460AF013F825AC6A460DF2344393E836
:1009EC00030082E803000DF585630ECB204608F06A
:1009FC008CFD25AB2C49184609F00BFB25A8FF23D1
:100A0C00FF2200210AF068FF25AB1922502118465D
:100A1C000AF004FD25AB2D22BE2118460AF080FCFD
:100A2C000FAB184609F040FB0FAB0F22962118466E
:100A3C000AF0F4FC0FAB50220A2118460AF070FCA5
:100A4C00114B1A680DF23C431146184609F0D6FFBB
:100A5C000FAC6A460DF5896393E8030082E8030046
:100A6C000DF23C430ECB204608F04FFD0FAB0F4967
:100A7C00184609F02DFC0FA8C823C822C8210AF07B
:100A8C002BFF15E0A81300200413002010DE000833
:100A9C00FD06000814DE00081CDE00082107000813
:100AAC0024DE00082CDE000834DE00083CDE0008E2
:100ABC000BAB1A460023136053609360D3600BABEF
:100ACC001E221A810BAB14225A814C4B1A680BABA9
:100ADC001A600BABDBAA5A6007AB1A4600231360F3
:100AEC0053609360D36007AB32221A8107AB5A2252
:100AFC005A81424B1A6807AB1A6007ABC5AA5A60F9
:100B0C0003AB1A460023136053609360D36003ABAE
:100B1C000A221A8103AB14225A8103ABDBAA1A6096
:100B2C0003ABAFAA5A600BAB4FF480621946344842
:100B3C000BF00CFB07AB4FF48062194630480BF0FE
:100B4C0005FB03AB4FF4806219462D480BF0FEFAFF
:100B5C00AFAADBAB1146184609F014FC274B1B68F7
:100B6C00DBAA114618460AF02FFA244B1B68C5AABB
:100B7C00114618460AF028FA204B1B6898AA114611
:100B8C0018460AF021FA1D4B1B6881AA114618461B
:100B9C000AF01AFA194B1B686AAA114618460AF091
:100BAC0013FA164B1B6853AA114618460AF00CFA96
:100BBC00124B1B683CAA114618460AF005FA0F4B5B
:100BCC001B6825AA114618460AF0FEF90B4B1B6848
:100BDC000FAA114618460AF0F7F9084B1B6818467D
:100BEC000CF0ACF84FF47A730F220649064807F064
:100BFC0080FE4FF4FA700BF0ABFCF3E7A813002067
:100C0C009505000848DE00089021002000B583B04F
:100C1C0001900091019B012B07D1009B4FF6FF72B5
:100C2C00934202D103480BF081F900BF03B05DF889
:100C3C0004FB00BFAC13002008B54FF6FF71012078
:100C4C00FFF7E4FF08BD000082B003468DF80730C3
:100C5C009DF80730002B06D0074B5B6C064A43F41B
:100C6C008073536405E0044B5B6C034A23F480737C
:100C7C00536400BF02B070470038024000B583B027
:100C8C0003468DF807309DF807301946034806F0E7
:100C9C0047F800BF03B05DF804FB00BF541B0020F5
:100CAC0082B003468DF807309DF80730002B06D034
:100CBC00074B5B6C064A43F40073536405E0044B2A
:100CCC005B6C034A23F40073536400BF02B070479B
:100CDC000038024000B583B003468DF807309DF80C
:100CEC0007301946034806F02BF800BF03B05DF837
:100CFC0004FB00BF541B002082B003468DF8073064
:100D0C009DF80730002B06D0074B5B6C064A43F46A
:100D1C008063536405E0044B5B6C034A23F48063EB
:100D2C00536400BF02B070470038024000B583B076
:100D3C0003468DF807309DF807301946034806F036
:100D4C000FF800BF03B05DF804FB00BF541B00207C
:100D5C0000B587B003900291019200930398002391
:100D6C00009A019903F030FD039B029A5A61039B90
:100D7C00002283F86020039B002283F89720002335
:100D8C000593059B112B1BDC039A059B13447333B2
:100D9C0000221A70039B059A0632002143F8221098
:100DAC00039A059B1344613309221A70039A059B1D
:100DBC00134485330F221A70059B01330593E0E72A
:100DCC00039B184607B05DF804FB86B00190019BAD
:100DDC005B69DB6CDB040593019B93F860301A466E
:100DEC00019B134493F873308DF813309DF8132046
:100DFC00019B063253F82230059AD31A0393019BB8
:100E0C0093F860301A46019B134493F861301A46EC
:100E1C00039B134103939DF81320019B063253F857
:100E2C0022109DF81320039B1944019B063243F8B2
:100E3C002210019B93F860300133DAB2019B83F8E6
:100E4C006020019B93F86020019B93F897309A42A5
:100E5C0003D3019B002283F86020019B5B695A6BD2
:100E6C00019B5B6922F01F025A63019B5B695A6B01
:100E7C00019B93F860301946019B0B4493F8733037
:100E8C001946019B5B690A435A63019B5B699A682B
:100E9C00019B5B6942F080429A6000BF06B07047CC
:100EAC0008B5234B5B6803F02003002B07D0204BC5
:100EBC001B6803F00203002B01D0012300E0002388
:100ECC00002B05D01A4B00221A601A48FFF77DFF41
:100EDC00194B5B6803F02003002B07D0164B1B68E3
:100EEC0003F00203002B01D0012300E00023002BB0
:100EFC0005D0114B00221A601048FFF766FF104B0B
:100F0C005B6803F02003002B07D00D4B1B6803F02C
:100F1C000203002B01D0012300E00023002B05D09D
:100F2C00074B00221A600748FFF74FFF00BF08BDB0
:100F3C0000200140B4130020002101404C1400207B
:100F4C0000220140E414002000B583B00190009110
:100F5C00019B012B16D1009B4FF6FF72934211D1CE
:100F6C000A4B0B4A0B490C48FFF7F2FE0B4B0C4A91
:100F7C000C490D48FFF7ECFE0C4B0D4A0D490E4881
:100F8C00FFF7E6FE00BF03B05DF804FB890C000818
:100F9C00550C000800200140B4130020E10C00089F
:100FAC00AD0C0008002101404C140020390D000844
:100FBC00050D000800220140E414002008B54FF68E
:100FCC00FF710120FFF7C0FF08BD000084B0019045
:100FDC000B468DF803309DF80330194A02FB03F3DE
:100FEC000293184A9DF803301370029B164A9342E1
:100FFC0003D9029B154A934201D900231DE0144BDF
:10100C001B68134A43F48033136000230393039B40
:10101C00104A934210D80E4B1B6803F40033002B7C
:10102C0014BF01230023DBB2002B01D0012304E009
:10103C00039B01330393EAE70023184604B070477F
:10104C0040420F00A83A02203F420F0080F0FA0203
:10105C00003802409F86010084B00190124B5B6FF8
:10106C00114A43F0010353670023ADF80E30BDF86D
:10107C000E3042F20F72934212D80B4B5B6F03F09F
:10108C000203002B14BF01230023DBB2002B01D081
:10109C00012306E0BDF80E300133ADF80E30E6E763
:1010AC000023184604B070470038024082B001900B
:1010BC000B468DF803309DF80330012B01D900232A
:1010CC0015E09DF80330002B08D00A4BD3F8903074
:1010DC00084A43F00063C2F8903007E0054BD3F8A0
:1010EC009030044A23F00063C2F890300123184674
:1010FC0002B070470038024098B0039001921A4633
:10110C000B468DF80B3013468DF80A309DF80B30DA
:10111C00002B02D0012B03D03EE1A34B179313E01D
:10112C00A24B1B6803F40033002B0CBF01230023DC
:10113C00DBB2002B40F01D819D4B1B781A469D4B5A
:10114C0003FB02F3179300BF019B9A4A02FB03F3C4
:10115C001493149B984A934240F20D81149B974A26
:10116C00934200F20881914B1B685B0E03F0010364
:10117C00012B08D18D4B9B689B0803F00303022BBA
:10118C0001D1012300E00023002B40F0F680179BD7
:10119C008B4AA2FB03239B0C1693169B012B05D8A1
:1011AC00179B5B0817930223169301E0814B17934F
:1011BC00149A179BB2FBF3F31393169B012B40F27B
:1011CC00DE80169B3F2B00F2DA80139B012B40F242
:1011DC00D880139BB3F5D87F00F2D3809DF80A30EA
:1011EC00032B00F2D0809DF86030012B40F2CD80B3
:1011FC009DF860300F2B00F2C8809DF80A30013347
:10120C00149A22FA03F31293129B6E4A934200F241
:10121C00BE809DF86030149AB2FBF3F31193119BCE
:10122C00694A934200F2B5809DF80B30002B06D032
:10123C005E4B5B685D4A43F48003536005E05B4B97
:10124C005B685A4A23F4800353603F230793169B31
:10125C00069300238DF817305C4B1A689DF81730F5
:10126C00079901FA03F3DB431A400799069B1940CF
:10127C009DF8173001FA03F31343544A136000BF6F
:10128C0040F2FF130A93139B099306238DF8233026
:10129C004E4B1A689DF823300A9901FA03F3DB438D
:1012AC001A400A99099B19409DF8233001FA03F35F
:1012BC001343464A136000BF9DF80A3003220D9277
:1012CC000C9310238DF82F30404B1A689DF82F305B
:1012DC000D9901FA03F3DB431A400D990C9B19404D
:1012EC009DF82F3001FA03F31343384A136000BF03
:1012FC009DF860300F2210920F9318238DF83B301D
:10130C00324B1A689DF83B30109901FA03F3DB431A
:10131C001A4010990F9B19409DF83B3001FA03F3CA
:10132C0013432A4A136000BF204B1B681F4A43F02B
:10133C00807313600023ADF85630BDF8563042F27E
:10134C000F72934227D8194B1B6803F00073002BC4
:10135C0014BF01230023DBB2002B04D01C4A129BC8
:10136C00136001231CE0BDF856300133ADF8563044
:10137C00E3E700BF10E000BF0EE000BF0CE000BFD1
:10138C000AE000BF08E000BF06E000BF04E000BFB9
:10139C0002E000BF00E000BF0D4B00221A600023EA
:1013AC00184618B0704700BF0024F4000038024003
:1013BC00A83A022040420F00FFE0F50500CCBF190F
:1013CC0083DE1B4300E6DF0CC0687804043802405F
:1013DC00AC3A022000B585B00190114B9B689B0A7A
:1013EC00DBB203F007038DF80B300E4800F07EF8EB
:1013FC0002469DF80B300C4951F82330B2FBF3F345
:10140C0003939DF80B30084A52F82330012B02D974
:10141C00039B5B000393039B184605B05DF804FB2C
:10142C00003802407C15002058DE000800B585B05D
:10143C000190114B9B685B0BDBB203F007038DF83B
:10144C000B300E4800F052F802469DF80B300C4958
:10145C0051F82330B2FBF3F303939DF80B30084A99
:10146C0052F82330012B02D9039B5B000393039B9F
:10147C00184605B05DF804FB003802407C150020CE
:10148C0058DE000800B583B00190019800F02EF8EA
:10149C000246074B9B689B0A03F00703054951F86A
:1014AC002330B2FBF3F3184603B05DF804FB00BF26
:1014BC000038024058DE000800B583B00190019856
:1014CC0000F014F80246074B9B685B0B03F0070314
:1014DC00054951F82330B2FBF3F3184603B05DF81D
:1014EC0004FB00BF0038024058DE000884B00190B5
:1014FC00144B9B689B0803F00303022B0DD0022BAB
:10150C000FD8002B02D0012B03D00AE00E4B039313
:10151C0007E00E4B1B78039303E00D4B1B68039302
:10152C0000BF084B9B681B0903F00F03094A52F8D4
:10153C002330039AB2FBF3F30393039B184604B0D6
:10154C00704700BF003802400024F400A83A022083
:10155C00AC3A022078DE000896B003900291114656
:10156C001A460B468DF8073013468DF806308A4B19
:10157C001B6803F00073002B14BF012300238DF8AC
:10158C0055309DF8553083F00103DBB2002B40F051
:10159C00E580029B814A02FB03F31493149B804A5F
:1015AC00934204D8149B7F4A934200F2D9807A4B21
:1015BC005B6803F03F0313937B4B1B781293129BD6
:1015CC00764A02FB03F31293129A139BB2FBF3F3CA
:1015DC001293149A129BB2FBF3F31193119B012BF0
:1015EC0040F2C080119BB3F5D87F00F2BB809DF810
:1015FC000730032B00F2B8809DF80630012B40F227
:10160C00B5809DF806300F2B00F2B0809DF8583055
:10161C00012B40F2AD809DF85830072B00F2A880CA
:10162C009DF807300133149A22FA03F31093109BA0
:10163C005E4A934200F29E809DF80630149AB2FBEB
:10164C00F3F30F930F9B5A4A934200F295809DF847
:10165C005830149AB2FBF3F30E930E9B554A9342F7
:10166C0000F28C8040F2FF130793119B0693062324
:10167C008DF81730504B1A689DF81730079901FAFE
:10168C0003F3DB431A400799069B19409DF817306A
:10169C0001FA03F31343484A136000BF9DF8063068
:1016AC000F220A92099318238DF82330424B1A68A3
:1016BC009DF823300A9901FA03F3DB431A400A9987
:1016CC00099B19409DF8233001FA03F313433A4A5E
:1016DC00136000BF9DF8583007220D920C931C2309
:1016EC008DF82F30344B1A689DF82F300D9901FA74
:1016FC0003F3DB431A400D990C9B19409DF82F30D6
:10170C0001FA03F313432C4A136000BF224B1B68EE
:10171C00214A43F0805313600023ADF85630BDF8D6
:10172C00563042F20F7293422AD81B4B1B6803F0BF
:10173C000053002B14BF01230023DBB2002B07D076
:10174C001E4A0E9B13601E4A0F9B136001231FE061
:10175C00BDF856300133ADF85630E0E700BF10E06D
:10176C0000BF0EE000BF0CE000BF0AE000BF08E0C5
:10177C0000BF06E000BF04E000BF02E000BF00E0D5
:10178C0000BF0E4B00221A600D4B00221A60002382
:10179C00184616B0704700BF0038024040420F0098
:1017AC00FFE0F50500CCBF19A83A0220C068780408
:1017BC000097490100E6DF0C88380240B43A022059
:1017CC00B03A022000B593B00190084611461A4673
:1017DC0003468DF803300B468DF8023013468DF816
:1017EC0001309DF80330022B1ED0022B2DDC002B78
:1017FC0002D0012B03D028E07D4B119327E07D4BC9
:10180C001B6803F40033002B0CBF01230023DBB255
:10181C00002B01D00023E7E0774B1B781A46774B5F
:10182C0003FB02F3119312E0724B1B6803F000737D
:10183C00002B0CBF01230023DBB2002B01D00023B3
:10184C00D2E06F4B1B68119301E00023CCE09DF8B4
:10185C0002306C4A52F82330119AB2FBF3F3109316
:10186C00109B694A934201D90023BDE09DF80130D9
:10187C00664A52F82330109AB2FBF3F30F930F9B86
:10188C00634A934201D90023AEE09DF850305F4A81
:10189C0052F82330109AB2FBF3F30E93109B5D4A6F
:1018AC00934229D9534B1B6C524A43F08053136417
:1018BC00594B1B68584A43F480331360564B5B6892
:1018CC0003F48033002B0CBF01230023DBB2002B6D
:1018DC0000D0F3E7504B1B684F4A43F400331360BE
:1018EC004D4B5B6803F40033002B0CBF012300232A
:1018FC00DBB2002B00D0F3E79DF802300F220492EC
:10190C00039304238DF80B30444B1A689DF80B306D
:10191C00049901FA03F3DB431A400499039B194021
:10192C009DF80B3001FA03F313433C4A136000BFDC
:10193C009DF801300722079206930A238DF8173081
:10194C00364B1A689DF81730079901FA03F3DB43FD
:10195C001A400799069B19409DF8173001FA03F3BA
:10196C0013432E4A136000BF9DF8503007220A9291
:10197C0009930D238DF82330284B1A689DF82330DA
:10198C000A9901FA03F3DB431A400A99099B19409F
:10199C009DF8233001FA03F31343204A136000BF70
:1019AC009DF854301A4610991D4803F00DFB9DF814
:1019BC00033003220D920C9300238DF82F30174B1C
:1019CC001A689DF82F300D9901FA03F3DB431A4086
:1019DC000D990C9B19409DF82F3001FA03F313431A
:1019EC000E4A136000BF0123184613B05DF804FBC8
:1019FC000024F40000380240A83A022040420F00B4
:101A0C00AC3A022078DE000800E6DF0C58DE000855
:101A1C0080F937030095BA0A00700040083802407C
:101A2C002419002082B001900B468DF803309DF8EC
:101A3C000330002B06D0084B5B6C074A43F08063E5
:101A4C00536405E0044B5B6C034A23F080635364DE
:101A5C0000BF02B0704700BF0038024082B0019056
:101A6C000B468DF803309DF80330002B06D0104B3D
:101A7C001B6B0F4A43F40013136305E00C4B1B6BF9
:101A8C000B4A23F4001313639DF80330002B06D08C
:101A9C00074B1B6B064A43F48003136305E0044BAE
:101AAC001B6B034A23F48003136300BF02B070471F
:101ABC000038024082B001900B468DF803309DF83F
:101ACC000330002B06D0084B1B6B074A43F0010375
:101ADC00136305E0044B1B6B034A23F001031363F0
:101AEC0000BF02B0704700BF0038024082B00190C6
:101AFC000B468DF803309DF80330002B06D0084BB5
:101B0C001B6B074A43F00203136305E0044B1B6B8A
:101B1C00034A23F00203136300BF02B0704700BFF7
:101B2C000038024082B001900B468DF803309DF8CE
:101B3C000330002B06D0084B1B6B074A43F0040301
:101B4C00136305E0044B1B6B034A23F0040313637C
:101B5C0000BF02B0704700BF0038024082B0019055
:101B6C000B468DF803309DF80330002B06D0084B44
:101B7C001B6B074A43F00803136305E0044B1B6B14
:101B8C00034A23F00803136300BF02B0704700BF81
:101B9C000038024082B001900B468DF803309DF85E
:101BAC000330002B06D0084B1B6B074A43F0100385
:101BBC00136305E0044B1B6B034A23F01003136300
:101BCC0000BF02B0704700BF0038024082B00190E5
:101BDC000B468DF803309DF80330002B06D0084BD4
:101BEC001B6B074A43F02003136305E0044B1B6B8C
:101BFC00034A23F02003136300BF02B0704700BFF9
:101C0C000038024082B001900B468DF803309DF8ED
:101C1C000330002B06D0084B1B6B074A43F04003E4
:101C2C00136305E0044B1B6B034A23F0400313635F
:101C3C0000BF02B0704700BF0038024082B0019074
:101C4C000B468DF803309DF80330002B06D0084B63
:101C5C001B6B074A43F08003136305E0044B1B6BBB
:101C6C00034A23F08003136300BF02B0704700BF28
:101C7C000038024082B001900B468DF803309DF87D
:101C8C000330002B06D0084B1B6B074A43F48073C0
:101C9C00136305E0044B1B6B034A23F4807313633B
:101CAC0000BF02B0704700BF0038024082B0019004
:101CBC000B468DF803309DF80330002B06D0084BF3
:101CCC001B6B074A43F40073136305E0044B1B6B57
:101CDC00034A23F40073136300BF02B0704700BFC4
:101CEC000038024082B001900B468DF803309DF80D
:101CFC000330002B06D0084B1B6B074A43F4806360
:101D0C00136305E0044B1B6B034A23F480631363DA
:101D1C0000BF02B0704700BF0038024086B001908F
:101D2C000B468DF8033003230593022304931023F1
:101D3C008DF80F30134B1A689DF80F30059901FA86
:101D4C0003F3DB431A400599049B19409DF80F30AF
:101D5C0001FA03F313430B4A136000BF9DF80330E1
:101D6C00002B06D0084B1B6C074A43F4001313647A
:101D7C0005E0054B1B6C044A23F40013136400BFED
:101D8C0006B07047903802400038024086B001908F
:101D9C000B468DF80330032305930223049312237F
:101DAC008DF80F30134B1A689DF80F30059901FA16
:101DBC0003F3DB431A400599049B19409DF80F303F
:101DCC0001FA03F313430B4A136000BF9DF8033071
:101DDC00002B06D0084B1B6C074A43F4800313649A
:101DEC0005E0054B1B6C044A23F48003136400BF0D
:101DFC0006B07047903802400038024086B001901F
:101E0C000B468DF80330032305930223049314230C
:101E1C008DF80F30134B1A689DF80F30059901FAA5
:101E2C0003F3DB431A400599049B19409DF80F30CE
:101E3C0001FA03F313430B4A136000BF9DF8033000
:101E4C00002B06D0084B1B6C074A43F400031364A9
:101E5C0005E0054B1B6C044A23F40003136400BF1C
:101E6C0006B07047903802400038024086B00190AE
:101E7C000B468DF80330032305930223049316239A
:101E8C008DF80F30134B1A689DF80F30059901FA35
:101E9C0003F3DB431A400599049B19409DF80F305E
:101EAC0001FA03F313430B4A136000BF9DF8033090
:101EBC00002B06D0084B1B6C074A43F0807313644D
:101ECC0005E0054B1B6C044A23F08073136400BFC0
:101EDC0006B07047903802400038024082B0019042
:101EEC000B468DF803309DF80330002B06D0084BC1
:101EFC009B6B074A43F00103936305E0044B9B6B18
:101F0C00034A23F00103936300BF02B0704700BF84
:101F1C000038024082B001900B468DF803309DF8DA
:101F2C000330002B06D0084B5B6C074A43F480430C
:101F3C00536405E0044B5B6C034A23F48043536405
:101F4C0000BF02B0704700BF0038024082B0019061
:101F5C000B468DF803309DF80330002B06D0084B50
:101F6C005B6C074A43F00103536405E0044B5B6C64
:101F7C00034A23F00103536400BF02B0704700BF53
:101F8C000038024082B001900B468DF803309DF86A
:101F9C000330002B06D0084B1B6C074A43F001039F
:101FAC00136405E0044B1B6C034A23F00103136418
:101FBC0000BF02B0704700BF0038024082B00190F1
:101FCC000B468DF803309DF80330002B06D0084BE0
:101FDC001B6C074A43F00203136405E0044B1B6CB3
:101FEC00034A23F00203136400BF02B0704700BF22
:101FFC000038024082B001900B468DF803309DF8FA
:10200C000330002B06D0084B1B6C074A43F004032B
:10201C00136405E0044B1B6C034A23F004031364A4
:10202C0000BF02B0704700BF0038024082B0019080
:10203C000B468DF803309DF80330002B06D0084B6F
:10204C001B6C074A43F00803136405E0044B1B6C3C
:10205C00034A23F00803136400BF02B0704700BFAB
:10206C000038024082B001900B468DF803309DF889
:10207C000330002B06D0084B1B6C074A43F01003AF
:10208C00136405E0044B1B6C034A23F01003136428
:10209C0000BF02B0704700BF0038024082B0019010
:1020AC000B468DF803309DF80330002B06D0084BFF
:1020BC001B6C074A43F02003136405E0044B1B6CB4
:1020CC00034A23F02003136400BF02B0704700BF23
:1020DC000038024082B001900B468DF803309DF819
:1020EC000330002B06D0084B5B6C074A43F002030D
:1020FC00536405E0044B5B6C034A23F00203536406
:10210C0000BF02B0704700BF0038024082B001909F
:10211C000B468DF803309DF80330002B06D0084B8E
:10212C005B6C074A43F48033536405E0044B5B6CEF
:10213C00034A23F48033536400BF02B0704700BFDE
:10214C000038024082B001900B468DF803309DF8A8
:10215C000330002B06D0084B5B6C074A43F48023FA
:10216C00536405E0044B5B6C034A23F480235364F3
:10217C0000BF02B0704700BF0038024082B001902F
:10218C000B468DF803309DF80330002B06D0084B1E
:10219C001B6C074A43F04003136405E0044B1B6CB3
:1021AC00034A23F04003136400BF02B0704700BF22
:1021BC000038024082B001900B468DF803309DF838
:1021CC000330002B06D0084B1B6C074A43F08003EE
:1021DC00136405E0044B1B6C034A23F08003136467
:1021EC0000BF02B0704700BF0038024082B00190BF
:1021FC000B468DF803309DF80330002B06D0084BAE
:10220C001B6C074A43F48073136405E0044B1B6C8E
:10221C00034A23F48073136400BF02B0704700BFFD
:10222C000038024082B001900B468DF803309DF8C7
:10223C000330002B06D0084B5B6C074A43F01003AD
:10224C00536405E0044B5B6C034A23F010035364A6
:10225C0000BF02B0704700BF0038024082B001904E
:10226C000B468DF803309DF80330002B06D0084B3D
:10227C001B6C074A43F40033136405E0044B1B6CDE
:10228C00034A23F40033136400BF02B0704700BF4D
:10229C000038024082B001900B468DF803309DF857
:1022AC000330002B06D0084B1B6C074A43F48023E9
:1022BC00136405E0044B1B6C034A23F48023136462
:1022CC0000BF02B0704700BF0038024082B00190DE
:1022DC000B468DF803309DF80330002B06D0084BCD
:1022EC001B6C074A43F40023136405E0044B1B6C7E
:1022FC00034A23F40023136400BF02B0704700BFED
:10230C000038024082B001900B468DF803309DF8E6
:10231C000330002B06D0084B1B6C074A43F4801388
:10232C00136405E0044B1B6C034A23F48013136401
:10233C0000BF02B0704700BF0038024082B001906D
:10234C000B468DF803309DF80330002B06D0084B5C
:10235C005B6C074A43F02003536405E0044B5B6C51
:10236C00034A23F02003536400BF02B0704700BF40
:10237C000038024082B001900B468DF803309DF876
:10238C000330002B06D0084B1B6C074A43F08043EC
:10239C00136405E0044B1B6C034A23F08043136465
:1023AC0000BF02B0704700BF0038024082B00190FD
:1023BC000B468DF803309DF80330002B06D0084BEC
:1023CC001B6C074A43F00043136405E0044B1B6C81
:1023DC00034A23F00043136400BF02B0704700BFF0
:1023EC000038024082B001900B468DF803309DF806
:1023FC000330002B06D0084B1B6B074A43F4000339
:10240C00136305E0044B1B6B034A23F400031363B3
:10241C0000BF02B0704700BF0038024082B001908C
:10242C000B468DF803309DF80330002B06D0084B7B
:10243C005B6C074A43F40063536405E0044B5B6C2C
:10244C00034A23F40063536400BF02B0704700BF1B
:10245C000038024000B583B003468DF807309DF874
:10246C00073019460348FFF7F9FA00BF03B05DF8CF
:10247C0004FB00BF7E15002000B583B003468DF829
:10248C0007309DF807301946304804F0E9F99DF8FB
:10249C00073019462D4804F0F3F99DF8073019461A
:1024AC002A4804F0FDF99DF807301946274804F036
:1024BC0007FA9DF807301946244804F011FA9DF8E4
:1024CC0007301946214804F01BFA9DF807301946CD
:1024DC001E4804F025FA9DF8073019461B4804F0F5
:1024EC002FFA9DF807301946184804F039FA9DF870
:1024FC0007301946154804F043FA9DF80730194681
:10250C00124804F04DFA9DF8073019460F4804F0B4
:10251C0057FA9DF8073019460C4804F061FA9DF8FB
:10252C0007301946094804F06BFA9DF80730194634
:10253C00064804F075FA9DF807301946034804F074
:10254C007FFA00BF03B05DF804FB00BF541B0020F2
:10255C0000B583B003468DF807309DF80730194657
:10256C00034804F07DF900BF03B05DF804FB00BF25
:10257C00541B002000B583B003468DF807309DF83E
:10258C0007301946034804F07BF900BF03B05DF82F
:10259C0004FB00BF541B002000B583B003468DF82C
:1025AC0007309DF807301946034804F079F900BF4D
:1025BC0003B05DF804FB00BF541B002000B583B0D2
:1025CC0003468DF807309DF807301946034804F090
:1025DC0077F900BF03B05DF804FB00BF541B00206B
:1025EC0000B583B003468DF807309DF807301946C7
:1025FC00034804F075F900BF03B05DF804FB00BF9D
:10260C00541B002000B583B003468DF807309DF8AD
:10261C0007301946034804F073F900BF03B05DF8A6
:10262C0004FB00BF541B002000B583B003468DF89B
:10263C0007309DF807301946034804F071F900BFC4
:10264C0003B05DF804FB00BF541B002000B583B041
:10265C0003468DF807309DF807301946034804F0FF
:10266C006FF900BF03B05DF804FB00BF541B0020E2
:10267C0000B583B003468DF807309DF80730194636
:10268C00034804F06DF900BF03B05DF804FB00BF14
:10269C00541B002000B583B003468DF807309DF81D
:1026AC0007301946034804F06BF900BF03B05DF81E
:1026BC0004FB00BF541B002000B583B003468DF80B
:1026CC0007309DF807301946034804F069F900BF3C
:1026DC0003B05DF804FB00BF541B002000B583B0B1
:1026EC0003468DF807309DF807301946034804F06F
:1026FC0067F900BF03B05DF804FB00BF541B00205A
:10270C0000B583B003468DF807309DF807301946A5
:10271C00034804F065F900BF03B05DF804FB00BF8B
:10272C00541B002000B583B003468DF807309DF88C
:10273C0007301946034804F063F900BF03B05DF895
:10274C0004FB00BF541B002000B583B003468DF87A
:10275C0007309DF807301946034804F061F900BFB3
:10276C0003B05DF804FB00BF541B002000B583B020
:10277C0003468DF807309DF807301946034804F0DE
:10278C005FF900BF03B05DF804FB00BF541B0020D1
:10279C0000B585B003900291019203980023019A31
:1027AC00029902F011F8039B184605B05DF804FB82
:1027BC0000B583B001901A4801F00DF8194801F0EA
:1027CC000AF8194801F007F8184801F004F81848FD
:1027DC0001F001F8174800F0FEFF174800F0FBFF6E
:1027EC00164800F0F8FF164800F0F5FF154800F009
:1027FC00F2FF154800F0EFFF144800F0ECFF14480E
:10280C0000F0E9FF134800F0E6FF134800F0E3FF87
:10281C00124800F0E0FF00BF03B05DF804FB00BFFE
:10282C0094150020C0150020EC150020181600206F
:10283C0044160020701600209C160020C81600209C
:10284C00F4160020201700204C17002078170020C9
:10285C00A4170020D0170020FC17002028180020F7
:10286C0000B583B001900091019B012B69D1009BB5
:10287C004FF6FF72934264D1344A35493548FFF71D
:10288C0087FF354B00223549354800F085FF354B25
:10289C0000223549354800F07FFF354B0022354981
:1028AC00354800F079FF354B00223549354800F0AA
:1028BC0073FF354B00223549354800F06DFF354B21
:1028CC0000223549354800F067FF354B0022354969
:1028DC00354800F061FF354B00223549354800F092
:1028EC005BFF354B00223549354800F055FF354B21
:1028FC0000223549354800F04FFF354B0022354951
:10290C00354800F049FF354B00223549354800F079
:10291C0043FF354B00223549354800F03DFF354B20
:10292C0000223549354800F037FF354B0022354938
:10293C00354800F031FF354B00223549354800F061
:10294C002BFF00BF03B05DF804FB00BF852400081B
:10295C0061240008801500205D25000810600240ED
:10296C00941500208125000828600240C015002025
:10297C00A525000840600240EC150020C925000880
:10298C005860024018160020ED25000870600240C7
:10299C0044160020112600088860024070160020A2
:1029AC0035260008A06002409C160020592600081D
:1029BC00B8600240C81600207D2600081064024052
:1029CC00F4160020A12600082864024020170020DD
:1029DC00C5260008406402404C170020E926000878
:1029EC0058640240781700200D27000870640240DC
:1029FC00A41700203127000888640240D01700205B
:102A0C0055270008A0640240FC1700207927000815
:102A1C00B86402402818002008B54FF6FF71012059
:102A2C00FFF71EFF08BD000000B585B02F4B1B68DB
:102A3C0003F03F0303933F230293039B0193002373
:102A4C008DF803302A4B1A689DF80330029901FA6D
:102A5C0003F3DB431A400299019B19409DF80330A4
:102A6C0001FA03F31343224A136000BF039B03F0E4
:102A7C000C03002B02D01F4801F01DF81D4B5B6AA4
:102A8C00002B27D01B4B9B6A03F57043194A9362AA
:102A9C00184B5B6AB3F5704F0AD9174B4FF4704261
:102AAC005A60144B5B6AA3F57043124A536206E0FA
:102ABC00114A104B5B6A53600E4B00225A620E4A4D
:102ACC000C4B9B6AD3600C4B1B680B4A43F0010305
:102ADC00136007E0039B03F02003002B02D0054892
:102AEC0000F0E1FF00BF05B05DF804FB00600240A0
:102AFC0008600240941500201060024000B585B0BB
:102B0C00304B1B689B0903F03F0303933F23029355
:102B1C00039B019306238DF803302B4B1A689DF809
:102B2C000330029901FA03F3DB431A400299019B2B
:102B3C0019409DF8033001FA03F31343224A136042
:102B4C0000BF039B03F00C03002B02D01F4800F0C6
:102B5C00B2FF1E4B5B6A002B27D01C4B9B6A03F504
:102B6C0070431A4A9362194B5B6AB3F5704F0AD9DA
:102B7C00174B4FF470425A60144B5B6AA3F57043C9
:102B8C00124A536206E0124A104B5B6A53600F4BB9
:102B9C0000225A620E4A0D4B9B6AD3600C4B1B6889
:102BAC000B4A43F00103136007E0039B03F020037F
:102BBC00002B02D0054800F076FF00BF05B05DF891
:102BCC0004FB00BF0060024008600240C0150020FA
:102BDC002860024000B585B0304B1B681B0C03F01D
:102BEC003F0303933F230293039B019310238DF820
:102BFC0003302B4B1A689DF80330029901FA03F34A
:102C0C00DB431A400299019B19409DF8033001FAED
:102C1C0003F31343224A136000BF039B03F00C031E
:102C2C00002B02D01F4800F046FF1E4B5B6A002BA6
:102C3C0027D01C4B9B6A03F570431A4A9362194BBD
:102C4C005B6AB3F5704F0AD9174B4FF470425A6058
:102C5C00144B5B6AA3F57043124A536206E0124AA6
:102C6C00104B5B6A53600F4B00225A620E4A0D4B9D
:102C7C009B6AD3600C4B1B680B4A43F00103136037
:102C8C0007E0039B03F02003002B02D0054800F063
:102C9C000AFF00BF05B05DF804FB00BF00600240F6
:102CAC0008600240EC1500204060024000B585B081
:102CBC00304B1B689B0D03F03F0303933F230293A0
:102CCC00039B019316238DF803302B4B1A689DF848
:102CDC000330029901FA03F3DB431A400299019B7A
:102CEC0019409DF8033001FA03F31343224A136091
:102CFC0000BF039B03F00C03002B02D01F4800F015
:102D0C00DAFE1E4B5B6A002B27D01C4B9B6A03F52B
:102D1C0070431A4A9362194B5B6AB3F5704F0AD928
:102D2C00174B4FF470425A60144B5B6AA3F5704317
:102D3C00124A536206E0124A104B5B6A53600F4B07
:102D4C0000225A620E4A0D4B9B6AD3600C4B1B68D7
:102D5C000B4A43F00103136007E0039B03F02003CD
:102D6C00002B02D0054800F09EFE00BF05B05DF8B8
:102D7C0004FB00BF006002400860024018160020EF
:102D8C005860024000B585B02F4B5B6803F03F03E1
:102D9C0003933F230293039B019300238DF803308D
:102DAC002A4B1A689DF80330029901FA03F3DB43AE
:102DBC001A400299019B19409DF8033001FA03F364
:102DCC001343224A136000BF039B03F00C03002B38
:102DDC0002D01F4800F06FFE1D4B5B6A002B27D002
:102DEC001B4B9B6A03F57043194A9362184B5B6A41
:102DFC00B3F5704F0AD9174B4FF470425A60144B0D
:102E0C005B6AA3F57043124A536206E0114A104BF9
:102E1C005B6A53600E4B00225A620E4A0C4B9B6A43
:102E2C00D3600C4B1B680B4A43F00103136007E0A3
:102E3C00039B03F02003002B02D0054800F033FE67
:102E4C0000BF05B05DF804FB006002400C6002405E
:102E5C00441600207060024000B585B0304B5B68B2
:102E6C009B0903F03F0303933F230293039B0193BE
:102E7C0006238DF803302B4B1A689DF8033002990A
:102E8C0001FA03F3DB431A400299019B19409DF8A8
:102E9C00033001FA03F31343224A136000BF039B70
:102EAC0003F00C03002B02D01F4800F004FE1E4B55
:102EBC005B6A002B27D01C4B9B6A03F570431A4AA4
:102ECC009362194B5B6AB3F5704F0AD9174B4FF4E9
:102EDC0070425A60144B5B6AA3F57043124A5362FA
:102EEC0006E0124A104B5B6A53600F4B00225A6289
:102EFC000E4A0D4B9B6AD3600C4B1B680B4A43F07C
:102F0C000103136007E0039B03F02003002B02D0A6
:102F1C00054800F0C8FD00BF05B05DF804FB00BF1C
:102F2C00006002400C600240701600208860024075
:102F3C0000B585B0304B5B681B0C03F03F0303936B
:102F4C003F230293039B019310238DF803302B4BEB
:102F5C001A689DF80330029901FA03F3DB431A4017
:102F6C000299019B19409DF8033001FA03F31343B6
:102F7C00224A136000BF039B03F00C03002B02D00A
:102F8C001F4800F098FD1E4B5B6A002B27D01C4B92
:102F9C009B6A03F570431A4A9362194B5B6AB3F54B
:102FAC00704F0AD9174B4FF470425A60144B5B6A3E
:102FBC00A3F57043124A536206E0124A104B5B6A47
:102FCC0053600F4B00225A620E4A0D4B9B6AD36022
:102FDC000C4B1B680B4A43F00103136007E0039B87
:102FEC0003F02003002B02D0054800F05CFD00BF6D
:102FFC0005B05DF804FB00BF006002400C600240AD
:10300C009C160020A060024000B585B0304B5B6878
:10301C009B0D03F03F0303933F230293039B019308
:10302C0016238DF803302B4B1A689DF80330029948
:10303C0001FA03F3DB431A400299019B19409DF8F6
:10304C00033001FA03F31343224A136000BF039BBE
:10305C0003F00C03002B02D01F4800F02CFD1E4B7C
:10306C005B6A002B27D01C4B9B6A03F570431A4AF2
:10307C009362194B5B6AB3F5704F0AD9174B4FF437
:10308C0070425A60144B5B6AA3F57043124A536248
:10309C0006E0124A104B5B6A53600F4B00225A62D7
:1030AC000E4A0D4B9B6AD3600C4B1B680B4A43F0CA
:1030BC000103136007E0039B03F02003002B02D0F5
:1030CC00054800F0F0FC00BF05B05DF804FB00BF44
:1030DC00006002400C600240C8160020B86002403C
:1030EC0000B585B02F4B1B6803F03F0303933F23C0
:1030FC000293039B019300238DF803302A4B1A682B
:10310C009DF80330029901FA03F3DB431A4002994C
:10311C00019B19409DF8033001FA03F31343224A33
:10312C00136000BF039B03F00C03002B02D01F485D
:10313C0000F0C1FC1D4B5B6A002B27D01B4B9B6A1C
:10314C0003F57043194A9362184B5B6AB3F5704FE1
:10315C000AD9174B4FF470425A60144B5B6AA3F5B3
:10316C007043124A536206E0114A104B5B6A53607B
:10317C000E4B00225A620E4A0C4B9B6AD3600C4BCE
:10318C001B680B4A43F00103136007E0039B03F039
:10319C002003002B02D0054800F085FC00BF05B0D1
:1031AC005DF804FB0064024008640240F416002041
:1031BC001064024000B585B0304B1B689B0903F0CE
:1031CC003F0303933F230293039B019306238DF844
:1031DC0003302B4B1A689DF80330029901FA03F364
:1031EC00DB431A400299019B19409DF8033001FA08
:1031FC0003F31343224A136000BF039B03F00C0339
:10320C00002B02D01F4800F056FC1E4B5B6A002BB3
:10321C0027D01C4B9B6A03F570431A4A9362194BD7
:10322C005B6AB3F5704F0AD9174B4FF470425A6072
:10323C00144B5B6AA3F57043124A536206E0124AC0
:10324C00104B5B6A53600F4B00225A620E4A0D4BB7
:10325C009B6AD3600C4B1B680B4A43F00103136051
:10326C0007E0039B03F02003002B02D0054800F07D
:10327C001AFC00BF05B05DF804FB00BF00640240FF
:10328C0008640240201700202864024000B585B075
:10329C00304B1B681B0C03F03F0303933F2302933B
:1032AC00039B019310238DF803302B4B1A689DF868
:1032BC000330029901FA03F3DB431A400299019B94
:1032CC0019409DF8033001FA03F31343224A1360AB
:1032DC0000BF039B03F00C03002B02D01F4800F02F
:1032EC00EAFB1E4B5B6A002B27D01C4B9B6A03F539
:1032FC0070431A4A9362194B5B6AB3F5704F0AD943
:10330C00174B4FF470425A60144B5B6AA3F5704331
:10331C00124A536206E0124A104B5B6A53600F4B21
:10332C0000225A620E4A0D4B9B6AD3600C4B1B68F1
:10333C000B4A43F00103136007E0039B03F02003E7
:10334C00002B02D0054800F0AEFB00BF05B05DF8C5
:10335C0004FB00BF00640240086402404C170020CC
:10336C004064024000B585B0304B1B689B0D03F0E8
:10337C003F0303933F230293039B019316238DF882
:10338C0003302B4B1A689DF80330029901FA03F3B2
:10339C00DB431A400299019B19409DF8033001FA56
:1033AC0003F31343224A136000BF039B03F00C0387
:1033BC00002B02D01F4800F07EFB1E4B5B6A002BDB
:1033CC0027D01C4B9B6A03F570431A4A9362194B26
:1033DC005B6AB3F5704F0AD9174B4FF470425A60C1
:1033EC00144B5B6AA3F57043124A536206E0124A0F
:1033FC00104B5B6A53600F4B00225A620E4A0D4B06
:10340C009B6AD3600C4B1B680B4A43F0010313609F
:10341C0007E0039B03F02003002B02D0054800F0CB
:10342C0042FB00BF05B05DF804FB00BF0064024026
:10343C0008640240781700205864024000B585B03B
:10344C002F4B5B6803F03F0303933F230293039BD3
:10345C00019300238DF803302A4B1A689DF8033032
:10346C00029901FA03F3DB431A400299019B1940BC
:10347C009DF8033001FA03F31343224A136000BF93
:10348C00039B03F00C03002B02D01F4800F013FB2E
:10349C001D4B5B6A002B27D01B4B9B6A03F57043BB
:1034AC00194A9362184B5B6AB3F5704F0AD9174BE4
:1034BC004FF470425A60144B5B6AA3F57043124A86
:1034CC00536206E0114A104B5B6A53600E4B0022AC
:1034DC005A620E4A0C4B9B6AD3600C4B1B680B4A0E
:1034EC0043F00103136007E0039B03F02003002B60
:1034FC0002D0054800F0D7FA00BF05B05DF804FB18
:10350C00006402400C640240A41700207064024066
:10351C0000B585B0304B5B689B0903F03F03039308
:10352C003F230293039B019306238DF803302B4B0F
:10353C001A689DF80330029901FA03F3DB431A4031
:10354C000299019B19409DF8033001FA03F31343D0
:10355C00224A136000BF039B03F00C03002B02D024
:10356C001F4800F0A8FA1E4B5B6A002B27D01C4B9F
:10357C009B6A03F570431A4A9362194B5B6AB3F565
:10358C00704F0AD9174B4FF470425A60144B5B6A58
:10359C00A3F57043124A536206E0124A104B5B6A61
:1035AC0053600F4B00225A620E4A0D4B9B6AD3603C
:1035BC000C4B1B680B4A43F00103136007E0039BA1
:1035CC0003F02003002B02D0054800F06CFA00BF7A
:1035DC0005B05DF804FB00BF006402400C640240BF
:1035EC00D01700208864024000B585B0304B5B6872
:1035FC001B0C03F03F0303933F230293039B0193A4
:10360C0010238DF803302B4B1A689DF80330029968
:10361C0001FA03F3DB431A400299019B19409DF810
:10362C00033001FA03F31343224A136000BF039BD8
:10363C0003F00C03002B02D01F4800F03CFA1E4B89
:10364C005B6A002B27D01C4B9B6A03F570431A4A0C
:10365C009362194B5B6AB3F5704F0AD9174B4FF451
:10366C0070425A60144B5B6AA3F57043124A536262
:10367C0006E0124A104B5B6A53600F4B00225A62F1
:10368C000E4A0D4B9B6AD3600C4B1B680B4A43F0E4
:10369C000103136007E0039B03F02003002B02D00F
:1036AC00054800F000FA00BF05B05DF804FB00BF50
:1036BC00006402400C640240FC170020A06402402D
:1036CC0000B585B0304B5B689B0D03F03F03039353
:1036DC003F230293039B019316238DF803302B4B4E
:1036EC001A689DF80330029901FA03F3DB431A4080
:1036FC000299019B19409DF8033001FA03F313431F
:10370C00224A136000BF039B03F00C03002B02D072
:10371C001F4800F0D0F91E4B5B6A002B27D01C4BC6
:10372C009B6A03F570431A4A9362194B5B6AB3F5B3
:10373C00704F0AD9174B4FF470425A60144B5B6AA6
:10374C00A3F57043124A536206E0124A104B5B6AAF
:10375C0053600F4B00225A620E4A0D4B9B6AD3608A
:10376C000C4B1B680B4A43F00103136007E0039BEF
:10377C0003F02003002B02D0054800F094F900BFA1
:10378C0005B05DF804FB00BF006402400C6402400D
:10379C0028180020B864024000B585B0039002914F
:1037AC000192009303980023009A019901F00CF800
:1037BC00039B1433184608F0B9FB039B029A1A6258
:1037CC00039B00221A77039B00225A77039B18460F
:1037DC0005B05DF804FB86B00190019B1B6A5A6929
:1037EC00019B1B6A22F004025A61019B1B6A143371
:1037FC000593032304930023039300238DF80B30CC
:10380C00059B1A689DF80B30049901FA03F3DB430E
:10381C001A400499039B19409DF80B3001FA03F3ED
:10382C001A43059B1A6000BF00BF06B0704730B545
:10383C0089B00390029101920093019B0793039B23
:10384C001433184608F07EFB039B00221A77039B67
:10385C0000225A77029808F0D7FA0690069B5A680D
:10386C00039B1B6A9A60009BB3F5704F24D9039B92
:10387C00079A9A62039B1B6A079ADA60039B1B6A7E
:10388C00039A926A1A61039B1B6A4FF470425A6046
:10389C00009BA3F57042039B5A62069B1B785A0649
:1038AC00069B9B891B0413431946039B1A6A40F21F
:1038BC0055430B43136018E0039B1B6A079ADA60AD
:1038CC00039B1B6A009A5A60039B00225A62069B58
:1038DC001B785A06069B9B891B0413431946039BB2
:1038EC001A6A40F255430B43136009F033FE0C9BEC
:1038FC001A464FF00003841841EB0305CDE904454B
:10390C00039B1B7F002B22D1039B5B7F002B1ED1C3
:10391C0009F020FEDDE90423994208BF90422CBF38
:10392C0001230023DBB2002B0ED0039B1B6A1A6809
:10393C00039B1B6A22F001021A60039B1433184686
:10394C0008F024FB00230EE008F0DAFAD8E7039B1A
:10395C001433184608F01AFB039B5B7F002B01D035
:10396C00002300E00123184609B030BD30B589B002
:10397C000390029101920093039B1433184608F0B4
:10398C00E1FA039B00221A77039B00225A770298D4
:10399C0008F03AFA0790079B9A68039B1B6A9A6097
:1039AC00009BB3F5704F24D9019A039B9A62039B39
:1039BC001B6A019ADA60039B1B6A039A926A1A616A
:1039CC00039B1B6A4FF470425A60009BA3F5704234
:1039DC00039B5A62079B5B785A06079B9B891B04C7
:1039EC0013431946039B1A6A40F215430B431360A9
:1039FC0018E0039B1B6A019ADA60039B1B6A009A0E
:103A0C005A60039B00225A62079B5B785A06079BFD
:103A1C009B891B0413431946039B1A6A40F21543F6
:103A2C000B43136009F096FD0C9B1A464FF00003F4
:103A3C00841841EB0305CDE90445039B1B7F002B48
:103A4C0022D1039B5B7F002B1ED109F083FDDDE9A6
:103A5C000423994208BF90422CBF01230023DBB200
:103A6C00002B0ED0039B1B6A1A68039B1B6A22F067
:103A7C0001021A60039B1433184608F087FA0023DE
:103A8C000EE008F03DFAD8E7039B1433184608F013
:103A9C007DFA039B5B7F002B01D0002300E0012308
:103AAC00184609B030BD82B00190019B01221A77F3
:103ABC0000BF02B0704782B00190019B01225A777F
:103ACC0000BF02B07047000000B583B003468DF80C
:103ADC0007309DF8073019460348FEF783FC00BFFA
:103AEC0003B05DF804FB00BF7E15002082B00346D6
:103AFC008DF8073000BF02B0704700B585B0039059
:103B0C0002910192009303980023009A019900F00E
:103B1C005BFE039B2433184608F008FA039B002233
:103B2C005A61039B00229A61039B0022DA61039B7A
:103B3C0000221A62039B184605B05DF804FB82B0A4
:103B4C00019000BF02B0704730B587B0039002916E
:103B5C000192029C019D019807F016FC0346059307
:103B6C00059B2A462146039800F062FB00BF07B074
:103B7C0030BD30B589B00590049103920293049D39
:103B8C000C9C0C9807F000FC03460793079B0193D1
:103B9C000094029B039A2946059800F051FB00BF44
:103BAC0009B030BD034B5B6803F00203002B00BF70
:103BBC00704700BF00B0024000B583B00190009187
:103BCC00019B012B0AD1009B4FF6FF72934205D14A
:103BDC00044B054A05490648FFF78FFF00BF03B0A9
:103BEC005DF804FBF93A0008D53A000800B0024031
:103BFC005418002008B54FF6FF710120FFF7DCFFC9
:103C0C0008BD000000B58DB00390029101920093A5
:103C1C000099019806F01AFF0346002B01D00023EF
:103C2C00E0E0019806F0AAFF0A90029B184607F004
:103C3C00BBFA034606930A9B1B799AB20A9B5B79E3
:103C4C009BB2ADF81420ADF81630BDF938301A46D9
:103C5C00BDF818309A4206DABDF93A301A46BDF86A
:103C6C001A309A4201DB0023BCE0BDF938301A4609
:103C7C00BDF814301344BDF81820934214DDBDF880
:103C8C001430ADF82630BDF81820BDF938309BB291
:103C9C00D31A9BB2ADF81430BDF81430BDF8262001
:103CAC00D31AADF82E3002E00023ADF82E30BDF95A
:103CBC003A301A46BDF816301344BDF81A20934218
:103CCC0008DDBDF81A20BDF93A309BB2D31A9BB26D
:103CDC00ADF81630BDF81820BDF81430D31AADF875
:103CEC002430029B184607F058FA0890089B002BCA
:103CFC0001D1002376E0BDF818301A46BDF93A30F0
:103D0C0019460A9B9B790B4403FB02F3BDF938203F
:103D1C001A4413465B0013441A46089B1344089339
:103D2C00019806F050FF0790079B002B01D1002350
:103D3C0058E0039B2433184608F004F92B4A079BE0
:103D4C00D3602A4A089B5361284A089BD363274AAD
:103D5C000F9B13629DF840301B0643F00A02234B65
:103D6C00DA61029B184607F030FA03461B0643F053
:103D7C0001021E4B5A621D4B01225A63BDF81630CC
:103D8C001A46BDF814301B041A43184B5A64174AD0
:103D9C00BDF82E301361154ABDF824309361134AD7
:103DAC00BDF824301364114B114A1A600F4B5B6839
:103DBC0003F00203002B0CBF01230023DBB2002B0A
:103DCC0002D008F09DF8F1E7084B9B68074A43F0D6
:103DDC0002039360039B2433184608F0D7F8BDF810
:103DEC001430DBB218460DB05DF804FB00B0024095
:103DFC000100020000B599B0039002910192029B60
:103E0C00184607F0CAF90346179301AB1B6823F059
:103E1C007F431693179B002B00F0CB80029B184618
:103E2C0007F0C2F903460593BDF81630002B00F0DD
:103E3C00C280BDF81430002B00F0BD80039B2433EE
:103E4C00184608F07FF85E4B09930323089303236D
:103E5C00079310238DF81B30099B1A689DF81B30B3
:103E6C00089901FA03F3DB431A400899079B1940A0
:103E7C009DF81B3001FA03F31A43099B1A6000BF2B
:103E8C0007230C9301230B9300238DF82B304D4B00
:103E9C001A689DF82B300C9901FA03F3DB431A4096
:103EAC000C990B9B19409DF82B3001FA03F313432B
:103EBC00444A136000BF424A169B9363404A179BC7
:103ECC00D363BDF816301A464FF6FF730F930E925C
:103EDC0000238DF837303C4B1A689DF837300F991A
:103EEC0001FA03F3DB431A400F990E9B19409DF81E
:103EFC00373001FA03F31343334A136000BFBDF8A4
:103F0C0014301A4643F6FF731293119210238DF856
:103F1C0043302D4B1A689DF84330129901FA03F384
:103F2C00DB431A401299119B19409DF8433001FA5A
:103F3C0003F31343244A136000BF43F6FF73159336
:103F4C000023149300238DF84F30204B1A689DF8F2
:103F5C004F30159901FA03F3DB431A401599149B62
:103F6C0019409DF84F3001FA03F31343174A1360BD
:103F7C0000BF134B1B68124A43F001031360104B34
:103F8C005B6803F00203002B0CBF01230023DBB2A0
:103F9C00002B02D007F0B4FFF1E7094B9B68084AED
:103FAC0043F002039360039B2433184607F0EEFFA3
:103FBC0002E000BF00E000BF19B05DF804FB00BFD9
:103FCC0000B0024034B0024044B0024040B0024065
:103FDC0000B599B003900291019200931AAB1B6843
:103FEC0023F07F431793029B184607F0DDF8034636
:103FFC000593BDF904301A46BDF814309A4280F28C
:10400C000881BDF906301A46BDF816309A4280F286
:10401C000081BDF904301A46BDF800301344BDF8D8
:10402C001420934208DBBDF81420BDF904309BB278
:10403C00D31A9BB2ADF80030BDF906301A46BDF864
:10404C0002301344BDF81620934208DBBDF816204D
:10405C00BDF906309BB2D31A9BB2ADF80230029B6D
:10406C00184607F09AF81690169B002B00F0D38098
:10407C00BDF81430BDF9062002FB03F3BDF9042092
:10408C001A4413465B0013441A46169B13441693AA
:10409C00039B2433184607F055FF614B0993032308
:1040AC0008930323079310238DF81B30099B1A6880
:1040BC009DF81B30089901FA03F3DB431A40089969
:1040CC00079B19409DF81B3001FA03F31A43099B17
:1040DC001A6000BF07230C9301230B9300238DF868
:1040EC002B30504B1A689DF82B300C9901FA03F3C6
:1040FC00DB431A400C990B9B19409DF82B3001FAAD
:10410C0003F31343474A136000BF454A179B93635D
:10411C00434A169BD363BDF802301A464FF6FF7321
:10412C000F930E9200238DF837303F4B1A689DF891
:10413C0037300F9901FA03F3DB431A400F990E9BAA
:10414C0019409DF8373001FA03F31343364A1360D4
:10415C0000BFBDF800301A4643F6FF73129311925C
:10416C0010238DF84330304B1A689DF84330129968
:10417C0001FA03F3DB431A401299119B19409DF885
:10418C00433001FA03F31343274A136000BFBDF811
:10419C0014301A46BDF80030D31A1A4643F6FF7392
:1041AC001593149200238DF84F30204B1A689DF80C
:1041BC004F30159901FA03F3DB431A401599149B00
:1041CC0019409DF84F3001FA03F31343174A13605B
:1041DC0000BF134B1B68124A43F001031360104BD2
:1041EC005B6803F00203002B0CBF01230023DBB23E
:1041FC00002B02D007F084FEF1E7094B9B68084ABC
:10420C0043F002039360039B2433184607F0BEFE71
:10421C0002E000BF00E000BF19B05DF804FB00BF76
:10422C0000B0024034B0024044B0024040B0024002
:10423C0084B0039002910192009300BF04B07047C8
:10424C0000B5B3B00390029101920093029B184603
:10425C0006F0AAFF03460693349B184606F0A4FF0B
:10426C0003460593BDF81630ADF8BE300023ADF80B
:10427C00BC300023ADF8BA30029B184606F08DFF17
:10428C003190319B002B00F08782349B184606F04E
:10429C0084FF3090309B002B00F08082BDF9D4302D
:1042AC001A46BDF904301946BDF800300B449A4249
:1042BC0000F37682BDF9D6301A46BDF906301946A0
:1042CC00BDF802300B449A4200F36A82BDF9D43037
:1042DC001A46BDF814301344BDF904209342C0F2C1
:1042EC005F82BDF9D6301A46BDF816301344BDF9BD
:1042FC0006209342C0F25482BDF906309AB2BDF941
:10430C00D6309BB2D31A9BB2ADF8B830BDF9B830E9
:10431C00002B15DDBDF814301A46BDF9B83003FB7F
:10432C0002F213465B0013441A46309B134430933D
:10433C00BDF8B830BDF8BE20D31AADF8BE300DE0D4
:10434C00BDF818301A46BDF9B83003FB02F213461B
:10435C005B0013445B42319A13443193BDF9D63060
:10436C009AB2BDF8163013449AB2BDF9063099B220
:10437C00BDF802300B449BB2D31A9BB2ADF8B830E7
:10438C00BDF9B830002B06DDBDF8B830BDF8BE2045
:10439C00D31AADF8BE30BDF904309AB2BDF9D430A1
:1043AC009BB2D31A9BB2ADF8B830BDF9D420BDF98D
:1043BC0004309A4210DABDF9B82013465B0013445E
:1043CC001A46309B13443093BDF8B820BDF8BC306E
:1043DC001344ADF8BC3008E0BDF9B82013465B00BF
:1043EC0013445B42319A13443193BDF9D4309AB2E1
:1043FC00BDF8143013449AB2BDF9043099B2BDF82B
:10440C0000300B449BB2D31A9BB2ADF8B830BDF957
:10441C00B830002B06DDBDF8B820BDF8BC30134415
:10442C00ADF8BC30BDF81420BDF8BC30D31AADF8D3
:10443C00B630BDF81820BDF8B630D31AADF8BA3086
:10444C00BDF90630BDF8182002FB03F3BDF90420BA
:10445C001A4413465B0013441A46319B13443193A0
:10446C00BDF8B630002B00F09D81BDF8BE30002B9E
:10447C0000F09881039B2433184607F063FD3F4AF4
:10448C00309BD3600F2326930123259300238DF8B3
:10449C0093303B4B1A689DF89330269901FA03F33D
:1044AC00DB431A402699259B19409DF8933001FA5D
:1044BC0003F31343324A136000BFBDF8BC3043F61C
:1044CC00FF722992289300238DF89F302D4B1A6888
:1044DC009DF89F30299901FA03F3DB431A4029997F
:1044EC00289B19409DF89F3001FA03F31343254A8A
:1044FC00136000BF03232C9301232B9310238DF8FF
:10450C00AB301F4B1A689DF8AB302C9901FA03F3B2
:10451C00DB431A402C992B9B19409DF8AB3001FAC8
:10452C0003F31343164A136000BF349B184606F07E
:10453C004CFE0346FF2B0CBF01230023DBB2002BE8
:10454C0022D00E4B23930323229300232193102379
:10455C008DF88330239B1A689DF88330229901FAD9
:10456C0003F3DB431A402299219B19409DF88330B9
:10457C0001FA03F31A43239B1A6078E000B002405F
:10458C001CB0024010B00240884A319B53610F238B
:10459C0015930123149300238DF84F30844B1A6824
:1045AC009DF84F30159901FA03F3DB431A40159926
:1045BC00149B19409DF84F3001FA03F313437C4AC6
:1045CC00136000BFBDF8BA3043F6FF721892179310
:1045DC0000238DF85B30774B1A689DF85B30189987
:1045EC0001FA03F3DB431A401899179B19409DF805
:1045FC005B3001FA03F313436E4A136000BF6B4B3D
:10460C001C9303231B9302231A9310238DF86730FA
:10461C001C9B1A689DF867301B9901FA03F3DB4366
:10462C001A401B991A9B19409DF8673001FA03F345
:10463C001A431C9B1A6000BFFF231F93FF231E937A
:10464C0018238DF877305C4B1A689DF877301F99DA
:10465C0001FA03F3DB431A401F991E9B19409DF886
:10466C00773001FA03F31343534A136000BF4F4AE8
:10467C00319BD363072309930123089300238DF8FF
:10468C001F304E4B1A689DF81F30099901FA03F33D
:10469C00DB431A400999089B19409DF81F3001FA19
:1046AC0003F31343454A136000BFBDF8BE304FF609
:1046BC00FF720C920B9300238DF82B30404B1A6831
:1046CC009DF82B300C9901FA03F3DB431A400C993B
:1046DC000B9B19409DF82B3001FA03F31343384A16
:1046EC00136000BFBDF8B63043F6FF720F920E9305
:1046FC0010238DF83730324B1A689DF837300F99EC
:10470C0001FA03F3DB431A400F990E9B19409DF8F5
:10471C00373001FA03F31343294A136000BFBDF885
:10472C00BA3043F6FF721292119300238DF8433086
:10473C00244B1A689DF84330129901FA03F3DB43BA
:10474C001A401299119B19409DF8433001FA03F35A
:10475C0013431C4A136000BF144B1B68134A43F0ED
:10476C0001031360114B5B6803F00203002B0CBFB9
:10477C0001230023DBB2002B02D007F0C1FBF1E7D1
:10478C000A4B9B68094A43F002039360039B243352
:10479C00184607F0FBFB06E000BF04E000BF02E098
:1047AC0000BF00E000BF33B05DF804FB00B0024076
:1047BC0024B0024018B002401CB0024034B0024099
:1047CC0044B0024040B0024000B585B00390029165
:1047DC0001920093039B0C33184607F0A7FB039B35
:1047EC00029A1A60039B019A5A60039B009A9A6082
:1047FC00039B184605B05DF804FB00B583B001902F
:10480C000B468DF80330019B1B68002B05D0019BD8
:10481C001B689DF803201046984700BF03B05DF855
:10482C0004FB00B583B001900B468DF80330019B5F
:10483C005B68002B05D0019B5B689DF8032010463C
:10484C00984700BF03B05DF804FB00B583B001903E
:10485C00019B0C33184607F075FB00BF03B05DF8E5
:10486C0004FB00B583B00190019B0C33184607F094
:10487C008DFB00BF03B05DF804FB000000B583B0F6
:10488C0003468DF807309DF807301946034802F0AF
:10489C0077FA00BF03B05DF804FB00BF541B002087
:1048AC0000B585B003900291019203980023019A00
:1048BC000299FFF789FF039B184605B05DF804FBCE
:1048CC0000B585B00390029111461A460B468DF83F
:1048DC00073013468DF806309DF807300F2B01D9A1
:1048EC0000235EE09DF80730304A0021D1549DF83A
:1048FC0007209DF807302E4951F822202D4941F808
:10490C0023209DF80730069A2B4941F823209DF867
:10491C0007301946029800F0BDFD9DF80630002BBB
:10492C000BD0264B9B689DF80720012101FA02F25F
:10493C001146224A0B4393600BE0204B9B689DF879
:10494C000720012101FA02F2D24311461B4A0B4007
:10495C0093609DF80630002B0BD0184BDB689DF84C
:10496C000720012101FA02F21146144A0B43D360CD
:10497C000BE0124BDB689DF80720012101FA02F2D3
:10498C00D24311460D4A0B40D3600C4B1B689DF86B
:10499C000720012101FA02F21146084A0B43136069
:1049AC000123184605B05DF804FB00BFD4180020A5
:1049BC000813002094180020E4180020003C01404B
:1049CC0008B5034B1B68184607F0D8FE00BF08BD9E
:1049DC00E418002008B5034B5B68184607F0CEFEC0
:1049EC0000BF08BDE418002008B5034B9B681846AF
:1049FC0007F0C4FE00BF08BDE418002008B5034B47
:104A0C00DB68184607F0BAFE00BF08BDE4180020AA
:104A1C0008B5034B1B69184607F0B0FE00BF08BD74
:104A2C00E418002008B5034B5B69184607F0A6FE96
:104A3C0000BF08BDE418002008B5034B9B6918465D
:104A4C0007F09CFE00BF08BDE418002008B5034B1E
:104A5C00DB69184607F092FE00BF08BDE418002081
:104A6C0008B5034B1B6A184607F088FE00BF08BD4B
:104A7C00E418002008B5034B5B6A184607F07EFE6D
:104A8C0000BF08BDE418002008B5034B9B6A18460C
:104A9C0007F074FE00BF08BDE418002008B5034BF6
:104AAC00DB6A184607F06AFE00BF08BDE418002058
:104ABC0008B5034B1B6B184607F060FE00BF08BD22
:104ACC00E418002008B5034B5B6B184607F056FE44
:104ADC0000BF08BDE418002008B5034B9B6B1846BB
:104AEC0007F04CFE00BF08BDE418002008B5034BCE
:104AFC00DB6B184607F042FE00BF08BDE41800202F
:104B0C0008B50E4B5B690D4A43F0010353610C4B26
:104B1C001B68002B0FD00A4B1B689847094B1B785E
:104B2C00002B08D0054B1B68044A23F001031360CB
:104B3C00044B00221A7000BF08BD00BF003C0140AE
:104B4C0094180020D418002008B50E4B5B690D4A50
:104B5C0043F0020353610C4B5B68002B0FD00A4BE4
:104B6C005B689847094B5B78002B08D0054B1B689A
:104B7C00044A23F002031360044B00225A7000BF56
:104B8C0008BD00BF003C014094180020D418002040
:104B9C0008B50E4B5B690D4A43F0040353610C4B93
:104BAC009B68002B0FD00A4B9B689847094B9B784E
:104BBC00002B08D0054B1B68044A23F00403136038
:104BCC00044B00229A7000BF08BD00BF003C01409E
:104BDC0094180020D418002008B50E4B5B690D4AC0
:104BEC0043F0080353610C4BDB68002B0FD00A4BCE
:104BFC00DB689847094BDB78002B08D0054B1B680A
:104C0C00044A23F008031360044B0022DA7000BF3F
:104C1C0008BD00BF003C014094180020D4180020AF
:104C2C0008B50E4B5B690D4A43F0100353610C4BF6
:104C3C001B69002B0FD00A4B1B699847094B1B793A
:104C4C00002B08D0054B1B68044A23F0100313609B
:104C5C00044B00221A7100BF08BD00BF003C01408C
:104C6C0094180020D418002000B583B0534B5B6916
:104C7C00ADF80630BDF8063003F02003002B19D038
:104C8C004E4B5B694D4A43F0200353614C4B5B69BF
:104C9C00002B0FD04A4B5B6998474A4B5B79002B32
:104CAC0008D0464B1B68454A23F020031360454B44
:104CBC0000225A71BDF8063003F04003002B19D0C6
:104CCC003E4B5B693D4A43F0400353613C4B9B694F
:104CDC00002B0FD03A4B9B6998473A4B9B79002B92
:104CEC0008D0364B1B68354A23F040031360354B14
:104CFC0000229A71BDF8063003F08003002B19D006
:104D0C002E4B5B692D4A43F0800353612C4BDB69BE
:104D1C00002B0FD02A4BDB6998472A4BDB79002BF1
:104D2C0008D0264B1B68254A23F080031360254BC3
:104D3C000022DA71BDF8063003F48073002B19D011
:104D4C001E4B5B691D4A43F4807353611C4B1B6AF9
:104D5C00002B0FD01A4B1B6A98471A4B1B7A002B4F
:104D6C0008D0164B1B68154A23F480731360154B3F
:104D7C0000221A72BDF8063003F40073002B19D010
:104D8C000E4B5B690D4A43F4007353610C4B5B6A29
:104D9C00002B0FD00A4B5B6A98470A4B5B7A002BAF
:104DAC0008D0064B1B68054A23F400731360054BAF
:104DBC0000225A7200BF03B05DF804FB003C0140B6
:104DCC0094180020D418002000B583B0624B5B69A6
:104DDC00ADF80630BDF8063003F48063002B19D013
:104DEC005D4B5B695C4A43F4806353615B4B9B6A2C
:104DFC00002B0FD0594B9B6A9847594B9B7A002B31
:104E0C0008D0554B1B68544A23F480631360544BF1
:104E1C0000229A72BDF8063003F40063002B19D0FF
:104E2C004D4B5B694C4A43F4006353614B4BDB6A5B
:104E3C00002B0FD0494BDB6A9847494BDB7A002B90
:104E4C0008D0454B1B68444A23F400631360444B61
:104E5C000022DA72BDF8063003F48053002B19D00F
:104E6C003D4B5B693C4A43F4805353613B4B1B6B9A
:104E7C00002B0FD0394B1B6B9847394B1B7B002BEE
:104E8C0008D0354B1B68344A23F480531360344BE1
:104E9C0000221A73BDF8063003F40053002B19D00E
:104EAC002D4B5B692C4A43F4005353612B4B5B6BCA
:104EBC00002B0FD0294B5B6B9847294B5B7B002B4E
:104ECC0008D0254B1B68244A23F400531360244B51
:104EDC0000225A73BDF8063003F48043002B19D01E
:104EEC001D4B5B691C4A43F4804353611B4B9B6B0A
:104EFC00002B0FD0194B9B6B9847194B9B7B002BAE
:104F0C0008D0154B1B68144A23F480431360144BD0
:104F1C0000229A73BDF90630002B19DA0E4B5B692F
:104F2C000D4A43F4004353610C4BDB6B002B0FD049
:104F3C000A4BDB6B98470A4BDB7B002B08D0064BEC
:104F4C001B68054A23F400431360054B0022DA73F7
:104F5C0000BF03B05DF804FB003C01409418002036
:104F6C00D418002000B583B001900091019B012B57
:104F7C0009D1009B4FF6FF72934204D1044A0021E1
:104F8C000448FFF78DFC00BF03B05DF804FB00BFC5
:104F9C00894800088018002008B54FF6FF710120E1
:104FAC00FFF7E0FF08BD00B585B0039002910192B8
:104FBC0003980023019A0299FFF706FC039B1846FD
:104FCC0005B05DF804FB00008AB003900291134613
:104FDC008DF807309DF807301B2B02D91E2309933F
:104FEC000FE09DF80730182B02D91823099308E01D
:104FFC009DF80730152B02D91623099301E01423D1
:10500C000993029B1B4AA2FB03239B0C0293029A5B
:10501C00099BB2FBF3F30893029B099AB3FBF2F2E0
:10502C00099901FB02F29B1A002B02D1089B013B50
:10503C000893114B07930F230693089B05930023AA
:10504C008DF81330079B1A689DF81330069901FAF6
:10505C0003F3DB431A400699059B19409DF8133066
:10506C0001FA03F31A43079B1A6000BF00BF0AB092
:10507C00704700BF83DE1B43003C024082B00190AE
:10508C000B468DF803309DF80330002B06D0084BEF
:10509C001B68074A43F48073136005E0044B1B68DC
:1050AC00034A23F48073136000BF02B0704700BF43
:1050BC00003C024082B001900B468DF803309DF805
:1050CC000330002B06D0084B1B68074A43F40073CF
:1050DC00136005E0044B1B68034A23F40073136050
:1050EC0000BF02B0704700BF003C024000B583B067
:1050FC0001900091019B012B09D1009B4FF6FF728F
:10510C00934204D1002200210348FFF74CFF00BF5B
:10511C0003B05DF804FB00BF2419002008B54FF65E
:10512C00FF710120FFF7E2FF08BD86B001900B462E
:10513C008DF8033013468DF802309DF803305B0078
:10514C008DF80330019A9DF80230059203220492E7
:10515C0003939DF803308DF80B30059B1A689DF86E
:10516C000B30049901FA03F3DB431A400499039BB7
:10517C0019409DF80B3001FA03F31A43059B1A6092
:10518C0000BF00BF06B070478AB001900B468DF887
:10519C00033013468DF802309DF80330072B25D8C9
:1051AC009DF803309B008DF80330019B03F1200226
:1051BC009DF8023009920F22089207939DF8033054
:1051CC008DF81B30099B1A689DF81B30089901FA61
:1051DC0003F3DB431A400899079B19409DF81B30D9
:1051EC0001FA03F31A43099B1A602EE09DF8033071
:1051FC000F2B2AD89DF80330083B8DF803309DF80F
:10520C0003309B008DF80330019B03F124029DF8C1
:10521C00023005920F22049203939DF803308DF80F
:10522C000B30059B1A689DF80B30049901FA03F3B7
:10523C00DB431A400499039B19409DF80B3001FA8B
:10524C0003F31A43059B1A6000BF00BF0AB07047F6
:10525C0086B001900B468DF8033013468DF8023062
:10526C009DF803305B008DF80330019B03F10802BD
:10527C009DF8023005920322049203939DF80330AB
:10528C008DF80B30059B1A689DF80B30049901FAC8
:10529C0003F3DB431A400499039B19409DF80B3030
:1052AC0001FA03F31A43059B1A6000BF00BF06B056
:1052BC00704782B001900B468DF8033013468DF881
:1052CC0002309DF80230002B0AD0019B5B689DF8E0
:1052DC000320012101FA02F21A43019B5A600AE0F1
:1052EC00019B5B689DF80320012101FA02F2D24375
:1052FC001A40019B5A6000BF02B0704700B583B0E2
:10530C0003468DF807309DF8073019460348FCF723
:10531C00D1FB00BF03B05DF804FB00BF7E1500207D
:10532C0000B583B003468DF807309DF80730194659
:10533C000348FCF7DBFB00BF03B05DF804FB00BFC8
:10534C007E15002000B583B003468DF807309DF81C
:10535C00073019460348FCF701FC00BF03B05DF8A9
:10536C0004FB00BF7E15002000B583B003468DF80A
:10537C0007309DF8073019460348FCF70BFC00BFBB
:10538C0003B05DF804FB00BF7E15002000B583B0B0
:10539C0003468DF807309DF8073019460348FCF793
:1053AC0015FC00BF03B05DF804FB00BF7E150020A8
:1053BC0000B583B003468DF807309DF807301946C9
:1053CC000348FCF71FFC00BF03B05DF804FB00BFF3
:1053DC007E15002000B583B003468DF807309DF88C
:1053EC00073019460348FCF729FC00BF03B05DF8F1
:1053FC0004FB00BF7E15002000B583B003468DF87A
:10540C0007309DF8073019460348FCF733FC00BF02
:10541C0003B05DF804FB00BF7E15002000B583B01F
:10542C0003468DF807309DF8073019460348FCF702
:10543C003DFC00BF03B05DF804FB00BF7E150020EF
:10544C0000B583B003468DF807309DF80730194638
:10545C000348FCF747FC00BF03B05DF804FB00BF3A
:10546C007E15002000B585B0039002910192009347
:10547C0003980023009A0199FFF7A6F9039B029A5F
:10548C005A61039B9DF818201A76039B184605B0A9
:10549C005DF804FB00B583B001900B468DF803302A
:1054AC00019B1A7E9DF803301946034802F090F8D0
:1054BC0000BF03B05DF804FBCC1B002000B583B02B
:1054CC000190084611461A4603468DF803300B46E8
:1054DC008DF8023013468DF80130019B5B699DF805
:1054EC00031002221846FFF720FE019B5B699DF812
:1054FC0002209DF803101846FFF746FE019B5B69DE
:10550C009DF801209DF803101846FFF7A1FE019BA2
:10551C005B699DF810209DF803101846FFF7C9FE33
:10552C0000BF03B05DF804FB00B589B00390029195
:10553C0011461A460B468DF8073013468DF8063087
:10554C0000238DF81F309DF81F209DF807309A42DC
:10555C003BD29DF81F30DB00029A13441B68069364
:10556C009DF81F30DB00029A13441B798DF817301D
:10557C009DF81F30DB00029A13445B798DF81630CE
:10558C009DF81730022219460698FFF7CEFD9DF8BC
:10559C0016209DF8173019460698FFF7F5FD9DF873
:1055AC0006209DF8173019460698FFF751FE9DF816
:1055BC0028209DF8173019460698FFF77AFE9DF8BB
:1055CC001F3001338DF81F30BDE700BF09B05DF807
:1055DC0004FB00B583B00190084611461A460346F9
:1055EC008DF803300B468DF8023013468DF80130E0
:1055FC00019B5B699DF8031001221846FFF795FD8E
:10560C00019B5B699DF802209DF803101846FFF77B
:10561C001FFE019B5B699DF801209DF80310184645
:10562C00FFF747FE00BF03B05DF804FB82B00190AA
:10563C000B468DF8033013468DF802309DF802307E
:10564C00002B0DD0019B5B695A699DF80330012139
:10565C0001FA03F31946019B5B690A435A610DE099
:10566C00019B5B695A699DF80330012101FA03F330
:10567C00DB431946019B5B690A405A6100BF02B0CB
:10568C007047000000B585B003900291039B012B7D
:10569C005CD1029B4FF6FF72934257D100230093CB
:1056AC0000232C4A2C492D48FFF7DCFE01230093E4
:1056BC0000232B4A2B492C48FFF7D4FE02230093DE
:1056CC000023274A29492A48FFF7CCFE03230093DD
:1056DC000023284A28492948FFF7C4FE04230093D5
:1056EC000023274A27492848FFF7BCFE05230093CF
:1056FC000023264A26492748FFF7B4FE06230093C9
:10570C000023254A25492648FFF7ACFE07230093C2
:10571C000023244A24492548FFF7A4FE08230093BC
:10572C000023234A23492448FFF79CFE09230093B6
:10573C000023224A22492348FFF794FE0A230093B0
:10574C000023214A21492248FFF78CFE00BF05B0F7
:10575C005DF804FB095300080000024038190020D2
:10576C002D53000800040240541900200008024088
:10577C007019002051530008000C02408C190020B5
:10578C007553000800100240A81900209953000816
:10579C0000140240C4190020BD5300080018024038
:1057AC00E0190020E1530008001C0240FC19002005
:1057BC000554000800200240181A00202954000843
:1057CC0000240240341A00204D54000800280240E6
:1057DC00501A002008B54FF6FF710120FFF752FF59
:1057EC0008BD000000B583B003468DF807309DF866
:1057FC00073019460348FCF791FA00BF03B05DF877
:10580C0004FB00BF7E15002000B583B003468DF865
:10581C0007309DF8073019460348FCF7B7FA00BF6C
:10582C0003B05DF804FB00BF7E15002000B583B00B
:10583C0003468DF807309DF8073019460348FCF7EE
:10584C00DDFA00BF03B05DF804FB00BF7E1500203D
:10585C0000B583B003468DF807309DF80730194624
:10586C000348FCF703FB00BF03B05DF804FB00BF6B
:10587C007E15002030B587B00590049103920293F9
:10588C00059B184606F0C6FA059B03F1140000238D
:10589C00029A0399FEF798FF0598049B03F12805DB
:1058AC00049B24339DF834409DF83010BDF838200B
:1058BC00019200932B46224606F0B5FA059B0A9AF4
:1058CC00DA62059B0B9A1A63059B049A9A62059BF4
:1058DC00184607B030BDBEB001900B468DF80330B2
:1058EC009DF80330022B00F04181022B00F3DA818A
:1058FC00002B03D0012B00F09D80D3E1019B9B6A10
:10590C0010332D930F232C9303232B931C238DF8EF
:10591C00AB302D9B1A689DF8AB302C9901FA03F330
:10592C00DB431A402C992B9B19409DF8AB3001FAA4
:10593C0003F31A432D9B1A6000BF019B9B6A103323
:10594C003193FF233093C7232F9300238DF8BB3063
:10595C00319B1A689DF8BB30309901FA03F3DB4395
:10596C001A4030992F9B19409DF8BB3001FA03F374
:10597C001A43319B1A6000BF019B9B6A103335930D
:10598C00FF233493C323339308238DF8CB30359BFB
:10599C001A689DF8CB30349901FA03F3DB431A40B3
:1059AC003499339B19409DF8CB3001FA03F31A4319
:1059BC00359B1A6000BF019B9B6A103339930F23F0
:1059CC0038930223379310238DF8DB30399B1A68F8
:1059DC009DF8DB30389901FA03F3DB431A40389910
:1059EC00379B19409DF8DB3001FA03F31A43399BBE
:1059FC001A6000BF019B9B6A10333D930F233C93AD
:105A0C0004233B9314238DF8EB303D9B1A689DF8CF
:105A1C00EB303C9901FA03F3DB431A403C993B9B76
:105A2C0019409DF8EB3001FA03F31A433D9B1A60C1
:105A3C0000BF37E1019B9B6A103319930F23189316
:105A4C00012317931C238DF85B30199B1A689DF862
:105A5C005B30189901FA03F3DB431A401899179B32
:105A6C0019409DF85B3001FA03F31A43199B1A6035
:105A7C0000BF019B9B6A10331D93FF231C930923CA
:105A8C001B9300238DF86B301D9B1A689DF86B30AF
:105A9C001C9901FA03F3DB431A401C991B9B194018
:105AAC009DF86B3001FA03F31A431D9B1A6000BF7B
:105ABC00019B9B6A10332193FF23209303231F9395
:105ACC0008238DF87B30219B1A689DF87B30209938
