:020000040800F2
:100000004043002059020008FD010008FF010008DC
:1000100001020008030200080502000800000000B9
:1000200000000000000000000000000007020008BF
:1000300009020008000000000B370008FD36000828
:100040000F02000811020008130200081502000840
:1000500017020008190200081B0200081D02000810
:100060001F0200087D160008F9160008A9170008ED
:10007000B5040008290200082B020008512E0008D0
:10008000E12E00086D2F0008F92F00080000000085
:100090003502000837020008390200083B02000858
:1000A0003D0200083F02000841020008A932000892
:1000B0000D33000847020008490200084B020008FF
:1000C000304931480A1A02D0072291438D462F4900
:1000D0002F480A1A06D00722914381F30988022289
:1000E00082F314882B482C492C4A00F03AF82C480B
:1000F0002C492D4A00F035F82C482D492D4A00F0A6
:1001000030F82D482D492E4A00F02BF82D482E4965
:100110002E4A00F026F82E482E492F4A00F021F8EA
:100120002E482F492F4A00F01CF82F482F49002253
:1001300000F022F82E482F49002200F01DF81F4839
:100140001F49884205D00268043003B4904703BCBD
:10015000F7E700208646EC4600200021264A90471B
:10016000FEE7884207D0521A05D0037801300B70A1
:100170000131013AF9D17047884202D00270013052
:10018000FAE7704740430020403B0020404B0020EE
:100190004043002074580008000000202C0000207C
:1001A00060020008600200085050000874580008FF
:1001B00000000020000000205050000850500008AF
:1001C000905000085050000850500008505000084F
:1001D000905000089050000872580008A05800087D
:1001E000343B0020343B00202C000020343B002016
:1001F000343B0020343B002061020008FEE7FEE7AC
:10020000FEE7FEE7FEE7FEE7FEE7FEE7FEE7FEE7C6
:10021000FEE7FEE7FEE7FEE7FEE7FEE7FEE7FEE7B6
:10022000FEE7FEE7FEE7FEE7FEE7FEE7FEE7FEE7A6
:10023000FEE7FEE7FEE7FEE7FEE7FEE7FEE7FEE796
:10024000FEE7FEE7FEE7FEE7FEE7FEE7034885463A
:1002500003F092F934E77047FEE7000000500020F9
:1002600000B583B004F0D2F81C48002300930023AB
:100270000422022101F057FE1848002300930023B6
:100280000422032101F04FFE154B0121180001F05B
:100290008FFB80239A0096239901124B180003F0DC
:1002A00072F80F4B0121180001F097FB0B48002357
:1002B0000122052101F075FE0B4B180004F012FD20
:1002C0000A4B180004F08CFB0949084B0022180067
:1002D00004F090FA03F03CFAFCE7C0462802002044
:1002E000700500205C050020F5020008643900203C
:1002F000AD4D000800B583B002006B4607331A709D
:100300006B4607331A78044B0521180001F07DFE77
:10031000C04603B000BDC0462802002000B583B02F
:1003200002006B4607331A70034B0121180000F0DE
:100330003FFFC04603B000BDC500002000B583B03C
:1003400002006B4607331A706B4607331A78044B6A
:100350001100180002F087F8C04603B000BDC04687
:100360004803002000B587B00390029101920093EA
:100370000398009A0199002301F002FB039B029A63
:100380005A61039B602200219954039B972200210C
:10039000995400230593059B112B1EDC039A7321AE
:1003A000059BD3185B1800221A70039B059A06322E
:1003B00092000021D150039A6121059BD3185B184C
:1003C00009221A70039A8521059BD3185B180F2206
:1003D0001A70059B01330593DDE7039B180007B0F6
:1003E00000BD86B00190019B5B691B6CDB0405932B
:1003F000019B60229B5C180013236B44019A7321BC
:100400001218521812781A7013236B441A78019B31
:1004100006329200D358059AD31A0393019B6022A7
:100420009B5C1900019B61225B189B181B781A00CA
:10043000039B1341039313236B441A78019B0632E9
:100440009200D15813236B441A78039BC918019B5F
:1004500006329200D150019B60229B5C0133D9B2DD
:10046000019B60229954019B60229A5C019B972119
:100470005B5C9A4203D3019B602200219954019B4B
:1004800060229B5C1900019B73225B189B181B78F0
:100490001A00012393401A00019B5B699A62019B39
:1004A0005B699A68019B5B6904210A439A60C046B4
:1004B00006B0704710B50C4B5B680422134006D0A1
:1004C000094B1B680422134001D0012300E00023E4
:1004D000002B06D0044B04221A60044B1800FFF7CF
:1004E00080FFC04610BDC046002401402C00002003
:1004F00000B583B001900091019B012B09D1009BB5
:10050000054A934205D1054B054A06490648FFF7BF
:1005100029FFC04603B000BDFFFF00003D030008F7
:100520001D030008002401402C00002010B5034BDF
:1005300019000120FFF7DCFF10BDC046FFFF0000DF
:1005400010B584B001900A006B4603331A706B46F5
:10055000033319780A005201521A93019B1ADB00E7
:100560005B189B0102932E4B6A46033212781A7075
:100570002C4B180004F03BFD6B4603331A782A4BD2
:100580001100180004F033FD029B284A934219D849
:10059000029B274A934215D9264B180004F027FDE9
:1005A000029BFA229100180004F09AFC03001C0040
:1005B000214AFA23990021481300220004F017FD74
:1005C000002329E01E4B1A681D4BA021C9020A43D3
:1005D0001A6000230393039B1A4A934213D8184BC3
:1005E0001A6880239B0213405A1E9341DBB2002BF2
:1005F00005D0154B180004F0FAFC01230CE0039B16
:1006000001330393E7E70B4B180004F0F0FC0F4BAA
:10061000180004F0ECFC0023180004B010BDC04624
:10062000343B0020F05000081C5100083F420F00EE
:1006300040787D0144510008A86100005C51000829
:10064000001002400F270000C4510008DC510008D0
:1006500000B585B00190080011006B460333021C01
:100660001A706B4602330A1C1A702E4B180004F0E5
:10067000BEFC6B4603331B78002B05D02A4B0421AC
:10068000180004F0B4FC04E0274B1021180004F01B
:10069000AEFC6B4603331B78002B06D0234B1A6845
:1006A000224B08210A431A6005E0204B1A681F4BB1
:1006B00008218A431A606B4602331B78002B06D050
:1006C0001A4B1A68194B01210A431A6005E0174BAF
:1006D0001A68164B01218A431A6000230393039B77
:1006E000134A934212D8114B1B68042213405A1E1E
:1006F0009341DBB2002B05D00E4B180004F077FCC1
:1007000001230CE0039B01330393E8E70A4B180035
:1007100004F06DFC094B180004F069FC002318007C
:1007200005B000BD0C52000838520008001002400D
:100730000F270000C451000844510008DC51000894
:1007400010B586B001900C00100019006B46033301
:10075000221C1A706B460233021C1A706B4601335E
:100760000A1C1A706B4602331B780493964B1800D0
:1007700004F03DFC954BDB689B0803221340033BD0
:100780005A425341DBB2002B08D0914B180004F0C1
:100790002EFC904B180004F02AFC0EE16B4603334C
:1007A0001B78012B08D98A4B180004F020FC8A4BD7
:1007B000180004F01CFC00E16B4602331B78082B88
:1007C0000CD9834B180004F012FC6B4602331978E5
:1007D000824B0822180004F00AFCEEE06B4603335B
:1007E0001B78012B23D17E4B180004F000FC774BC3
:1007F0001A6880239B0213405A1E9341DBB2002BE0
:100800000CD0784B1B7819000A005201521A930140
:100810009B1ADB005B189B0105930EE06C4B1800E4
:1008200004F0E5FB704B180004F0E1FBC5E06F4BF2
:10083000180004F0DCFB6E4B0593059B6D4A934258
:1008400003D9059B6C4A93420AD9614B180004F006
:10085000CEFB694B029A6949694804F0C8FBACE0D9
:100860006B4602331B78082B1CD89A00654BD318B3
:100870001B689F460323049314E00423049311E0B0
:10088000062304930EE0082304930BE00C23049347
:1008900008E01023049305E02023049302E03023B2
:1008A0000493C046059B049A53430593059B564AFF
:1008B00093420AD9464B180004F099FB524A059915
:1008C000524B180004F093FB77E06B4601331B7822
:1008D00001331900059804F003FB03000293029B07
:1008E000444A934203D9029B494A93420AD9384B5E
:1008F000180004F07CFB404B029A4049454804F044
:1009000076FB5AE0314BDA68304B43490A40DA60F3
:100910002E4BDA686B4603331B7819046B4602339F
:100920001B789B0419436B4601331B789B050B43D3
:100930001900264B0A43DA60244B1A68234B8021A6
:1009400049040A431A600E236B4400221A800E23C6
:100950006B441B88314A934227D81C4B1A6880236A
:100960009B0413405A1E9341DBB2002B15D0029B0F
:10097000FA229100180004F0B3FA03001A00284B81
:100980001100180004F033FB264B180004F02FFB75
:10099000254B029A1A60012313E00E236B441A8838
:1009A0000E236B4401321A80D1E7094B180004F082
:1009B0001EFB1E4B180004F01AFB1B4B00221A6092
:1009C0000023180006B010BD50520008001002406D
:1009D0004451000880520008D45200080C5300080B
:1009E00060530008343B00208C530008BC530008BF
:1009F0000024F4007F841E0000366E0180841E00F7
:100A0000E45300087C57000800D8B8054854000893
:100A10000048E801A8540008FFFF02FF0F2700006C
:100A20000C550008C4510008383B0020DC51000878
:100A300084B001900A006B4603331A70234B9A6B03
:100A400080235B0513405A425341DBB2002B06D092
:100A50001E4B9A6B1D4B802149050A439A63C04681
:100A6000C046C046C046C046C046C046C046184BF9
:100A70005B68102213405A1E9341DBB2002B00D05A
:100A8000F5E7134B1B680393039B124A13406A4616
:100A900003321278D202134303930D4B039A1A6068
:100AA000C046C046C046C046C046C046C046C04616
:100AB000074B5B68102213405A1E9341DBB2002B98
:100AC00000D0F5E70123180004B070470010024081
:100AD00000700040FFE7FFFF10B588B001900C00E8
:100AE000100019006B460333221C1A706B46023348
:100AF000021C1A706B4601330A1C1A707B4B1800DB
:100B000004F075FA6B4603331B78032B31D04CDCB1
:100B1000012B02D0022B07D047E0754B180004F0E0
:100B200066FA744B07934AE0734B180004F05FFABF
:100B3000724B1A6880239B0213405A425341DBB226
:100B4000002B09D06E4B180004F051FA6D4B1800C1
:100B500004F04DFA0023C6E06B4B1B7819000A0025
:100B60005201521A93019B1ADB005B189B010793F9
:100B700025E0664B180004F03AFA604B1A688023AF
:100B80009B0413405A425341DBB2002B09D05C4B0B
:100B9000180004F02CFA5E4B180004F028FA002329
:100BA000A1E05C4B1B68079309E0554B180004F06B
:100BB0001EFA594B180004F01AFA002393E06B4612
:100BC00002331A78554B9200D3581900079804F055
:100BD00087F903000693069B514A93420BD9484B71
:100BE000180004F004FA4E4A06994E4B180004F01F
:100BF000FEF9002377E06B4601331A784A4B9200E6
:100C0000D3581900069804F06BF903000593059B6F
:100C1000434A93420BD93A4B180004F0E8F9404A92
:100C20000599424B180004F0E2F900235BE00AAB9F
:100C30001A783D4B9200D3581900069804F050F9E9
:100C400003000493049B364A93420BD92C4B1800A3
:100C500004F0CDF9324A0499354B180004F0C7F975
:100C6000002340E0069A334B1100180000F00CFFFF
:100C7000224BDB680393039B032293431A006B46CA
:100C800003331B78134303931C4B039ADA60069BD0
:100C9000FA229100180004F023F903001A00264BF1
:100CA0001100180004F0A3F9059BFA229100180026
:100CB00004F016F903001A00204B1100180004F08C
:100CC00096F9049BFA229100180004F009F9030038
:100CD0001A001B4B1100180004F089F9194B180079
:100CE00004F085F90123180008B010BD1C55000858
:100CF000BC5300080024F4006053000800100240B8
:100D00004451000850550008343B0020C0550008ED
:100D1000D8550008383B002028560008B05000087D
:100D20000048E8016056000890500008B0560008DE
:100D3000FC56000814020020485700085C570008C1
:100D40006C570008C451000800B585B00190204BD5
:100D5000DB689B0803221340032B21D025D8012BED
:100D600002D0022B0FD020E01A4B0393184B1B68C4
:100D7000102213405A1E9341DBB2002B14D0039B68
:100D80009B08039310E0144B1B7819000A005201D2
:100D9000521A93019B1ADB005B189B01039304E03A
:100DA0000E4B1B68039300E0C046094BDB681B0930
:100DB0000F221A400A4B9200D3581900039804F0EE
:100DC0008FF803000393039B180005B000BDC046D5
:100DD000001002400024F400343B0020383B002087
:100DE000B050000800B583B00190019B1800FFF7D8
:100DF000ABFF074BDB681B0A07221A40054B92002A
:100E0000D358190004F06CF80300180003B000BDBB
:100E1000001002409050000800B583B00190019B83
:100E20001800FFF791FF074BDB68DB0A07221A4027
:100E3000054B9200D358190004F052F80300180033
:100E400003B000BD001002409050000800B585B00E
:100E500001900F4BDB681B0A07221A400D4B9200D2
:100E6000D35802930C4B1800FFF76EFF0300029952
:100E7000180004F035F803000393029B012B02D9FC
:100E8000039B5B000393039B180005B000BDC046A5
:100E90000010024090500008C400002082B0019071
:100EA0000A006B4603331A706B4603331B78002B22
:100EB00006D0084BDA6A074B01210A43DA6205E0E3
:100EC000044BDA6A034B01218A43DA62C04602B05E
:100ED0007047C0460010024082B001900A006B4685
:100EE00003331A706B4603331B78002B06D0084B74
:100EF000DA6A074B02210A43DA6205E0044BDA6A38
:100F0000034B02218A43DA62C04602B07047C046F2
:100F10000010024082B001900A006B4603331A7041
:100F20006B4603331B78002B06D0084BDA6A074B5D
:100F300004210A43DA6205E0044BDA6A034B042118
:100F40008A43DA62C04602B07047C04600100240D1
:100F500082B001900A006B4603331A706B4603336C
:100F60001B78002B06D0084BDA6A074B08210A438E
:100F7000DA6205E0044BDA6A034B08218A43DA623D
:100F8000C04602B07047C0460010024082B00190D7
:100F90000A006B4603331A706B4603331B78002B31
:100FA00006D0084BDA6A074B10210A43DA6205E0E3
:100FB000044BDA6A034B10218A43DA62C04602B05E
:100FC0007047C0460010024082B001900A006B4694
:100FD00003331A706B4603331B78002B06D0084B83
:100FE000DA6A074B80210A43DA6205E0044BDA6AC9
:100FF000034B80218A43DA62C04602B07047C04684
:101000000010024082B001900A006B4603331A7050
:101010006B4603331B78002B06D0084B9A6B074BAB
:1010200001210A439A6305E0044B9A6B034B0121AB
:101030008A439A63C04602B07047C046001002401F
:1010400082B001900A006B4603331A706B4603337B
:101050001B78002B06D0084B9A6B074B02210A43E2
:101060009A6305E0044B9A6B034B02218A439A630F
:10107000C04602B07047C0460010024082B00190E6
:101080000A006B4603331A706B4603331B78002B40
:1010900006D0084B9A6B074B10210A439A6305E070
:1010A000044B9A6B034B10218A439A63C04602B0EB
:1010B0007047C0460010024082B001900A006B46A3
:1010C00003331A706B4603331B78002B06D0084B92
:1010D0009A6B074B20210A439A6305E0044B9A6BF5
:1010E000034B20218A439A63C04602B07047C04632
:1010F0000010024082B001900A006B4603331A7060
:101100006B4603331B78002B06D0084B1A6B074B3A
:1011100001210A431A6305E0044B1A6B034B0121BA
:101120008A431A63C04602B07047C04600100240AE
:1011300082B001900A006B4603331A706B4603338A
:101140001B78002B07D0084B5A6B074B8021C90135
:101150000A435A6305E0044B5A6B034B03490A40A8
:101160005A63C04602B0704700100240FFBFFFFF45
:1011700082B001900A006B4603331A706B4603334A
:101180001B78002B07D0084B9A6B074B80218902F4
:101190000A439A6305E0044B9A6B034B03490A40E8
:1011A0009A63C04602B0704700100240FFFFFDFF87
:1011B00082B001900A006B4603331A706B4603330A
:1011C0001B78002B07D0084B5A6B074B80218900F6
:1011D0000A435A6305E0044B5A6B034B03490A4028
:1011E0005A63C04602B0704700100240FFFDFFFF87
:1011F00082B001900A006B4603331A706B460333CA
:101200001B78002B07D0084B9A6B074B8021890570
:101210000A439A6305E0044B9A6B034B03490A4067
:101220009A63C04602B0704700100240FFFFFFDF24
:1012300082B001900A006B4603331A706B46033389
:101240001B78002B06D0084B5A6B074B01210A4331
:101250005A6305E0044B5A6B034B01218A435A63DE
:10126000C04602B07047C0460010024000B583B0CF
:1012700002006B4607331A70034B01211800FFF779
:10128000B7FFC04603B000BDC500002010B5034B3A
:101290001800FFF7A7FD0300180010BDC4000020D0
:1012A00000B585B003900291019200930398009AD3
:1012B0000199002300F064FB039B1833180002F02F
:1012C0005DFA039B029A5A61039B180005B000BDAA
:1012D00000B585B003900291039B012B0BD1029BBB
:1012E000064A934207D1064A06490748074B00932E
:1012F0000023FFF7D5FFC04605B000BDFFFF00008B
:101300006D12000800740040C80000208D12000813
:1013100010B5034B19000120FFF7DAFF10BDC046DE
:10132000FFFF000000B583B002006B4607331A7060
:101330006B4607331A78044B11001800FFF7DAFEEA
:10134000C04603B000BDC046C500002000B583B054
:1013500002006B4607331A706B4607331A781C4B32
:101360001100180000F0A2FF6B4607331A78184BE3
:101370001100180000F0ABFF6B4607331A78144BCE
:101380001100180000F0B4FF6B4607331A78104BB9
:101390001100180000F0BDFF6B4607331A780C4BA4
:1013A0001100180000F0C6FF6B4607331A78084B8F
:1013B0001100180000F0CFFF6B4607331A78044B7A
:1013C0001100180000F0D8FFC04603B000BDC046B1
:1013D0004803002000B583B002006B4607331A7043
:1013E0006B4607331A78044B1100180000F05EFFBB
:1013F000C04603B000BDC0464803002000B583B01E
:1014000002006B4607331A706B4607331A78044B99
:101410001100180000F05BFFC04603B000BDC046DD
:101420004803002000B583B002006B4607331A70F2
:101430006B4607331A78044B1100180000F058FF70
:10144000C04603B000BDC0464803002000B583B0CD
:1014500002006B4607331A706B4607331A78044B49
:101460001100180000F055FFC04603B000BDC04693
:101470004803002000B583B002006B4607331A70A2
:101480006B4607331A78044B1100180000F052FF26
:10149000C04603B000BDC0464803002000B583B07D
:1014A00002006B4607331A706B4607331A78044BF9
:1014B0001100180000F04FFFC04603B000BDC04649
:1014C0004803002000B583B002006B4607331A7052
:1014D0006B4607331A78044B1100180000F04CFFDC
:1014E000C04603B000BDC0464803002000B585B02B
:1014F0000390029101920398019A0299002300F04F
:101500003FFA039B180005B000BD000000B583B092
:1015100001900F4B180000F0EDF90E4B180000F091
:10152000E9F90D4B180000F0E5F90C4B180000F03C
:10153000E1F90B4B180000F0DDF90A4B180000F040
:10154000D9F9094B180000F0D5F9C04603B000BD29
:10155000FC00002020010020440100206801002040
:101560008C010020B0010020D401002000B585B01E
:1015700003900291039B012B41D1029B214A93428C
:101580003DD1214A2149224B1800FFF7AFFF214BE3
:101590002149224801220092002200F08DF9204BBF
:1015A0002049214802220092002200F085F91F4BB9
:1015B0001F49204803220092002200F07DF91E4BB3
:1015C0001E491F4804220092002200F075F91D4BAD
:1015D0001D491E4805220092002200F06DF91C4BA7
:1015E0001C491D4806220092002200F065F91B4BA1
:1015F0001B491C4807220092002200F05DF9C046FA
:1016000005B000BDFFFF00004D13000825130008C2
:10161000E8000020D513000808000240FC0000206C
:10162000FD1300081C0002402001002025140008C2
:1016300030000240440100204D14000844000240E4
:101640006801002075140008580002408C01002039
:101650009D1400086C000240B0010020C514000871
:1016600080000240D401002010B5034B1900012076
:10167000FFF77CFF10BDC046FFFF000000B585B03E
:101680001A4B1B680F22134003930F230293039BF3
:1016900001936B46033300221A70154B1B686A4690
:1016A00003321278029991400A00D2431A40029BF9
:1016B000019919406B4603331B7899400B001A437C
:1016C0000B4B1A60C046039B0822134003D0094B02
:1016D000180000F02CF9039B0322134003D0054BA4
:1016E000180000F01CF9C04605B000BD0000024023
:1016F00004000240FC00002000B585B0264B1B68AA
:101700001B090F22134003930F230293039B0193A2
:101710006B46033304221A70204B1B686A4603325F
:101720001278029991400A00D2431A40029B019913
:1017300019406B4603331B7899400B001A43174B33
:101740001A60C046039B0822134003D0144B1800B4
:1017500000F0EDF8039B0322134003D0104B180058
:1017600000F0DDF80C4B1B681B0A0F22134003939B
:10177000039B0822134003D00A4B180000F0D7F84F
:10178000039B0322134003D0064B180000F0C7F858
:10179000C04605B000BDC046000002400400024043
:1017A000200100204401002000B585B03C4B1B689F
:1017B0001B0B0F22134003930F230293039B0193F0
:1017C0006B4603330C221A70364B1B686A46033291
:1017D0001278029991400A00D2431A40029B019963
:1017E00019406B4603331B7899400B001A432D4B6D
:1017F0001A60C046039B0822134003D02A4B1800EE
:1018000000F095F8039B0322134003D0264B1800E9
:1018100000F085F8224B1B681B0C0F22134003932A
:10182000039B0822134003D0204B180000F07FF8E0
:10183000039B0322134003D01C4B180000F06FF8E9
:10184000174B1B681B0D0F2213400393039B0822A9
:10185000134003D0164B180000F069F8039B0322D5
:10186000134003D0124B180000F059F80C4B1B68C2
:101870001B0E0F2213400393039B0822134003D037
:101880000C4B180000F053F8039B0322134003D0C5
:10189000084B180000F043F8C04605B000BDC04634
:1018A0000000024004000240680100208C0100207A
:1018B000B0010020D401002000B585B00390029152
:1018C000019200930398009A0199002300F058F8C0
:1018D000039B1433180001F051FF039B029A1A6214
:1018E00006AB1B78013BDAB2039B9A77039B180087
:1018F00005B000BD82B00190019B1B6A1A68019B74
:101900001B6A02210A431A60019B1B6A1A68019B29
:101910001B6A08210A431A60C04602B0704782B0B1
:101920000190019B01221A77C04602B0704782B035
:101930000190019B01225A77C04602B07047000017
:1019400000B583B001900091019B012B07D1009B52
:10195000044A934203D1044B180001F00FFFC04624
:1019600003B000BDFFFF0000F801002010B5034BDD
:1019700019000120FFF7E4FF10BDC046FFFF000083
:1019800000B585B00390029101920093039B0C3344
:10199000180001F0F3FE039B029A1A60039B019A60
:1019A0005A60039B009A9A60039B180005B000BD23
:1019B00000B583B001900A006B4603331A70019B97
:1019C0001B68002B06D0019B1B686A460332127805
:1019D00010009847C04603B000BD00B583B0019029
:1019E0000A006B4603331A70019B5B68002B06D01C
:1019F000019B5B686A460332127810009847C04624
:101A000003B000BD00B585B0039002910192039828
:101A1000019A02990023FFF7B3FF039B180005B05A
:101A200000BD000000B583B001900091019B012B27
:101A300009D1009B054A934205D1054B00220021A4
:101A40001800FFF7DFFFC04603B000BDFFFF000036
:101A50000002002010B5034B19000120FFF7E2FF40
:101A600010BDC046FFFF000000B585B00390029195
:101A700001920398019A02990023FFF781FF039BCB
:101A8000180005B000BD000084B001900091264B05
:101A90001B68DB0ADAB20F236B4403210A401A7079
:101AA0000F236B441B78032B29D03ADC012B02D087
:101AB000022B12D035E0009B1C4A934206D91C4BE6
:101AC0001A681B4B01210A431A602AE0184B1A6856
:101AD000174B01218A431A6023E0009B154A934269
:101AE00006D9134B1A68124B01210A431A6018E0F9
:101AF0000F4B1A680E4B01218A431A6011E0009BBC
:101B00000D4A934206D90A4B1A68094B01210A4330
:101B10001A6005E0064B1A68054B01218A431A60DA
:101B2000C046C04604B07047007000400024F40076
:101B30000020024000127A0080841E0082B00190D2
:101B40000A006B4603331A706B4603331B78002B75
:101B500006D0084B1A68074B02210A431A6005E0B9
:101B6000044B1A68034B02218A431A60C04602B034
:101B70007047C0460020024082B001900A006B46C8
:101B800003331A706B4603331B78002B06D0084BC7
:101B90001A68074B40210A431A6005E0044B1A6893
:101BA000034B40218A431A60C04602B07047C046CA
:101BB0000020024000B583B001900091019B012BF1
:101BC00009D1009B054A934205D1054B0022002113
:101BD0001800FFF749FFC04603B000BDFFFF00003B
:101BE0001402002010B5034B19000120FFF7E2FF9B
:101BF00010BDC046FFFF000086B001900800110034
:101C00006B460333021C1A706B4602330A1C1A70AF
:101C10006B46DA1C6B4603331B78DB181370019A92
:101C20006B4602331B7805920322049203930B2325
:101C30006B446A46033212781A70059B1B680B22AC
:101C40006A441278049991400A00D2431A40049BD6
:101C5000039919400B236B441B7899400B001A43DE
:101C6000059B1A60C046C04606B070478AB0019016
:101C7000080011006B460333021C1A706B460233D6
:101C80000A1C1A706B4603331B78072B2CD86B4643
:101C900003336A460332127892001A70019B203394
:101CA0001A006B4602331B7809920F2208920793A1
:101CB0001B236B446A46033212781A70099B1B6817
:101CC0001B226A441278089991400A00D2431A40B4
:101CD000089B079919401B236B441B7899400B0004
:101CE0001A43099B1A6038E06B4603331B780F2BAD
:101CF00033D86B4603336A4603321278083A1A70B7
:101D00006B4603336A460332127892001A70019BC5
:101D100024331A006B4602331B7805920F2204927B
:101D200003930B236B446A46033212781A70059BA7
:101D30001B680B226A441278049991400A00D2432E
:101D40001A40049B039919400B236B441B7899405C
:101D50000B001A43059B1A60C046C0460AB0704784
:101D600086B00190080011006B460333021C1A7004
:101D70006B4602330A1C1A706B46DA1C6B4603333F
:101D80001B78DB181370019B08331A006B46023373
:101D90001B7805920322049203930B236B446A463B
:101DA000033212781A70059B1B680B226A44127862
:101DB000049991400A00D2431A40049B03991940A8
:101DC0000B236B441B7899400B001A43059B1A6048
:101DD000C046C04606B0704782B0019008001100AE
:101DE0006B460333021C1A706B4602330A1C1A70CE
:101DF0006B4602331B78002B0BD0019B5B686A4655
:101E000003321278012191400A001A43019B5A6063
:101E10000BE0019B5B686A46033212780121914016
:101E20000A00D2431A40019B5A60C04602B0704774
:101E300000B583B002006B4607331A706B46073358
:101E40001A78044B11001800FFF728F8C04603B0B9
:101E500000BDC046C500002000B583B002006B463F
:101E600007331A706B4607331A78044B11001800B9
:101E7000FFF732F8C04603B000BDC046C5000020E1
:101E800000B583B002006B4607331A706B46073308
:101E90001A78044B11001800FFF75AF8C04603B037
:101EA00000BDC046C500002000B583B002006B46EF
:101EB00007331A706B4607331A78044B1100180069
:101EC000FFF764F8C04603B000BDC046C50000205F
:101ED00000B583B002006B4607331A706B460733B8
:101EE0001A78044B11001800FFF76EF8C04603B0D3
:101EF00000BDC046C500002000B585B0039002912A
:101F0000019200930398009A01990023FFF738FD8E
:101F1000039B029A5A61039A06AB1B781376039BC4
:101F2000180005B000BD10B582B001900C00100083
:101F300019006B460333221C1A706B460233021CD5
:101F40001A706B4601330A1C1A70019B58696B4664
:101F500003331B7802221900FFF74EFE019B5869DC
:101F60006B4602331A786B4603331B781900FFF770
:101F70007DFE019B58696B4601331A786B4603332B
:101F80001B781900FFF7ECFE019B586904AB1A7827
:101F90006B4603331B781900FFF71EFFC04602B0E3
:101FA00010BD10B582B001900C00100019006B46F6
:101FB0000333221C1A706B460233021C1A706B46E4
:101FC00001330A1C1A70019B58696B4603331B7856
:101FD00001221900FFF710FE019B58696B4602337E
:101FE0001A786B4603331B781900FFF7B9FE019B83
:101FF00058696B4601331A786B4603331B78190016
:10200000FFF7EAFEC04602B010BD82B001900800A2
:1020100011006B460333021C1A706B4602330A1C14
:102020001A706B4602331B78002B0ED0019B5B6944
:102030005A696B4603331B78012199400B00190044
:10204000019B5B690A435A610EE0019B5B695A6917
:102050006B4603331B78012199400B00DB431900C9
:10206000019B5B690A405A61C04602B0704700009C
:1020700000B585B003900291039B012B34D1029BE4
:102080001B4A934230D11B4AA023D9051A4800238A
:1020900000930023FFF730FF184A1949194801231C
:1020A00000930023FFF728FF144A1749174802231B
:1020B00000930023FFF720FF154A16491648032313
:1020C00000930023FFF718FF144A1549154804230D
:1020D00000930023FFF710FF134A14491448072305
:1020E00000930023FFF708FFC04605B000BDC046BF
:1020F000FFFF0000311E000828020020591E0008C2
:10210000000400504402002000080050600200203B
:10211000811E0008000C00507C020020A91E00084F
:102120000010005098020020D11E0008001C005032
:10213000B402002010B5034B19000120FFF798FFEF
:1021400010BDC046FFFF000000B583B00190019BA9
:10215000180001F0A3FA019B143318000023002299
:102160000021FFF70DFC019B180003B000BD00002B
:1021700000B583B001900091019B012B0FD1009B12
:10218000084A93420BD1084B1800FFF7DDFF074BBD
:102190001800FFF7D9FF064B1800FFF7D5FFC04620
:1021A00003B000BDFFFF0000D0020020F8020020B5
:1021B0002003002010B5034B19000120FFF7D8FFC2
:1021C00010BDC046FFFF000082B002006B4607331F
:1021D0001A706B4606330A1C1A706B4607331B785D
:1021E0001F2B17D86B4606331B78002B07D06B4686
:1021F00007331B7801229A402B4B1A6051E06B4643
:1022000007331B7801229A401300274A19008023C4
:10221000D15046E06B4607331B783F2B1ED86B46E8
:1022200007336A4607321278203A1A706B46063333
:102230001B78002B07D06B4607331B7801229A408E
:10224000194B5A602DE06B4607331B7801229A40E8
:102250001300154A19008423D15022E06B4607333E
:102260001B785F2B1DD86B4607336A4607321278FE
:10227000403A1A706B4606331B78002B07D06B462A
:1022800007331B7801229A40074B9A6009E06B469E
:1022900007331B7801229A401300034A1900882350
:1022A000D150C04602B0704700E100E000B583B0F5
:1022B00001900A006B4603331A706B4603331B7898
:1022C00019000920FFF780FFC04603B000BD00B52C
:1022D00083B001900A006B4603331A706B460333D8
:1022E0001B7819000A20FFF76FFFC04603B000BD3E
:1022F00000B583B001900A006B4603331A706B4639
:1023000003331B7819000A20FFF75EFFC04603B0B5
:1023100000BD00B583B001900A006B4603331A700C
:102320006B4603331B7819000B20FFF74DFFC046A7
:1023300003B000BD00B583B001900A006B460333C3
:102340001A706B4603331B7819000B20FFF73CFF14
:10235000C04603B000BD00B583B001900A006B46D3
:1023600003331A706B4603331B7819000B20FFF7F9
:102370002BFFC04603B000BD00B583B001900A003A
:102380006B4603331A706B4603331B7819000B201E
:10239000FFF71AFFC04603B000BD00B583B001903F
:1023A0000A006B4603331A706B4603331B7819001F
:1023B0000F20FFF709FFC04603B000BD00B583B092
:1023C00001900A006B4603331A706B4603331B7887
:1023D00019001020FFF7F8FEC04603B000BD00B59D
:1023E00083B001900A006B4603331A706B460333C7
:1023F0001B7819001120FFF7E7FEC04603B000BDAF
:1024000000B583B001900A006B4603331A706B4627
:1024100003331B7819001220FFF7D6FEC04603B025
:1024200000BD00B583B001900A006B4603331A70FB
:102430006B4603331B7819001B20FFF7C5FEC0460F
:1024400003B000BD00B583B001900A006B460333B2
:102450001A706B4603331B7819001C20FFF7B4FE7B
:10246000C04603B000BD00B583B001900A006B46C2
:1024700003331A706B4603331B7819000C20FFF7E7
:10248000A3FEC04603B000BD0E4B1A680D4B802161
:1024900049000A431A600C4B1A6D0B4B802109034B
:1024A0000A431A65C046C046074B1A6D064B0749DA
:1024B0000A401A65034B1A68024B05490A401A6024
:1024C000C04670470070004000100240FFFFF7FF59
:1024D000FFFEFFFF82B00190034A019B1A60019B3F
:1024E000180002B07047C046F057000800B585B02C
:1024F0000390029101920093039B181D069B009A82
:102500000199FFF73DFA039B1800FFF7E3FF034A29
:10251000039B1A60039B180005B000BDA857000874
:1025200082B00190C04602B07047000082B00190B6
:102530000B4B5B681B0DDBB20F221340DBB21A1C86
:102540009200D318DB18DAB2054B5B681B0CDBB2C8
:102550000F210B40DBB2D318DBB2180002B070477A
:102560000028004010B586B001900A006B46033386
:102570001A70304B5B68059302F036FB02000B00CB
:10258000FA208000002112184B4102920393019B14
:10259000180000F09FFB274BDB68402213405A4293
:1025A0005341DBB2002B17D001F0D2F802F01CFB34
:1025B00002000B000121081C0399994205D80399D8
:1025C000994204D10299914201D90023181CC3B247
:1025D000002BE0D000232AE0059B174A1340059307
:1025E0006B4603331B780A21180002F079FC0300C4
:1025F000DBB20A21180002F087FC0B00DBB21C05DD
:102600006B4603331B780A21180002F07DFC0B0097
:10261000DBB21B0423431A00059B13430593054BB0
:10262000059A5A60019B180000F02CFB012318004A
:1026300006B010BD00280040FFFF00FF82B00190EF
:102640000B4B5B681B0BDBB201221340DBB21A1C85
:102650009200D318DB18DAB2054B5B681B0ADBB2B9
:102660000F210B40DBB2D318DBB2180002B0704769
:102670000028004010B586B001900A006B46033375
:102680001A70304B5B68059302F0AEFA02000B0043
:10269000FA208000002112184B4102920393019B03
:1026A000180000F017FB274BDB68402213405A420A
:1026B0005341DBB2002B17D001F04AF802F094FA34
:1026C00002000B000121081C0399994205D80399C7
:1026D000994204D10299914201D90023181CC3B236
:1026E000002BE0D000232AE0059B174A13400593F6
:1026F0006B4603331B780A21180002F0F1FB03003C
:10270000DBB20A21180002F0FFFB0B00DBB21C0356
:102710006B4603331B780A21180002F0F5FB0B000F
:10272000DBB21B0223431A00059B13430593054BA1
:10273000059A5A60019B180000F0A4FA01231800C2
:1027400006B010BD00280040FFE0FFFF82B00190FE
:102750000B4B5B681B09DBB203221340DBB21A1C74
:102760009200D318DB18DAB2054B5B68DBB20F219D
:102770000B40DBB2D318DBB2180002B07047C04682
:102780000028004010B586B001900A006B46033364
:102790001A70304B5B68059302F026FA02000B00BA
:1027A000FA208000002112184B4102920393019BF2
:1027B000180000F08FFA274BDB68402213405A4282
:1027C0005341DBB2002B17D000F0C2FF02F00CFA2D
:1027D00002000B000121081C0399994205D80399B6
:1027E000994204D10299914201D90023181CC3B225
:1027F000002BE0D0002329E0059B3F229343059363
:102800006B4603331B780A21180002F069FB0300B2
:10281000DBB20A21180002F077FB0B00DBB21C01CF
:102820006B4603331B780A21180002F06DFB0B0086
:10283000DBB223431A00059B13430593054B059A0E
:102840005A60019B180000F01DFA0123180006B021
:1028500010BDC0460028004082B00190044B5B6868
:102860005B0BDBB207221340DBB2180002B07047EB
:102870000028004000B587B001900A006B46033382
:102880001A70254B5B68059302F0AEF902000B004D
:10289000FA208000002112184B4102920393019B01
:1028A000180000F017FA1C4BDB68402213405A4214
:1028B0005341DBB2002B17D000F04AFF02F094F92D
:1028C00002000B000121081C0399994205D80399C5
:1028D000994204D10299914201D90023181CC3B234
:1028E000002BE0D0002313E0059B0C4A1340059316
:1028F0006B4603331B785B031A00059B1343059358
:10290000054B059A5A60019B180000F0BBF90123A2
:10291000180007B000BDC04600280040FF1FFFFFA1
:1029200082B001900B4B1B681B0DDBB203221340DE
:10293000DBB21A1C9200D318DB18DAB2054B1B6805
:102940001B0CDBB20F210B40DBB2D318DBB218003B
:1029500002B070470028004010B586B001900A0010
:102960006B4603331A70304B1B68059302F03CF939
:1029700002000B00FA208000002112184B41029245
:102980000393019B180000F0A5F9274BDB68402258
:1029900013405A425341DBB2002B17D000F0D8FE4F
:1029A00002F022F902000B000121081C0399994250
:1029B00005D80399994204D10299914201D9002383
:1029C000181CC3B2002BE0D000232AE0059B174A55
:1029D000134005936B4603331B780A21180002F05D
:1029E0007FFA0300DBB20A21180002F08DFA0B0017
:1029F000DBB21C056B4603331B780A21180002F07A
:102A000083FA0B00DBB21B0423431A00059B13431C
:102A10000593054B059A1A60019B180000F032F9E6
:102A20000123180006B010BD00280040FFFFC0FFC2
:102A300082B001900B4B1B681B0BDBB207221340CB
:102A4000DBB21A1C9200D318DB18DAB2054B1B68F4
:102A50001B0ADBB20F210B40DBB2D318DBB218002C
:102A600002B070470028004010B586B001900A00FF
:102A70006B4603331A70304B1B68059302F0B4F8B1
:102A800002000B00FA208000002112184B41029234
:102A90000393019B180000F01DF9274BDB684022CF
:102AA00013405A425341DBB2002B17D000F050FEC6
:102AB00002F09AF802000B000121081C03999942C8
:102AC00005D80399994204D10299914201D9002372
:102AD000181CC3B2002BE0D000232AE0059B174A44
:102AE000134005936B4603331B780A21180002F04C
:102AF000F7F90300DBB20A21180002F005FA0B0017
:102B0000DBB21C036B4603331B780A21180002F06A
:102B1000FBF90B00DBB21B0223431A00059B134396
:102B20000593054B059A1A60019B180000F0AAF85E
:102B30000123180006B010BD00280040FF80FFFFF1
:102B400082B001900B4B1B681B09DBB207221340BC
:102B5000DBB21A1C9200D318DB18DAB2054B1B68E3
:102B6000DBB20F210B40DBB2D318DBB2180002B08E
:102B70007047C0460028004010B586B001900A009A
:102B80006B4603331A70304B1B68059302F02CF828
:102B900002000B00FA208000002112184B41029223
:102BA0000393019B180000F095F8274BDB68402247
:102BB00013405A425341DBB2002B17D000F0C8FD3E
:102BC00002F012F802000B000121081C039999423F
:102BD00005D80399994204D10299914201D9002361
:102BE000181CC3B2002BE0D0002329E0059B7F22F4
:102BF000934305936B4603331B780A21180002F0B8
:102C00006FF90300DBB20A21180002F07DF90B0016
:102C1000DBB21C016B4603331B780A21180002F05B
:102C200073F90B00DBB223431A00059B1343059392
:102C3000054B059A1A60019B180000F023F8012348
:102C4000180006B010BDC0460028004000B585B091
:102C500001900B4B1B695B045B0C0393084B9B6A55
:102C6000039AD31A6422534302930399029802F001
:102C700037F903000293029B9BB2180005B000BD18
:102C80000028004000B583B001900F4BDA680E4B6E
:102C900080218A43DA600C4BDB68202213405A42C1
:102CA0005341DBB2002B02D000F052FDF3E7064B9C
:102CB00000225A62054B1A68044B05490A401A6003
:102CC000C04603B000BDC046002800400070004070
:102CD000FFFEFFFF82B001900A4B1A68094B80216A
:102CE00049000A431A60084BCA225A62064B532213
:102CF0005A62054BDA68044B80210A43DA60C04609
:102D000002B07047007000400028004000B585B058
:102D100003900291039B012B0BD1029B064A934225
:102D200007D106490648074B009300230022FFF70E
:102D3000DDFBC04605B000BDFFFF000000280040DD
:102D40004C0300208924000810B5034B1900012012
:102D5000FFF7DCFF10BDC046FFFF000000B583B0E9
:102D600002006B4607331A706B4607331A78044B20
:102D700011001800FEF75CFAC04603B000BDC04663
:102D8000C500002000B585B0039002910192039820
:102D9000019A02990023FEF7F3FD039B180005B08A
:102DA00000BD000000B583B001900091019B012B94
:102DB00009D1009B054A934205D10549054B0022E4
:102DC0001800FFF7DFFFC04603B000BDFFFF0000A3
:102DD0005D2D00086403002010B5034B190001208D
:102DE000FFF7E0FF10BDC046FFFF000010B5034B2A
:102DF0001800FEF72BF80300180010BDC4000020D7
:102E000000B583B002006B4607331A706B46073378
:102E10001A78044B11001800FEF7F4F8C04603B00E
:102E200000BDC046C500002000B583B002006B465F
:102E300007331A706B4607331A78044B11001800D9
:102E4000FFF7ABFAC04603B000BDC0464803002000
:102E500010B58023DB05DB680122134007D08023F7
:102E6000DB051B690122134001D0012300E0002390
:102E7000002B08D08023DB05022252421A61034B4B
:102E8000180000F05CF9C04610BDC0467803002071
:102E900000B583B002006B4607331A706B460733E8
:102EA0001A78044B11001800FEF7CAF8C04603B0A8
:102EB00000BDC046C500002000B583B002006B46CF
:102EC00007331A706B4607331A78044B1100180049
:102ED000FFF774FAC04603B000BDC04648030020A7
:102EE00010B50C4BDB680122134006D0094B1B695F
:102EF0000122134001D0012300E00023002B07D062
:102F0000044B022252421A61034B180000F017F9D9
:102F1000C04610BD00040040E003002000B583B0AF
:102F200002006B4607331A706B4607331A78044B5E
:102F300011001800FEF7A2F8C04603B000BDC0465D
:102F4000C500002000B583B002006B4607331A703D
:102F50006B4607331A78044B11001800FFF73FFA4D
:102F6000C04603B000BDC0464803002010B50C4B5E
:102F7000DB680122134006D0094B1B690122134074
:102F800001D0012300E00023002B07D0044B0222D4
:102F900052421A61034B180000F0D1F8C04610BD30
:102FA000001000404804002000B583B002006B46CA
:102FB00007331A706B4607331A78044B1100180058
:102FC000FEF77AF8C04603B000BDC046C500002039
:102FD00000B583B002006B4607331A706B460733A7
:102FE0001A78044B11001800FFF70AFAC04603B024
:102FF00000BDC0464803002010B50C4BDB68012221
:10300000134006D0094B1B690122134001D0012354
:1030100000E00023002B07D0044B022252421A6129
:10302000034B180000F08BF8C04610BD00140040A0
:10303000B004002000B585B0039002910192009386
:103040000398009A01990023FEF79AFC039B029AC9
:103050005A61039B069A1A65039B00225A650399DD
:10306000002200238A61CB61039B00229A65039BA7
:103070000022DA65039B00221A66039B00225A662F
:10308000039B180005B000BD00B583B00190019B03
:10309000180000F041F803000E49180001F020FF6D
:1030A00003009BB25A1E019B5B699A62019B5B699C
:1030B000094ADA62019B5B69074A5A62019B5B69B4
:1030C000DA68019B5B6901210A43DA60C04603B0FC
:1030D00000BDC04640420F0060EA000082B001908F
:1030E000019B5B691A68019B5B6901210A431A60B5
:1030F000C04602B0704782B00190019B5B695B6A79
:10310000180002B07047000082B00190014B180017
:1031100002B0704760EA000000B583B00190019BE7
:103120001B6D98470300180003B000BD82B00190EA
:103130000091019B009A5A65C04602B0704700B5E5
:1031400083B00190019B5B6D002B02D0019B5B6DF6
:103150009847019B9A69DB690120002112184B41B5
:1031600001998A61CB61C04603B000BD10B584B03F
:1031700003900291039B012B2BD1029B164A934291
:1031800027D1164C164A8023D9051648164B0093B2
:103190002300FFF74FFF1549154A164C1648124BEE
:1031A00000930B002100FFF745FF1449144A154C0A
:1031B00015480D4B00930B002100FFF73BFF13490F
:1031C000134A144C1448084B00930B002100FFF7DE
:1031D00031FFC04604B010BDFFFF0000292E0008DB
:1031E000012E000878030020ED2D0008B92E0008FC
:1031F000912E000800040040E0030020452F000845
:103200001D2F00080010004048040020D12F0008A6
:10321000A92F000800140040B004002010B5034B93
:1032200019000120FFF7A2FF10BDC046FFFF0000FC
:1032300010B5034B1800FDF7EFFD0300180010BD9B
:10324000C400002010B5034B1800FDF7CBFD0300B0
:10325000180010BDC400002000B583B002006B460A
:1032600007331A706B4607331A78044B11001800A5
:10327000FDF75EFFC04603B000BDC046C50000209C
:1032800000B583B002006B4607331A706B460733F4
:103290001A78044B11001800FFF7C3F8C04603B0BA
:1032A00000BDC0464803002010B5034B180000F0D5
:1032B000E9F8C04610BDC0461805002000B583B02F
:1032C00002006B4607331A706B4607331A78044BBB
:1032D00011001800FDF74CFFC04603B000BDC0460A
:1032E000C500002000B583B002006B4607331A709A
:1032F0006B4607331A78044B11001800FFF7A2F849
:10330000C04603B000BDC0464803002010B5034BC3
:10331000180000F0B7F8C04610BDC0465C0500209C
:1033200010B584B00390029101920093039B1800A2
:1033300000F0B4F9039B14331800009A019900239C
:10334000FEF71EFB0398029B28331A0008AB1C886B
:1033500007AB1978230000F0AAF9039B099ADA62F7
:10336000039B069A1A64039B029A9A62039B0022AB
:103370001A63039B00229A63039B0022DA63039B78
:10338000180004B010BD00B587B0039002910192FF
:10339000039BDB6A984703000493039B1B6B002B82
:1033A00006D0039B1B6B002B02D0180000F08BFF94
:1033B000019B180000F07CFF03001A00039B1A63B6
:1033C000039B1B6B002B01D1002336E0039B019A6A
:1033D0005A630299049801F083FD03000593059B4D
:1033E0009AB2039B9B6ADA60039B9B6A1A68039BF1
:1033F0009B6A08210A431A60039B9B6A1A68039B15
:103400009B6A04210A431A60039B9B6A9A68039B88
:103410009B6A80210A439A60039B9B6A1A68039BFC
:103420009B6A20210A431A60039B9B6A1A68039BCC
:103430009B6A01210A431A600123180007B000BDEE
:1034400082B001900A006B4603331A70019B1B6B1C
:10345000002B14D0019B196B019BDB6B581C019A4C
:10346000D063CB186A46033212781A70019BDA6B6C
:10347000019B5B6B9A4202D3019B0022DA63C04638
:1034800002B0704700B585B00190019B9B6ADB6973
:103490000393019B9B6A5B6ADAB2019B11001800DF
:1034A000FFF7CEFF039B0822134003D0019B1800B7
:1034B00000F003F8C04605B000BD82B00190019B4A
:1034C00000229A63019B9A6B019BDA63C04602B0AB
:1034D0007047000010B586B005900491059B012B44
:1034E00023D1049B124A93421FD11249124A134C12
:1034F0001348144B03930023029303230193124BAD
:1035000000930B002100FFF70BFF1049104A114CEC
:103510001148124B03930023029304230193104B91
:1035200000930B002100FFF7FBFEC04606B010BD64
:10353000FFFF0000813200085932000800380140C6
:10354000180500203132000820010020E532000873
:10355000BD320008004400405C05002045320008F0
:103560006801002010B5034B19000120FFF7B2FFDE
:1035700010BDC046FFFF000010B500F003F8C046C4
:1035800010BD000010B590B008230C9301235B42DE
:103590000F9301235B420E9302AB3C4A13CA13C341
:1035A00013CA13C313CA13C3394B012200211800D5
:1035B000FDF74EF8364B08211800FCF7C1FF002339
:1035C0000D930D9B082B1ADC02AB0D9A9200D2587A
:1035D0000C9B53430B930B9B402B04D10D9B0F93E0
:1035E00001230E930BE00B9B602B04D10D9B0F93DB
:1035F00002230E9303E00D9B01330D93E1E70F9B34
:10360000002B17DB0E9B002B14DB0F9BDAB20E9BFB
:10361000DBB21F480121FDF793F81D4B0121180073
:10362000FDF706FA1A480023009300230022032125
:10363000FDF752FA174B01211800FEF77FFA154BE0
:1036400001211800FEF798FA134B01211800FDF72D
:1036500025FC114B01211800FDF73EFC0E4B01210A
:103660001800FDF757FC0C4B01211800FDF770FC0A
:10367000094B01211800FDF789FC074B01211800B7
:10368000FDF7A2FCC04610B010BDC046305800087F
:10369000C400002014020020C500002082B0019068
:1036A000019B00221A74019B180002B0704784B07D
:1036B00003900800019219000B236B44021C1A703E
:1036C00002AB0A1C1A80039B01221A74039B0B2273
:1036D0006A4412781A70039B0B226A4412785A705B
:1036E000039B019A5A60039B019A9A60039B02AA6A
:1036F00012889A81C04604B07047000018480168DB
:1037000001221207114301607047EFF30980154B46
:103710000021196073462438F8C043464C4655468C
:103720005E46243878C000F097FC143078C898467C
:10373000A146AA46B3460B4B0721196000219960A8
:103740002438F8C8103080F3098808B400BDC0469A
:10375000034801680122120711430160704700000D
:1037600004ED00E010E000E082B00190024B012285
:103770001A70C04602B07047A005002082B00190C8
:10378000019B00221A60019B00225A60019B1800D5
:1037900002B0704700B585B0019000F0A5FA72B68E
:1037A000C046019B1B680393019B1B685A1C019B2D
:1037B0001A6062B6C046019B5B68039AD31A5A1E10
:1037C0009341DBB2002B02D0FFF7C2FFF3E7039B6C
:1037D000180005B000BD000000B583B0019072B6BE
:1037E000C046019B5B685A1C019B5A6062B6C0468A
:1037F00000F09EFA094B1B78002B07D0019B1A683A
:10380000019B5B689A4201D0012300E00023002B5A
:1038100001D0FFF79DFFC04603B000BDA00500200A
:1038200010B5094B01221A73074B01225A738023EA
:103830009A00064B1100180000F0CEF9044B01224B
:103840001A70C04610BDC046A405002055380008B7
:10385000300D002000B583B04D4B1800FFF79AFFE4
:1038600000230193019B3F2B00DD88E04949019A29
:103870001300DB009B1A9B00CB180C331B78012232
:103880005340DBB2002B32D04249019A1300DB00D7
:103890009B1A9B00CB180E331B7801225340DBB2DE
:1038A000002B24D03B49019A1300DB009B1A9B009C
:1038B000CB180D331B78002B19D03649019A130011
:1038C000DB009B1A9B005B58180000F0BDFC3149DF
:1038D000019A1300DB009B1A9B00CB180D330022CA
:1038E0001A702D4B1B88013B9AB22B4B1A80294929
:1038F000019A1300DB009B1A9B00CB180E331B7838
:10390000002B38D02349019A1300DB009B1A9B003F
:10391000CB180C331B7801225340DBB2002B2AD08A
:103920001C49019A1300DB009B1A9B00CB18103333
:103930001B7801225340DBB2002B1CD0019B1800E6
:1039400000F0C6FA1349019A1300DB009B1A9B0092
:10395000CB180F331B78002B0DD00E49019A1300A2
:10396000DB009B1A9B00CB180F3300221A70019BBF
:10397000180000F047FA019B0133019372E7044BF2
:103980001800FFF729FFFFF7E3FE01F06FF963E787
:10399000280D0020A40500200000002010B586B0EE
:1039A000039002910192834B1800FFF7F3FE824BC4
:1039B0001B883F2B06D97F4B1800FFF70DFF012313
:1039C0005B42F4E001230593059B3F22D80FD117FA
:1039D0009A4248410300DBB2002B1CD0059A77497C
:1039E0001300DB009B1A9B00CB180D331B780122C0
:1039F0005340DBB2002B0AD0059A70491300DB005C
:103A00009B1A9B00CB180D3301221A7003E0059B13
:103A100001330593D8E7019B059C180000F0DEFBFD
:103A20000100664A2300DB001B1B9B009950059A8E
:103A300062491300DB009B1A9B005B585A425341BA
:103A4000DBB2002B10D0059A5C491300DB009B1AF7
:103A50009B00CB180D3300221A70564B1800FFF74D
:103A6000BBFE01235B42A2E0059A54491300DB0030
:103A70009B1A9B00CB180833019A1A60019B9B107C
:103A80000193059A4D491300DB009B1A9B005A587D
:103A9000019B4B498C4663449B00D318C222D2053C
:103AA0001A60059A45491300DB009B1A9B005A587F
:103AB000019B44498C4663449B00D318039A1A60C7
:103AC000059A3E491300DB009B1A9B005A58019B44
:103AD0003D498C4663449B00D3183C4A1A60059AC2
:103AE00036491300DB009B1A9B005A58019B38494A
:103AF0008C4663449B00D318029A1A60059A2F499A
:103B00001300DB009B1A9B005A58019B31498C46DD
:103B100063449B00D318032252421A60059A274936
:103B20001300DB009B1A9B005958019B294A9446BD
:103B300063449B00059AC91820481300DB009B1AB8
:103B40009B00C31804331960059A1C491300DB005D
:103B50009B1A9B00CB18123300221A80059A174932
:103B60001300DB009B1A9B00CB180E3300221A7047
:103B7000059A12491300DB009B1A9B00CB181433E3
:103B8000039A1A60059A0D491300DB009B1A9B00EB
:103B9000CB180C3301221A70074B1B8801339AB2E1
:103BA000054B1A80034B1800FFF716FE059B180003
:103BB00006B010BD280D002000000020A405002044
:103BC000FFFFFF3FFEFFFF3FFDFFFF3F793D000886
:103BD000F8FFFF3FEFFFFF3F00B583B0019000917A
:103BE000009A019B00211800FFF7D8FE030018007F
:103BF00003B000BD00B583B001903749019A1300AE
:103C0000DB009B1A9B00CB18123300229B5E002B1B
:103C100002DDFFF79DFDF0E7304B1800FFF7BAFD1E
:103C20002F4B1B881A00019B93424DD0019B002B08
:103C30004ADD2949019A1300DB009B1A9B00CB182F
:103C40000D331B78012B3FD12349019A1300DB0070
:103C50009B1A9B00CB180C3300221A701E49019A44
:103C60001300DB009B1A9B00CB180D3300221A7047
:103C70001949019A1300DB009B1A9B005B5818003E
:103C800000F0E2FA1449019A1300DB009B1A9B0032
:103C900000225A501049019A1300DB009B1A9B0026
:103CA000CB18043300221A600B49019A1300DB0081
:103CB0009B1A9B00CB18083300221A60094B1B8803
:103CC000013B9AB2074B1A80044B1800FFF784FDA2
:103CD000C04603B000BDC046A4050020280D00204A
:103CE000240D00200000002072B6C0460E4B1B8839
:103CF0001A000E491300DB009B1A9B00CB181233ED
:103D000000215B5E9BB201339BB218B207491300DE
:103D1000DB009B1A9B00CB181233021C1A8062B680
:103D2000C046C0467047C046240D0020A4050020B0
:103D300072B6C0460E4B1B881A000E491300DB00FA
:103D40009B1A9B00CB18123300215B5E9BB2013B98
:103D50009BB218B207491300DB009B1A9B00CB18DB
:103D60001233021C1A8062B6C046C0467047C04675
:103D7000240D0020A405002010B5084B1B88190055
:103D8000074A0B00DB005B1A9B00D3180C330022A0
:103D90001A70FFF7DDFCC04610BDC046240D0020A0
:103DA000A405002030B585B0019000F05FFF019AB6
:103DB00013005B019B1A9B009B18DB001C00002377
:103DC0001D0002000B0012196B410292039300F0D8
:103DD0004DFF02000B000121081C0399994205D8F0
:103DE0000399994204D10299914201D90023181CE8
:103DF000C3B2002B02D1FFF7ABFCE8E7C04605B029
:103E000030BD000084B0019072B6C0462D49019AC1
:103E10001300DB009B1A9B00CB180C331B7801228C
:103E20005340DBB2002B3ED02649019A1300DB0041
:103E30009B1A9B00CB1810331B78002B33D02149E1
:103E4000019A1300DB009B1A9B00CB180C33012254
:103E50001A700E236B4400221A800E236B441B88B9
:103E60003F2B18D80E236B441A88174B5200D35A95
:103E7000002B08D10E236B441A88019B99B2124B78
:103E80005200D15207E00E236B441A880E236B4474
:103E900001321A80E1E70D4B1A680C4B802149056D
:103EA0000A431A6009E00749019A1300DB009B1AD4
:103EB0009B00CB180F3301221A7062B6C046C04671
:103EC00004B07047A4050020A40C002004ED00E01D
:103ED00084B001904649019A1300DB009B1A9B00B5
:103EE000CB1808331B689B1003934149019A1300B8
:103EF000DB009B1A9B005A58039B3E498C46634447
:103F00009B00D318C222D2051A603949019A1300C6
:103F1000DB009B1A9B00CB18143318683449019AB4
:103F20001300DB009B1A9B005A58039B32498C46B6
:103F300063449B00D31802001A602D49019A1300B4
:103F4000DB009B1A9B005A58039B2C498C46634408
:103F50009B00D3182A4A1A602549019A1300DB00F6
:103F60009B1A9B00CB18183318682149019A13003B
:103F7000DB009B1A9B005A58039B22498C466344E2
:103F80009B00D31802001A601949019A1300DB0044
:103F90009B1A9B005A58039B1B498C4663449B0009
:103FA000D318032252421A601149019A1300DB0010
:103FB0009B1A9B005A58039B13498C4663449B00F1
:103FC000D1180B48019A1300DB009B1A9B00C31801
:103FD000043319600649019A1300DB009B1A9B0009
:103FE000CB18103301221A70C04604B07047C04687
:103FF000A4050020FFFFFF3FFEFFFF3FFDFFFF3F47
:104000000D400008F8FFFF3FEFFFFF3F10B572B60D
:10401000C0460F4B1B8819000E4A0B00DB005B1AD1
:104020009B00D318103300221A70094B1B8819000B
:10403000084A0B00DB005B1A9B00D3180C330022EC
:104040001A7062B6C046FFF783FBC04610BDC0467B
:10405000240D0020A405002084B0019000230393C8
:10406000494B1B881900494A0B00DB005B1A9B0077
:10407000D3180433019A1A6072B6C046444B1B88A9
:10408000002B41D0424B1A883F4B1A80414B1B7882
:10409000002B04D13C4B1B881A003F4B1A603D4B50
:1040A00001221A7000230393039B3E2B14DC039B15
:1040B0005A1C374B5200D35A002B0CD0039B5A1C6E
:1040C000334B5200D15A324B039A5200D152039BC8
:1040D00001330393E8E7C0462D4B039A52000021B9
:1040E000D15262B6C046284B1B881900274A0B00E4
:1040F000DB005B1A9B00D3180C331B780122534062
:10410000DBB2002B30D000E0C04662B6C046214B87
:104110001B78002B07D0204B1B689AB21A4B1A80D1
:104120001C4B00221A70184B1B8801339AB2164B95
:104130001A80154B1B881900144A0B00DB005B1A10
:104140009B00D3180C331B78002B0DD10E4B1B8812
:1041500001339AB20C4B1A800B4B1B883F2BE8D9CA
:10416000094B00221A80E4E7074B1B881900074A15
:104170000B00DB005B1A9B00D31804331B68019310
:10418000019B180004B07047240D0020A4050020F6
:10419000A40C0020310D0020340D002000B583B0A8
:1041A00001900091019B012B07D1009B044A93428F
:1041B00003D1044B1800FFF7E1FAC04603B000BD7D
:1041C000FFFF0000280D002010B5034B190001204F
:1041D000FFF7E4FF10BDC046FFFF000000B585B04B
:1041E0000190FFF781FD72B6C046144B1B68039324
:1041F000124B1B685A1C114B1A6062B6C046104B1A
:104200001B68039A9A4202D0FFF7A2FAF7E7019AD5
:104210000C4B1100180000F039F90300029372B63C
:10422000C046074B1B685A1C054B1A6062B6C04655
:10423000FFF77EFD029B180005B000BD4839002045
:104240004C3900200400002000B585B00190FFF734
:104250004BFD72B6C046134B1B680393114B1B6892
:104260005A1C104B1A6062B6C0460F4B1B68039A6B
:104270009A4202D0FFF76CFAF7E7019A0B4B110054
:10428000180000F001FA72B6C046074B1B685A1CB2
:10429000054B1A6062B6C046FFF74AFDC04605B03E
:1042A00000BDC046483900204C39002004000020E1
:1042B00000B583B00190019B1800FFF78FFF03004A
:1042C000180003B000BD00B583B00190019B180039
:1042D000FFF7BAFFC04603B000BD000010B582B0C2
:1042E000020000916B4607331A706B4607331B7848
:1042F0007F2B2CD8324A6B4607331B785BB29B0866
:10430000C0339B009B586A46073212781100032283
:104310000A40D200FF2191400A00D2431A40110006
:10432000009B9B01FF221A406B4607331B78180045
:1043300003230340DB009A4021486B4607331B7878
:104340005BB29B080A43C0339B001A5035E01D4AFC
:104350006B4607331B7819000F230B40083B9B0863
:1043600006339B00D31804331B686A460732127861
:10437000110003220A40D200FF2191400A00D243DB
:104380001A401100009B9B01FF221A406B46073325
:104390001B78180003230340DB009A4009486B4652
:1043A00007331B781C000F232340083B9B080A435C
:1043B00006339B00C31804331A60C04602B010BD18
:1043C00000E100E000ED00E000B583B00190019B4A
:1043D0005A1E80235B049A4201D3012310E00A4B4A
:1043E000019A013A5A6001235B4203211800FFF74A
:1043F00075FF054B00229A60034B07221A600023C9
:10440000180003B000BDC04610E000E000B583B066
:104410006B461800FFF7B2F96B461800FFF7A4F9D6
:1044200002235B420F211800FFF758FF00F0B4FB96
:10443000FFF7F6F9114B1800FFF7C6FF104B0121EB
:104440001800FDF7B5FA0E4B1800FDF75FF80C4B9E
:1044500001211800FDF7C1FA0A4B01211800FDF7F0
:10446000A7FA094B01211800FDF7A2FA064B01211A
:104470001800FDF7B2FAC04603B000BD204E0000A0
:10448000E8000020640300200002002000B591B085
:104490000190009100230E93019B9B680593019B63
:1044A0001B691900009800F01BFD03000A932723E5
:1044B0006B4400221A7026236B4400221A70019B61
:1044C0001A69009B1100180000F01EFD0B1E02D09F
:1044D0000A9B01330A9300230893019B5A69089BA6
:1044E0009A421ED9019B5968089A13005B009B18D9
:1044F0009B00CB181B68002B0FD1019B5968089AB1
:1045000013005B009B189B00CB180493C04600234C
:10451000079301235B42069305E0089B0133089350
:10452000DBE70023ADE0019BDB685B01079A9A4261
:1045300048D2079B1F22134012D1069B01330693DA
:10454000069B9B00059AD3181B68DB430F930F9BB8
:10455000002B03D1079B1F3307932CE001230C93FF
:1045600027236B441B78002B0ED00F9B0C9A134013
:1045700003D00E9B01330E9313E027236B440022DC
:104580001A7000230E930CE00F9B0C9A134008D076
:1045900027236B4401221A70079B0D930E9B013356
:1045A0000E930A9A0E9B9A4204D126236B44012251
:1045B0001A7007E0C0460C9B5B000C93079B01330D
:1045C0000793B0E726236B441B78002B01D100230F
:1045D00057E0019B1B680393019B1B690D9A534392
:1045E000039AD3180393039A009BD218019B9B69EB
:1045F0009A4201D9002344E00D9B1F22134001225F
:104600009A4013000C930D9B5B090B930E9B002BA0
:104610002DD00C9B002B04D101230C930B9B013359
:104620000B930C9B012B0FD10E9B202B0CD90B9BBA
:104630009B00059AD318012252421A6000230C9362
:104640000E9B203B0E9311E00B9B9B00059AD31809
:1046500019680B9B9B00059AD3180C9A0A431A60A1
:104660000C9B5B000C930E9B013B0E93CEE7039AD1
:10467000049B1A60049B0D9A5A60049B0A9A9A60E4
:10468000039B180011B000BD88B001900091002379
:104690000493019B5B69049A9A4267D2019B596813
:1046A000049A13005B009B189B00CB181B68009AB0
:1046B0009A4219D1019B5968049A13005B009B1818
:1046C0009B00CB180393C046039B9B680593039BF9
:1046D0005B681F22134001229A4013000793039B3B
:1046E0005B685B09069303E0049B01330493D0E706
:1046F000059B002B30D0079B002B04D1012307938F
:10470000069B01330693079B012B0FD1059B202BA2
:104710000CD9019B9A68069B9B00D31800221A6053
:1047200000230793059B203B059314E0019B9A68A7
:10473000069B9B00D3181A68079BD943019B986876
:10474000069B9B00C3180A401A60079B5B000793F7
:10475000059B013B0593CBE7039B00221A60039B5B
:1047600000225A60039B00229A6000E0C04608B015
:10477000704700B585B0039001920A236B440A1C70
:104780001A80039B24331800FEF7F8FF039B0A22CC
:104790006A4412889A830A236B441B889B00180082
:1047A000FFF71CFD0200039B1A600A236B441B8861
:1047B0001800FFF713FD0200039B5A60039B0022C1
:1047C0009A60039B0022DA60039B00221A84039BF9
:1047D0001A8C039BDA83039B222200219954039BAA
:1047E000232200219954039B019A9A61039B18008C
:1047F00005B000BD00B585B0039002910192039B06
:1048000024331800FEF7C6FF039B1A68039BDB8B5B
:104810009B00D318029A1A60039B5A68039BDB8B98
:104820009B00D318019A1A60039BDB8B01339AB269
:10483000039BDA83039BDA8B039B9B8B9A4202D305
:10484000039B0022DA83039B222201219954039BBC
:1048500024331800FEF7C0FFC04605B000BD82B08B
:1048600001900091019B009A1A61C04602B0704706
:1048700082B001900091019B009A5A61C04602B03B
:10488000704700B585B00190019B24331800FEF7F6
:1048900081FF019B22229A5C0F236B4401214A4035
:1048A0001A70019B24331800FEF796FF0F236B4408
:1048B0001B78180005B000BD00B585B00190019BC4
:1048C0001A8C019BDB8B9A424CD0019B9B68002B7E
:1048D00007D0019B9B681800FFF764FA019B002238
:1048E0009A60019B24331800FEF754FF019B1B8C38
:1048F0000393019B232201219954019B2433180027
:10490000FEF76AFF019B1A68039B9B00D3181A6885
:10491000019B5968039B9B00CB181968019B1800E9
:1049200090470200019B5A61019B24331800FEF757
:1049300031FF019B232200219954019B1B8C0133E1
:104940009AB2019B1A84019B1A8C019B9B8B9A4201
:1049500002D3019B00221A84019B24331800FEF726
:104960003BFF0DE0019B24331800FEF713FF019B72
:10497000222200219954019B24331800FEF72CFFBA
:10498000019B5B69180005B000BD00B585B00190C2
:1049900000230393019B00211800FFF769FF019B8F
:1049A00000211800FFF75BFF019B1800FFF769FF6C
:1049B000031E07D0019B00211800FFF750FFFEF7F0
:1049C000C7FE05E0019B1800FFF776FF0300039385
:1049D000039B002BE8D0019B180000F021F8E3E7CF
:1049E00000B583B00190019B24331800FEF7D2FE7E
:1049F000019BDB68002B09D1019B9A690199074B48
:104A00001800FEF7CBFF0200019BDA60019B243304
:104A10001800FEF7E1FEC04603B000BD8B49000858
:104A200000B583B00190019B24331800FEF7B2FE5D
:104A3000019B0022DA83019BDA8B019B1A84019B84
:104A400024331800FEF7C8FEC04603B000BD0000C6
:104A500000B583B0002301930C4B1B781A00019B17
:104A600093420DDA019A13005B009B181B01084A60
:104A70009B18180000F026F8019B01330193EBE727
:104A8000024B00221A70C04603B000BD503900200E
:104A90005039002084B00390029101920023180045
:104AA00004B0704700B583B00190019B5B69002B97
:104AB00004D0019B5B691800FFF79CF8019B18006C
:104AC00003B000BD00B583B00190019B5B69002B72
:104AD00007D0019B5B691800FFF78CF8019B00224F
:104AE0005A61019B00221A60019B00225A60019BBF
:104AF00000221A61019B32225A62019B32229A6281
:104B0000C04603B000BD000010B582B00190054C56
:104B1000044B9C4204D0303C2000FFF7C3FFF7E772
:104B200002B010BD5039002000B583B00190009153
:104B3000019B012B09D1009B054A934205D1054AEF
:104B4000054B1900002000F049FAC04603B000BD33
:104B5000FFFF0000243B0020094B000810B5034B69
:104B600019000120FFF7E0FF10BDC046FFFF000065
:104B7000074B1B68180000231900064B1A685B6876
:104B800012184B4103490A604B60C0467047C0464B
:104B9000280000202000002010B5104B0121180033
:104BA000FCF706FF0D4B1800FEF76EFA0B4B1800D2
:104BB000FEF7AAFA02000A4B1A600A4A074B1100D4
:104BC0001800FEF7B3FA054B01211800FCF705FFAA
:104BD000024B1800FEF782FAC04610BDE003002029
:104BE00028000020714B0008F0B583B01B4B180063
:104BF000FEF781FA03001E0000231F00184B1A68FD
:104C00005B6892197B4100920193164B1A685B68AE
:104C10000199994205D3019999420DD10099914288
:104C20000AD2114B1B681C0000231D00009A019B37
:104C300012196B41009201930A49009A019B0A6084
:104C40004B6000980199FA229200002300F00DF9C0
:104C500002000B001000190003B0F0BDE0030020BB
:104C6000200000205839002028000020F0B583B033
:104C7000184B1800FEF73FFA03001E0000231F0028
:104C8000154B1A685B6892197B4100920193134B94
:104C90001A685B680199994205D3019999420DD12F
:104CA000009991420AD20E4B1B681C0000231D0084
:104CB000009A019B12196B41009201930749009AD7
:104CC000019B0A604B60009A019B1000190003B021
:104CD000F0BDC046E003002020000020583900202D
:104CE0002800002082B00190024B019A1A60C04651
:104CF00002B070476039002000B583B00190009188
:104D0000019B012B0AD1009B064A934206D18023C6
:104D10001A01054B80211800FFF72BFDC04603B098
:104D200000BDC046FFFF00006439002010B5034BF2
:104D300019000120FFF7E0FF10BDC046FFFF000093
:104D400010B5074B1B68002B07D0054B1B681800DC
:104D5000FEF750FF024B00221A60C04610BDC0464D
:104D60009039002000B583B06B46073300221A70DB
:104D70000D4B1B68002B02D1FEF7EAFCF8E7FFF7AA
:104D800067FE094B1B686A46D11D32221800FFF7E7
:104D900081FE6B4607331B78002BFAD06B46073336
:104DA00000221A70F5E7C0469C39002000B583B098
:104DB00001900C4B1800FEF7EDFCFFF7C1FF8023BC
:104DC0009A00094B11001800FEF706FF0200074B7E
:104DD0001A60044B1800FEF7FFFC0023180003B014
:104DE00000BDC04694390020654D00089039002070
:104DF00000B583B001900091019B012B07D1009B6E
:104E0000044A934203D1044B1800FEF7B7FCC04696
:104E100003B000BDFFFF00009439002010B5034B24
:104E200019000120FFF7E4FF10BDC046FFFF00009E
:104E3000FEE7000001D240087047400827490844B7
:104E400070470121084206D101D24008704740084E
:104E500022490844704703D240082049094470475A
:104E600040081E49084409447047F0B50024002555
:104E7000012600278B4200D1824211D892185B4153
:104E800002D2B6197F41F5D903B41846FFF7D9FF0E
:104E9000034603BC03B41046FFF7CCFF024603BC35
:104EA000994200D1904203D3801A9941A4197D41BF
:104EB0007F0803B43046FFF7C4FF064603BC07D2A1
:104EC0005B0803B41046FFF7B5FF024603BCE7E7F3
:104ED00002460B4620462946F0BD00000000008037
:104EE0000A000FD00300400800E052008242FCD9C3
:104EF000002000E05208934200D39B1A40418A42AE
:104F0000F8D17047002070470A0010D00300400815
:104F100000E052008242FCD9002000E05208934297
:104F200000D39B1A40418A42F8D1190070470020F3
:104F30007047000070B5094B1B68002B0CD0084E61
:104F4000084D064C013B9B0098595B5998472368D4
:104F5000013B2360002BF5D170BDC046203A0020F4
:104F6000A43A0020243A00200200074B1B680120CD
:104F70001F2B00D970479800044942500133024A60
:104F800013600020F6E7C046283B0020A03900202F
:104F900070B505000C000D4B1B68002B05D00B4BAA
:104FA0001B6801201F2B07D970BD0948FFF7DCFFE4
:104FB0000028F4D00120F7E79A0006495550064929
:104FC00054500133014A13600020EDE7203A0020DD
:104FD000354F0008243A0020A43A002010B5030001
:104FE00008001900FFF7D4FF10BD704770470FB4D9
:104FF00000B50A2001A900F003F802BC04B008477C
:1050000070B504000D00FFF7F0FF074B1D60802016
:105010000443064B1C601A001368002BFCD1FFF7F9
:10502000E5FF014B186870BD303B00202C3B002091
:1050300010B5024800F004F810BDC04654580008EE
:105040000FB410B5FFF7F4FE10BC08BC04B018474D
:105050002D05000811130008691600086D190008D5
:10506000551A0008E51B000835210008B521000885
:10507000492D0008D92D00081D32000865350008AB
:10508000C94100085D4B00082D4D00081D4E000869
:10509000010000000100000001000000010000000C
:1050A00002000000040000000800000010000000E2
:1050B00001000000010000000100000001000000EC
:1050C00001000000010000000100000001000000DC
:1050D00002000000040000000800000010000000B2
:1050E00040000000800000000001000000020000FD
:1050F0000A23232323232323232323204853452028
:10510000EC9EA5ECB99820EC84A4ECA09520232378
:1051100023232323232323230A0A0000EC99B8EB3B
:10512000B68020ED81ACEBA6ACEC8AA4ED838820A0
:10513000ED81B4EB9FAD203D202564204D487A0AD7
:1051400000000000EC9EA5ECB99820EC84A4ECA033
:105150009520EC8BA4ED8CA82E0A00004853452026
:10516000ED81B4EB9FADEC9DB420EC9E85EBA0A54A
:1051700020ED9788EC9AA920EBB294EC9C84EBA5E7
:10518000BC20ECB488EAB3BCED9688EC8AB5EB8B16
:1051900088EB8BA42E202564206B487A286D696EDD
:1051A00029203C202564206B487A28757365722974
:1051B000203C202564206B487A286D6178292E0ACE
:1051C00000000000EC9EA5ECB99820EC84A4ECA0B3
:1051D0009520EC9984EBA38C2E0A0000ED999CECB1
:1051E00084B1ED999420EB8C80EAB8B020EC8B9CD4
:1051F000EAB084EC9D8420ECB488EAB3BCED9688D8
:10520000EC8AB5EB8B88EB8BA42E0A000A232323B0
:10521000232323232323232048534920EC9EA5EC5A
:10522000B99820EC84A4ECA09520232323232323E6
:10523000232323230A0A0000EB82B4EBB68020ED7F
:1052400081B4EB9FAD203D202564204D487A0A00B3
:105250000A23232323232323232323204D61696E41
:1052600020504C4C20EC9EA5ECB99820EC84A4EC8A
:10527000A09520232323232323232323230A0A0067
:10528000EC9EA5ECB998EAB08020EC9DB4EBAFB8E9
:1052900020ED999CEC84B1ED9994EB9098EC96B448
:1052A00020EC8B9CEC8AA4ED859C20ED81B4EB9FD7
:1052B000ADEC9CBCEBA19C20EC84A4ECA095EB9005
:1052C00098EC96B420EC9E88EC8AB5EB8B88EB8B3F
:1052D000A42E0A00ED81B4EB9FAD20EC868CEC8A05
:1052E000A4EC9D9820EC84A0ED839D20EBB294EC7F
:1052F0009C84EBA5BC20ECB488EAB3BCED9688ECAA
:105300008AB5EB8B88EB8BA42E0A0000EC9DB8ECE1
:105310009E90206D756CEC9D9820EC84A4ECA0957B
:10532000EC9DB420ED9788EC9AA920EBB294EC9C0C
:1053300084EBA5BC20ECB488EAB3BCED9688EC8A7B
:10534000B5EB8B88EB8BA42E2025642875736572D2
:1053500029203C202564286D6178292E0A00000050
:10536000ED81B4EB9FAD20EC868CEC8AA4203D202F
:1053700048534520EC99B8EBB68020ED81ACEBA604
:10538000ACEC8AA4ED83880A000000004853452055
:10539000ED81B4EB9FADEC9DB420ED999CEC84B114
:1053A000ED9994EB9098ECA78020EC958AEC959879
:1053B000EC8AB5EB8B88EB8BA42E0A00ED81B4EB65
:1053C0009FAD20EC868CEC8AA4203D2048534920D8
:1053D000EB82B4EBB6802052432031364D487A0A36
:1053E000000000004D61696E20504C4CEC9D9820EF
:1053F000EC9E85EBA0A520ECA3BCED8C8CEC8898F2
:10540000EAB08020ED9788EC9AA920EBB294EC9C4E
:1054100084EBA5BC20EBB297EC96B4EB82ACEC8AA3
:10542000B5EB8B88EB8BA42E202564286D696E2943
:10543000203C202564287573657229203C20256452
:10544000286D6178292E0A004D61696E20504C4C00
:10545000EC9D982076636F20EC84A4ECA09520EC62
:10546000A3BCED8C8CEC8898EAB08020ED9788EC9A
:105470009AA920EBB294EC9C84EBA5BC20EBB297EC
:10548000EC96B4EB82ACEC8AB5EB8B88EB8BA42E5C
:10549000202564287573657229203C202564286DB9
:1054A0006178292E0A0000004D61696E20504C4C35
:1054B000EC9D9820EC84A4ECA09520ECA3BCED8C92
:1054C0008CEC8898EAB08020ED9788EC9AA920EBC4
:1054D000B294EC9C84EBA5BC20EBB297EC96B4EBB9
:1054E00082ACEC8AB5EB8B88EB8BA42E202564284C
:1054F0006D696E29203C202564287573657229200A
:105500003C202564286D6178292E0A00504C4C20DF
:105510003D202564206B487A0A0000000A232323DB
:10552000232323232323232020EC8B9CEC8AA4ED2C
:10553000859C20ED81B4EB9FAD20EC84A4ECA0957C
:1055400020232323232323232323230A0A000000C9
:10555000EC99B8EBB68020ED81ACEBA6ACEC8AA45C
:10556000ED8388EC9DB420ED9884EC9EAC20EB8F0D
:1055700099EC9E91ECA491EC9DB420EC9584EB8B7E
:1055800099EB8B88EB8BA42E20EBA8BCECA08020A1
:10559000EC99B8EBB68020ED81ACEBA6ACEC8AA41C
:1055A000ED8388EC9D8420ED999CEC84B1ED999479
:1055B00020ED95B4ECA3BCEC84B8EC9A942E0A00D0
:1055C000ED81B4EB9FAD20EC868CEC8AA4203D20CD
:1055D000504C4C0A00000000504C4CEC9DB420EDA7
:1055E0009884EC9EAC20EB8F99EC9E91ECA491EC0E
:1055F0009DB420EC9584EB8B99EB8B88EB8BA42EE0
:1056000020EBA8BCECA08020504C4CEC9D8420EDFD
:10561000999CEC84B1ED999420ED95B4ECA3BCEC8D
:1056200084B8EC9A942E0A00ECA780ECA095EB903D
:105630009C20ED81B4EB9FAD20EC868CEC8AA4EA33
:10564000B08020EC9CA0ED9AA8ED9598ECA7802066
:10565000EC958AEC8AB5EB8B88EB8BA42E0A0000C4
:10566000537973636C6B20ECA3BCED8C8CEC889845
:10567000EAB08020ED9788EC9AA920EBB294EC9CDC
:1056800084EBA5BC20ECB488EAB3BCED9688EC8A28
:10569000B5EB8B88EB8BA42E20256428757365727F
:1056A00029203C202564286D6178292E0A000000FD
:1056B0004150423120ECA3BCED8C8CEC8898EAB0D0
:1056C0008020ED9788EC9AA920EBB294EC9C84EBB7
:1056D000A5BC20ECB488EAB3BCED9688EC8AB5EBA7
:1056E0008B88EB8BA42E2025642875736572292086
:1056F0003C202564286D6178292E0A0041504232F1
:1057000020ECA3BCED8C8CEC8898EAB08020ED975F
:1057100088EC9AA920EBB294EC9C84EBA5BC20EC1D
:10572000B488EAB3BCED9688EC8AB5EB8B88EB8B3A
:10573000A42E202564287573657229203C202564D9
:10574000286D6178292E0A00537973636C6B203DB4
:10575000202564206B487A0A000000004150423145
:10576000203D202564206B487A0A000041504232D7
:10577000203D202564206B487A0A00007408000848
:105780007A08000880080008860800088C080008CD
:105790009208000898080008A40800089E0800085D
:1057A0000000000000000000212500082D25000851
:1057B000652500083D260008752600084D270008CD
:1057C00085270008592800087528000821290008A5
:1057D00059290008312A0008692A0008412B0008CD
:1057E000792B00084D2C000800000000000000008C
:1057F0003150000831500008315000083150000885
:105800003150000831500008315000083150000874
:105810003150000831500008315000083150000864
:105820003150000831500008315000083150000854
:105830000300000004000000060000000800000053
:105840000C00000010000000180000002000000004
:105850003000000050757265207669727475616C55
:105860002066756E6374696F6E2063616C6C65642D
:02587000210015
:1058740001000000480D0020482D0020380D0020B4
:10588400040000004000000000010000482D00203A
:0C589400A015FFFFFFFFFFFF60EA00000F
:040000050800024DA0
:00000001FF
