:020000040800F2
:10000000B843002059020008FD010008FF01000864
:1000100001020008030200080502000800000000B9
:1000200000000000000000000000000007020008BF
:1000300009020008000000003338000825380008D5
:100040000F02000811020008130200081502000840
:1000500017020008190200081B0200081D02000810
:100060001F020008B916000835170008E517000838
:10007000F1040008290200082B020008792F00086B
:100080000930000895300008213100080000000008
:100090003502000837020008390200083B02000858
:1000A0003D0200083F02000841020008D133000869
:1000B0003534000847020008490200084B020008D6
:1000C000304931480A1A02D0072291438D462F4900
:1000D0002F480A1A06D00722914381F30988022289
:1000E00082F314882B482C492C4A00F03AF82C480B
:1000F0002C492D4A00F035F82C482D492D4A00F0A6
:1001000030F82D482D492E4A00F02BF82D482E4965
:100110002E4A00F026F82E482E492F4A00F021F8EA
:100120002E482F492F4A00F01CF82F482F49002253
:1001300000F022F82E482F49002200F01DF81F4839
:100140001F49884205D00268043003B4904703BCBD
:10015000F7E700208646EC4600200021264A90471B
:10016000FEE7884207D0521A05D0037801300B70A1
:100170000131013AF9D17047884202D00270013052
:10018000FAE77047B8430020B83B0020B84B002086
:10019000B843002004680008000000203000002060
:1001A0006002000860020008B45E000804680008ED
:1001B0000000002000000020B45E0008B45E0008CB
:1001C000F45E0008B45E0008B45E0008B45E000887
:1001D000F45E0008F45E0008026800083468000855
:1001E000AC3B0020AC3B002030000020AC3B0020AA
:1001F000AC3B0020AC3B002061020008FEE7FEE7BC
:10020000FEE7FEE7FEE7FEE7FEE7FEE7FEE7FEE7C6
:10021000FEE7FEE7FEE7FEE7FEE7FEE7FEE7FEE7B6
:10022000FEE7FEE7FEE7FEE7FEE7FEE7FEE7FEE7A6
:10023000FEE7FEE7FEE7FEE7FEE7FEE7FEE7FEE796
:10024000FEE7FEE7FEE7FEE7FEE7FEE7034885463A
:1002500003F026FA34E77047FEE700000050002064
:1002600000B583B004F08EF92148002300930023E9
:100270000422022101F0B1FE1D4800230093002357
:100280000422032101F0A9FE1A4B0121180001F0FC
:10029000ADFB80239A0096239901174B180003F0B9
:1002A00006F9144B0121180001F0B5FB104800239A
:1002B0000122052101F0F3FE104B180005F0EAF8C9
:1002C0000F4B00220D21180001F0C5FE0D4B180048
:1002D00005F0D4F90C4B180004F03EFC0B490A4B16
:1002E0000022180004F042FB03F0C6FAFCE7C04607
:1002F0002C0200207805002064050020110300086E
:100300006402002039030008D83900209D570008F6
:1003100000B583B002006B4607331A706B46073393
:100320001A78044B0521180001F0EDFEC04603B019
:1003300000BDC0462C02002010B5064B0D21180050
:1003400001F013FF03001A0001235340DBB2180031
:1003500010BDC0466402002000B583B002006B46A9
:1003600007331A70034B0121180000F03FFFC0460D
:1003700003B000BDC900002000B583B002006B4689
:1003800007331A706B4607331A78044B11001800B4
:1003900002F0FDF8C04603B000BDC0464C0300208B
:1003A00000B587B003900291019200930398009AE0
:1003B0000199002301F002FB039B029A5A61039BFF
:1003C000602200219954039B972200219954002315
:1003D0000593059B112B1EDC039A7321059BD318F3
:1003E0005B1800221A70039B059A063292000021C6
:1003F000D150039A6121059BD3185B1809221A700A
:10040000039A8521059BD3185B180F221A70059B50
:1004100001330593DDE7039B180007B000BD86B0EC
:100420000190019B5B691B6CDB040593019B6022BF
:100430009B5C180013236B44019A73211218521805
:1004400012781A7013236B441A78019B06329200BB
:10045000D358059AD31A0393019B60229B5C190021
:10046000019B61225B189B181B781A00039B1341A8
:10047000039313236B441A78019B06329200D158E0
:1004800013236B441A78039BC918019B0632920010
:10049000D150019B60229B5C0133D9B2019B602249
:1004A0009954019B60229A5C019B97215B5C9A4264
:1004B00003D3019B602200219954019B60229B5C25
:1004C0001900019B73225B189B181B781A000123EB
:1004D00093401A00019B5B699A62019B5B699A6871
:1004E000019B5B6904210A439A60C04606B07047CD
:1004F00010B50C4B5B680422134006D0094B1B68F7
:100500000422134001D0012300E00023002B06D079
:10051000044B04221A60044B1800FFF780FFC0460A
:1005200010BDC046002401403000002000B583B05B
:1005300001900091019B012B09D1009B054A934238
:1005400005D1054B054A06490648FFF729FFC04675
:1005500003B000BDFFFF0000790300085903000845
:10056000002401403000002010B5034B1900012089
:10057000FFF7DCFF10BDC046FFFF000010B584B0E0
:1005800001900A006B4603331A706B4603331978E7
:100590000A005201521A93019B1ADB005B189B015F
:1005A00002932E4B6A46033212781A702C4B1800B5
:1005B00005F04FFC6B4603331A782A4B11001800E4
:1005C00005F047FC029B284A934219D8029B274A10
:1005D000934215D9264B180005F03BFC029BFA22EA
:1005E0009100180005F0AEFB03001C00214AFA231D
:1005F000990021481300220005F02BFC002329E07C
:100600001E4B1A681D4BA021C9020A431A60002321
:100610000393039B1A4A934213D8184B1A688023FA
:100620009B0213405A1E9341DBB2002B05D0154BA1
:10063000180005F00EFC01230CE0039B013303932B
:10064000E7E70B4B180005F004FC0F4B180005F012
:1006500000FC0023180004B010BDC046AC3B0020D5
:10066000545F0008805F00083F420F0040787D0122
:10067000A85F0008A8610000C05F000800100240E9
:100680000F270000286000084060000800B585B012
:100690000190080011006B460333021C1A706B4670
:1006A00002330A1C1A702E4B180005F0D2FB6B4661
:1006B00003331B78002B05D02A4B0421180005F0CA
:1006C000C8FB04E0274B1021180005F0C2FB6B4665
:1006D00003331B78002B06D0234B1A68224B0821CA
:1006E0000A431A6005E0204B1A681F4B08218A4311
:1006F0001A606B4602331B78002B06D01A4B1A681F
:10070000194B01210A431A6005E0174B1A68164B72
:1007100001218A431A6000230393039B134A9342E7
:1007200012D8114B1B68042213405A1E9341DBB2AE
:10073000002B05D00E4B180005F08BFB01230CE0BD
:10074000039B01330393E8E70A4B180005F081FB94
:10075000094B180005F07DFB0023180005B000BD13
:10076000706000089C600008001002400F27000025
:1007700028600008A85F00084060000810B586B037
:1007800001900C00100019006B460333221C1A70F4
:100790006B460233021C1A706B4601330A1C1A7036
:1007A0006B4602331B780493964B180005F051FBFF
:1007B000954BDB689B0803221340033B5A4253418D
:1007C000DBB2002B08D0914B180005F042FB904B98
:1007D000180005F03EFB0EE16B4603331B78012B3E
:1007E00008D98A4B180005F034FB8A4B180005F035
:1007F00030FB00E16B4602331B78082B0CD9834B8E
:10080000180005F026FB6B4602331978824B08224C
:10081000180005F01EFBEEE06B4603331B78012B3E
:1008200023D17E4B180005F014FB774B1A68802308
:100830009B0213405A1E9341DBB2002B0CD0784B25
:100840001B7819000A005201521A93019B1ADB000F
:100850005B189B0105930EE06C4B180005F0F9FA4C
:10086000704B180005F0F5FAC5E06F4B180005F065
:10087000F0FA6E4B0593059B6D4A934203D9059B95
:100880006C4A93420AD9614B180005F0E2FA694BB1
:10089000029A6949694805F0DCFAACE06B4602331C
:1008A0001B78082B1CD89A00654BD3181B689F46F1
:1008B0000323049314E00423049311E00623049318
:1008C0000EE0082304930BE00C23049308E01023AC
:1008D000049305E02023049302E030230493C046F0
:1008E000059B049A53430593059B564A93420AD9A4
:1008F000464B180005F0ADFA524A0599524B1800C4
:1009000005F0A7FA77E06B4601331B780133190035
:10091000059805F017FA03000293029B444A93429C
:1009200003D9029B494A93420AD9384B180005F073
:1009300090FA404B029A4049454805F08AFA5AE03D
:10094000314BDA68304B43490A40DA602E4BDA68A3
:100950006B4603331B7819046B4602331B789B04E8
:1009600019436B4601331B789B050B431900264B3B
:100970000A43DA60244B1A68234B802149040A4356
:100980001A600E236B4400221A800E236B441B88CE
:10099000314A934227D81C4B1A6880239B0413408A
:1009A0005A1E9341DBB2002B15D0029BFA22910014
:1009B000180005F0C7F903001A00284B11001800B1
:1009C00005F047FA264B180005F043FA254B029A2A
:1009D0001A60012313E00E236B441A880E236B4424
:1009E00001321A80D1E7094B180005F032FA1E4B8C
:1009F000180005F02EFA1B4B00221A600023180085
:100A000006B010BDB460000800100240A85F0008E6
:100A1000E46000083861000870610008C4610008E3
:100A2000AC3B0020F0610008206200080024F400C4
:100A30007F841E0000366E0180841E00486200081C
:100A4000E065000800D8B805AC6200080048E8017D
:100A50000C630008FFFF02FF0F270000706300080F
:100A600028600008B03B00204060000884B001907E
:100A70000A006B4603331A70234B9A6B80235B0585
:100A800013405A425341DBB2002B06D01E4B9A6BE7
:100A90001D4B802149050A439A63C046C046C046A3
:100AA000C046C046C046C046C046184B5B681022D0
:100AB00013405A1E9341DBB2002B00D0F5E7134BD5
:100AC0001B680393039B124A13406A460332127851
:100AD000D202134303930D4B039A1A60C046C046DB
:100AE000C046C046C046C046C046C046074B5B68CD
:100AF000102213405A1E9341DBB2002B00D0F5E7C1
:100B00000123180004B0704700100240007000403C
:100B1000FFE7FFFF10B588B001900C00100019002E
:100B20006B460333221C1A706B460233021C1A7088
:100B30006B4601330A1C1A707B4B180005F089F9CB
:100B40006B4603331B78032B31D04CDC012B02D0D6
:100B5000022B07D047E0754B180005F07AF9744B6B
:100B600007934AE0734B180005F073F9724B1A684B
:100B700080239B0213405A425341DBB2002B09D021
:100B80006E4B180005F065F96D4B180005F061F922
:100B90000023C6E06B4B1B7819000A005201521A61
:100BA00093019B1ADB005B189B01079325E0664BC2
:100BB000180005F04EF9604B1A6880239B0413401F
:100BC0005A425341DBB2002B09D05C4B180005F0B0
:100BD00040F95E4B180005F03CF90023A1E05C4BA6
:100BE0001B68079309E0554B180005F032F9594B83
:100BF000180005F02EF9002393E06B4602331A78B3
:100C0000554B9200D3581900079805F09BF8030044
:100C10000693069B514A93420BD9484B180005F0A6
:100C200018F94E4A06994E4B180005F012F90023A8
:100C300077E06B4601331A784A4B9200D35819007B
:100C4000069805F07FF803000593059B434A9342FD
:100C50000BD93A4B180005F0FCF8404A0599424B75
:100C6000180005F0F6F800235BE00AAB1A783D4B5C
:100C70009200D3581900069805F064F80300049315
:100C8000049B364A93420BD92C4B180005F0E1F82F
:100C9000324A0499354B180005F0DBF8002340E098
:100CA000069A334B1100180000F00CFF224BDB6852
:100CB0000393039B032293431A006B4603331B7871
:100CC000134303931C4B039ADA60069BFA229100AC
:100CD000180005F037F803001A00264B1100180021
:100CE00005F0B7F8059BFA229100180005F02AF8E4
:100CF00003001A00204B1100180005F0AAF8049B0D
:100D0000FA229100180005F01DF803001A001B4B91
:100D10001100180005F09DF8194B180005F099F81E
:100D20000123180008B010BD80630008206200088D
:100D30000024F400C461000800100240A85F00080D
:100D4000B4630008AC3B0020246400083C64000845
:100D5000B03B00208C640008145F00080048E801E4
:100D6000C4640008F45E00081465000860650008AB
:100D700018020020AC650008C0650008D0650008B6
:100D80002860000800B585B00190204BDB689B0807
:100D900003221340032B21D025D8012B02D0022B94
:100DA0000FD020E01A4B0393184B1B6810221340FE
:100DB0005A1E9341DBB2002B14D0039B9B08039374
:100DC00010E0144B1B7819000A005201521A9301CB
:100DD0009B1ADB005B189B01039304E00E4B1B681E
:100DE000039300E0C046094BDB681B090F221A4041
:100DF0000A4B9200D3581900039804F0A3FF030094
:100E00000393039B180005B000BDC04600100240CC
:100E10000024F400AC3B0020B03B0020145F00082D
:100E200000B583B00190019B1800FFF7ABFF074BA3
:100E3000DB681B0A07221A40054B9200D3581900A1
:100E400004F080FF0300180003B000BD0010024052
:100E5000F45E000800B583B00190019B1800FFF715
:100E600091FF074BDB68DB0A07221A40054B920013
:100E7000D358190004F066FF0300180003B000BD4A
:100E800000100240F45E000800B585B001900F4BE1
:100E9000DB681B0A07221A400D4B9200D3580293BD
:100EA0000C4B1800FFF76EFF03000299180004F0C6
:100EB00049FF03000393029B012B02D9039B5B00B4
:100EC0000393039B180005B000BDC046001002400C
:100ED000F45E0008C800002082B001900A006B4652
:100EE00003331A706B4603331B78002B06D0084B74
:100EF000DA6A074B01210A43DA6205E0044BDA6A39
:100F0000034B01218A43DA62C04602B07047C046F3
:100F10000010024082B001900A006B4603331A7041
:100F20006B4603331B78002B06D0084BDA6A074B5D
:100F300002210A43DA6205E0044BDA6A034B02211C
:100F40008A43DA62C04602B07047C04600100240D1
:100F500082B001900A006B4603331A706B4603336C
:100F60001B78002B06D0084BDA6A074B04210A4392
:100F7000DA6205E0044BDA6A034B04218A43DA6241
:100F8000C04602B07047C0460010024082B00190D7
:100F90000A006B4603331A706B4603331B78002B31
:100FA00006D0084BDA6A074B08210A43DA6205E0EB
:100FB000044BDA6A034B08218A43DA62C04602B066
:100FC0007047C0460010024082B001900A006B4694
:100FD00003331A706B4603331B78002B06D0084B83
:100FE000DA6A074B10210A43DA6205E0044BDA6A39
:100FF000034B10218A43DA62C04602B07047C046F4
:101000000010024082B001900A006B4603331A7050
:101010006B4603331B78002B06D0084BDA6A074B6C
:1010200080210A43DA6205E0044BDA6A034B80212F
:101030008A43DA62C04602B07047C04600100240E0
:1010400082B001900A006B4603331A706B4603337B
:101050001B78002B06D0084B9A6B074B01210A43E3
:101060009A6305E0044B9A6B034B01218A439A6310
:10107000C04602B07047C0460010024082B00190E6
:101080000A006B4603331A706B4603331B78002B40
:1010900006D0084B9A6B074B02210A439A6305E07E
:1010A000044B9A6B034B02218A439A63C04602B0F9
:1010B0007047C0460010024082B001900A006B46A3
:1010C00003331A706B4603331B78002B06D0084B92
:1010D0009A6B074B10210A439A6305E0044B9A6B05
:1010E000034B10218A439A63C04602B07047C04642
:1010F0000010024082B001900A006B4603331A7060
:101100006B4603331B78002B06D0084B9A6B074BBA
:1011100020210A439A6305E0044B9A6B034B20217C
:101120008A439A63C04602B07047C046001002402E
:1011300082B001900A006B4603331A706B4603338A
:101140001B78002B06D0084B1A6B074B01210A4372
:101150001A6305E0044B1A6B034B01218A431A639F
:10116000C04602B07047C0460010024082B00190F5
:101170000A006B4603331A706B4603331B78002B4F
:1011800007D0084B5A6B074B8021C9010A435A63A9
:1011900005E0044B5A6B034B03490A405A63C046AF
:1011A00002B0704700100240FFBFFFFF82B0019005
:1011B0000A006B4603331A706B4603331B78002B0F
:1011C00007D0084B9A6B074B802189020A439A6328
:1011D00005E0044B9A6B034B03490A409A63C046EF
:1011E00002B0704700100240FFFFFDFF82B0019087
:1011F0000A006B4603331A706B4603331B78002BCF
:1012000007D0084B5A6B074B802189000A435A6369
:1012100005E0044B5A6B034B03490A405A63C0462E
:1012200002B0704700100240FFFDFFFF82B0019046
:101230000A006B4603331A706B4603331B78002B8E
:1012400007D0084B9A6B074B802189050A439A63A4
:1012500005E0044B9A6B034B03490A409A63C0466E
:1012600002B0704700100240FFFFFFDF82B0019024
:101270000A006B4603331A706B4603331B78002B4E
:1012800006D0084B5A6B074B01210A435A6305E00D
:10129000044B5A6B034B01218A435A63C04602B088
:1012A0007047C0460010024000B583B002006B4694
:1012B00007331A70034B01211800FFF7B7FFC04630
:1012C00003B000BDC900002010B5034B1800FFF7A4
:1012D000A7FD0300180010BDC800002000B585B0B0
:1012E00003900291019200930398009A01990023C0
:1012F00000F064FB039B1833180002F0D3FA039B41
:10130000029A5A61039B180005B000BD00B585B074
:1013100003900291039B012B0BD1029B064A93423F
:1013200007D1064A06490748074B00930023FFF7F9
:10133000D5FFC04605B000BDFFFF0000A9120008A0
:1013400000740040CC000020C912000810B5034B07
:1013500019000120FFF7DAFF10BDC046FFFF0000B3
:1013600000B583B002006B4607331A706B46073333
:101370001A78044B11001800FFF7DAFEC04603B0DC
:1013800000BDC046C900002000B583B002006B4616
:1013900007331A706B4607331A781C4B110018007C
:1013A00001F018F86B4607331A78184B1100180033
:1013B00001F021F86B4607331A78144B110018001E
:1013C00001F02AF86B4607331A78104B1100180009
:1013D00001F033F86B4607331A780C4B11001800F4
:1013E00001F03CF86B4607331A78084B11001800DF
:1013F00001F045F86B4607331A78044B11001800CA
:1014000001F04EF8C04603B000BDC0464C030020BA
:1014100000B583B002006B4607331A706B46073382
:101420001A78044B1100180000F0D4FFC04603B036
:1014300000BDC0464C03002000B583B002006B46DF
:1014400007331A706B4607331A78044B11001800E3
:1014500000F0D1FFC04603B000BDC0464C030020E1
:1014600000B583B002006B4607331A706B46073332
:101470001A78044B1100180000F0CEFFC04603B0EC
:1014800000BDC0464C03002000B583B002006B468F
:1014900007331A706B4607331A78044B1100180093
:1014A00000F0CBFFC04603B000BDC0464C03002097
:1014B00000B583B002006B4607331A706B460733E2
:1014C0001A78044B1100180000F0C8FFC04603B0A2
:1014D00000BDC0464C03002000B583B002006B463F
:1014E00007331A706B4607331A78044B1100180043
:1014F00000F0C5FFC04603B000BDC0464C0300204D
:1015000000B583B002006B4607331A706B46073391
:101510001A78044B1100180000F0C2FFC04603B057
:1015200000BDC0464C03002000B585B00390029179
:1015300001920398019A0299002300F03FFA039B5D
:10154000180005B000BD000000B583B001900F4B3E
:10155000180000F0EDF90E4B180000F0E9F90D4B02
:10156000180000F0E5F90C4B180000F0E1F90B4B06
:10157000180000F0DDF90A4B180000F0D9F9094B0A
:10158000180000F0D5F9C04603B000BD00010020EE
:1015900024010020480100206C010020900100205F
:1015A000B4010020D801002000B585B0039002915D
:1015B000039B012B41D1029B214A93423DD1214AF9
:1015C0002149224B1800FFF7AFFF214B2149224848
:1015D00001220092002200F08DF9204B2049214881
:1015E00002220092002200F085F91F4B1F4920487B
:1015F00003220092002200F07DF91E4B1E491F4875
:1016000004220092002200F075F91D4B1D491E486E
:1016100005220092002200F06DF91C4B1C491D4868
:1016200006220092002200F065F91B4B1B491C4862
:1016300007220092002200F05DF9C04605B000BD0F
:10164000FFFF00008913000861130008EC00002070
:10165000111400080800024000010020391400089D
:101660001C000240240100206114000830000240E8
:101670004801002089140008440002406C01002049
:10168000B11400085800024090010020D91400084D
:101690006C000240B40100200115000880000240E7
:1016A000D801002010B5034B19000120FFF77CFF83
:1016B00010BDC046FFFF000000B585B01A4B1B6887
:1016C0000F22134003930F230293039B01936B4656
:1016D000033300221A70154B1B686A4603321278D6
:1016E000029991400A00D2431A40029B0199194085
:1016F0006B4603331B7899400B001A430B4B1A605F
:10170000C046039B0822134003D0094B180000F089
:101710002CF9039B0322134003D0054B180000F063
:101720001CF9C04605B000BD0000024004000240A4
:101730000001002000B585B0264B1B681B090F2255
:10174000134003930F230293039B01936B460333D0
:1017500004221A70204B1B686A46033212780299E1
:1017600091400A00D2431A40029B019919406B46EE
:1017700003331B7899400B001A43174B1A60C0467D
:10178000039B0822134003D0144B180000F0EDF81F
:10179000039B0322134003D0104B180000F0DDF828
:1017A0000C4B1B681B0A0F2213400393039B082258
:1017B000134003D00A4B180000F0D7F8039B032214
:1017C000134003D0064B180000F0C7F8C04605B020
:1017D00000BDC04600000240040002402401002079
:1017E0004801002000B585B03C4B1B681B0B0F2245
:1017F000134003930F230293039B01936B46033320
:101800000C221A70364B1B686A4603321278029912
:1018100091400A00D2431A40029B019919406B463D
:1018200003331B7899400B001A432D4B1A60C046B6
:10183000039B0822134003D02A4B180000F095F8B0
:10184000039B0322134003D0264B180000F085F8B9
:10185000224B1B681B0C0F2213400393039B08228F
:10186000134003D0204B180000F07FF8039B0322A5
:10187000134003D01C4B180000F06FF8174B1B6887
:101880001B0D0F2213400393039B0822134003D028
:10189000164B180000F069F8039B0322134003D095
:1018A000124B180000F059F80C4B1B681B0E0F224E
:1018B00013400393039B0822134003D00C4B1800E2
:1018C00000F053F8039B0322134003D0084B180089
:1018D00000F043F8C04605B000BDC046000002401D
:1018E000040002406C01002090010020B40100209F
:1018F000D801002000B585B00390029101920093B9
:101900000398009A0199002300F058F8039B1433C0
:10191000180001F0C7FF039B029A1A6206AB1B78FE
:10192000013BDAB2039B9A77039B180005B000BD18
:1019300082B00190019B1B6A1A68019B1B6A0221FD
:101940000A431A60019B1B6A1A68019B1B6A0821E3
:101950000A431A60C04602B0704782B00190019BF2
:1019600001221A77C04602B0704782B00190019BF5
:1019700001225A77C04602B07047000000B583B01C
:1019800001900091019B012B07D1009B044A9342D7
:1019900003D1044B180001F085FFC04603B000BD21
:1019A000FFFF0000FC01002010B5034B19000120CF
:1019B000FFF7E4FF10BDC046FFFF000000B585B093
:1019C0000390029101920093039B0C33180001F0E5
:1019D00069FF039B029A1A60039B019A5A60039B5A
:1019E000009A9A60039B180005B000BD00B583B053
:1019F00001900A006B4603331A70019B1B68002B91
:101A000006D0019B1B686A46033212781000984783
:101A1000C04603B000BD00B583B001900A006B461C
:101A200003331A70019B5B68002B06D0019B5B6837
:101A30006A460332127810009847C04603B000BDD2
:101A400000B585B00390029101920398019A029922
:101A50000023FFF7B3FF039B180005B000BD000093
:101A600000B583B001900091019B012B09D1009B2F
:101A7000054A934205D1054B002200211800FFF7CB
:101A8000DFFFC04603B000BDFFFF000004020020DE
:101A900010B5034B19000120FFF7E2FF10BDC0464F
:101AA000FFFF000000B585B00390029101920398FA
:101AB000019A02990023FFF781FF039B180005B0EC
:101AC00000BD000084B001900091264B1B68DB0A2A
:101AD000DAB20F236B4403210A401A700F236B44C0
:101AE0001B78032B29D03ADC012B02D0022B12D019
:101AF00035E0009B1C4A934206D91C4B1A681B4BCD
:101B000001210A431A602AE0184B1A68174B012179
:101B10008A431A6023E0009B154A934206D9134B6F
:101B20001A68124B01210A431A6018E00F4B1A6819
:101B30000E4B01218A431A6011E0009B0D4A93422B
:101B400006D90A4B1A68094B01210A431A6005E0BD
:101B5000064B1A68054B01218A431A60C046C046ED
:101B600004B07047007000400024F40000200240E0
:101B700000127A0080841E0082B001900A006B4639
:101B800003331A706B4603331B78002B06D0084BC7
:101B90001A68074B02210A431A6005E0044B1A68D1
:101BA000034B02218A431A60C04602B07047C04608
:101BB0000020024082B001900A006B4603331A7085
:101BC0006B4603331B78002B06D0084B1A68074B73
:101BD00040210A431A6005E0044B1A68034B402178
:101BE0008A431A60C04602B07047C04600200240D7
:101BF00000B583B001900091019B012B09D1009B9E
:101C0000054A934205D1054B002200211800FFF739
:101C100049FFC04603B000BDFFFF000018020020CE
:101C200010B5034B19000120FFF7E2FF10BDC046BD
:101C3000FFFF000086B00190080011006B460333DF
:101C4000021C1A706B4602330A1C1A706B46DA1CAF
:101C50006B4603331B78DB181370019A6B46023313
:101C60001B7805920322049203930B236B446A466C
:101C7000033212781A70059B1B680B226A44127893
:101C8000049991400A00D2431A40049B03991940D9
:101C90000B236B441B7899400B001A43059B1A6079
:101CA000C046C04606B070478AB0019008001100D7
:101CB0006B460333021C1A706B4602330A1C1A70FF
:101CC0006B4603331B78072B2CD86B4603336A46CD
:101CD0000332127892001A70019B20331A006B466F
:101CE00002331B7809920F22089207931B236B443F
:101CF0006A46033212781A70099B1B681B226A44D9
:101D00001278089991400A00D2431A40089B07991B
:101D100019401B236B441B7899400B001A43099B05
:101D20001A6038E06B4603331B780F2B33D86B46B1
:101D300003336A4603321278083A1A706B4603334B
:101D40006A460332127892001A70019B24331A00FB
:101D50006B4602331B7805920F22049203930B23E8
:101D60006B446A46033212781A70059B1B680B227B
:101D70006A441278049991400A00D2431A40049BA5
:101D8000039919400B236B441B7899400B001A43AD
:101D9000059B1A60C046C0460AB0704786B00190E5
:101DA000080011006B460333021C1A706B460233A5
:101DB0000A1C1A706B46DA1C6B4603331B78DB185F
:101DC0001370019B08331A006B4602331B7805928F
:101DD0000322049203930B236B446A460332127866
:101DE0001A70059B1B680B226A4412780499914073
:101DF0000A00D2431A40049B039919400B236B44F9
:101E00001B7899400B001A43059B1A60C046C046D8
:101E100006B0704782B00190080011006B46033392
:101E2000021C1A706B4602330A1C1A706B4602338E
:101E30001B78002B0BD0019B5B686A46033212783B
:101E4000012191400A001A43019B5A600BE0019B5B
:101E50005B686A4603321278012191400A00D2433E
:101E60001A40019B5A60C04602B0704786B001908C
:101E7000080011006B460333021C1A706B460233D4
:101E80000A1C1A706B46DA1C6B4603331B78DB188E
:101E90001370019B0C331A006B4602331B780592BA
:101EA0000322049203930B236B446A460332127895
:101EB0001A70059B1B680B226A44127804999140A2
:101EC0000A00D2431A40049B039919400B236B4428
:101ED0001B7899400B001A43059B1A60C046C04608
:101EE00006B0704700B583B002006B4607331A7026
:101EF0006B4607331A78044B11001800FEF7ECFF0D
:101F0000C04603B000BDC046C900002000B583B084
:101F100002006B4607331A706B4607331A78044B7E
:101F200011001800FEF7F6FFC04603B000BDC04622
:101F3000C900002000B583B002006B4607331A7059
:101F40006B4607331A78044B11001800FFF71EF890
:101F5000C04603B000BDC046C900002000B583B034
:101F600002006B4607331A706B4607331A78044B2E
:101F700011001800FFF728F8C04603B000BDC046A6
:101F8000C900002000B583B002006B4607331A7009
:101F90006B4607331A78044B11001800FFF732F82C
:101FA000C04603B000BDC046C900002000B585B0E2
:101FB00003900291019200930398009A01990023E3
:101FC000FFF7FCFC039B029A5A61039A06AB1B784D
:101FD0001376039B180005B000BD10B582B00190C8
:101FE0000C00100019006B460333221C1A706B465C
:101FF0000233021C1A706B4601330A1C1A70019BD3
:1020000058696B4603331B7802221900FFF712FE52
:10201000019B58696B4602331A786B4603331B7871
:102020001900FFF741FE019B58696B4601331A788E
:102030006B4603331B781900FFF7B0FE019B58690C
:1020400004AB1A786B4603331B781900FFF7E2FEE6
:10205000C04602B010BD00B583B001900800110069
:102060006B460333021C1A706B4602330A1C1A704B
:10207000019B58696B4603331B7800221900FFF758
:10208000D9FD019B58696B4602331A786B460333BE
:102090001B781900FFF7EAFEC04603B000BD10B57B
:1020A00082B001900C00100019006B460333221C13
:1020B0001A706B460233021C1A706B4601330A1CFD
:1020C0001A70019B58696B4603331B780122190073
:1020D000FFF7B0FD019B58696B4602331A786B46D7
:1020E00003331B781900FFF759FE019B58696B46B3
:1020F00001331A786B4603331B781900FFF78AFE09
:10210000C04602B010BD82B00190080011006B46BD
:102110000333021C1A706B4602330A1C1A706B469A
:1021200002331B78002B0ED0019B5B695A696B460A
:1021300003331B78012199400B001900019B5B6957
:102140000A435A610EE0019B5B695A696B4603338F
:102150001B78012199400B00DB431900019B5B694F
:102160000A405A61C04602B0704782B001900A002E
:102170006B4603331A70019B5B691A696B46033324
:102180001B78DA401300012213405A1E9341DBB240
:10219000180002B07047000000B585B003900291AE
:1021A000039B012B34D1029B1B4A934230D11B4A23
:1021B000A023D9051A48002300930023FFF7F6FE59
:1021C000184A19491948012300930023FFF7EEFE2E
:1021D000144A17491748022300930023FFF7E6FE2D
:1021E000154A16491648032300930023FFF7DEFE25
:1021F000144A15491548042300930023FFF7D6FE1F
:10220000134A14491448072300930023FFF7CEFE16
:10221000C04605B000BDC046FFFF0000E51E000837
:102220002C0200200D1F000800040050480200206E
:102230000008005064020020351F0008000C005008
:10224000800200205D1F0008001000509C0200204A
:10225000851F0008001C0050B802002010B5034B79
:1022600019000120FFF798FF10BDC046FFFF0000D6
:1022700000B583B00190019B180001F0A3FA019B07
:1022800014331800002300220021FFF797FB019B65
:10229000180003B000BD000000B583B001900091AC
:1022A000019B012B0FD1009B084A93420BD1084B95
:1022B0001800FFF7DDFF074B1800FFF7D9FF064BAB
:1022C0001800FFF7D5FFC04603B000BDFFFF0000B8
:1022D000D4020020FC0200202403002010B5034B90
:1022E00019000120FFF7D8FF10BDC046FFFF000016
:1022F00082B002006B4607331A706B4606330A1C25
:102300001A706B4607331B781F2B17D86B460633A2
:102310001B78002B07D06B4607331B7801229A40AD
:102320002B4B1A6051E06B4607331B7801229A4011
:102330001300274A19008023D15046E06B4607332B
:102340001B783F2B1ED86B4607336A46073212783C
:10235000203A1A706B4606331B78002B07D06B4669
:1023600007331B7801229A40194B5A602DE06B46C7
:1023700007331B7801229A401300154A1900842361
:10238000D15022E06B4607331B785F2B1DD86B467C
:1023900007336A4607321278403A1A706B460633A2
:1023A0001B78002B07D06B4607331B7801229A401D
:1023B000074B9A6009E06B4607331B7801229A406D
:1023C0001300034A19008823D150C04602B0704759
:1023D00000E100E000B583B001900A006B460333D2
:1023E0001A706B4603331B7819000920FFF780FF32
:1023F000C04603B000BD00B583B001900A006B4633
:1024000003331A706B4603331B7819000A20FFF759
:102410006FFFC04603B000BD00B583B001900A0055
:102420006B4603331A706B4603331B7819000A207E
:10243000FFF75EFFC04603B000BD00B583B001905A
:102440000A006B4603331A706B4603331B7819007E
:102450000B20FFF74DFFC04603B000BD00B583B0B1
:1024600001900A006B4603331A706B4603331B78E6
:1024700019000B20FFF73CFFC04603B000BD00B5BC
:1024800083B001900A006B4603331A706B46033326
:102490001B7819000B20FFF72BFFC04603B000BDCF
:1024A00000B583B001900A006B4603331A706B4687
:1024B00003331B7819000B20FFF71AFFC04603B047
:1024C00000BD00B583B001900A006B4603331A705B
:1024D0006B4603331B7819000F20FFF709FFC04636
:1024E00003B000BD00B583B001900A006B46033312
:1024F0001A706B4603331B7819001020FFF7F8FEA3
:10250000C04603B000BD00B583B001900A006B4621
:1025100003331A706B4603331B7819001120FFF741
:10252000E7FEC04603B000BD00B583B001900A00CD
:102530006B4603331A706B4603331B781900122065
:10254000FFF7D6FEC04603B000BD00B583B00190D2
:102550000A006B4603331A706B4603331B7819006D
:102560001B20FFF7C5FEC04603B000BD00B583B019
:1025700001900A006B4603331A706B4603331B78D5
:1025800019001C20FFF7B4FEC04603B000BD00B523
:1025900083B001900A006B4603331A706B46033315
:1025A0001B7819000C20FFF7A3FEC04603B000BD46
:1025B0000E4B1A680D4B802149000A431A600C4BE0
:1025C0001A6D0B4B802109030A431A65C046C046A9
:1025D000074B1A6D064B07490A401A65034B1A68E8
:1025E000024B05490A401A60C0467047007000401F
:1025F00000100240FFFFF7FFFFFEFFFF82B00190D7
:10260000034A019B1A60019B180002B07047C04644
:102610005466000800B585B00390029101920093C2
:10262000039B181D069B009A0199FFF7C7F9039BAE
:102630001800FFF7E3FF034A039B1A60039B18008F
:1026400005B000BD0C66000882B00190C04602B023
:102650007047000082B001900B4B5B681B0DDBB232
:102660000F221340DBB21A1C9200D318DB18DAB227
:10267000054B5B681B0CDBB20F210B40DBB2D318A0
:10268000DBB2180002B070470028004010B586B0D9
:1026900001900A006B4603331A70304B5B68059358
:1026A00002F07AFE02000B00FA20800000211218CE
:1026B0004B4102920393019B180000F09FFB274BB4
:1026C000DB68402213405A425341DBB2002B17D043
:1026D00001F0D2F802F060FE02000B000121081C9C
:1026E0000399994205D80399994204D102999142DC
:1026F00001D90023181CC3B2002BE0D000232AE02C
:10270000059B174A134005936B4603331B780A2138
:10271000180003F017FB0300DBB20A21180003F0D6
:1027200025FB0B00DBB21C056B4603331B780A212B
:10273000180003F01BFB0B00DBB21B0423431A0041
:10274000059B13430593054B059A5A60019B18009E
:1027500000F02CFB0123180006B010BD002800403B
:10276000FFFF00FF82B001900B4B5B681B0BDBB2DD
:1027700001221340DBB21A1C9200D318DB18DAB224
:10278000054B5B681B0ADBB20F210B40DBB2D31891
:10279000DBB2180002B070470028004010B586B0C8
:1027A00001900A006B4603331A70304B5B68059347
:1027B00002F0F2FD02000B00FA2080000021121846
:1027C0004B4102920393019B180000F017FB274B2B
:1027D000DB68402213405A425341DBB2002B17D032
:1027E00001F04AF802F0D8FD02000B000121081C9C
:1027F0000399994205D80399994204D102999142CB
:1028000001D90023181CC3B2002BE0D000232AE01A
:10281000059B174A134005936B4603331B780A2127
:10282000180003F08FFA0300DBB20A21180003F04E
:102830009DFA0B00DBB21C036B4603331B780A21A5
:10284000180003F093FA0B00DBB21B0223431A00BB
:10285000059B13430593054B059A5A60019B18008D
:1028600000F0A4FA0123180006B010BD00280040B3
:10287000FFE0FFFF82B001900B4B5B681B09DBB2EE
:1028800003221340DBB21A1C9200D318DB18DAB211
:10289000054B5B68DBB20F210B40DBB2D318DBB218
:1028A000180002B07047C0460028004010B586B03E
:1028B00001900A006B4603331A70304B5B68059336
:1028C00002F06AFD02000B00FA20800000211218BD
:1028D0004B4102920393019B180000F08FFA274BA3
:1028E000DB68402213405A425341DBB2002B17D021
:1028F00000F0C2FF02F050FD02000B000121081C95
:102900000399994205D80399994204D102999142B9
:1029100001D90023181CC3B2002BE0D0002329E00A
:10292000059B3F22934305936B4603331B780A2193
:10293000180003F007FA0300DBB20A21180003F0C5
:1029400015FA0B00DBB21C016B4603331B780A211E
:10295000180003F00BFA0B00DBB223431A00059BAF
:1029600013430593054B059A5A60019B180000F02C
:102970001DFA0123180006B010BDC0460028004013
:1029800082B00190044B5B685B0BDBB20722134003
:10299000DBB2180002B070470028004000B587B0D5
:1029A00001900A006B4603331A70254B5B68059350
:1029B00002F0F2FC02000B00FA2080000021121845
:1029C0004B4102920393019B180000F017FA1C4B35
:1029D000DB68402213405A425341DBB2002B17D030
:1029E00000F04AFF02F0D8FC02000B000121081C95
:1029F0000399994205D80399994204D102999142C9
:102A000001D90023181CC3B2002BE0D0002313E02F
:102A1000059B0C4A134005936B4603331B785B03FD
:102A20001A00059B13430593054B059A5A60019BB9
:102A3000180000F0BBF90123180007B000BDC04624
:102A400000280040FF1FFFFF82B001900B4B1B6866
:102A50001B0DDBB203221340DBB21A1C9200D31809
:102A6000DB18DAB2054B1B681B0CDBB20F210B40E5
:102A7000DBB2D318DBB2180002B070470028004068
:102A800010B586B001900A006B4603331A70304BC4
:102A90001B68059302F080FC02000B00FA20800006
:102AA000002112184B4102920393019B180000F081
:102AB000A5F9274BDB68402213405A425341DBB251
:102AC000002B17D000F0D8FE02F066FC02000B00CD
:102AD0000121081C0399994205D80399994204D110
:102AE0000299914201D90023181CC3B2002BE0D0F7
:102AF00000232AE0059B174A134005936B460333D6
:102B00001B780A21180003F01DF90300DBB20A212B
:102B1000180003F02BF90B00DBB21C056B460333E6
:102B20001B780A21180003F021F90B00DBB21B040B
:102B300023431A00059B13430593054B059A1A601E
:102B4000019B180000F032F90123180006B010BDF7
:102B500000280040FFFFC0FF82B001900B4B1B68B4
:102B60001B0BDBB207221340DBB21A1C9200D318F6
:102B7000DB18DAB2054B1B681B0ADBB20F210B40D6
:102B8000DBB2D318DBB2180002B070470028004057
:102B900010B586B001900A006B4603331A70304BB3
:102BA0001B68059302F0F8FB02000B00FA2080007E
:102BB000002112184B4102920393019B180000F070
:102BC0001DF9274BDB68402213405A425341DBB2C8
:102BD000002B17D000F050FE02F0DEFB02000B00CD
:102BE0000121081C0399994205D80399994204D1FF
:102BF0000299914201D90023181CC3B2002BE0D0E6
:102C000000232AE0059B174A134005936B460333C4
:102C10001B780A21180003F095F80300DBB20A21A3
:102C2000180003F0A3F80B00DBB21C036B46033360
:102C30001B780A21180003F099F80B00DBB21B0285
:102C400023431A00059B13430593054B059A1A600D
:102C5000019B180000F0AAF80123180006B010BD6F
:102C600000280040FF80FFFF82B001900B4B1B68E3
:102C70001B09DBB207221340DBB21A1C9200D318E7
:102C8000DB18DAB2054B1B68DBB20F210B40DBB25D
:102C9000D318DBB2180002B07047C04600280040CD
:102CA00010B586B001900A006B4603331A70304BA2
:102CB0001B68059302F070FB02000B00FA208000F5
:102CC000002112184B4102920393019B180000F05F
:102CD00095F8274BDB68402213405A425341DBB240
:102CE000002B17D000F0C8FD02F056FB02000B00CD
:102CF0000121081C0399994205D80399994204D1EE
:102D00000299914201D90023181CC3B2002BE0D0D4
:102D1000002329E0059B7F22934305936B460333F1
:102D20001B780A21180003F00DF80300DBB20A211A
:102D3000180003F01BF80B00DBB21C016B460333D9
:102D40001B780A21180003F011F80B00DBB22343B3
:102D50001A00059B13430593054B059A1A60019BC6
:102D6000180000F023F80123180006B010BDC0467B
:102D70000028004000B585B001900B4B1B695B0437
:102D80005B0C0393084B9B6A039AD31A6422534348
:102D900002930399029802F0D5FF03000293029B6D
:102DA0009BB2180005B000BD0028004000B583B0FC
:102DB00001900F4BDA680E4B80218A43DA600C4B8E
:102DC000DB68202213405A425341DBB2002B02D071
:102DD00000F052FDF3E7064B00225A62054B1A68D9
:102DE000044B05490A401A60C04603B000BDC04606
:102DF0000028004000700040FFFEFFFF82B00190FD
:102E00000A4B1A68094B802149000A431A60084B93
:102E1000CA225A62064B53225A62054BDA68044BA7
:102E200080210A43DA60C04602B07047007000405B
:102E30000028004000B585B003900291039B012B50
:102E40000BD1029B064A934207D106490648074B1D
:102E5000009300230022FFF7DDFBC04605B000BD54
:102E6000FFFF00000028004050030020B1250008AB
:102E700010B5034B19000120FFF7DCFF10BDC04661
:102E8000FFFF000000B583B002006B4607331A70E5
:102E90006B4607331A78044B11001800FEF7E6F969
:102EA000C04603B000BDC046C900002000B585B0D3
:102EB0000390029101920398019A02990023FEF770
:102EC0007DFD039B180005B000BD000000B583B078
:102ED00001900091019B012B09D1009B054A93426F
:102EE00005D10549054B00221800FFF7DFFFC0465A
:102EF00003B000BDFFFF0000852E0008680300201E
:102F000010B5034B19000120FFF7E0FF10BDC046CC
:102F1000FFFF000010B5034B1800FDF7B5FF0300DD
:102F2000180010BDC800002000B583B002006B4639
:102F300007331A706B4607331A78044B11001800D8
:102F4000FEF77EF8C04603B000BDC046C9000020B1
:102F500000B583B002006B4607331A706B46073327
:102F60001A78044B11001800FFF7ABFAC04603B003
:102F700000BDC0464C03002010B58023DB05DB6894
:102F80000122134007D08023DB051B690122134077
:102F900001D0012300E00023002B08D08023DB05B3
:102FA000022252421A61034B180000F05CF9C0463D
:102FB00010BDC0468003002000B583B002006B4600
:102FC00007331A706B4607331A78044B1100180048
:102FD000FEF754F8C04603B000BDC046C90000204B
:102FE00000B583B002006B4607331A706B46073397
:102FF0001A78044B11001800FFF774FAC04603B0AA
:1030000000BDC0464C03002010B50C4BDB6801220C
:10301000134006D0094B1B690122134001D0012344
:1030200000E00023002B07D0044B022252421A6119
:10303000034B180000F017F9C04610BD0004004013
:10304000E803002000B583B002006B4607331A7016
:103050006B4607331A78044B11001800FEF72CF862
:10306000C04603B000BDC046C900002000B583B013
:1030700002006B4607331A706B4607331A78044B0D
:1030800011001800FFF73FFAC04603B000BDC0466C
:103090004C03002010B50C4BDB680122134006D016
:1030A000094B1B690122134001D0012300E00023DA
:1030B000002B07D0044B022252421A61034B180026
:1030C00000F0D1F8C04610BD0010004050040020B0
:1030D00000B583B002006B4607331A706B460733A6
:1030E0001A78044B11001800FEF704F8C04603B02C
:1030F00000BDC046C900002000B583B002006B4689
:1031000007331A706B4607331A78044B1100180006
:10311000FFF70AFAC04603B000BDC0464C030020CA
:1031200010B50C4BDB680122134006D0094B1B691C
:103130000122134001D0012300E00023002B07D01F
:10314000044B022252421A61034B180000F08BF824
:10315000C04610BD00140040B804002000B585B082
:1031600003900291019200930398009A0199002321
:10317000FEF724FC039B029A5A61039B069A1A6588
:10318000039B00225A650399002200238A61CB61C8
:10319000039B00229A65039B0022DA65039B0022B1
:1031A0001A66039B00225A66039B180005B000BDF7
:1031B00000B583B00190019B180000F041F80300B6
:1031C0000E49180002F0BEFD03009BB25A1E019B7F
:1031D0005B699A62019B5B69094ADA62019B5B69E0
:1031E000074A5A62019B5B69DA68019B5B690121AE
:1031F0000A43DA60C04603B000BDC04640420F003B
:1032000060EA000082B00190019B5B691A68019B33
:103210005B6901210A431A60C04602B0704782B060
:103220000190019B5B695B6A180002B07047000067
:1032300082B00190014B180002B0704760EA0000B4
:1032400000B583B00190019B1B6D984703001800E7
:1032500003B000BD82B001900091019B009A5A65B5
:10326000C04602B0704700B583B00190019B5B6D12
:10327000002B02D0019B5B6D9847019B9A69DB692B
:103280000120002112184B4101998A61CB61C0468F
:1032900003B000BD10B584B003900291039B012BD5
:1032A0002BD1029B164A934227D1164C164A8023F3
:1032B000D9051648164B00932300FFF74FFF154919
:1032C000154A164C1648124B00930B002100FFF7CD
:1032D00045FF1449144A154C15480D4B00930B003B
:1032E0002100FFF73BFF1349134A144C1448084BC5
:1032F00000930B002100FFF731FFC04604B010BD62
:10330000FFFF0000512F0008292F00088003002034
:10331000152F0008E12F0008B92F00080004004015
:10332000E80300206D300008453000080010004020
:1033300050040020F9300008D1300008001400408B
:10334000B804002010B5034B19000120FFF7A2FFBD
:1033500010BDC046FFFF000010B5034B1800FDF77D
:1033600079FD0300180010BDC800002010B5034B04
:103370001800FDF755FD0300180010BDC80000201F
:1033800000B583B002006B4607331A706B460733F3
:103390001A78044B11001800FDF7E8FEC04603B090
:1033A00000BDC046C900002000B583B002006B46D6
:1033B00007331A706B4607331A78044B1100180054
:1033C000FFF7C3F8C04603B000BDC0464C03002061
:1033D00010B5034B180000F0E9F8C04610BDC04618
:1033E0002005002000B583B002006B4607331A7039
:1033F0006B4607331A78044B11001800FDF7D6FE10
:10340000C04603B000BDC046C900002000B583B06F
:1034100002006B4607331A706B4607331A78044B69
:1034200011001800FFF7A2F8C04603B000BDC04667
:103430004C03002010B5034B180000F0B7F8C0464D
:1034400010BDC0466405002010B584B00390029101
:1034500001920093039B180000F0B4F9039B14330E
:103460001800009A01990023FEF7A8FA0398029B1E
:1034700028331A0008AB1C8807AB1978230000F02A
:10348000AAF9039B099ADA62039B069A1A64039BC2
:10349000029A9A62039B00221A63039B00229A639A
:1034A000039B0022DA63039B180004B010BD00B533
:1034B00087B0039002910192039BDB6A9847030057
:1034C0000493039B1B6B002B06D0039B1B6B002BF1
:1034D00002D0180000F0B3FF019B180000F0A4FF19
:1034E00003001A00039B1A63039B1B6B002B01D183
:1034F000002336E0039B019A5A630299049802F074
:1035000021FC03000593059B9AB2039B9B6ADA603A
:10351000039B9B6A1A68039B9B6A08210A431A60F3
:10352000039B9B6A1A68039B9B6A04210A431A60E7
:10353000039B9B6A9A68039B9B6A80210A439A605B
:10354000039B9B6A1A68039B9B6A20210A431A60AB
:10355000039B9B6A1A68039B9B6A01210A431A60BA
:103560000123180007B000BD82B001900A006B462D
:1035700003331A70019B1B6B002B14D0019B196B3A
:10358000019BDB6B581C019AD063CB186A4603324F
:1035900012781A70019BDA6B019B5B6B9A4202D323
:1035A000019B0022DA63C04602B0704700B585B0C7
:1035B0000190019B9B6ADB690393019B9B6A5B6A99
:1035C000DAB2019B11001800FFF7CEFF039B08221F
:1035D000134003D0019B180000F003F8C04605B06B
:1035E00000BD82B00190019B00229A63019B9A6BFF
:1035F000019BDA63C04602B07047000010B586B088
:1036000005900491059B012B23D1049B124A934200
:103610001FD11249124A134C1348144B0393002331
:10362000029303230193124B00930B002100FFF739
:103630000BFF1049104A114C1148124B0393002301
:10364000029304230193104B00930B002100FFF71A
:10365000FBFEC04606B010BDFFFF0000A933000806
:10366000813300080038014020050020593300084C
:10367000240100200D340008E53300080044004018
:10368000640500206D3300086C01002010B5034B69
:1036900019000120FFF7B2FF10BDC046FFFF000078
:1036A00010B500F003F8C04610BD000010B590B092
:1036B00008230C9301235B420F9301235B420E937B
:1036C00002AB3C4A13CA13C313CA13C313CA13C3AE
:1036D000394B012200211800FCF7D8FF364B082196
:1036E0001800FCF74BFF00230D930D9B082B1ADCF1
:1036F00002AB0D9A9200D2580C9B53430B930B9B39
:10370000402B04D10D9B0F9301230E930BE00B9BD9
:10371000602B04D10D9B0F9302230E9303E00D9BAE
:1037200001330D93E1E70F9B002B17DB0E9B002B62
:1037300014DB0F9BDAB20E9BDBB21F480121FDF7B1
:103740001DF81D4B01211800FDF790F91A480023C0
:103750000093002300220321FDF7DCF9174B012120
:103760001800FEF709FA154B01211800FEF722FA9E
:10377000134B01211800FDF7AFFB114B012118007D
:10378000FDF7C8FB0E4B01211800FDF7E1FB0C4BC8
:1037900001211800FDF7FAFB094B01211800FDF784
:1037A00013FC074B01211800FDF72CFCC04610B09C
:1037B00010BDC04694660008C80000201802002012
:1037C000C900002082B00190019B00221A74019B65
:1037D000180002B0704784B00390080001921900ED
:1037E0000B236B44021C1A7002AB0A1C1A80039B49
:1037F00001221A74039B0B226A4412781A70039BED
:103800000B226A4412785A70039B019A5A60039BF8
:10381000019A9A60039B02AA12889A81C04604B05A
:103820007047000018480168012212071143016027
:103830007047EFF30980154B002119607346243857
:10384000F8C043464C4655465E46243878C000F0E2
:10385000BFFC143078C89846A146AA46B3460B4B25
:1038600007211960002199602438F8C8103080F3CE
:10387000098808B400BDC046034801680122120748
:10388000114301607047000004ED00E010E000E02B
:1038900082B00190024B01221A70C04602B07047FC
:1038A000A805002082B00190019B00221A60019BB4
:1038B00000225A60019B180002B0704700B585B025
:1038C000019000F0A5FA72B6C046019B1B680393F5
:1038D000019B1B685A1C019B1A6062B6C046019B83
:1038E0005B68039AD31A5A1E9341DBB2002B02D0B5
:1038F000FFF7C2FFF3E7039B180005B000BD00000F
:1039000000B583B0019072B6C046019B5B685A1C3B
:10391000019B5A6062B6C04600F09EFA094B1B78C4
:10392000002B07D0019B1A68019B5B689A4201D06B
:10393000012300E00023002B01D0FFF79DFFC046CC
:1039400003B000BDA805002010B5094B01221A7371
:10395000074B01225A7380239A00064B110018006E
:1039600000F0CEF9044B01221A70C04610BDC046CB
:10397000AC0500207D390008380D002000B583B06B
:103980004D4B1800FFF79AFF00230193019B3F2B3B
:1039900000DD88E04949019A1300DB009B1A9B0077
:1039A000CB180C331B7801225340DBB2002B32D0F2
:1039B0004249019A1300DB009B1A9B00CB180E337F
:1039C0001B7801225340DBB2002B24D03B49019AE3
:1039D0001300DB009B1A9B00CB180D331B78002BC8
:1039E00019D03649019A1300DB009B1A9B005B58E3
:1039F000180000F0E5FC3149019A1300DB009B1A26
:103A00009B00CB180D3300221A702D4B1B88013BF5
:103A10009AB22B4B1A802949019A1300DB009B1A9A
:103A20009B00CB180E331B78002B38D02349019A0A
:103A30001300DB009B1A9B00CB180C331B78012270
:103A40005340DBB2002B2AD01C49019A1300DB0043
:103A50009B1A9B00CB1810331B7801225340DBB21A
:103A6000002B1CD0019B180000F0EEFA1349019ABC
:103A70001300DB009B1A9B00CB180F331B78002B25
:103A80000DD00E49019A1300DB009B1A9B00CB1846
:103A90000F3300221A70019B180000F06FFA019B8F
:103AA0000133019372E7044B1800FFF729FFFFF77A
:103AB000E3FE01F0B3FC63E7300D0020AC0500200D
:103AC0000000002010B586B0039002910192834B54
:103AD0001800FFF7F3FE824B1B883F2B06D97F4B64
:103AE0001800FFF70DFF01235B42F4E0012305936B
:103AF000059B3F22D80FD1179A4248410300DBB201
:103B0000002B1CD0059A77491300DB009B1A9B0001
:103B1000CB180D331B7801225340DBB2002B0AD0A7
:103B2000059A70491300DB009B1A9B00CB180D33DC
:103B300001221A7003E0059B01330593D8E7019B2E
:103B4000059C180000F006FC0100664A2300DB001B
:103B50001B1B9B009950059A62491300DB009B1ABE
:103B60009B005B585A425341DBB2002B10D0059AA0
:103B70005C491300DB009B1A9B00CB180D3300221D
:103B80001A70564B1800FFF7BBFE01235B42A2E000
:103B9000059A54491300DB009B1A9B00CB1808338D
:103BA000019A1A60019B9B100193059A4D491300DD
:103BB000DB009B1A9B005A58019B4B498C4663447F
:103BC0009B00D318C222D2051A60059A45491300FA
:103BD000DB009B1A9B005A58019B44498C46634466
:103BE0009B00D318039A1A60059A3E491300DB0024
:103BF0009B1A9B005A58019B3D498C4663449B008D
:103C0000D3183C4A1A60059A36491300DB009B1A08
:103C10009B005A58019B38498C4663449B00D3183B
:103C2000029A1A60059A2F491300DB009B1A9B0029
:103C30005A58019B31498C4663449B00D318032298
:103C400052421A60059A27491300DB009B1A9B0019
:103C50005958019B294A944663449B00059AC91808
:103C600020481300DB009B1A9B00C3180433196023
:103C7000059A1C491300DB009B1A9B00CB181233DA
:103C800000221A80059A17491300DB009B1A9B003B
:103C9000CB180E3300221A70059A12491300DB006C
:103CA0009B1A9B00CB181433039A1A60059A0D498E
:103CB0001300DB009B1A9B00CB180C3301221A70F7
:103CC000074B1B8801339AB2054B1A80034B18002F
:103CD000FFF716FE059B180006B010BD300D002042
:103CE00000000020AC050020FFFFFF3FFEFFFF3F6C
:103CF000FDFFFF3FA13E0008F8FFFF3FEFFFFF3F42
:103D000000B583B001900091009A019B002118003A
:103D1000FFF7D8FE0300180003B000BD00B583B064
:103D200001903749019A1300DB009B1A9B00CB18C6
:103D3000123300229B5E002B02DDFFF79DFDF0E7B2
:103D4000304B1800FFF7BAFD2F4B1B881A00019B60
:103D500093424DD0019B002B4ADD2949019A130063
:103D6000DB009B1A9B00CB180D331B78012B3FD136
:103D70002349019A1300DB009B1A9B00CB180C33DC
:103D800000221A701E49019A1300DB009B1A9B0047
:103D9000CB180D3300221A701949019A1300DB0069
:103DA0009B1A9B005B58180000F00AFB1449019A0B
:103DB0001300DB009B1A9B0000225A501049019A05
:103DC0001300DB009B1A9B00CB18043300221A60FF
:103DD0000B49019A1300DB009B1A9B00CB18083398
:103DE00000221A60094B1B88013B9AB2074B1A80CC
:103DF000044B1800FFF784FDC04603B000BDC04669
:103E0000AC050020300D00202C0D0020000000200B
:103E100072B6C0460E4B1B881A000E491300DB0019
:103E20009B1A9B00CB18123300215B5E9BB20133BF
:103E30009BB218B207491300DB009B1A9B00CB18FA
:103E40001233021C1A8062B6C046C0467047C04694
:103E50002C0D0020AC05002072B6C0460E4B1B880E
:103E60001A000E491300DB009B1A9B00CB1812337B
:103E700000215B5E9BB2013B9BB218B20749130065
:103E8000DB009B1A9B00CB181233021C1A8062B60F
:103E9000C046C0467047C0462C0D0020AC0500202F
:103EA00010B5084B1B881900074A0B00DB005B1A92
:103EB0009B00D3180C3300221A70FFF7DDFCC046BC
:103EC00010BDC0462C0D0020AC05002030B585B0DB
:103ED000019001F0A3FA019A13005B019B1A9B0069
:103EE0009B18DB001C0000231D0002000B001219B0
:103EF0006B410292039301F091FA02000B00012141
:103F0000081C0399994205D80399994204D1029952
:103F1000914201D90023181CC3B2002B02D1FFF734
:103F2000ABFCE8E7C04605B030BD30B585B00190C8
:103F300001F074FA02000B0001990C0000210D0041
:103F400012196B410292039301F068FA02000B0010
:103F50000121081C0399994205D80399994204D17B
:103F60000299914201D90023181CC3B2002B02D13F
:103F7000FFF782FCE8E7C04605B030BD84B0019091
:103F800072B6C0462D49019A1300DB009B1A9B00B4
:103F9000CB180C331B7801225340DBB2002B3ED0F0
:103FA0002649019A1300DB009B1A9B00CB181033A3
:103FB0001B78002B33D02149019A1300DB009B1A98
:103FC0009B00CB180C3301221A700E236B44002285
:103FD0001A800E236B441B883F2B18D80E236B448A
:103FE0001A88174B5200D35A002B08D10E236B446A
:103FF0001A88019B99B2124B5200D15207E00E234E
:104000006B441A880E236B4401321A80E1E70D4B92
:104010001A680C4B802149050A431A6009E00749D8
:10402000019A1300DB009B1A9B00CB180F3301226F
:104030001A7062B6C046C04604B07047AC05002096
:10404000AC0C002004ED00E084B001904649019AD8
:104050001300DB009B1A9B00CB1808331B689B10D6
:1040600003934149019A1300DB009B1A9B005A58A5
:10407000039B3E498C4663449B00D318C222D20561
:104080001A603949019A1300DB009B1A9B00CB1878
:10409000143318683449019A1300DB009B1A9B0003
:1040A0005A58039B32498C4663449B00D318020044
:1040B0001A602D49019A1300DB009B1A9B005A5885
:1040C000039B2C498C4663449B00D3182A4A1A60F0
:1040D0002549019A1300DB009B1A9B00CB1818336B
:1040E00018682149019A1300DB009B1A9B005A585B
:1040F000039B22498C4663449B00D31802001A603C
:104100001949019A1300DB009B1A9B005A58039B24
:104110001B498C4663449B00D318032252421A6009
:104120001149019A1300DB009B1A9B005A58039B0C
:1041300013498C4663449B00D1180B48019A130025
:10414000DB009B1A9B00C318043319600649019ACF
:104150001300DB009B1A9B00CB18103301221A704E
:10416000C04604B07047C046AC050020FFFFFF3FCB
:10417000FEFFFF3FFDFFFF3F85410008F8FFFF3FC7
:10418000EFFFFF3F10B572B6C0460F4B1B881900FA
:104190000E4A0B00DB005B1A9B00D3181033002281
:1041A0001A70094B1B881900084A0B00DB005B1AC8
:1041B0009B00D3180C3300221A7062B6C046FFF77A
:1041C0005BFBC04610BDC0462C0D0020AC05002096
:1041D00084B0019000230393494B1B881900494A7E
:1041E0000B00DB005B1A9B00D3180433019A1A60A2
:1041F00072B6C046444B1B88002B41D0424B1A88F4
:104200003F4B1A80414B1B78002B04D13C4B1B8841
:104210001A003F4B1A603D4B01221A700023039392
:10422000039B3E2B14DC039B5A1C374B5200D35A82
:10423000002B0CD0039B5A1C334B5200D15A324BEB
:10424000039A5200D152039B01330393E8E7C0461F
:104250002D4B039A52000021D15262B6C046284B22
:104260001B881900274A0B00DB005B1A9B00D31840
:104270000C331B7801225340DBB2002B30D000E01E
:10428000C04662B6C046214B1B78002B07D0204B9E
:104290001B689AB21A4B1A801C4B00221A70184BDA
:1042A0001B8801339AB2164B1A80154B1B881900D4
:1042B000144A0B00DB005B1A9B00D3180C331B78ED
:1042C000002B0DD10E4B1B8801339AB20C4B1A8078
:1042D0000B4B1B883F2BE8D9094B00221A80E4E7DF
:1042E000074B1B881900074A0B00DB005B1A9B0079
:1042F000D31804331B680193019B180004B0704766
:104300002C0D0020AC050020AC0C0020390D002045
:104310003C0D002000B583B001900091019B012B62
:1043200007D1009B044A934203D1044B1800FFF7C6
:10433000B9FAC04603B000BDFFFF0000300D0020F9
:1043400010B5034B19000120FFF7E4FF10BDC04674
:10435000FFFF000000B585B00190FFF759FD72B670
:10436000C046144B1B680393124B1B685A1C114B1D
:104370001A6062B6C046104B1B68039A9A4202D07C
:10438000FFF77AFAF7E7019A0C4B1100180000F0DA
:1043900039F90300029372B6C046074B1B685A1CDA
:1043A000054B1A6062B6C046FFF756FD029B180027
:1043B00005B000BD50390020543900200400002011
:1043C00000B585B00190FFF723FD72B6C046134BD0
:1043D0001B680393114B1B685A1C104B1A6062B682
:1043E000C0460F4B1B68039A9A4202D0FFF744FA6B
:1043F000F7E7019A0B4B1100180000F001FA72B6B2
:10440000C046074B1B685A1C054B1A6062B6C04673
:10441000FFF722FDC04605B000BDC0465039002060
:10442000543900200400002000B583B00190019BA6
:104430001800FFF78FFF0300180003B000BD00B5A0
:1044400083B00190019B1800FFF7BAFFC04603B08C
:1044500000BD000010B582B0020000916B4607332A
:104460001A706B4607331B787F2B2CD8324A6B4669
:1044700007331B785BB29B08C0339B009B586A468E
:1044800007321278110003220A40D200FF21914026
:104490000A00D2431A401100009B9B01FF221A40E0
:1044A0006B4607331B78180003230340DB009A4058
:1044B00021486B4607331B785BB29B080A43C03325
:1044C0009B001A5035E01D4A6B4607331B781900D4
:1044D0000F230B40083B9B0806339B00D318043383
:1044E0001B686A4607321278110003220A40D20084
:1044F000FF2191400A00D2431A401100009B9B010A
:10450000FF221A406B4607331B7818000323034031
:10451000DB009A4009486B4607331B781C000F23C9
:104520002340083B9B080A4306339B00C31804330F
:104530001A60C04602B010BD00E100E000ED00E0EE
:1045400000B583B00190019B5A1E80235B049A4200
:1045500001D3012310E00A4B019A013A5A6001236A
:104560005B4203211800FFF775FF054B00229A609C
:10457000034B07221A600023180003B000BDC04699
:1045800010E000E000B583B06B461800FFF78AF931
:104590006B461800FFF77CF902235B420F211800DD
:1045A000FFF758FF00F0D0FEFFF7CEF9114B1800CF
:1045B000FFF7C6FF104B01211800FDF717FA0E4B4D
:1045C0001800FCF7C1FF0C4B01211800FDF723FA7E
:1045D0000A4B01211800FDF709FA094B01211800C7
:1045E000FDF704FA064B01211800FDF714FAC04646
:1045F00003B000BD204E0000EC0000206803002046
:104600000402002000B591B00190009100230E93A8
:10461000019B9B680593019B1B691900009801F0A1
:1046200091FB03000A9327236B4400221A70262370
:104630006B4400221A70019B1A69009B110018003C
:1046400001F094FB0B1E02D00A9B01330A93002356
:104650000893019B5A69089B9A421ED9019B59688D
:10466000089A13005B009B189B00CB181B68002B5B
:104670000FD1019B5968089A13005B009B189B009F
:10468000CB180493C0460023079301235B42069393
:1046900005E0089B01330893DBE70023ADE0019BB5
:1046A000DB685B01079A9A4248D2079B1F2213409E
:1046B00012D1069B01330693069B9B00059AD318E3
:1046C0001B68DB430F930F9B002B03D1079B1F330A
:1046D00007932CE001230C9327236B441B78002BBA
:1046E0000ED00F9B0C9A134003D00E9B01330E93F8
:1046F00013E027236B4400221A7000230E930CE072
:104700000F9B0C9A134008D027236B4401221A7088
:10471000079B0D930E9B01330E930A9A0E9B9A42B0
:1047200004D126236B4401221A7007E0C0460C9B7B
:104730005B000C93079B01330793B0E726236B4480
:104740001B78002B01D1002357E0019B1B680393CA
:10475000019B1B690D9A5343039AD3180393039A41
:10476000009BD218019B9B699A4201D9002344E027
:104770000D9B1F22134001229A4013000C930D9BA6
:104780005B090B930E9B002B2DD00C9B002B04D1AF
:1047900001230C930B9B01330B930C9B012B0FD12B
:1047A0000E9B202B0CD90B9B9B00059AD318012242
:1047B00052421A6000230C930E9B203B0E9311E093
:1047C0000B9B9B00059AD31819680B9B9B00059ABD
:1047D000D3180C9A0A431A600C9B5B000C930E9B37
:1047E000013B0E93CEE7039A049B1A60049B0D9A3B
:1047F0005A60049B0A9A9A60039B180011B000BD8E
:1048000088B00190009100230493019B5B69049A96
:104810009A4267D2019B5968049A13005B009B1867
:104820009B00CB181B68009A9A4219D1019B5968CA
:10483000049A13005B009B189B00CB180393C0469F
:10484000039B9B680593039B5B681F221340012217
:104850009A4013000793039B5B685B09069303E090
:10486000049B01330493D0E7059B002B30D0079BBA
:10487000002B04D101230793069B01330693079B6A
:10488000012B0FD1059B202B0CD9019B9A68069B0D
:104890009B00D31800221A6000230793059B203B3E
:1048A000059314E0019B9A68069B9B00D3181A6835
:1048B000079BD943019B9868069B9B00C3180A403D
:1048C0001A60079B5B000793059B013B0593CBE7B1
:1048D000039B00221A60039B00225A60039B002264
:1048E0009A6000E0C04608B0704700B585B00390FC
:1048F00001920A236B440A1C1A80039B243318007C
:10490000FEF7D0FF039B0A226A4412889A830A2387
:104910006B441B889B001800FFF71CFD0200039BE3
:104920001A600A236B441B881800FFF713FD02006E
:10493000039B5A60039B00229A60039B0022DA606B
:10494000039B00221A84039B1A8C039BDA83039B2C
:10495000222200219954039B232200219954039B76
:10496000019A9A61039B180005B000BD00B585B09F
:10497000039002910192039B24331800FEF79EFFDF
:10498000039B1A68039BDB8B9B00D318029A1A6067
:10499000039B5A68039BDB8B9B00D318019A1A6018
:1049A000039BDB8B01339AB2039BDA83039BDA8B85
:1049B000039B9B8B9A4202D3039B0022DA83039BC7
:1049C000222201219954039B24331800FEF798FFFB
:1049D000C04605B000BD82B001900091019B009AD5
:1049E0001A61C04602B0704782B001900091019BED
:1049F000009A5A61C04602B0704700B585B0019078
:104A0000019B24331800FEF759FF019B22229A5C78
:104A10000F236B4401214A401A70019B2433180074
:104A2000FEF76EFF0F236B441B78180005B000BD26
:104A300000B585B00190019B1A8C019BDB8B9A42DB
:104A40004CD0019B9B68002B07D0019B9B681800F2
:104A5000FFF73CFA019B00229A60019B2433180067
:104A6000FEF72CFF019B1B8C0393019B232201214A
:104A70009954019B24331800FEF742FF019B1A68EA
:104A8000039B9B00D3181A68019B5968039B9B00EA
:104A9000CB181968019B180090470200019B5A61CE
:104AA000019B24331800FEF709FF019B23220021FC
:104AB0009954019B1B8C01339AB2019B1A84019B70
:104AC0001A8C019B9B8B9A4202D3019B00221A8471
:104AD000019B24331800FEF713FF0DE0019B2433E4
:104AE0001800FEF7EBFE019B222200219954019B46
:104AF00024331800FEF704FF019B5B69180005B022
:104B000000BD00B585B0019000230393019B0021F7
:104B10001800FFF769FF019B00211800FFF75BFFFA
:104B2000019B1800FFF769FF031E07D0019B0021BE
:104B30001800FFF750FFFEF79FFE05E0019B1800ED
:104B4000FFF776FF03000393039B002BE8D0019B44
:104B5000180000F021F8E3E700B583B00190019B55
:104B600024331800FEF7AAFE019BDB68002B09D155
:104B7000019B9A690199074B1800FEF7A3FF0200F9
:104B8000019BDA60019B24331800FEF7B9FEC04692
:104B900003B000BD034B000800B583B00190019B3A
:104BA00024331800FEF78AFE019B0022DA83019B62
:104BB000DA8B019B1A84019B24331800FEF7A0FEB8
:104BC000C04603B000BD000000B583B000230193D0
:104BD0000C4B1B781A00019B93420DDA019A1300CB
:104BE0005B009B181B01084A9B18180000F0D6F8C0
:104BF000019B01330193EBE7024B00221A70C04680
:104C000003B000BDB83900205839002000B585B088
:104C1000039002910192174B1B78012B01D90023BD
:104C200024E0144B1B781A0013005B009B181B0137
:104C3000114A9B18029A0399180000F0D1F8031E3C
:104C400013D00C4B1B785A1CD1B20A4A11701A00AF
:104C500013005B009B181B01074A9B18019A110067
:104C6000180000F0A1F9012300E00023180005B0AE
:104C700000BDC046B83900205839002000B585B0C5
:104C8000039002910192174B1B78012B01D900234D
:104C900024E0144B1B781A0013005B009B181B01C7
:104CA000114A9B18029A0399180000F0C7F8031ED6
:104CB00013D00C4B1B785A1CD1B20A4A11701A003F
:104CC00013005B009B181B01074A9B18019A1100F7
:104CD000180000F069F9012300E00023180005B076
:104CE00000BDC046B83900205839002010B586B044
:104CF0000590049103920293174B1B78012B01D965
:104D0000002325E0144B1B781A0013005B009B184E
:104D10001B01124A9A1808AB1B781900100000F00A
:104D2000F6F80D4B1B785A1CD1B20B4A11701A00C1
:104D300013005B009B181B01084A9818039C049AF7
:104D40000599029B0093230000F0A0F80300C046E1
:104D5000180006B010BDC046B839002058390020F0
:104D600000B583B00190019B00225A61019B18009D
:104D700000F014F8019B180003B000BD00B583B02B
:104D80000190019B5B69002B04D0019B5B691800BB
:104D9000FEF7C4FF019B180003B000BD00B583B04F
:104DA0000190019B5B69002B07D0019B5B69180098
:104DB000FEF7B4FF019B00225A61019B00221A609A
:104DC000019B00225A60019B00221A61019B322242
:104DD0005A62019B32229A62C04603B000BD0000B5
:104DE00000B585B0039002910192029B002B06D082
:104DF000039B029A1A60019B002B14D001E0002350
:104E000016E0039B019A1A6180239A0003990A4BCA
:104E10001800FEF757FE0200039B5A61039B5B6973
:104E2000002B04DA01E0002302E0002300E001236C
:104E3000180005B000BDC046BB4F000800B585B0E6
:104E4000039002910192029B002B14D0039B029AC3
:104E50001A60039B019A9A6080239A0003990A4B77
:104E60001800FEF72FFE0200039B5A61039B5B694B
:104E7000002B04DA01E0002302E0002300E001231C
:104E8000180005B000BDC0467D50000800B585B0D3
:104E90000390029101920093029B002B1AD0039B76
:104EA000029A1A60039B019A9A61039B009A1A6204
:104EB000039B069ADA6180239A000399094B180034
:104EC000FEF700FE0200039B5A61039B5B69002B07
:104ED00004DA01E0002302E0002300E001231800CF
:104EE00005B000BD3F51000800B583B00190019BA3
:104EF0001B6898470300180003B000BD00B583B0DD
:104F00000190019B1B699847C04603B000BD82B069
:104F100001900A006B4603331A70019B6A46033204
:104F200012781A73C04602B0704782B00190019B9C
:104F30009B68002B03D0019B9B6801221A70C0461E
:104F400002B0704782B00190019B1B7B002B13D0F5
:104F5000019B9B691A68019B9B6901321A60019B46
:104F60009B691A68019BDB699A4213DD019B9B696F
:104F7000019A126A1A600DE0019B9B691A68019BF5
:104F8000DB699A4206DA019B9B691A68019B9B695F
:104F900001321A60C04602B0704782B00190019B96
:104FA0005B6A180002B0704782B001900091019BCB
:104FB000009A5A62C04602B07047F0B587B00190BF
:104FC000019B0593059B1800FFF78EFF031E02D07F
:104FD000FEF752FCF6E7C046059B1800FFF784FF7A
:104FE00003005A425341DBB2002B02D0FEF744FCCF
:104FF000F2E700F0D1F904000D00059B1800FFF75F
:10500000CCFF03001E0000231F0022002B0092197A
:105010007B410292039300F0BFF902000B000121D3
:10502000081C0399994205D30399994204D1029926
:10503000914201D20023181CC3B2002B0CD0FEF702
:105040001BFC059B1800FFF74FFF03005A4253411A
:10505000DBB2002BDFD0BFE7059B1800FFF74EFF48
:10506000059B1800FFF740FF0300013B5A425341E4
:10507000DBB2002BAFD0FEF7FFFBF1E7F0B587B056
:105080000190019B0593059B1800FFF72DFF031E60
:1050900002D0FEF7F1FBF6E7C046059B1800FFF7CC
:1050A00023FF03005A425341DBB2002B02D0FEF72C
:1050B000E3FBF2E700F070F904000D00059B180017
:1050C000FFF76BFF03001E0000231F0022002B00D0
:1050D00092197B410292039300F05EF902000B00EB
:1050E0000121081C0399994205D30399994204D1DF
:1050F0000299914201D20023181CC3B2002B0CD09C
:10510000FEF7BAFB059B1800FFF7EEFE03005A42BC
:105110005341DBB2002BDFD0BFE7059B1800FFF740
:1051200004FF059B1800FFF7DFFE0300013B5A4216
:105130005341DBB2002BAFD0FEF79EFBF1E7F0B599
:1051400087B00190019B0593059B1800FFF7CCFEEB
:10515000031E02D0FEF790FBF6E7C046059B180041
:10516000FFF7C2FE03005A425341DBB2002B02D0CC
:10517000FEF782FBF2E700F00FF904000D00059B3B
:105180001800FFF70AFF03001E0000231F00220083
:105190002B0092197B410292039300F0FDF802006C
:1051A0000B000121081C0399994205D303999942E8
:1051B00004D10299914201D20023181CC3B2002BE2
:1051C0000CD0FEF759FB059B1800FFF78DFE03007E
:1051D0005A425341DBB2002BDFD0BFE7059B1800DA
:1051E000FFF7B0FE059B1800FFF77EFE0300013BB2
:1051F0005A425341DBB2002BAFD0FEF73DFBF1E743
:1052000010B582B00190054C054B9C4204D0303C57
:105210002000FFF7B3FDF7E702B010BDB83900205A
:105220005839002030B583B001900091019B012BCB
:1052300014D1009B0B4A934210D10B4B01241D004B
:10524000002C05DB2800FFF78BFD3035013CF7E72C
:10525000064A074B1900002000F0F2FDC04603B0DB
:1052600030BDC046FFFF0000583900209C3B0020A5
:105270000152000810B5034B19000120FFF7D2FFBF
:1052800010BDC046FFFF000082B001900091019B5D
:10529000009A9A600199002200230A604B60019BEA
:1052A000180002B0704700B583B0019000F0B6F866
:1052B00002000B0001990A604B60C04603B000BDBC
:1052C00030B585B00190019B1A685B6801998968C7
:1052D0000C0000210D0012196B4101990A604B600E
:1052E000FEF7CAFA00F09AF802000B00029203934C
:1052F000019B1A685B680399994206D80399994201
:10530000EED10299914200D8EAE7019B1A685B68E6
:10531000029BD21A019B9B68D318180005B030BDC0
:10532000074B1B68180000231900064B1A685B68BE
:1053300012184B4103490A604B60C0467047C04693
:10534000280000202000002010B5104B012118007B
:10535000FCF74CFB0D4B1800FDF72AFF0B4B180018
:10536000FDF766FF02000A4B1A600A4A074B11005C
:105370001800FDF76FFF054B01211800FCF74BFBF0
:10538000024B1800FDF73EFFC04610BDE8030020A9
:105390002800002021530008F0B583B01B4B1800F3
:1053A000FDF73DFF03001E0000231F00184B1A6885
:1053B0005B6892197B4100920193164B1A685B68F7
:1053C0000199994205D3019999420DD100999142D1
:1053D0000AD2114B1B681C0000231D00009A019B80
:1053E00012196B41009201930A49009A019B0A60CD
:1053F0004B6000980199FA229200002300F067FCAC
:1054000002000B001000190003B0F0BDE8030020FB
:1054100020000020C039002028000020F0B583B013
:10542000184B1800FDF7FBFE03001E0000231F00B1
:10543000154B1A685B6892197B4100920193134BDC
:105440001A685B680199994205D3019999420DD177
:10545000009991420AD20E4B1B681C0000231D00CC
:10546000009A019B12196B41009201930749009A1F
:10547000019B0A604B60009A019B1000190003B069
:10548000F0BDC046E803002020000020C039002005
:105490002800002082B00190024B019A1A60C04699
:1054A00002B07047D439002010B50D4B1B68002B9B
:1054B00007D00B4B1B681800FEF730FC084B00228E
:1054C0001A60084B1B68002B07D0064B1B6818009E
:1054D000FEF724FC034B00221A60C04610BDC046F4
:1054E000CC390020D039002000B583B002006B46D3
:1054F00007331A70FFF7D8FF064B1B68002B06D046
:10550000044B1B686A460732127810009847C04661
:1055100003B000BDD439002000B585B00F4A6B46FA
:1055200011001800FFF7B0FE6B461800FFF7BBFE36
:105530006B461800FFF7C4FE094B1B68002B03D015
:10554000074B1B6801209847064B1B681800FEF7A5
:10555000ECFC034B1B6800209847E9E7102700008C
:10556000D4390020C839002000B583B0002301934E
:10557000019B1F2B17DC1A4B019A9200D358194933
:10558000181C00F02DFB031C181C00F009FB020086
:10559000154B1A60154B1B681800FEF797FC019B12
:1055A00001330193E4E720230093009B002BDDDB14
:1055B0000B4B009A9200D3580A49181C00F010FBBC
:1055C000031C181C00F0ECFA0200074B1A60074B92
:1055D0001B681800FEF77AFC009B013B0093E4E790
:1055E000B866000800401C46C83900202C00002086
:1055F00010B5FFF759FF80235A000A4B110018001D
:10560000FEF77EFB0200084B1A6080235A00074B0E
:1056100011001800FEF774FB0200054B1A60C0462B
:1056200010BDC04619550008CC3900206955000846
:10563000D039002000B583B001900091019B012B6F
:105640000AD1009B064A934206D180231A01054BDA
:1056500080211800FFF749F9C04603B000BDC046DD
:10566000FFFF0000D839002010B5034B19000120BE
:10567000FFF7E0FF10BDC046FFFF000082B00190C1
:10568000024B019A1A60C04602B07047103A0020DF
:1056900010B5074B1B68002B07D0054B1B68180083
:1056A000FEF73CFB024B00221A60C04610BDC0460C
:1056B000043A002000B583B06B46063300221A700E
:1056C0006B46053300221A706B46073300221A70AE
:1056D0002B4B1B68002B02D1FEF7CEF8F8E7FFF743
:1056E00073FA274B1B686A46911D32221800FFF798
:1056F000C5FA234B1B68234A694605311800FFF79A
:10570000BDFA214B180000F0A4FB6B4607331B7851
:105710001800FFF7E9FE6B4606331B78002B15D007
:105720006B46063300221A706B4607336A4607320F
:10573000127801214A401A706B4607331B78180013
:10574000FFF7D2FE114B180000F083FB6B460533C8
:105750001B78002BDFD00E4B1800FEF7AFF86B461E
:10576000053300221A700B490B4B00221800FFF77B
:10577000FDF8074B1800FEF7C3F8FEF77DF8FCE7CD
:10578000103A0020B80B00003C6700085067000882
:10579000083A0020D5580008D839002000B583B059
:1057A00001900C4B1800FEF789F8FFF771FF80237A
:1057B0009A00094B11001800FEF7A2FA0200074BED
:1057C0001A60044B1800FEF79BF80023180003B082
:1057D00000BDC046083A0020B5560008043A002033
:1057E00000B583B06B46063300221A706B46053352
:1057F00000221A706B46073300221A702E4B1B686A
:10580000002B02D1FEF738F8F8E7FFF7DDF92A4B55
:105810001B686A46911D32221800FFF72FFA264BAB
:105820001B68264A694605311800FFF727FA244B02
:10583000180000F00EFB6B4607331B781800FFF7CB
:1058400053FE6B4606331B78002B1AD06B4606338B
:1058500000221A706B4607336A460732127801211C
:105860004A401A706B4607331B78002B02D0FFF7B3
:10587000BFFE02E00020FFF737FE124B180000F0D9
:10588000E8FA6B4605331B78002BDAD00E4B180074
:10589000FEF714F86B46053300221A700B490C4BC7
:1058A00000221800FFF762F8074B1800FEF728F8EF
:1058B000FDF7E2FFFCE7C046103A0020B80B0000FD
:1058C000686700087C670008083A0020015A000851
:1058D000D839002000B583B001900C4B1800FDF7BB
:1058E000EDFFFFF7D5FE80239A00094B1100180049
:1058F000FEF706FA0200074B1A60044B1800FDF78A
:10590000FFFF0023180003B000BDC046083A002086
:10591000E1570008043A002010B50B4B1B78012218
:105920005340DAB2084B1A70074B1B78002B02D099
:10593000FFF75EFE02E00020FFF7D6FD034B1800E4
:1059400000F087FAC04610BD143A002094670008A2
:1059500000B583B06B46073300221A706B460633DE
:1059600000221A701E4B00221A701E4B1B68002B5F
:1059700002D1FDF781FFF8E7FFF726F9194B1B6805
:10598000194932221800FFF741F9164B1B68174AD4
:10599000694606311800FFF771F9154B180000F041
:1059A00058FA0F4B1B781800FFF79EFD6B46063325
:1059B0001B78002BFAD00F4B1800FDF77FFF6B46CA
:1059C000063300221A700C490C4B00221800FEF717
:1059D000CDFF084B1800FDF793FFFDF74DFFFCE7E7
:1059E000143A0020103A002019590008B80B0000A2
:1059F000AC670008083A0020195B0008D83900207D
:105A000000B583B001900C4B1800FDF757FFFFF76E
:105A10003FFE80239A00094B11001800FEF770F931
:105A20000200074B1A60044B1800FDF769FF0023C2
:105A3000180003B000BDC046083A002051590008C4
:105A4000043A002000B587B013236B4400221A707B
:105A500012236B4400221A70002303930023059342
:105A6000254B00221A70254B1B68002B02D1FDF735
:105A700003FFF8E7FFF7A8F8204B186803A90023F5
:105A8000009364230022FFF731F91C4B1B681C4A6A
:105A9000122169441800FFF7F1F81A4B180000F0C2
:105AA000D8F9154B1B781800FFF71EFD039B059ACC
:105AB0009A4207D0039B0593039A134B11001800D9
:105AC00000F0C7F912236B441B78002BEED00F4B6C
:105AD0001800FDF7F3FE12236B4400221A700C49E4
