:020000040800F2
:10000000B00F0020C70300081503000817030008FD
:10001000190300081B0300081D030008000000006E
:100020000000000000000000000000001F030008A6
:10003000210300080000000007200008F51F000849
:1000400027030008290300082B0300082D030008DC
:100050002F030008310300083303000835030008AC
:1000600037030008390300083B0300083D0300087C
:100070003F0300084103000843030008450300084C
:1000800047030008000000004D0400084B0300086F
:100090004D030008AD040008510300085303000895
:1000A00055030008351D000859030008751D000898
:1000B0005D0300085F030008610300086303000894
:1000C0006503000867030008690300086B03000864
:1000D0006D0300086F030008710300087303000834
:1000E0007503000877030008790300087B03000804
:1000F0007D0300087F030008810300080000000062
:1001000000000000830300080000000085030008D1
:100110008703000800000000890300088B03000823
:100120008D0300088F030008910300089303000863
:10013000950300080000000000000000970300087D
:10014000990300089B030008000000000000000065
:10015000000000000000000000000000000000009F
:100160000000000000000000000000009D030008E7
:100170009F030008000000000000000000000000D5
:1001800000000000A10300080000000000000000C3
:10019000000000000000000000000000000000005F
:1001A0000000000000000000A3030008A5030008F1
:1001B000A7030008A9030008AB0300080000000023
:1001C00000000000AD030008000000000000000077
:0801D000AF030008B1030008B1
:1001D800304931480A1A02D0072291438D462F49E7
:1001E8002F480A1A06D00722914381F30988022270
:1001F80082F314882B482C492C4A00F03AF82C48F2
:100208002C492D4A00F035F82C482D492D4A00F08C
:1002180030F82D482D492E4A00F02BF82D482E494C
:100228002E4A00F026F82E482E492F4A00F021F8D1
:100238002E482F492F4A00F01CF82F482F4900223A
:1002480000F022F82E482F49002200F01DF81F4820
:100258001F49884205D00268043003B4904703BCA4
:10026800F7E700208646EC4600200021264A904702
:10027800FEE7884207D0521A05D0037801300B7088
:100288000131013AF9D17047884202D00270013039
:10029800FAE77047B00F0020B0070020B017002021
:1002A800B00F0020CC370008000000201C00002000
:1002B800D4030008D4030008202D0008CC37000818
:1002C8000000002000000020202D0008202D00083C
:1002D800442D0008202D0008202D0008202D00089E
:1002E800442D0008442D0008CB370008E8370008E3
:1002F80098070020980700201C000020980700207D
:100308009807002098070020D5030008FEE7FEE7BD
:10031800FEE7FEE7FEE7FEE7FEE7FEE7FEE7FEE7AD
:10032800FEE7FEE7FEE7FEE7FEE7FEE7FEE7FEE79D
:10033800FEE7FEE7FEE7FEE7FEE7FEE7FEE7FEE78D
:10034800FEE7FEE7FEE7FEE7FEE7FEE7FEE7FEE77D
:10035800FEE7FEE7FEE7FEE7FEE7FEE7FEE7FEE76D
:10036800FEE7FEE7FEE7FEE7FEE7FEE7FEE7FEE75D
:10037800FEE7FEE7FEE7FEE7FEE7FEE7FEE7FEE74D
:10038800FEE7FEE7FEE7FEE7FEE7FEE7FEE7FEE73D
:10039800FEE7FEE7FEE7FEE7FEE7FEE7FEE7FEE72D
:1003A800FEE7FEE7FEE7FEE7FEE70548854601F0C3
:1003B800A4FD044804490160FFF70ABF7047FEE73F
:0C03C8000040002008ED00E000000008EC
:1003D40000B585B01F21184801F0B0FA0346019317
:1003E40002F06EFB00230393039BFF2B08DC039AAC
:1003F4001249039B41F82320039B01330393F3E742
:100404000F4802F06AFC00230293029B3F2B0FDC8F
:10041400029B9BB21946084801F090FA03461A461B
:100424000299084802F059FC029B01330293ECE75D
:1004340001F008FEFCE700BF9C0400201C00002023
:10044400442D0008602D000800BF704708B503481C
:1004540001F020F80346184608BD00BF70040020D0
:1004640000B583B003468DF807309DF80730194670
:10047400034800F0F3FF00BF03B05DF804FB00BFC6
:100484007004002000B583B003468DF807309DF852
:1004940007301946034801F0A3FB00BF03B05DF821
:1004A40004FB00BF6405002008B5184B5B6D03F026
:1004B4000103002B07D0154B1B6D03F00103002B28
:1004C40001D0012300E00023002B1CD0104B1B782B
:1004D4001A46104B53F8223019460F4800F06FF8B3
:1004E4000B4B1B785A1CD1B2094A1170074AC2F847
:1004F4009430074B1B78022B02D9054B00221A704B
:10050400024B01221A6500BF08BD00BF0064004011
:100514006C040020000000201C04002000B587B0FB
:10052400039002910192009303980023009A019989
:1005340001F0AFF8039B4833184601F099FD029B84
:100544000593039B029A5A64039B089A5A62039B7D
:1005540000229A61039B0022DA61039B00225A6104
:10056400039B00221A62039B002283F84020059B10
:1005740003F580430593059A039BDA63059B703367
:100584001A46039B9A63059BB0331A46039B5A632E
:10059400059B03F5C4731A46039B1A63059B03F575
:1005A40018731A46039BDA62059B03F51E731A46F9
:1005B400039B9A62039B184607B05DF804FB84B062
:1005C40001900091019B9B69591C019A91619B00C8
:1005D4000393009B1A1D0092019A5169039A501CBF
:1005E400039092000A441B681360009B1A1D00923A
:1005F400019A5169039A501C039092000A441B68A3
:100604001360009B1A1D0092019A5169039A501CB1
:10061400039092000A441B681360009B1A1D009209
:10062400019A5169039A501C039092000A441B6872
:100634001360019B9A69019B1B6A9A4202D3019B36
:1006440000229A6100BF04B07047000000B585B075
:1006540003900291039B012B0CD1029B4FF6FF7276
:10066400934207D1054B0093054B064A06490748B8
:10067400FFF754FF00BF05B05DF804FB5104000808
:100684008904000865040008006400401C0400207C
:1006940008B54FF6FF710120FFF7D8FF08BD000031
:1006A400044B9B681B0ADBB203F00703DBB218465A
:1006B400704700BF00100240044B9B68DB0ADBB2AA
:1006C40003F00703DBB21846704700BF0010024076
:1006D400044B9B681B09DBB203F00F03DBB2184623
:1006E400704700BF00100240044B9B689B08DBB2BC
:1006F40003F00303DBB21846704700BF001002404A
:1007040084B001900B468DF80330274B1B6803938C
:10071400264B9B6D254A43F0805393659DF8033027
:10072400022B2ED0022B38DC002B02D0012B14D04C
:1007340033E0039B23F480630393039B43F400732C
:100744000393194A039B1360174BD3F88030164A5E
:1007540043F48073C2F8803021E0039B23F4806368
:100764000393039B43F4007303930F4A039B1360A7
:100774000D4BD3F880300C4A23F48073C2F88030D8
:100784000DE0039B23F400730393039B43F4806302
:100794000393054A039B136001E0002300E0012357
:1007A400184604B0704700BF0070004000100240BB
:1007B40084B001900C4B1B6803F4C06303930A4B91
:1007C400D3F8803003F480730293039BB3F5806FF6
:1007D40001D1022305E0029B002B01D0002300E09D
:1007E4000123184604B070470070004000B585B07E
:1007F40001900B468DF803309DF803302A4A02FB22
:1008040003F30293294A9DF803301370284802F039
:1008140064FA9DF803301946264802F05EFA029BFA
:10082400254A934203D9029B244A934210D924486F
:1008340002F053FA029B234AA2FB03239A094CF2C7
:1008440050334FF47A71204802F047FA002326E02F
:100854001E4B1B681D4A43F480331360002303932B
:10086400039B1B4A934213D8184B1B6803F40033B1
:10087400002B14BF01230023DBB2002B04D0154846
:1008840002F02BFA01230AE0039B01330393E7E709
:100894000B4802F022FA104802F01FFA002318460F
:1008A40005B05DF804FB00BF40420F00980700202C
:1008B400D82D0008042E00083F420F0080F0FA02F1
:1008C4002C2E0008D34D6210442E00080010024064
:1008D4009F860100AC2E0008C42E000810B582B01B
:1008E4000190019800F036F80446FFF7D9FE03465C
:1008F4001A46044B53F82230B4FBF3F3184602B003
:1009040010BD00BF782D000800B585B00190FFF739
:10091400D3FE03468DF80B30019800F01BF8024615
:100924009DF80B300A4951F82330B2FBF3F30393DB
:100934009DF80B30064A52F82330012B02D9039B51
:100944005B000393039B184605B05DF804FB00BFEE
:10095400782D000800B585B00190FFF7C5FE034669
:10096400032B0DD0032B0FDC012B02D0022B03D061
:100974000AE00D4B039307E00C4B1B78039303E051
:100984000B4B1B68039300BFFFF7A2FE03461A46F6
:10099400084B53F82230039AB2FBF3F30393039BFF
:1009A400184605B05DF804FB0024F4009807002005
:1009B400A4070020982D000882B001900B468DF802
:1009C40003309DF80330002B06D0084BDB68074A40
:1009D40043F48033D36005E0044BDB68034A23F41B
:1009E4008033D36000BF02B0704700BF00100240E4
:1009F40082B001900B468DF803309DF80330002B34
:100A040006D0084BDB68074A43F48013D36005E043
:100A1400044BDB68034A23F48013D36000BF02B0A5
:100A2400704700BF0010024082B001900B468DF861
:100A340003309DF80330002B06D0084BDB68074ACF
:100A440043F08073D36005E0044BDB68034A23F072
:100A54008073D36000BF02B0704700BF0010024033
:100A640000B599B0039001921A460B468DF80B30ED
:100A740013468DF80A30A04802F02FF99DF80B3088
:100A8400022B02D0032B06D01EE09C4802F025F96D
:100A9400102317931FE09A4802F01FF9994B1B6823
:100AA40003F40033002B0CBF01230023DBB2002B23
:100AB40006D0954802F011F9944802F00EF928E2A4
:100AC400934B1B78179306E08F4802F006F9914880
:100AD40002F003F91DE29048FFF76AFE0346022B79
:100AE40006D0022B37DC002B13D0012B22D032E0AE
:100AF4008A4B14938A4B15938A4B13938A4B129304
:100B04008A4B1193884B1093884B0F93864B0E930B
:100B140021E0824B1493864B1593824B1393854BA0
:100B24001293824B1193834B1093804B0F93814B01
:100B34000E9310E0794B14937D4B1593794B1393DB
:100B44007D4B1293794B11937B4B1093774B0F93FF
:100B5400794B0E9300BF019B784A02FB03F30B937E
:100B64000B9A149B9A4203D3159A0B9B9A4215D263
:100B7400654802F0B2F8149B714AA2FB0323990959
:100B84000B9B6F4AA2FB03239A09159B6C48A0FB9D
:100B940003039B096B4802F0A0F8BAE1594B9B6828
:100BA4009B08DBB203F003038DF82B30554B1B6815
:100BB40003F000730993099B002B03D19DF82B309C
:100BC400032B06D1504802F088F85F4802F085F8FC
:100BD4009FE101230D930D9B179A9A421ED90D9AFA
:100BE400179BB3FBF2F102FB01F29B1A002B11D10C
:100BF4000D9B179AB2FBF3F30893019B089AB3FB7E
:100C0400F2F2089901FB02F29B1A002B02D10D9B10
:100C1400169309E00D9B01330D93DCE73A4802F08B
:100C24005CF84A4802F059F8179A169BB2FBF3F3A2
:100C34000893089B022B08D8089B0F2B05D9324830
:100C440002F04BF8424802F048F8169B013B0F2B88
:100C540009D92D4802F041F80F23169A00213D4886
:100C640002F03BF855E1179A169BB2FBF3F3019A95
:100C7400B2FBF3F30793079B072B02D9079B7F2B48
:100C840009D9214802F029F87F23079A082132481C
:100C940002F023F83DE19DF80A30012B03D99DF8B9
:100CA4000A301F2B0AD9184802F017F89DF80A20B9
:100CB4001F230221294802F010F82AE19DF8683028
:100CC400032B0AD9104802F008F89DF86830032273
:100CD4001946234802F001F81BE19DF86C30032B00
:100CE40042D9094801F0F9FF9DF86C3003221946F6
:100CF4001C4801F0F2FF0CE1F42E0008242F000838
:100D04004C2F0008001002402C2E0008782F0008F9
:100D140098070020A82F00087004002000D8B80508
:100D24000020A10774801F0080BA8C0100127A0091
:100D34000006811480D1F00880FE210A40420F0091
:100D4400D34D6210E02F00084030000894300008B2
:100D5400183100089831000828320008A832000829
:100D6400083300085C3300089DF80A300B9AB2FB84
:100D7400F3F30993139A099B9A4203D8099A129B95
:100D84009A4215D96A4801F0A8FF139B694AA2FB4D
:100D940003239909099B674AA2FB03239A09129B1F
:100DA4006448A0FB03039B09634801F096FFB0E08D
:100DB4009DF8683001335B001A460B9BB3FBF2F3DA
:100DC4000693119A069B9A4203D8069A109B9A425C
:100DD40015D9574801F081FF119B564AA2FB032302
:100DE4009909069B534AA2FB03239A09109B514875
:100DF400A0FB03039B09514801F06FFF89E09DF8B4
:100E04006C3001335B001A460B9BB3FBF2F3059382
:100E14000F9A059B9A4203D8059A0E9B9A4215D9BC
:100E2400434801F05AFF0F9B424AA2FB032399094E
:100E3400059B404AA2FB03239A090E9B3D48A0FB55
:100E440003039B093E4801F048FF62E09DF80A3025
:100E5400DA069DF86C305B061A439DF868305B0532
:100E640013431A46079B1B021A43169B013B1B01A3
:100E74001A439DF80B3033491343CB60314B1B6845
:100E8400304A43F08073136000230C930C9B42F2AE
:100E94000F72934237D82B4B1B6803F00073002B5F
:100EA40014BF01230023DBB2002B28D0099B214A65
:100EB400A2FB03239B091946234801F00EFF069B5E
:100EC4001C4AA2FB03239B091946204801F005FF95
:100ED400059B184AA2FB03239B0919461C4801F0F1
:100EE400FCFE1C4801F0F9FE1B4A099B13601B4AD7
:100EF400069B13601A4A059B1360012313E00C9BA5
:100F040001330C93C2E70A4801F0E7FE154801F0EB
:100F1400E4FE114B00221A60104B00221A60104BA1
:100F240000221A600023184619B05DF804FB00BFC4
:100F34002C2E0008D34D6210B0330008243400086E
:100F440098340008001002400C35000824350008CD
:100F540054350008AC2E00089C070020A007002090
:100F6400A4070020C42E000800B58BB001900846E9
:100F740011461A4603468DF803300B468DF80230AD
:100F840013468DF80130824801F0A7FE9DF8033026
:100F9400032B2AD0032B42DC012B02D0022B06D0D8
:100FA4003DE07C4801F099FE7B4B09933FE07B4890
:100FB40001F093FE7A4B1B6803F40033002B0CBF43
:100FC40001230023DBB2002B07D0764801F085FE15
:100FD400754801F082FE0023D5E0744B1B781A4655
:100FE400734B03FB02F3099321E0724801F075FE91
:100FF4006B4B1B6803F00073002B0CBF0123002311
:10100400DBB2002B07D0674801F067FE6A4801F0A5
:1010140064FE0023B7E0694B1B68099307E061484D
:1010240001F05BFE664801F058FE0023ABE0019836
:10103400FFF7BEFB0346022B14D0022B19DC002B56
:1010440002D0012B07D014E05E4B08935D4B07934D
:101054005C4B06930FE05C4B08935B4B07935A4B36
:10106400069308E0594B0893584B0793574B069344
:1010740001E0002387E09DF80230554A52F82330FE
:10108400099AB2FBF3F30593059A089B9A4209D98E
:10109400444801F022FE089A05994E4801F01DFECD
:1010A400002370E09DF801304B4A52F82330059A32
:1010B400B2FBF3F30493049A079B9A4209D9394883
:1010C40001F00BFE079A0499444801F006FE002340
:1010D40059E09DF83030404A52F82330059AB2FB6B
:1010E400F3F30393039A069B9A4208D92D4801F01F
:1010F400F4FD06993A4801F0F0FD002343E09DF821
:1011040034301A460599374800F034FB244B9B6869
:101114000293029B23F47F5323F0330302939DF83D
:1011240001301A029DF83030DB021A439DF8023078
:101134001B011A439DF8033013431A46029B1343C1
:101144000293174A029B9360059B274AA2FB032341
:101154009B091946254801F0C0FD049B224AA2FBC5
:1011640003239B091946224801F0B7FD039B1E4A3D
:10117400A2FB03239B0919461E4801F0AEFD1E483D
:1011840001F0ABFD012318460BB05DF804FB00BF72
:101194006C350008242F00080024F4004C2F0008AC
:1011A400001002402C2E0008A035000898070020EB
:1011B40040420F001036000828360008A40700201B
:1011C4007836000880D1F00880FE210A80BA8C01AC
:1011D400982D0008B0360008782D00080037000864
:1011E4004C3700089C040020D34D62109837000847
:1011F400AC370008BC370008AC2E000884B001905E
:101204000B468DF803309DF80330022B11D80A4B9E
:10121400D3F8883023F0405303939DF803301B0721
:101224001A46039B13430393034A039BC2F8883073
:1012340000BF00BF04B070470010024082B00190AC
:101244000B468DF803309DF80330002B06D0084B75
:10125400DB6C074A43F00103D36405E0044BDB6C09
:10126400034A23F00103D36400BF02B0704700BFF8
:101274000010024082B001900B468DF803309DF8B7
:101284000330002B06D0084BDB6C074A43F0020303
:10129400D36405E0044BDB6C034A23F00203D364FC
:1012A40000BF02B0704700BF0010024082B001903E
:1012B4000B468DF803309DF80330002B06D0084B05
:1012C400DB6C074A43F00403D36405E0044BDB6C96
:1012D400034A23F00403D36400BF02B0704700BF85
:1012E4000010024082B001900B468DF803309DF847
:1012F4000330002B06D0084BDB6C074A43F008038D
:10130400D36405E0044BDB6C034A23F00803D36485
:1013140000BF02B0704700BF0010024082B00190CD
:101324000B468DF803309DF80330002B06D0084B94
:10133400DB6C074A43F01003D36405E0044BDB6C19
:10134400034A23F01003D36400BF02B0704700BF08
:101354000010024082B001900B468DF803309DF8D6
:101364000330002B06D0084BDB6C074A43F0200304
:10137400D36405E0044BDB6C034A23F02003D364FD
:1013840000BF02B0704700BF0010024082B001905D
:101394000B468DF803309DF80330002B06D0084B24
:1013A400DB6C074A43F04003D36405E0044BDB6C79
:1013B400034A23F04003D36400BF02B0704700BF68
:1013C4000010024082B001900B468DF803309DF866
:1013D4000330022B16D80D4BD3F888300B4A23F474
:1013E4004053C2F8883000238DF803309DF8032061
:1013F400064BD3F888301146044A0B43C2F88830B0
:10140400012300E00023184602B070470010024098
:1014140082B001900B468DF803309DF80330022B07
:1014240016D80D4BD3F888300B4A23F44043C2F846
:10143400883000238DF803309DF80320064BD3F841
:1014440088301146044A0B43C2F88830012300E077
:101454000023184602B070470010024082B0019089
:101464000B468DF803309DF80330002B06D0084B53
:101474009B6D074A43F00073936505E0044B9B6D35
:10148400034A23F00073936500BF02B0704700BFA6
:101494000010024000B585B00190144BD3F8883099
:1014A4001B0E03F003030393039B022B13D0039B34
:1014B400022B15D8039B002B03D0039B012B07D0D1
:1014C4000EE00B4B1B781A460A4B03FB02F308E0B1
:1014D400094B1B6805E00948FFF700FA034600E0E2
:1014E4000023184605B05DF804FB00BF001002405D
:1014F4009807002040420F00A0070020700400203D
:1015040084B001900B468DF803309DF80330022B14
:1015140001D9002313E00B4BD3F888300393039BCA
:1015240023F0407303939DF803301B061A46039B74
:1015340013430393034A039BC2F8883001231846DC
:1015440004B070470010024082B001900B468DF841
:1015540003309DF80330022B16D80D4BD3F8883096
:101564000B4A23F44033C2F8883000238DF803304B
:101574009DF80320064BD3F888301146044A0B43E8
:10158400C2F88830012300E00023184602B07047F7
:101594000010024082B001900B468DF803309DF894
:1015A4000330002B06D0084B1B6E074A43F001039F
:1015B400136605E0044B1B6E034A23F00103136614
:1015C40000BF02B0704700BF0010024082B001901B
:1015D4000B468DF803309DF80330002B06D0084BE2
:1015E4001B6E074A43F40063136605E0044B1B6E4D
:1015F400034A23F40063136600BF02B0704700BFC0
:101604000010024082B003468DF8073000BF02B0DC
:10161400704782B003468DF8073000BF02B07047B0
:1016240000B585B003900291019203980023019ABA
:10163400029900F02EF8039B184605B05DF804FBF0
:1016440082B0019000BF02B07047000000B583B0C3
:1016540001900091019B012B09D1009B4FF6FF7271
:10166400934204D1044A05490548FFF7D9FF00BF56
:1016740003B05DF804FB00BF171600080916000844
:101684007404002008B54FF6FF710120FFF7DEFF58
:1016940008BD00B585B00390029101920093039BAD
:1016A4000C33184600F0E4FC039B029A1A60039B77
:1016B400019A5A60039B009A9A60039B184605B0EE
:1016C4005DF804FB00B583B001900B468DF8033040
:1016D400019B1B68002B05D0019B1B689DF8032010
:1016E4001046984700BF03B05DF804FB00B583B013
:1016F40001900B468DF80330019B5B68002B05D0ED
:10170400019B5B689DF803201046984700BF03B017
:101714005DF804FB00B585B0039002910192039833
:101724000023019A0299FFF7B4FF039B184605B002
:101734005DF804FB00B583B001900091019B012B7F
:1017440009D1009B4FF6FF72934204D1002200217D
:101754000348FFF7DFFF00BF03B05DF804FB00BFE1
:101764008804002008B54FF6FF710120FFF7E2FF5F
:1017740008BD000000B58DB00390029113468DF8AA
:1017840007303448FFF714F80346022B06D0022B27
:1017940025DC002B0DD0012B16D020E02E4B0A9314
:1017A4002E4B09932E4B08932E4B07932D4B0693E8
:1017B40015E02D4B0A932D4B09932D4B08932D4B7C
:1017C40007932D4B06930AE02C4B0A932C4B099359
:1017D4002C4B08932C4B07932C4B069300BF029A77
:1017E4000A9B9A4203D800238DF82F301EE0029AF8
:1017F400099B9A4203D801238DF82F3016E0029AF0
:10180400089B9A4203D802238DF82F300EE0029AE7
:10181400079B9A4203D803238DF82F3006E0029ADF
:10182400069B9A4202D804238DF82F30184B1B686C
:101834000593059B23F00F0305939DF82F30059A1C
:1018440013430593124A059B136000BF0DB05DF866
:1018540004FB00BF70040020001BB70000366E01BB
:1018640080BA8C01C0878B3B80C3C9010087930376
:10187400804A5D05000E270780D1F00880CC06025F
:1018840000990D048065140600321B0880FE210AAD
:101894000020024082B001900B468DF803309DF881
:1018A4000330002B06D0084B1B68074A43F48073AF
:1018B400136005E0044B1B68034A23F48073136030
:1018C40000BF02B0704700BF0020024082B0019008
:1018D4000B468DF803309DF80330002B06D0084BDF
:1018E4001B68074A43F48063136005E0044B1B68DC
:1018F400034A23F48063136000BF02B0704700BF43
:101904000020024082B001900B468DF803309DF810
:101914000330002B06D0084B1B68074A43F40073BE
:10192400136005E0044B1B68034A23F4007313603F
:1019340000BF02B0704700BF0020024084B0019095
:101944000B46ADF802300A4B1B885B089BB203932D
:10195400BDF80230039A9A4202D2039BADF80230DA
:10196400BDF8023003F58033DB02184604B070473B
:10197400E075FF1F00B583B003468DF807309DF86E
:10198400073019460348FFF759FC00BF03B05DF860
:1019940004FB00BF7004002000B583B003468DF83B
:1019A40007309DF8073019460348FFF763FC00BF72
:1019B40003B05DF804FB00BF7004002000B583B0E1
:1019C40003468DF807309DF8073019460348FFF7A2
:1019D40089FC00BF03B05DF804FB00BF7004002065
:1019E40000B583B003468DF807309DF807301946DB
:1019F4000348FFF793FC00BF03B05DF804FB00BF8E
:101A04007004002000B583B003468DF807309DF8BC
:101A1400073019460348FFF79DFC00BF03B05DF88B
:101A240004FB00BF7004002000B583B003468DF8AA
:101A340007309DF8073019460348FFF7A7FC00BF9D
:101A440003B05DF804FB00BF7004002000B585B04E
:101A5400039002910192009303980023009A019944
:101A6400FFF717FE039B029A5A61039B9DF8182007
:101A74001A76039B184605B05DF804FB00B585B0E3
:101A840003900291039B012B3DD1029B4FF6FF7201
:101A9400934238D10023009300231D4A4FF0904114
:101AA4001C48FFF7D3FF0123009300231A4A1B4964
:101AB4001B48FFF7CBFF022300930023164A194962
:101AC4001948FFF7C3FF032300930023174A18495B
:101AD4001848FFF7BBFF042300930023164A174955
:101AE4001748FFF7B3FF052300930023154A16494F
:101AF4001648FFF7ABFF062300930023144A154949
:101B04001548FFF7A3FF00BF05B05DF804FB00BF55
:101B140079190008A00400209D1900080004004859
:101B2400BC04002000080048D8040020C1190008A3
:101B3400000C0048F4040020E519000800100048D7
:101B440010050020091A0008001400482C05002084
:101B54002D1A0008001800484805002008B54FF663
:101B6400FF710120FFF78AFF08BD000082B0034621
:101B74000A468DF8073013468DF806309DF8073075
:101B840003F01F03012202FA03F1044A9DF807300F
:101B94005B1142F8231000BF02B0704700E100E07F
:101BA40000B585B003900291019203980023019A35
:101BB4000299FFF76EFD039B184605B05DF804FB20
:101BC40000B583B001900B468DF803309DF80330C7
:101BD40019461920FFF7CAFF00BF03B05DF804FBE4
:101BE40000B583B001900B468DF803309DF80330A7
:101BF40019461520FFF7BAFF9DF803301946162041
:101C0400FFF7B4FF00BF03B05DF804FB00B583B079
:101C140001900091019B012B09D1009B4FF6FF72AB
:101C2400934204D1002200210348FFF7B9FF00BF0B
:101C340003B05DF804FB00BF6405002008B54FF64F
:101C4400FF710120FFF7E2FF08BD000000B583B07B
:101C540003468DF807309DF8073019460348FFF70F
:101C640099FC00BF03B05DF804FB00BF70040020C2
:101C740000B585B003900291019203980023019A64
:101C84000299FFF706FD039B184605B05DF804FBB7
:101C940000B583B001900091019B012B09D1009BF9
:101CA4004FF6FF72934204D1002204490448FFF71F
:101CB400DFFF00BF03B05DF804FB00BF511C000848
:101CC4007805002008B54FF6FF710120FFF7E0FF0B
:101CD40008BD000008B50348FEF716FE0346184683
:101CE40008BD00BF7004002000B583B003468DF822
:101CF40007309DF8073019460348FFF767FC00BF1B
:101D040003B05DF804FB00BF7004002000B583B08D
:101D140003468DF807309DF8073019460348FFF74E
:101D24004FFF00BF03B05DF804FB00BF6405002053
:101D340008B50D4BDB6803F00103002B07D00A4BF9
:101D44001B6903F00103002B01D0012300E00023F1
:101D5400002B06D0044B6FF001021A61034800F017
:101D64008FF800BF08BD00BF002C01409005002083
:101D740000BF704700B585B00390029101920093B3
:101D840003980023009A0199FFF783FC039B029AAE
:101D94005A61039B069A1A65039B00225A650399AC
:101DA4004FF000024FF00003C1E90623039B002219
:101DB4009A65039B0022DA65039B00221A66039B43
:101DC40000225A66039B184605B05DF804FB000028
:101DD40000B583B00190019800F03EF803460F4A25
:101DE400A2FB03239B0C9BB25A1E019B5B699A6264
:101DF400019B5B694EF66022DA62019B5B694EF6D9
:101E040060225A62019B5B69DA68019B5B6942F05C
:101E14000102DA6000BF03B05DF804FB83DE1B43FC
:101E240082B00190019B5B691A68019B5B6942F077
:101E340001021A6000BF02B0704782B00190019B9A
:101E44005B695B6A184602B0704782B001904EF637
:101E54006023184602B0704700B583B00190019B1F
:101E64001B6D98470346184603B05DF804FB82B027
:101E740001900091019B009A5A6500BF02B070471F
:101E840030B583B00190019B5B6D002B02D0019BA8
:101E94005B6D9847019BD3E90623541C43F100056D
:101EA400019BC3E9064500BF03B030BD00B585B052
:101EB40003900291039B012B0CD1029B4FF6FF72FE
:101EC400934207D1054B0093054B064A0649074840
:101ED400FFF750FF00BF05B05DF804FBD91C0008F4
:101EE400111D0008ED1C0008002C01409005002085
:101EF40008B54FF6FF710120FFF7D8FF08BD08B5FC
:101F040000F004F800F0C8FD00BF08BD00B583B0C0
:101F140000213448FEF7F4FB18213248FEF766FC32
:101F240000230193032300931F234FF49072032192
:101F34002D48FEF795FD01212B48FEF73DFD0121BB
:101F44002948FEF755FD01212748FEF76DFD0121C3
:101F54002448FFF753F902212248FFF7D1FA02215E
:101F64002048FFF72FFA02211E48FFF751FA0221F9
:101F74001C48FFF7E9FA2123019304230093052366
:101F8400002203211748FEF7EFFF01211748FFF74E
:101F940081FC01211548FFF799FC01211348FFF743
:101FA400B1FC01210F48FFF749F901210D48FFF762
:101FB40061F901210B48FFF779F901210948FFF77D
:101FC40091F901210748FFF7A9F901210548FFF715
:101FD400C1F901210348FFF7D9F900BF03B05DF847
:101FE40004FB00BF70040020710400209C04002046
:101FF4004EF60450CEF20000016851F080510160A9
:102004007047EFF309804EF21003CEF200034FF055
:1020140000011960734620E9F80F00F035FCB0E8C0
:10202400F80F80F309884EF2100CCEF2000C4FF03A
:102034000701CCF800104FF00001CCF8081008B4E8
:1020440000BD00BF03B44EF60450CEF20000016898
:1020540051F08051016003BC7047000082B00190D0
:10206400024B01221A7000BF02B07047F80500202D
:1020740082B00190019B00221A60019B00225A60E9
:10208400019B184602B0704700B585B0019000F07E
:102094007DFA72B600BF019B1B680393019B1B680A
:1020A4005A1C019B1A6062B600BF019B5B68039ACD
:1020B4009A4214BF01230023DBB2002B02D0FFF7A6
:1020C400C1FFF2E7039B184605B05DF804FB00006E
:1020D40000B583B0019072B600BF019B5B685A1CC7
:1020E400019B5A6062B600BF00F074FA0A4B1B7879
:1020F400002B07D0019B1A68019B5B689A4201D0B0
:10210400012300E00023002B01D0FFF79BFF00BF59
:1021140003B05DF804FB00BFF805002008B5084BC8
:1021240001221A73064B01225A734FF400710548B9
:1021340000F0AEF9044B01221A7000BF08BD00BFC5
:10214400FC05002051210008F806002000B583B0EA
:102154004648FFF799FF00230193019B072B7CDC82
:102164004349019A1346DB009B1A9B000B440C3332
:102174001B7883F00103DBB2002B28D03C49019A81
:102184001346DB009B1A9B000B440E331B7883F031
:102194000103DBB2002B1AD03549019A1346DB0048
:1021A4009B1A9B000B440D331B78002B0FD0304936
:1021B400019A1346DB009B1A9B000B440D3300224B
:1021C4001A702C4B1B88013B9AB22A4B1A8028495F
:1021D400019A1346DB009B1A9B000B440E331B78B9
:1021E400002B36D02249019A1346DB009B1A9B0030
:1021F4000B440C331B7883F00103DBB2002B28D093
:102204001B49019A1346DB009B1A9B000B441033B5
:102214001B7883F00103DBB2002B1AD0019800F085
:1022240073FA1349019A1346DB009B1A9B000B4473
:102234000F331B78002B0CD00D49019A1346DB0099
:102244009B1A9B000B440F3300221A70019800F074
:10225400FBF9019B013301937FE70448FFF738FF43
:10226400FFF7F0FE00F0E6FC72E700BFF006002086
:10227400FC0500200C00002000B587B003900291FB
:1022840001927F48FFF700FF7E4B1B88072B05D97F
:102294007B48FFF71DFF4FF0FF33EDE0012305936B
:1022A400059B072BD4BF01230023DBB2002B1CD0DA
:1022B400059A75491346DB009B1A9B000B440D33AA
:1022C4001B7883F00103DBB2002B0AD0059A6E4918
:1022D4001346DB009B1A9B000B440D3301221A703A
:1022E40003E0059B01330593DAE7059A6649134633
:1022F400DB009B1A9B000B441B68002B0CBF0123C3
:102304000023DBB2002B0FD0059A5F491346DB0094
:102314009B1A9B000B440D3300221A705848FFF798
:10232400D7FE4FF0FF33A7E0059A57491346DB0069
:102334009B1A9B000B440833019A1A60019B9B1063
:102344000193059A50491346DB009B1A9B000B44EA
:102354001A68019B03F18043013B9B0013444FF037
:10236400C2421A60059A48491346DB009B1A9B0037
:102374000B441A68019B03F18043023B9B00134406
:10238400039A1A60059A40491346DB009B1A9B0086
:102394000B441A68019B03F18043033B9B001344E5
:1023A4003A4A1A60059A38491346DB009B1A9B0087
:1023B4000B441A68019B03F18043083B9B001344C0
:1023C400029A1A60059A30491346DB009B1A9B0057
:1023D4000B441A68019B03F18043113B9B00134497
:1023E4006FF002021A60059A27491346DB009B1A14
:1023F4009B000B441968019B03F18043113B9B0034
:10240400059A194420481346DB009B1A9B00034499
:1024140004331960059A1C491346DB009B1A9B0080
:102424000B44123300221A80059A17491346DB0025
:102434009B1A9B000B440E3300221A70059A124912
:102444001346DB009B1A9B000B441433039A1A6057
:10245400059A0D491346DB009B1A9B000B440C3371
:1024640001221A70074B1B8801339AB2054B1A805C
:102474000348FFF72DFE059B184607B05DF804FBE3
:10248400F00600200C000020FC0500202126000896
:1024940000B583B001900091009A00210198FFF7E4
:1024A400EBFE0346184603B05DF804FB00B583B0A9
:1024B40001903249019A1346DB009B1A9B000B449E
:1024C4001233B3F90030002B02DDFFF7BBFDF0E758
:1024D4002B48FFF7D9FD2B4B1B881A46019B9342CF
:1024E40044D0019B002B41DD2449019A1346DB00B3
:1024F4009B1A9B000B440D331B78012B36D11F49CB
:10250400019A1346DB009B1A9B000B440C330022F8
:102514001A701A49019A1346DB009B1A9B000B445C
:102524000D3300221A701549019A1346DB009B1AD9
:102534009B000B4400221A601049019A1346DB00E9
:102544009B1A9B000B44043300221A600B49019A26
:102554001346DB009B1A9B000B44083300221A60CD
:10256400094B1B88013B9AB2074B1A800448FFF7BA
:10257400AFFD00BF03B05DF804FB00BFFC05002005
:10258400F0060020EC0600200C00002072B600BF0C
:102594000E4B1B881A460E491346DB009B1A9B0000
:1025A4000B441233B3F900309BB201339BB218B21F
:1025B40007491346DB009B1A9B000B441233024667
:1025C4001A8062B600BF00BF704700BFEC0600204F
:1025D400FC05002072B600BF0E4B1B881A460E493C
:1025E4001346DB009B1A9B000B441233B3F90030F3
:1025F4009BB2013B9BB218B207491346DB009B1AFE
:102604009B000B44123302461A8062B600BF00BF1F
:10261400704700BFEC060020FC05002008B5084BFD
:102624001B881946074A0B46DB005B1A9B001344C0
:102634000C3300221A70FFF705FD00BF08BD00BF70
:10264400EC060020FC05002084B0019072B600BFA7
:102654002A49019A1346DB009B1A9B000B440C3356
:102664001B7883F00103DBB2002B37D02349019A96
:102674001346DB009B1A9B000B4410331B78002B82
:102684002CD01E49019A1346DB009B1A9B000B4475
:102694000C3301221A700023ADF80E30BDF80E3051
:1026A400072B14D8BDF80E30154A32F81330002B1E
:1026B40007D1BDF80E30019A91B2114A22F81310D5
:1026C40005E0BDF80E300133ADF80E30E6E70D4BF2
:1026D4001B680C4A43F08053136009E00749019AD0
:1026E4001346DB009B1A9B000B440F3301221A7024
:1026F40062B600BF00BF04B0704700BFFC050020F5
:10270400DC06002004ED00E084B001904949019A00
:102714001346DB009B1A9B000B4408331B689B1079
:1027240003934449019A1346DB009B1A9B000B4414
:102734001A68039B03F18043013B9B0013444FF051
:10274400C2421A603B49019A1346DB009B1A9B0064
:102754000B44143318683749019A1346DB009B1A5B
:102764009B000B441A68039B03F18043023B9B00CC
:10277400134402461A602F49019A1346DB009B1A40
:102784009B000B441A68039B03F18043033B9B00AB
:102794001344294A1A602749019A1346DB009B1AFD
:1027A4009B000B44183318682249019A1346DB0036
:1027B4009B1A9B000B441A68039B03F18043083B5C
:1027C4009B00134402461A601A49019A1346DB001F
:1027D4009B1A9B000B441A68039B03F18043113B33
:1027E4009B0013446FF002021A601249019A1346C7
:1027F400DB009B1A9B000B441A68039B03F1804384
:10280400113B9B00D1180B48019A1346DB009B1A1D
:102814009B000344043319600649019A1346DB0004
:102824009B1A9B000B44103301221A7000BF04B0A2
:10283400704700BFFC0500204128000808B572B6A7
:1028440000BF0F4B1B8819460E4A0B46DB005B1A70
:102854009B001344103300221A70094B1B8819463D
:10286400084A0B46DB005B1A9B0013440C3300221E
:102874001A7062B600BFFFF7E5FB00BF08BD00BFDA
:10288400EC060020FC05002084B001900023039393
:10289400494B1B881946494A0B46DB005B1A9B00CF
:1028A40013440433019A1A6072B600BF444B1B8868
:1028B400002B41D0424B1A883F4B1A80414B1B7866
:1028C400002B04D13C4B1B881A463F4B1A603D4BEE
:1028D40001221A7000230393039B062B14DC039B31
:1028E4000133374A32F81330002B0CD0039B0133E9
:1028F400334A32F81310324A039B22F81310039B15
:1029040001330393E8E700BF2D4A039B002122F81B
:10291400131062B600BF284B1B881946274A0B4682
:10292400DB005B1A9B0013440C331B7883F0010318
:10293400DBB2002B30D000E000BF62B600BF214BF9
:102944001B78002B07D0204B1B689AB21A4B1A80B5
:102954001C4B00221A70184B1B8801339AB2164B79
:102964001A80154B1B881946144A0B46DB005B1A68
:102974009B0013440C331B78002B0DD10E4B1B888A
:1029840001339AB20C4B1A800B4B1B88072BE8D9E6
:10299400094B00221A80E4E7074B1B881946074AB3
:1029A4000B46DB005B1A9B00134404331B68019342
:1029B400019B184604B07047EC060020FC0500207B
:1029C400DC060020F9060020FC06002000B583B0D8
:1029D40001900091019B012B07D1009B4FF6FF72E0
:1029E400934202D10348FFF743FB00BF03B05DF8F5
:1029F40004FB00BFF006002008B54FF6FF7101206C
:102A0400FFF7E4FF08BD000082B0034600918DF893
:102A140007309DF90730002B0ADB009BDAB20C4922
:102A24009DF907301201D2B20B4483F800230BE066
:102A3400009BDAB207499DF8073003F00F03043B0B
:102A44001201D2B20B441A7600BF02B0704700BF25
:102A540000E100E000ED00E000B583B00190019BCF
:102A6400013BB3F1807F01D301230FE0094A019BAD
:102A7400013B53600F214FF0FF30FFF7C5FF054BBB
:102A840000229A60034B07221A600023184603B001
:102A94005DF804FB10E000E082B04FF08053019336
:102AA400019B064A934205D8019B1A1D01920022FC
:102AB4001A60F5E700BF02B0704700BF03060010BC
:102AC40000B583B06B461846FFF7D2FA6B4618463A
:102AD400FFF7C4FA154B00225A600F216FF0010072
:102AE400FFF792FF00F084F8FFF718FB44F620602C
:102AF400FFF7B2FF01210E48FEF7E4FD0C48FEF794
:102B04009FFD01210A48FEF7F1FD01210948FEF766
:102B1400D9FD01210848FEF7D5FD01210648FEF73D
:102B2400E5FD00BF03B05DF804FB00BF30EF00E03B
:102B340074040020780500208804002000B583B0C8
:102B44000190019B5B69002B04D0019B5B691846D3
:102B5400FFF7ACFC019B184603B05DF804FB0000D2
:102B640010B582B00190054C044B9C4204D0303C1B
:102B74002046FFF7E3FFF7E702B010BD000700208F
:102B840000B583B001900091019B012B09D1009BFA
:102B94004FF6FF72934204D1044A0549002000F025
:102BA40095F800BF03B05DF804FB00BF8807002060
:102BB400652B000808B54FF6FF710120FFF7E0FF11
:102BC40008BD000030B4084B1B6818464FF00001E4
:102BD400064BD3E90023841841EB0305034BC3E9F7
:102BE400004500BF30BC70471800002010000020D2
:102BF40008B501210C48FEF765FD0B48FFF7E8F81E
:102C04000948FFF722F90346084A136008490648B1
:102C1400FFF72DF901210448FEF768FD0248FFF78C
:102C2400FFF800BF08BD00BF900500201800002079
:102C3400C92B0008F0B583B01748FFF7FEF8034628
:102C440018464FF00001154BD3E90023861841EBD9
:102C54000307CDE90067124BD3E90023DDE9000146
:102C6400994208BF90420BD20E4B1B681A464FF094
:102C74000003DDE90001841841EB0305CDE90045BB
:102C84000749DDE90023C1E90023DDE900231046FB
:102C9400194603B0F0BD00BF9005002010000020CD
:102CA4000007002018000020064B1B681F2B01D9C9
:102CB40001207047044A42F823000133014A13609B
:102CC400002070478C0700200807002008B508463C
:102CD400FFF7EAFF08BD704770470FB400B50A203C
:102CE40001A900F003F802BC04B0084738B5044653
:102CF4000D46FFF7F0FF074B1D6044F08004064BC0
:102D04001C601A461368002BFCD1FFF7E5FF014B4A
:0C2D1400186838BD9407002090070020CC
:102D2000950600088916000869170008611B00084D
:102D3000411C0008C91C0008F51E0008FD290008F8
:042D4000B92B0008A3
:102D4400536563746F722061646472657373207079
:102D540072696E74696E67212100000053656374A3
:102D64006F725B253032645D203D20307825303829
:102D7400780A0000010000000100000001000000CA
:102D84000100000002000000040000000800000030
:102D9400100000000100000001000000010000001C
:102DA400010000000100000001000000010000001B
:102DB4000100000002000000040000000800000000
:102DC400100000004000000080000000000100002E
:102DD400000200000A232323232323232323232065
:102DE40048534520EC9EA5ECB99820EC84A4ECA0B3
:102DF4009520232323232323232323230A0A0000A8
:102E0400EC99B8EBB68020ED81ACEBA6ACEC8AA4CF
:102E1400ED838820ED81B4EB9FAD203D2025642017
:102E24004D487A0A00000000EC9EA5ECB99820EC0D
:102E340084A4ECA09520EC8BA4ED8CA82E0A0000B1
:102E440048534520ED81B4EB9FADEC9DB420EC9E3E
:102E540085EBA0A520ED9788EC9AA920EBB294EC21
:102E64009C84EBA5BC20ECB488EAB3BCED9688EC5A
:102E74008AB5EB8B88EB8BA42E202564206B487AD3
:102E8400286D696E29203C202564206B487A2875BA
:102E940073657229203C202564206B487A286D6173
:102EA40078292E0A00000000EC9EA5ECB99820ECCD
:102EB40084A4ECA09520EC9984EBA38C2E0A00004A
:102EC400ED999CEC84B1ED999420EB8C80EAB8B038
:102ED40020EC8B9CEAB084EC9D8420ECB488EAB3AB
:102EE400BCED9688EC8AB5EB8B88EB8BA42E0A009C
:102EF4000A23232323232323232323204D61696EC1
:102F040020504C4C20EC9EA5ECB99820EC84A4EC09
:102F1400A09520232323232323232323230A0A00E6
:102F2400ED81B4EB9FAD20EC868CEC8AA4203D208F
:102F340048534920EB82B4EBB6802052432031360B
:102F44004D487A0A00000000ED81B4EB9FAD20ECFF
:102F5400868CEC8AA4203D2048534520EC99B8EB9C
:102F6400B68020ED81ACEBA6ACEC8AA4ED83880A94
:102F74000000000048534520ED81B4EB9FADEC9D6B
:102F8400B420ED999CEC84B1ED9994EB9098ECA766
:102F94008020EC958AEC9598EC8AB5EB8B88EB8BCA
:102FA400A42E0A00ED81B4EB9FAD20EC868CEC8A54
:102FB400A4EC9D9820EC84A0ED839D20EBB294ECCE
:102FC4009C84EBA5BC20ECB488EAB3BCED9688ECF9
:102FD4008AB5EB8B88EB8BA42E0A000056434F2056
:102FE400ED81B4EB9FADEC9DB420ED9788EC9AA9EC
:102FF40020EBB294EC9C84EBA5BC20EBB297EC964E
:10300400B4EB82ACEC8AB5EB8B88EB8BA42E202539
:1030140064206B487A286D696E29203C2025642041
:103024006B487A287573657229203C202564206BCF
:10303400487A286D6178292E0A000000EC9EA5ECE0
:10304400B998EAB08020EC9DB4EBAFB820ED999C20
:10305400EC84B1ED9994EB9098EC96B420EC8B9CB5
:10306400EC8AA4ED859C20ED81B4EB9FADEC9CBC77
:10307400EBA19C20EC84A4ECA095EB9098EC96B486
:1030840020EC9E88EC8AB5EB8B88EB8BA42E0A008F
:103094004DEC9D9820EAB384EC82B020EAB092EC27
:1030A4009D8420ECB0BEEC9D8420EC889820EC97A5
:1030B40086EC8AB5EB8B88EB8BA42E20EC9E85EBFB
:1030C400A0A520EC868CEC8AA4EC9D9820ED81B41C
:1030D400EB9FADEAB3BC20EC84A4ECA095ED959CE9
:1030E4002056434F20ED81B4EB9FADEC9DB420EC12
:1030F400A095ED9995ED959CECA78020ED9995EC24
:103104009DB8ED95B4ECA3BCEC84B8EC9A942E0A6B
:103114000000000056434F20EC9E85EBA0A520ED57
:1031240081B4EB9FADEC9DB420EB8488EBACB42070
:10313400EB82AEEC8AB5EB8B88EB8BA42E20EC9E55
:1031440085EBA0A520EC868CEC8AA4EC9D9820ED60
:1031540081B4EB9FADEAB3BC20EC84A4ECA095ED64
:10316400959C2056434F20ED81B4EB9FADEC9DB46C
:1031740020ECA095ED9995ED959CECA78020ED9918
:1031840095EC9DB8ED95B4ECA3BCEC84B8EC9A94A2
:103194002E0A0000EAB384EC82B020EAB092204DFB
:1031A400EC9DB420ED9788EC9AA920EBB294EC9CAA
:1031B40084EBA5BC20ECB488EAB3BCED9688EC8A19
:1031C400B5EB8B88EB8BA42E20EC9E85EBA0A52081
:1031D400EC868CEC8AA4EC9D9820ED81B4EB9FAD39
:1031E400EC9DB420ECA095ED9995ED959CECA78011
:1031F40020ED9995EC9DB8ED95B4ECA3BCEC84B8A6
:10320400EC9A942E202564286D696E29203C202593
:1032140064287573657229203C202564286D6178C3
:10322400292E0A00EAB384EC82B020EAB092204E40
:10323400EC9DB420ED9788EC9AA920EBB294EC9C19
:1032440084EBA5BC20ECB488EAB3BCED9688EC8A88
:10325400B5EB8B88EB8BA42E20EC9DB8EC9E9020D4
:1032640076636F4D687AEC9D9820EAB092EC9D8469
:1032740020ED9995EC9DB8ED95B4ECA3BCEC84B825
:10328400EC9A942E202564286D696E29203C202513
:1032940064287573657229203C202564286D617843
:1032A400292E0A00EC9DB8EC9E902070446976ECBF
:1032B4009D9820EC84A4ECA095EC9DB420ED978817
:1032C400EC9AA920EBB294EC9C84EBA5BC20EBB265
:1032D40097EC96B4EB82ACEC8AB5EB8B88EB8BA4C1
:1032E4002E202564286D696E29203C2025642875CC
:1032F40073657229203C202564286D6178292E0A83
:1033040000000000EC9DB8EC9E902071446976ECBE
:103314009D9820EC84A4ECA095EC9DB420ED9788B6
:10332400EC9AA920EBB294EC9C84EBA5BC20EBB204
:1033340097EC96B4EB82ACEC8AB5EB8B88EB8BA460
:103344002E202564287573657229203C2025642865
:103354006D6178292E0A0000EC9DB8EC9E902072D5
:10336400446976EC9D9820EC84A4ECA095EC9DB483
:1033740020ED9788EC9AA920EBB294EC9C84EBA501
:10338400BC20EBB297EC96B4EB82ACEC8AB5EB8B39
:1033940088EB8BA42E202564287573657229203C44
:1033A400202564286D6178292E0A00004D61696E1C
:1033B40020504C4CEC9D98205020ECB69CEBA0A5E2
:1033C40020ECA3BCED8C8CEC8898EAB08020ED97BF
:1033D40088EC9AA920EBB294EC9C84EBA5BC20EB7E
:1033E400B297EC96B4EB82ACEC8AB5EB8B88EB8BA2
:1033F400A42E202564206B487A286D696E29203C10
:10340400202564206B487A287573657229203C2036
:103414002564206B487A286D6178292E0A00000003
:103424004D61696E20504C4CEC9D98205120ECB6B7
:103434009CEBA0A520ECA3BCED8C8CEC8898EAB0A6
:103444008020ED9788EC9AA920EBB294EC9C84EB55
:10345400A5BC20EBB297EC96B4EB82ACEC8AB5EB4E
:103464008B88EB8BA42E202564206B487A286D6909
:103474006E29203C202564206B487A287573657278
:1034840029203C202564206B487A286D6178292EF8
:103494000A0000004D61696E20504C4CEC9D982050
:1034A4005220ECB69CEBA0A520ECA3BCED8C8CECDC
:1034B4008898EAB08020ED9788EC9AA920EBB29422
:1034C400EC9C84EBA5BC20EBB297EC96B4EB82ACFD
:1034D400EC8AB5EB8B88EB8BA42E202564206B48FB
:1034E4007A286D696E29203C202564206B487A284F
:1034F4007573657229203C202564206B487A286DF9
:103504006178292E0A000000504C4C205028414478
:103514004329203D202564206B487A0A00000000DE
:10352400504C4C2051285553422C205341492C20B7
:103534004932532C2043414E2C20524E472C2051CB
:1035440053504929203D202564206B487A0A000005
:10355400504C4C205228535953434C4B29203D2066
:103564002564206B487A0A000A2323232323232378
:103574002323232020EC8B9CEC8AA4ED859C20ED56
:1035840081B4EB9FAD20EC84A4ECA09520232323ED
:10359400232323232323230A0A000000EC99B8EBF6
:1035A400B68020ED81ACEBA6ACEC8AA4ED8388EC6C
:1035B4009DB420ED9884EC9EAC20EB8F99EC9E9109
:1035C400ECA491EC9DB420EC9584EB8B99EB8B8867
:1035D400EB8BA42E20EBA8BCECA08020EC99B8EBDC
:1035E400B68020ED81ACEBA6ACEC8AA4ED8388EC2C
:1035F4009D8420ED999CEC84B1ED999420ED95B4D3
:10360400ECA3BCEC84B8EC9A942E0A00ED81B4EBE4
:103614009FAD20EC868CEC8AA4203D20504C4C0AB3
:1036240000000000504C4CEC9DB420ED9884EC9EBE
:10363400AC20EB8F99EC9E91ECA491EC9DB420EC22
:103644009584EB8B99EB8B88EB8BA42E20EBA8BC99
:10365400ECA08020504C4CEC9D8420ED999CEC8493
:10366400B1ED999420ED95B4ECA3BCEC84B8EC9A3C
:10367400942E0A00ECA780ECA095EB909C20ED81A1
:10368400B4EB9FAD20EC868CEC8AA4EAB08020ECED
:103694009CA0ED9AA8ED9598ECA78020EC958AEC77
:1036A4008AB5EB8B88EB8BA42E0A000053797363E5
:1036B4006C6B20ECA3BCED8C8CEC8898EAB0802079
:1036C400ED9788EC9AA920EBB294EC9C84EBA5BC12
:1036D40020ECB488EAB3BCED9688EC8AB5EB8B8811
:1036E400EB8BA42E202564287573657229203C2059
:1036F4002564286D6178292E0A000000415042316A
:1037040020ECA3BCED8C8CEC8898EAB08020ED977B
:1037140088EC9AA920EBB294EC9C84EBA5BC20EC39
:10372400B488EAB3BCED9688EC8AB5EB8B88EB8B56
:10373400A42E202564287573657229203C202564F5
:10374400286D6178292E0A004150423220ECA3BC36
:10375400ED8C8CEC8898EAB08020ED9788EC9AA9DF
:1037640020EBB294EC9C84EBA5BC20ECB488EAB3C7
:10377400BCED9688EC8AB5EB8B88EB8BA42E2025C8
:1037840064287573657229203C202564286D61784E
:10379400292E0A00537973636C6B203D2025642025
:1037A4006B487A0A0000000041504231203D202538
:1037B40064206B487A0A000041504232203D2025A3
:0737C40064206B487A0A0043
:1037CC00B0A40040F8A4004040A500400100000057
:0C37DC00A015FFFFFFFFFFFF60EA0000E8
:04000005080003B339
:00000001FF
