:020000040800F2
:10000000D00B0020B30300081503000817030008F5
:10001000190300081B0300081D030008000000006E
:100020000000000000000000000000001F030008A6
:100030002103000800000000391200082712000800
:1000400027030008290300082B0300082D030008DC
:100050002F030008310300083303000835030008AC
:1000600037030008390300083B0300083D0300087C
:100070003F0300084103000843030008450300084C
:100080004703000800000000DD0300084B030008E0
:100090004D030008AD040008510300085303000895
:1000A00055030008F50F000859030008A90F0008C0
:1000B0005D0300085F030008610300086303000894
:1000C0006503000867030008690300086B03000864
:1000D0006D0300086F030008F510000873030008A3
:1000E0007503000877030008790300087B03000804
:1000F0007D0300087F030008810300080000000062
:1001000000000000830300080000000085030008D1
:100110008703000800000000890300088B03000823
:100120008D0300088F030008910300089303000863
:10013000950300080000000000000000970300087D
:10014000990300089B030008000000000000000065
:10015000000000000000000000000000000000009F
:100160000000000000000000000000009D030008E7
:100170009F030008000000000000000000000000D5
:1001800000000000A10300080000000000000000C3
:10019000000000000000000000000000000000005F
:1001A0000000000000000000A3030008A5030008F1
:1001B000A7030008A9030008AB0300080000000023
:1001C00000000000AD030008000000000000000077
:0801D000AF030008B1030008B1
:1001D800304931480A1A02D0072291438D462F49E7
:1001E8002F480A1A06D00722914381F30988022270
:1001F80082F314882B482C492C4A00F03AF82C48F2
:100208002C492D4A00F035F82C482D492D4A00F08C
:1002180030F82D482D492E4A00F02BF82D482E494C
:100228002E4A00F026F82E482E492F4A00F021F8D1
:100238002E482F492F4A00F01CF82F482F4900223A
:1002480000F022F82E482F49002200F01DF81F4820
:100258001F49884205D00268043003B4904703BCA4
:10026800F7E700208646EC4600200021264A904702
:10027800FEE7884207D0521A05D0037801300B7088
:100288000131013AF9D17047884202D00270013039
:10029800FAE77047D00B0020D0030020D0130020CD
:1002A800D00B002054140008000000200C0000208F
:1002B800D4030008D4030008CA1300085414000823
:1002C8000000002000000020CC130008CC13000818
:1002D800F4130008CC130008CC130008CC13000852
:1002E800F4130008F41300085414000860140008FC
:1002F800B4030020B40300200C000020B403002045
:10030800B4030020B4030020D5030008FEE7FEE78D
:10031800FEE7FEE7FEE7FEE7FEE7FEE7FEE7FEE7AD
:10032800FEE7FEE7FEE7FEE7FEE7FEE7FEE7FEE79D
:10033800FEE7FEE7FEE7FEE7FEE7FEE7FEE7FEE78D
:10034800FEE7FEE7FEE7FEE7FEE7FEE7FEE7FEE77D
:10035800FEE7FEE7FEE7FEE7FEE7FEE7FEE7FEE76D
:10036800FEE7FEE7FEE7FEE7FEE7FEE7FEE7FEE75D
:10037800FEE7FEE7FEE7FEE7FEE7FEE7FEE7FEE74D
:10038800FEE7FEE7FEE7FEE7FEE7FEE7FEE7FEE73D
:10039800FEE7FEE7FEE7FEE7FEE7FEE7FEE7FEE72D
:1003A800FEE7FEE7FEE7FEE7FEE70548854600F0C4
:1003B800BDFE044804490160FFF70ABF704700000A
:0C03C8000040002008ED00E000000008EC
:1003D40008B500F050FFFCE77047000008B502487C
:1003E40000F0A8FB08BD00BF6000002008B501466E
:1003F400014800F08FFD08BD5401002008B50146F6
:10040400014800F087FB08BD6000002038B50446B1
:100414000D4611461A46002300F00EFC04F1480074
:1004240000F034FF6564049B63620023A361E3610D
:100434006361236284F8403005F58043E3637033DD
:10044400A36305F581433033636305F583430833C0
:10045400236305F584436033E36205F58445783509
:10046400A562204638BD30B48269531C8361930071
:100474000D6844691201A55001334C68426942F881
:1004840023408C68426902EB83025460C968426964
:1004940002EB830399608269036A9A4224BF0023B2
:1004A400836130BC70470000114B5B6D13F0010F8A
:1004B40004D00F4B1B6D13F0010F00D1704710B522
:1004C4000C4C22780C4B53F822100C48FFF7CBFF4E
:1004D4002278531CDBB223700549C1F89420022B07
:1004E40001D900222270024B01221A6510BD00BFFF
:1004F400006400405C000020000000200C0000208C
:1005040000B583B0054B0093054B064A06490748DE
:10051400FFF77CFF03B05DF804FB00BFE1030008B4
:10052400F103000801040008006400400C000020EE
:10053400184B1B681848826D42F08052826501296D
:1005440012D002291ED009B10020704723F4806321
:1005540043F400730F4A1360D2F8803043F480737D
:10056400C2F880300120704723F4806343F40073A1
:10057400084A1360D2F8803023F48073C2F88030C4
:100584000120704723F4007343F48063014A13602D
:10059400012070470070004000100240074A1368B1
:1005A400D2F8800000F4807003F4C063B3F5806F68
:1005B4001ABFB0FA80F04009022070470070004072
:1005C4000F4B19700F4B03FB01F3A3F57423A3F531
:1005D40010730D4A93420ED80C4A136843F48033C7
:1005E40013600B4B11460A6812F4003F05D1013B1E
:1005F400F9D100207047002070470120704700BFE8
:10060400B403002040420F0040AEEB020010024051
:10061400A08601000E4B9868C0F38100022810D018
:10062400032811D00B4B01280CBF18460020084B9F
:100634009B68C3F30313084A52F82330B0FBF3F06A
:100644007047064B1878F2E7044B5868EFE700BF91
:10065400001002400024F400F4130008B403002046
:1006640008B5FFF7D7FF054B9B68C3F30223044A81
:1006740052F82330B0FBF3F008BD00BF0010024075
:100684003414000810B5074B9C68FFF7C3FFC4F38C
:10069400C224054B53F82430B0FBF3F0012B88BF80
:1006A400400010BD001002403414000829B1064A6D
:1006B400D36843F48033D3607047034AD36823F488
:1006C4008033D360704700BF0010024029B1064A4E
:1006D400D36843F48013D3607047034AD36823F488
:1006E4008013D360704700BF0010024029B1064A4E
:1006F400D36843F08073D3607047034AD36823F010
:100704008073D360704700BF001002402DE9F04FA2
:1007140085B00D46144601939DF838909DF83CA091
:1007240002290BD0032940F09D80554B1B6813F41C
:10073400003F00F09780534B1E7800E0102652488B
:10074400FFF72CFF012824D002282BD0C0B14F4939
:1007540001FB04F14E4B9942C0F084808B45C0F0FC
:100764008180474B9A681B6813F0007F7AD1C2F3EB
:100774008102032A76D0012E2FD9304601231DE0B1
:10078400DFF81081CDF80C80CDF80880DFF808B1CF
:10079400DDE7DFF80881CDF80C80CDF80880DFF8BC
:1007A400F8B0D4E7DFF8F880CDF80C80CDF80880F5
:1007B400DFF8F0B0CBE7013383420ED01F46B6FB1F
:1007C400F3F203FB1262002AF5D1B6FBF3FCB4FB8F
:1007D400FCF20CFB1242002AEDD17A1E0F2A41D8FA
:1007E400B6FBF7F6B4FBF6F4A4F10803772B39D87B
:1007F40001980746831EDBB21D2B33D8B9F1030FD2
:1008040030D8BAF1030F2DD8B1FBF0F0029B83422C
:1008140028D309F101067600B1FBF6F6039BB34237
:1008240020D30AF101035B00B1FBF3F1884519D32E
:100834004FEA495343EA4A6343EAC7632B4343EA13
:10084400021343EA04240E4BDC601A6842F08072FF
:100854001A6042F210730A4C226812F0007F09D128
:10086400013BF9D1074B00209860D860586005B06F
:10087400BDE8F08F034B9860DE6059600120F6E715
:1008840000100240B40300206000002040420F002A
:1008940000D8B80580D1F0080006811480FE210A32
:1008A40080BA8C010020A1072DE9F0410C461646C0
:1008B4001D46022906D0032914D0012954D0002052
:1008C400BDE8F0812E4B1B6813F4003F3DD02D4B47
:1008D40019782D4F07FB01F7FFF760FE012848D177
:1008E4002A4B08E0264B1B6813F0007F2FD0254BC2
:1008F4005F68F1E7264BB046264A52F82610B7FB4C
:10090400F1F18B4225D3244A52F82520B1FBF2F2AF
:100914009A4203D90020D3E7204BECE79DF81C2032
:100924001F4800F0A7F916498A6822F47F5222F082
:1009340033029DF81830DB0243EA052343EA081327
:100944001C4314438C600120BAE70020B8E7002060
:10095400B6E70020B4E7B0460E4B53F826301149F1
:10096400B1FBF3F1094BCEE7FFF718FE0128F2D0F3
:100974000C4F0228D0D00028BCD00020A0E700BF34
:1009840000100240B403002040420F0080FE210A00
:1009940080D1F008F41300083414000880BA8C01E4
:1009A4008C0000200024F400022908D8044AD2F85C
:1009B400883023F0405343EA0171C2F8881070472D
:1009C4000010024029B1064AD36C43F00103D364FA
:1009D4007047034AD36C23F00103D364704700BF0C
:1009E4000010024029B1064AD36C43F00203D364D9
:1009F4007047034AD36C23F00203D364704700BFEB
:100A04000010024029B1064AD36C43F00403D364B6
:100A14007047034AD36C23F00403D364704700BFC8
:100A24000010024029B1064AD36C43F00803D36492
:100A34007047034AD36C23F00803D364704700BFA4
:100A44000010024029B1064AD36C43F01003D3646A
:100A54007047034AD36C23F01003D364704700BF7C
:100A64000010024029B1064AD36C43F02003D3643A
:100A74007047034AD36C23F02003D364704700BF4C
:100A84000010024029B1064AD36C43F04003D364FA
:100A94007047034AD36C23F04003D364704700BF0C
:100AA4000010024029B1064A936D43F40033936564
:100AB4007047034A936D23F400339365704700BF76
:100AC4000010024002290CD8074BD3F8882022F4E6
:100AD4004052C3F88820D3F88820C3F88820012026
:100AE40070470020704700BF0010024002290CD854
:100AF400074BD3F8882022F44042C3F88820D3F867
:100B04008820C3F88820012070470020704700BF68
:100B14000010024029B1064A936D43F000739365B7
:100B24007047034A936D23F000739365704700BFC9
:100B34000010024008B50C4BD3F88830C3F30163AE
:100B4400012B0AD0022B0BD00BB1002008BD074BA0
:100B54001B78074800FB03F0F8E7064B1868F5E735
:100B64000548FFF77DFDF1E700100240B4030020C3
:100B740040420F00C00300206000002002290AD870
:100B8400064AD2F8883023F0407343EA0161C2F880
:100B94008810012070470020704700BF00100240F9
:100BA40002290CD8074BD3F8882022F44032C3F82A
:100BB4008820D3F88820C3F88820012070470020BB
:100BC400704700BF0010024029B1064A136E43F07B
:100BD400010313667047034A136E23F0010313667F
:100BE400704700BF0010024029B1064A136E43F457
:100BF400006313667047034A136E23F4006313669D
:100C0400704700BF001002407047704710B504469B
:100C1400002300F011F8204610BD000008B5034A77
:100C240003490448FFF7F2FF08BD00BF0F0C00089A
:100C34000D0C000864000020F8B504460F46164663
:100C44001D460C3000F022FB27606660A56020463C
:100C5400F8BD10B504460023FFF7EEFF204610BD93
:100C640008B5002211460248FFF7F3FF08BD00BF94
:100C7400780000202DE9F0470D4600241E48FFF7B8
:100C84008DFC012817D002281ED058B1AE4223D2C1
:100C9400AF422AD2A9452AD2AA452AD2A84528BFBA
:100CA40004241AE0DFF87080DFF870A0DFF8709099
:100CB400124F134EEAE7DFF86C80DFF86CA0DFF820
:100CC4006C90104F104EE1E7DFF86480C246DFF805
:100CD40064900E4F0E4ED9E700240E4A136823F099
:100CE4000F031C431460BDE8F0870124F5E70224D8
:100CF400F3E70324F1E700BF6000002000879303BB
:100D040080C3C90100990D0480CC060200366E012F
:100D1400001BB7000020024080D1F008000E270716
:100D2400804A5D0580FE210A00321B088065140696
:100D3400C0878B3B80BA8C0129B1064A136843F4FF
:100D4400807313607047034A136823F4807313603D
:100D5400704700BF0020024029B1064A136843F4DB
:100D6400806313607047034A136823F4806313603D
:100D7400704700BF0020024029B1064A136843F4BB
:100D8400007313607047034A136823F400731360FD
:100D9400704700BF0020024008B501460148FFF734
:100DA40071FE08BD6000002008B501460148FFF748
:100DB40059FE08BD6000002008B501460148FFF750
:100DC40041FE08BD6000002008B501460148FFF758
:100DD40029FE08BD6000002008B501460148FFF760
:100DE40001FE08BD6000002008B501460148FFF778
:100DF400E9FD08BD6000002070B5284D00231A46A7
:100E040027492846FFF718FF4FF090436B610024F1
:100E14002C76244E244D2346224631462846FFF79D
:100E24000BFF224B6B6101232B76214D2346224677
:100E340031462846FFF700FF1E4B6B6102232B76D9
:100E44001D4D234622461D492846FFF7F5FE1C4B3F
:100E54006B6103232B761B4D234622461A492846F1
:100E6400FFF7EAFE194B6B6104232B76184D2346DA
:100E7400224618492846FFF7DFFE174B6B6105230E
:100E84002B76164D2346224615492846FFF7D4FEF5
:100E9400144B6B6106232B7670BD00BF90000020BD
:100EA400ED0D0008DD0D0008AC0000200004004832
:100EB400C800002000080048E4000020CD0D000810
:100EC400000C004800010020BD0D0008001000487F
:100ED4001C010020AD0D000800140048380100205A
:100EE4009D0D00080018004810B504460023FFF7C4
:100EF400A3FE204610BD0000024B4FF000721A60A2
:100F0400704700BF00E100E0014B40225A60704787
:100F140000E100E0034B4FF400121A604FF480022A
:100F24001A60704700E100E008B50022114602484B
:100F3400FFF7DAFF08BD00BF5401002008B50146E1
:100F44000148FFF741FE08BD6000002010B50446CB
:100F54000023FFF771FE204610BD000008B50022F3
:100F640002490348FFF7F2FF08BD00BF410F000824
:100F74006801002008B50248FFF784FB08BD00BFE4
:100F84006000002008B501460148FFF7B5FF08BD21
:100F94005401002008B501460148FFF725FE08BDAD
:100FA40060000020704738B504460D4611461A46C5
:100FB4000023FFF741FE6561049B236500236365FD
:100FC40000200021C4E90601A365E3652366636686
:100FD400204638BD10B50446436D03B19847A36954
:100FE400E269013342F10002A361E26110BD000035
:100FF40008B5094BDB6813F0010F04D0064B1B69DD
:1010040013F0010F00D108BD034B6FF001021A6108
:101014000248FFF7DFFFF6E7002C014080010020C3
:1010240000B583B0054B0093054B064A06490748B3
:10103400FFF7B9FF03B05DF804FB00BF790F0008A8
:10104400890F0008990F0008002C0140800100203E
:1010540008B50248FFF704FB08BD00BF600000208C
:1010640008B501460148FFF74FFF08BD54010020B1
:1010740008B501460148FFF715FD08BD60000020D2
:10108400F8B504460D4616461F4600F0C7F800237F
:101094003A46314604F11400FFF7CEFD069BE362A5
:1010A400A56200232363A363E3632046F8BD036BB7
:1010B40063B110B4C26B541CC4639954C26B436BC8
:1010C4009A4224BF0023C36310BC7047704738B5ED
:1010D4000446836ADD69596AC9B2FFF7E8FF15F06F
:1010E400080F00D138BD0023A363E363FAE70000CF
:1010F40008B50248FFF7EBFF08BD00BFE801002078
:1011040000B583B0054B0093054B064A06490748D2
:10111400FFF7B6FF03B05DF804FB00BF55100008ED
:10112400651000087510000800440040E801002024
:1011340008B500F003F800F021F908BDF0B583B05C
:10114400344C00212046FFF7F3F918212046FFF71D
:1011540037FA651C00270197032600961F234FF4D6
:10116400907231462846FFF7D1FA01212846FFF74D
:101174009DFA01212846FFF7A9FA01212846FFF725
:10118400B5FA01212046FFF70FFC02212046FFF7A4
:10119400F5FC02212046FFF795FC02212046FFF7CB
:1011A400A5FC02212046FFF7FBFC21230193042325
:1011B400009305233A4631462046FFF775FB164D4A
:1011C40001212846FFF7B8FD01212846FFF7C4FD99
:1011D40001212846FFF7D0FD01212046FFF7F2FB4D
:1011E40001212046FFF7FEFB01212046FFF70AFC00
:1011F40001212046FFF716FC01212046FFF722FCBF
:1012040001212046FFF72EFC01212046FFF73AFC7E
:1012140003B0F0BD600000208C00002000220274A6
:1012240070474EF60450CEF20000016851F0805130
:1012340001607047EFF309804EF21003CEF2000311
:101244004FF000011960734620E9F80F00F022F80E
:10125400B0E8F80F80F309884EF2100CCEF2000CBF
:101264004FF00701CCF800104FF00001CCF8081043
:1012740008B400BD00BF03B44EF60450CEF2000023
:10128400016851F08051016003BC70470022026084
:101294004260704730B4304B1B88C3EBC3032F4A02
:1012A40002EB8303586072B62D4B1B8813B32A4A92
:1012B40013802C4A12780AB92B4A1360294B012255
:1012C4001A70274A0023184601335188002933D065
:1012D40022F8021B072BF6D1214A002122F8131011
:1012E40062B61D4B1B88C3EBC3031C4A02EB83038A
:1012F4001B7B33BB62B61B4B1B7833B11A4B1A688A
:10130400154B1A80174B00221A70134A13880133A5
:101314009BB213800021114801240D46C3EBC30284
:1013240000EB8202127B4AB901339BB22146072BA0
:10133400F4D921462B46F1E70346CDE709B1064A25
:101344001380054B1B88C3EBC303044A02EB8303DE
:10135400586830BC704700BF3C02002044020020A3
:101364002C020020280200204002002008B5024878
:10137400FFF78CFF08BD00BF2403002070477047AF
:1013840008B5034A0349002000F018F808BD00BF5F
:10139400AC03002083130008064B1B681F2B01D9E4
:1013A40001207047044A42F823000133014A1360C4
:1013B40000207047B00300202C03002008B5084625
:0613C400FFF7EAFF08BD7F
:1013CC0005050008210C0008650C0008FD0D00083F
:1013DC002D0F0008610F00082510000805110008EA
:0813EC007113000885130008CD
:1013F40001000000010000000100000001000000E5
:1014040001000000010000000100000001000000D4
:1014140002000000040000000800000010000000AA
:1014240040000000800000000001000000020000F5
:1014340001000000010000000100000001000000A4
:10144400020000000400000008000000100000007A
:0C145400B0A40040F8A4004040A50040F7
:04000005080003B339
:00000001FF
