:020000040800F2
:10000000A007002035020008F1010008F3010008F4
:10001000F5010008F7010008F901000800000000E0
:10002000000000000000000000000000FB010008CC
:10003000FD01000800000000211100081F11000848
:100040000302000800000000050200080702000883
:10005000090200080B0200080D0200080F02000848
:1000600000000000D90C0008E90C00081502000887
:1000700017020008190200081B0200080000000017
:10008000A10F00081F020008000000002102000864
:1000900023020008250200082702000829020008A0
:1000A0002B0200082D0200082F0200084110000852
:0400B000330200080F
:1000B400304931480A1A02D0072291438D462F490C
:1000C4002F480A1A06D00722914381F30988022295
:1000D40082F314882B482C492C4A00F03AF82C4817
:1000E4002C492D4A00F035F82C482D492D4A00F0B2
:1000F40030F82D482D492E4A00F02BF82D482E4972
:100104002E4A00F026F82E482E492F4A00F021F8F6
:100114002E482F492F4A00F01CF82F482F4900225F
:1001240000F022F82E482F49002200F01DF81F4845
:100134001F49884205D00268043003B4904703BCC9
:10014400F7E700208646EC4600200021264A904727
:10015400FEE7884207D0521A05D0037801300B70AD
:100164000131013AF9D17047884202D0027001305E
:10017400FAE77047A0070020A0030020A007002092
:10018400A0070020A4130008000000201000002095
:100194004402000844020008E4120008A413000802
:1001A4000000002000000020E4120008E41200080F
:1001B4000C130008E4120008E4120008E41200081A
:1001C4000C1300080C130008A4130008B41300084F
:1001D40098030020980300201000002098030020BA
:1001E400980300209803002045020008FEE7FEE77C
:1001F400FEE7FEE7FEE7FEE7FEE7FEE7FEE7FEE7D3
:10020400FEE7FEE7FEE7FEE7FEE7FEE7FEE7FEE7C2
:10021400FEE7FEE7FEE7FEE7FEE7FEE7FEE7FEE7B2
:10022400FEE7FEE7FEE7FEE7FEE7FEE7FEE7FEE7A2
:100234000248854600F02CFF3AE770470020002072
:1002440070B582B000F074FF174C002500950123AF
:1002540001220221200000F09EFB009501230122CF
:100264000321200000F097FB104C0121200000F036
:1002740056FB80239621200014385B000C4A890128
:1002840000F085FC0121200000F050FB094CFA2607
:10029400B600094D200000F0EEFF020033002100FB
:1002A400280000F09FFCF5E7200200205403002002
:1002B400100000200C13000840030020002906D081
:1002C400064A516980239B020B4353617047034ADA
:1002D400536903490B405361F8E7C04600100240DC
:1002E400FFFFFDFF054B996A802292020A439A623E
:1002F4009A6A03490A409A627047C0460010024055
:10030400FFFFFDFF002906D0064A51698023DB0266
:100314000B4353617047034A536903490B405361CC
:10032400F8E7C04600100240FFFFFBFF054B996A47
:100334008022D2020A439A629A6A03490A409A6264
:100344007047C04600100240FFFFFBFF002906D0A3
:10035400064A516980231B030B4353617047034AC8
:10036400536903490B405361F8E7C046001002404B
:10037400FFFFF7FF054B996A802212030A439A6232
:100384009A6A03490A409A627047C04600100240C4
:10039400FFFFF7FF002906D0064A516980235B035B
:1003A4000B4353617047034A536903490B4053613C
:1003B400F8E7C04600100240FFFFEFFF054B996AC3
:1003C400802252030A439A629A6A03490A409A6253
:1003D4007047C04600100240FFFFEFFF002906D01F
:1003E400064A51698023DB030B4353617047034A78
:1003F400536903490B405361F8E7C04600100240BB
:10040400FFFFBFFF054B996A8022D2030A439A6219
:100414009A6A03490A409A627047C0460010024033
:10042400FFFFBFFF70470000002905D0054AD369CC
:1004340002210B43D3617047024AD36902218B43E3
:10044400D361F8E70010024070477047002906D0D6
:10045400064AD16980235B050B43D3617047034A85
:10046400D36903490B40D361F8E7C046001002404A
:10047400FFFFFFEF704700000A4B19700A4A11682A
:10048400A023DB020B431360084B10008021890278
:1004940002680A4204D1013B002BF9D1002000E09C
:1004A400012070479803002000100240102700002C
:1004B40070B50E0014001D002A4B58680007800F09
:1004C400022846D0012944D80E2A42D801292CD02A
:1004D40025486043254B98423BD8691C00F0B7FE81
:1004E400234BC218234B9A4233D81E4A5168224BDD
:1004F4001940023CA404360426430E435660D36AD2
:100504000F218B431D43D562116880235B040B4389
:1005140013601A4B14008021890422680A421DD1F9
:10052400013B9BB2002BF8D113E01B689B0310D551
:10053400134B19784A01521A93019B1AD800401898
:100544008001691C00F083FE0E4BC2180E4B9A42C8
:10055400BFD90B4B00225A60002070BD084B586075
:100564000120FAE70010024000127A0000D8B80512
:1005740000DC0BFF0048E801FFFFC2FF102700006A
:1005840098030020C0BDF0FFC0F35E01074B994201
:1005940005D9074A136801210B4313607047044AC5
:1005A400136801218B431360F8E7C04600366E01DF
:1005B4000020024070B505000C00012905D0022975
:1005C4001BD0002924D0002070BD1A4B1B689B034C
:1005D4001AD5194B1E787101891B8B015B1AD8003F
:1005E400801980019200154BD15800F030FE0100B3
:1005F400134B00209942E7D811E00E4B1B689B0176
:1006040004D50D4B5868EDE70020DDE70020DBE75B
:1006140092000A4BD1580B4800F019FE0100280043
:10062400FFF7B4FF034B5968032291430C435C600A
:100634000120C9E700100240980300201C130008A1
:10064400006CDC020024F40010B5114B5B681B073E
:100654009B0F012B0FD0022B17D0002B09D00C4B72
:100664005B681B061B0F9B000A4A995800F0EFFDBC
:1006740010BD0948F3E7094B19784A01521A93014E
:100684009B1AD80040188001E9E7044B5868E6E754
:10069400001002401C1300080024F40098030020FA
:1006A40010B5FFF7D1FF054B5B685B055B0F9B0043
:1006B400034A995800F0CBFD10BDC046001002401B
:1006C4005C13000810B5084B5B685B055B0F9B006F
:1006D400064A9C58FFF7B8FF210000F0B8FD012C32
:1006E40000D9400010BDC046001002405C13000851
:1006F40010B50400002300F005F9200010BD704778
:10070400F8B504000F001600190006AB04CB1D78E1
:10071400002300F0F7F82000143000F001FD6762B8
:100724002662013DA5772000F8BD026A1368022104
:100734000B431360026A136806310B43136070475E
:10074400F0B5DE4657464E464546E0B583B0040054
:100754000D0091460193142292468244504600F0C3
:10076400E3FC002323776377280000F0C9FC06002C
:10077400A37F256AA0359F00FB189B00ED1A2A6809
:100784009046384A9346100000F0CEFC0F23BB403D
:1007940042469A433378BB4013432B60584600F0DB
:1007A400C5FC236A72689A60226A136810210B439D
:1007B4001360226A136830318B431360226A136812
:1007C40040310B431360226A136827490B401360BE
:1007D400226A136825490B401360216A0A68B389A9
:1007E4001B03C020800103402148024013430B60D7
:1007F400236A4A46DA60236A019A5A60226A1368B5
:1008040001210B43136000F0FFFC0C9BC618237FEF
:10081400002B0BD1657F002D08D100F0F5FC86423A
:1008240017D900F07CFC237F002BF3D0226A1368D5
:1008340001218B431360504600F078FC657F01234F
:100844005D40280003B0F0BCBB46B246A946A046B2
:10085400F0BD226A136801218B431360504600F0F7
:1008640065FCEEE710010020FFF3FFFFFFFCFFFF34
:10087400FFCFFFFF30B5426A136854680F25290083
:100884001940AC43214351601A0701D50122427734
:100894009B0701D00123037730BD70B5426A13680A
:1008A4001E095468F02529001940AC4321435160C6
:1008B4001B0601D501234377B30701D00123037736
:1008C40070BD000070B5416A0A68150A4C68F023CF
:1008D4001B011340064E344023434B60130501D5DE
:1008E40001234377AB0701D00123037770BDC046D2
:1008F400FFF0FFFF10B5024800F012FC10BDC04627
:1009040010010020F8B504000F0016001D000C3083
:1009140000F006FC27606660A5602000F8BD10B5F5
:100924000368002B01D00800984710BD10B5436838
:10093400002B01D00800984710BD10B50400002317
:10094400FFF7E0FF200010BD10B5040000230022D3
:100954000021FFF7D7FF200010BD0000002905D0BB
:10096400054A136810210B4313607047024A136849
:1009740010218B431360F8E70020024070B5040097
:100984000D00110004AA16780022FFF7BBFF656171
:100994002676200070BDF0B5DE4657464E464546E5
:1009A400E0B591469C4609AB1B789A4643691D689D
:1009B4004C00E4B20326A640F243B5430226A64007
:1009C40035431D604669072926D8336A8D00EDB288
:1009D400A8460F254746BD40AB430F254F463D4033
:1009E4004746BD402B4333624569AE6803236746DF
:1009F4003B40A34032401343AB6043695246002A54
:100A040021D0586801228A4002435A60F0BCBB4698
:100A1400B246A946A046F0BD0F29E5D80B00083B15
:100A2400DBB2756A9B00DBB20F279F40BD43AB4628
:100A34000F27B8464F4645462F409F403B005D4632
:100A44002B437362D0E75A680120884082435A607E
:100A5400DCE710B504000023FFF754FF200010BDAD
:100A6400704770477047704770470000024B802200
:100A740052021A607047C04600E100E070477047B8
:100A840010B504000023FFF73DFF200010BD70B532
:100A940004000D0011001A00049BFFF733FF656189
:100AA400059B23650023636500200021A061E161AB
:100AB400A365E36523666366200070BD426913681D
:100AC40001210B43136070474369586A7047000063
:100AD4000048704760EA000010B5036D984710BDE8
:100AE40070B50400FFF7F8FF6569FA21890000F08A
:100AF400AEFB0004000C0138A8626269044BD362A7
:100B0400626953626269D36801210B43D36070BD8B
:100B140060EA00004165704710B50400436D002B86
:100B240000D0984701220023A069E16912184B41C3
:100B3400A261E36110BDF8B5CE46474680B5040016
:100B44000D0016001F000AAB1B7898460BAB1B88E0
:100B5400994600F0D6FA20001430089B3A00310080
:100B6400FFF7D0FE2A0028324B464146200000F011
:100B7400CBFA0C9BE362099B2364A56200232363E5
:100B8400A363E3632000C0BCB946B046F8BDF8B522
:100B940004000D0017001E00C36A984727636663AC
:100BA400A66A290000F053FB0004000CF060A26A5E
:100BB400136808210B431360A26A136804390B43BA
:100BC4001360A26A93687C310B439360A26A136832
:100BD40060390B431360A26A13681F390B43136017
:100BE4000120F8BD10B582B00400006C002807D0C5
:100BF400009313000A002100FFF7A2FD02B010BD0C
:100C04000020FBE710B5036B002B09D0C26B541C0A
:100C1400C4639954C36B426B934201D30023C363EF
:100C240010BD70B50400836ADD69998CC9B2FFF701
:100C3400E9FF2B0700D470BD0023A363E363FAE745
:100C440010B501000148FFF70FFF10BDAC020020F2
:100C540010B501000148FFF706FF10BDAC020020EB
:100C640010B501000148FFF7FDFE10BDAC020020E5
:100C740010B501000148FFF7F4FE10BDAC020020DE
:100C840010B501000148FFF7EBFE10BDAC020020D7
:100C940070B504000A4D01002800FFF7E1FE2100B1
:100CA4002800FFF7DEFE21002800FFF7DBFE21000D
:100CB4002800FFF7D8FE21002800FFF7D5FE70BDFD
:100CC400AC02002010B501000148FFF7ABFB10BDDA
:100CD4001901002010B50248FFF7CCFD10BDC04635
:100CE4003001002010B5044C2000FFF7D6FD200091
:100CF400FFF7E8FD10BDC0468001002010B582B0AA
:100D04001C4A1D491D48FFF7F3FC1D4C01230193A8
:100D14001C4B009300231C4A21001C48FFF7F0FCE5
:100D2400022301931A4B009300231A4A21001A4804
:100D3400FFF7E6FC03230193184B00930023184AA2
:100D440021001848FFF7DCFC04230193164B0093A1
:100D54000023164A21001648FFF7D2FC052301930D
:100D6400144B00930023144A21001448FFF7C8FCD5
:100D740002B010BD950C0008C90C00081C0100202D
:100D840000000240850C00080800024030010020E9
:100D9400750C00081C00024058010020650C000876
:100DA4003000024080010020550C0008440002403D
:100DB400A8010020450C000858000240D001002082
:100DC40010B501000148FFF75AFE10BDAC02002027
:100DD40010B5034A00210348FFF7AFFD10BDC0461C
:100DE400C50D0008F801002010B50248FFF7ACFD5E
:100DF40010BDC0460C02002010B50248FFF702FBEC
:100E040010BDC0461901002010B501000148FFF7CC
:100E1400E5FA10BD1901002010B50248FFF7CEFA1B
:100E240010BDC0461901002010B501000148FFF7AC
:100E3400B1FA10BD1901002010B50248FFF79AFA63
:100E440010BDC0461901002010B50248FFF76EFA24
:100E540010BDC0461901002010B501000148FFF77C
:100E640051FA10BD1901002010B50248FFF73AFAF3
:100E740010BDC0461901002010B501000148FFF75C
:100E84001DFA10BD1901002010B582B09021002375
:100E94000093144B144AC9051448FFF76FFD144C12
:100EA40001230093134B220013491448FFF766FDF6
:100EB40002230093124B220012491348FFF75EFDF0
:100EC40003230093114B124A12491348FFF756FDAE
:100ED40005230093114B124A12491348FFF74EFDA4
:100EE40002B010BD6D0E00087D0E00082002002027
:100EF4005D0E00084D0E0008000400483C0200206E
:100F04003D0E000800080048580200201D0E00088D
:100F14002D0E0008000C004874020020FD0D00088E
:100F24000D0E0008001400489002002010B50022A5
:100F340000210248FFF78DFD10BDC046AC02002021
:100F440010B501000148FFF795FA10BD1901002002
:100F540010B5002202490348FFF792FD10BDC046B8
:100F6400450F0008C00200207047000010B5024879
:100F7400FFF7A8FB10BDC0461801002010B5010002
:100F84000148FFF773FD10BDAC02002010B501004D
:100F94000148FFF749FA10BD1901002010B5084BAC
:100FA400DB68DB0703D5064B1B69DB0700D410BDE8
:100FB400034B022252421A610248FFF7ADFDF6E7E5
:100FC40000040040D802002000B583B0054B019313
:100FD400054B0093054B064A06490748FFF757FDA2
:100FE40003B000BD710F00086D0F0008810F0008E9
:100FF400910F000800040040D802002010B50248F8
:10100400FFF74EFB10BDC0461801002010B5024882
:10101400FFF71BFA10BDC0461901002010B50100EE
:101024000148FFF72BFD10BDAC02002010B50100F4
:101034000148FFF709FA10BD1901002010B5024854
:10104400FFF7EFFD10BDC0464003002000B587B098
:10105400084B04930023039308330293064B019334
:10106400064B0093064B074A07490848FFF763FD00
:1010740007B000BD0110000858010020111000083D
:1010840021100008311000080038014040030020FE
:1010940010B500F001F810BD30B583B0164C012135
:1010A4002000FFF7D3F9651E08212800FFF7E4F9B3
:1010B4000023062201212800FFF7FAF900230093F8
:1010C400002202212800FFF775FA01210B48FFF7DF
:1010D40045FC01212000FFF7F1F801212000FFF772
:1010E40011F901212000FFF731F901212000FFF758
:1010F40051F903B030BDC046190100200C02002094
:10110400704700230374704710B501240474017000
:10111400417042608260838110BD704770477047A0
:10112400002303604360704700207047704700004D
:1011340010B500F049F8144C01212000FFF7EFFB33
:101144002000FFF7DCFA01212000FFF7EFFB0F4836
:10115400FFF7EBFA0E48FFF7E8FA0E48FFF7E5FA57
:101164000D48FFF7E2FA0D48FFF7DFFA01210C48BA
:10117400FFF7D5FB0B4C01212000FFF7D0FB012129
:101184002000FFF7D3FB10BD1C010020300100201C
:101194005801002080010020A8010020D001002077
:1011A400C0020020F801002030B505490548026856
:1011B40000230C684D6812196B410A604B6030BD06
:1011C400080000200000002010B50C4C0121200074
:1011D400FFF7A5FB2000FFF783FC2000FFF778FC56
:1011E400074B186007492000FFF794FC01212000F9
:1011F400FFF79CFB2000FFF761FC10BDD802002024
:1012040000000020AD11000810B50C48FFF75CFC8D
:101214000B4B1B68C0180B4B00225C68002C04D1DC
:10122400944205D11B68834202D9074B1B68C0183E
:10123400044B186000225A6010BDC046D80200203A
:10124400080000208803002000000020FEE70A00B8
:101254000FD00300400800E052008242FCD9002075
:1012640000E05208934200D39B1A40418A42F8D1CD
:10127400704700207047411C02780130002AFBD1DE
:10128400401A70470FB410B5FFF7E0FF10BC08BC5C
:1012940004B01847024B1868BFF35B8F7047C04611
:1012A4009003002010B580470148FFF7EBFF10BD05
:1012B4007C13000810B5FFF7EDFFFFF7F3FF10BD37
:1012C400034B044A1A60044B044A1A607047C04630
:1012D400900300205112000894030020B912000862
:1012E400F9080008010D0008D50D0008ED0D0008EF
:1012F4008D0E0008310F0008550F0008CD0F0008AF
:0813040051100008C512000899
:10130C0068656C6C6F20776F726C6421210A0D001C
:10131C0001000000010000000100000001000000BD
:10132C0001000000010000000100000001000000AD
:10133C000200000004000000080000001000000083
:10134C0040000000800000000001000000020000CE
:10135C00010000000100000001000000010000007D
:10136C000200000004000000080000001000000053
:10137C007465726D696E6174655F68616E646C65CD
:10138C007220756E65787065637465646C79207213
:08139C00657475726E65640052
:1013A40060EA000000000000A015FFFFFFFFFFFF40
:0400000508000235B8
:00000001FF
